:10000000009000201D6D0000AB7E00009B7A000078
:100010000F7C00000F7C00000F7C00000F7C0000B4
:100020000F7C00000F7C00000F7C00000F7C0000A4
:100030000F7C00000F7C00000F7C00000F7C000094
:100040000F7C00000F7C00000F7C00000F7C000084
:100050000F7C00000F7C00000F7C00000F7C000074
:100060000F7C00000F7C00000F7C00000F7C000064
:100070000F7C00000F7C00000F7C00000F7C000054
:0C0080000F7C00000F7C00000F7C0000D3
:10009000F0B595B00F91064635300C90371D012113
:1000A00088030D92104000220790002815460E96F6
:1000B0000B9700D15CE11091FC4AFD4C314626467D
:1000C000143600272784B7734123E75477754320FC
:1000D00027542774A771F7754620275447202754C3
:1000E000E7833776908BA083E7858A6BCD6B002DF5
:1000F0000DD06888C1064F0F002A0AD1002F14D1F5
:1001000003218902084010D10121002715E0002AAF
:100110000BD0107A022808D20021002D0DD0002823
:100120000BD168880005800F07D00B9A1078590210
:1001300040181080022500F06FFF0391089305928C
:1001400007F03EFA049007F0E5FEDA49C8780F2878
:100150000ED00C980078C0070AD007F0BDFC1098AC
:1001600040050A9007F07AFE0A9807F0A9FDD149E8
:10017000088800220990002810460A9222D00B46D7
:100180000C980178880710461CD54807C00F1979CC
:1001900041402D20069021540999C7488181D98872
:1001A0004181197A018199780C9A1278D208D20784
:1001B000520C51180A9A0698205C000308431099C3
:1001C00009024018BC490882002D06D00B9800781F
:1001D000012804D10E98036A05E00B9F46E007F062
:1001E00043FE0A9A03466888C107069301D06968EE
:1001F0000691099900290AD00C990978890706D532
:100200002846099307F056F8099B0A9A68888007E0
:1002100008D418460699099307F068FE099B0A9AC4
:1002200000281DD0002F02D0022108461AE028899C
:100230000699091861616888A04A0240501E8241EF
:10024000727403980028109A0B9F0FD1184607F07C
:10025000B1FB400A0328109A08D304200A9A03E04D
:100260000C2086210B9F2970202160540E9D286B45
:100270000992114602F064FA3020385C06F08AFCDC
:10028000002802D0089840026CE006F09FFE2D6C1A
:10029000002D1FD08A48C0688A49086000276F7007
:1002A0007F21A9702878C00720D1C8430A9107F0A0
:1002B0009FFD7E48878647878787C786C78782498D
:1002C0000F8007870A98E870AF60EF602F61AF82F8
:1002D0000B9F23E07F20C04307F08AFD0020734975
:1002E000888648878887C886C8871BE0E8787F2883
:1002F00000D1C8430B9F40B207F07AFD28896B49B3
:10030000888668894887A8898887E889C886A88AEE
:10031000C887288A6C4A1080688A08872878022152
:100320000140480809996071002911D00E982030C9
:1003300011AA0A92AAC8AAC20B9F60691190727C86
:1003400001210A98049B05F08FFE0621317303E01A
:100350000E98049905F0B8FD10285449059D00D267
:100360008DE0000239780143398002250E9E099AFA
:100370000121C80506900A914805089003210C0246
:1003800078780002A04201D000F00EFE059109929B
:100390001095474B0D9FF8020CD5187C002809D00A
:1003A000801E4242424100201874D868214604F061
:1003B0004DFE3F4B7803019400D40DE1F56BD87FDF
:1003C000002809D0002D07D0297802294BD83120E8
:1003D000287007F0CDFDEEE02027D85D012836D14A
:1003E000002D34D007F040FD06466888C10732462C
:1003F00000D06A680599084001280CD130461146A2
:1004000004973746164607F071FD32463E46049F74
:10041000002800D186E0264B987F002875D0022462
:100420002C7024480088002809D00C980078800798
:1004300005D528460C9206F03DFF0C9A1C4B6888A7
:10044000C106490F00D193E0DC550E9EC2E0462163
:10045000595C00294AD000280D9F00D0BCE0022042
:10046000E1490860B8E02026995D06292ED80228C7
:1004700000D196E0032800D09DE0392492E0002DC1
:100480004BD000270F85284602F0ACFA102850D335
:100490000B9F3988BA78120489180002D34A114098
:1004A00008433880080CB8705FE7C0460620094052
:1004B0004C0C0020FCA70000A820094002100000FE
:1004C000E40D00205020094046200940CA1F022A9E
:1004D00071D8C74A9288520771D403286BD1092971
:1004E00069D1392028700C20985564E04720185CA9
:1004F00001280D9F70D1996B30468847002802D0A3
:10050000069807F031FDBB4B66E068880005800F58
:1005100085D0822028700C2008E007F015F9208093
:1005200000F00AFE862028700C20B24BD8550E9E93
:1005300051E007F009F92080002D01D100F0FCFD09
:1005400006F0C8FF06F074FE6080A760284607F03A
:1005500091F806F057FE0998002801D000F0ECFD54
:10056000F07C002801D100F0D4FDA34800F0D2FDBA
:100570002989511859611A4614321C469F4B18405C
:10058000431E98415074304607F014FA019988428E
:100590001CD20520E05506F06DFB0A9892490860D0
:1005A00016E0352405F03CFC2C700C20914B98553E
:1005B00000200990019C0020D8770E9E0CE00328B3
:1005C000F9D10A98884908609871F4E70420E05549
:1005D0000E9E2346019C0D9F780608D50A9807F0C9
:1005E000C3FC2120195C012901D102211954F8030F
:1005F00005D5B06B002802D007F03CF87D4B804851
:10060000007800280FD078020DD52120185C002832
:1006100009D0184614300A994175007B002802D190
:100620000220714908607748C07802900F2808D0EE
:100630000F980899084204D00A996B4801602C2051
:10064000195418461430017B0490407B04290CD1C6
:1006500002280AD158696C49401821460A9A04F0C8
:10066000F5FC00281ED10B201DE00025022920D119
:1006700002281ED1F76B78680C907E8807F0F4FB97
:10068000002504990D74FC78059A1440012C00D8BB
:100690000124CC73F1075DD1564B58610A9D0E9E23
:1006A0000D9F03E0052005900025524B2020059961
:1006B00019540A9800050390B80502D5187C012842
:1006C00008D00F98039908420CD007F09DFB494BC6
:1006D0007F2807D02020185C032803D105F0A0FB59
:1006E000444B02E0002D00D1AEE0F76B7888032187
:1006F00039703F49898800290ED02424185D0028CC
:1007000005D0039807F0CCFA3A4B00201855122078
:10071000387007F02DFC97E0C006440F042C01D17F
:1007200000258BE007F070FB064624257F28314A20
:1007300029D1505D002826D1012004990874506900
:100740000521090244187888800570D4039807F0C1
:10075000B7FA6DE0019940180C9907F0C7FB002823
:1007600058D00520000260432849411800250C9C00
:1007700020462A4604F06AFC1E4B5C6100280E9E4F
:100780000D9F93D195E730467F38414241410C910E
:10079000039807F085FA0020009516494855012274
:1007A000B95605918E42154600DA05461849C988A2
:1007B0007B881B065B0F994200D80246601E062804
:1007C0000C9C00D99AE114434000C04678448088CC
:1007D0004000874433000600810193019301930197
:1007E0008D0125462AE0C04630100840FF00FF007A
:1007F000502009404C0C002002280000021000008C
:100800003DA80000FCA7000000FDFFFF00FEFFFF69
:10081000A820094005980640012E0C9800D03BE71F
:10082000862038700C2005900E9EEB4B38E7546103
:100830000025204601992A4604F008FC2420FC4BA0
:10084000185C00280E9E26D00F98000707D522209E
:1008500001211954402000211954432019540F98A4
:1008600040060B9F42D5402007F01AFAF04B20209B
:10087000195C09293AD1EF498988CA0707D1CA0604
:100880001FD4F26B0907490F2AD015212BE0F16B19
:1008900014220A7028E0002D00D038E75869049A25
:1008A000D17B491ED173090600D100E1052109025F
:1008B000441800222046019904F0C8FBDC4B5C611F
:1008C000C2E726229A5C002A05D028229A5C002AD8
:1008D00001D00A2109E0F26B890603D5432102E029
:1008E000802100E0102111700C2119540F9840074D
:1008F00010D54720185C002808D0996B30468847EF
:10090000002806D0069807F02FFB02E0042007F02D
:10091000C7F9C74B01240F9880040CD5600307F07A
:10092000BFF9C34B2020195C082904D1F16B1022B8
:100930000A700C211954C049E0030C90421C0F9816
:1009400000921042059419D00888002504994D732F
:10095000097B072915D0052923D158690499497CB9
:100960001C4607F033F8032841D106F02FFB202066
:10097000062121540A9809902346D2E000200290D3
:10098000E4E00F99214042D11979032970D10299ED
:100990000F296FD02C21595C00296BD00320C00295
:1009A0006CE0083902290CD8FC280AD19A79002A6F
:1009B00007D0F06B3921017007F0DAFA00259D713C
:1009C000AFE0029A0F2A28D19C490988002932D029
:1009D0002F21595C00292ED0FC282CD19849097C64
:1009E000490762D52921595C002932D127E0F16BF2
:1009F000087020210C22625401463139092923460E
:100A000000D98EE0397800020818388039E0F06BA0
:100A10001021017007F0ACFA7FE02C229A5C0229C9
:100A200033D8002A31D0FC282FD1F06B1821017067
:100A300007F09EFA75E02921595C002903D146216F
:100A4000595C002905D0072803D17D49097F490752
:100A50002BD5197902240329109A58D10F990C9B90
:100A6000194034D1072851D1022004F0A1FC30E014
:100A7000080203E005F0AAF96D4B00023978014342
:100A80003980022007F070FA4BE0002A9CD0FC2845
:100A90009AD16B49097C490796D420061099091808
:100AA000109122201D5443201D540A9D39E0052138
:100AB00011733989401858617888C004C00F507488
:100AC00006F0D8F85A4B01205E490860BCE605F0F4
:100AD0007DF9109A01461AE0012500229942284624
:100AE00000D8104605998E4200DA15460543A5E662
:100AF0000598864200DB01E3002500E34C4B00989B
:100B0000185C00280E9E00D09EE600E610212243CD
:100B100010923878090240183880032000BF00BFC7
:100B2000434B4720185C002808D0996B3046884713
:100B3000002802D0069807F017FA3D4B02952C20AA
:100B400000211954089807F089F9394B3E48001DD7
:100B50000D9901424AD041241D5D002D46D0FF2D44
:100B60000CD12220195C491E012918D81E21354AB2
:100B70001160422103225A541A5435E02226985D0E
:100B8000012810D140229F5C9869002F11D10028C4
:100B90000FD0018882290BD8491D8F0809E0422017
:100BA0000221195420E04220022119540E9E1BE01C
:100BB0000027AF4212D3002810D02449096B8908BE
:100BC0008D4200D88AE21E201E490860422003217F
:100BD0001954995505E0C0464C0C002042200421D0
:100BE00019549F540E9E0B9F0020185509980028F9
:100BF00053D0174CF56B03272F700A9805F01CFB98
:100C00003046072611490E60816BA01C0024002984
:100C10000CD069880A05920F054B1DD02720185C5F
:100C200000280B4800D00B480A9C1FE0004B1DE039
:100C30004C0C0020A820094006200940FCA7000019
:100C4000E40D002030100840FCFF0100A011084016
:100C50000208000002280000890407D4F04909882E
:100C60000029DBD02E21595C0029D7D00D94FD49F5
:100C70004885EC68002C0AD02088401D8108FA487D
:100C8000006B8008814200D8E8E0842000E08320E7
:100C9000287007F06DF90E9E0B9F059801020F98C2
:100CA0000140079104D10F988006800F00D181E0A8
:100CB000B06B00287ED0EC48C76A10200F990090D6
:100CC00001400991042F6CD300200C9006F0C6F966
:100CD00085B26C1D2646E5480640BE425AD8E44F10
:100CE000B868314605F010FD3B46074698688742D4
:100CF00003D0082007F038F99F60002F4BD0222046
:100D00000D90185C002807D0032805D043201E54FE
:100D1000D548C06844215852A108F8893C181034BD
:100D2000204604F081FFF8898019F8810E9EB06B8F
:100D300006F0A0FCCE4B2020195C0A2919D1152100
:100D4000079A002A11D0032D0FD3A31CA2789B1859
:100D50001B792A25C64F7D5DAB42C54B05D1A11835
:100D60000979C906009900D54321F26B11700C2155
:100D70001954042007F0F8F8BB48C76A09980028FE
:100D80000D9A02D1985C03289CD10C999954432068
:100D9000195497E7F24B85201871F84805990160BE
:100DA0000E9E0B9F5879002804D0306CEF4907F055
:100DB0004DF9EB4B092040020F9901420FD0B06B67
:100DC00000280CD0222000211954432019545879AE
:100DD000002804D0306CE54907F038F9E04B2024B6
:100DE000185D0C282CD1FF200002398801400198A1
:100DF0008142109D00D093E037460598C6043543E4
:100E0000039806F04DFFF86B418889041AD40E99B7
:100E1000896B002916D02121D14B5A5C0020002A71
:100E200072D0D04A1288002A0E9E0B9F5DD02E22CF
:100E30009A5C002A59D0D149059A0A602F2161E0B5
:100E4000109D6DE02121C64B595C0078002923D00C
:100E50001871CA48059901600B2057E0204605F03B
:100E6000C5F96888410510D4C249891E0842049911
:100E700000D1D7E06889B94A1085887C00280B9F8B
:100E8000B74B00D1F6E00120F5E0A0782188021DE3
:100E90008A420CD900200CE00B9F39780002081818
:100EA0003880B01C109D054300200E9E30E00019D4
:100EB00080790E9EAA4B6989A84A11850499897C7C
:100EC000002903D0059C21020B9F02E039020B9FF1
:100ED000059C0918A44A11800921049A1173907580
:100EE0000C9841300C902046D0E046229A5C10923B
:100EF00029239B4AD35C109A13431A0600D0F8E0CA
:100F00000222974B5A5403E00A9902910E9E0B9FBE
:100F100018555879002803D0306C944907F096F89A
:100F20000298002840D006F051F88D4A4620115C06
:100F300000290AD000211154B06B01F053FD102894
:100F400001D306F026FF06980543A8072CD406F027
:100F500027FF032805D10498C07C002804D08648C8
:100F600003E006F016FF1FE082487C494885002414
:100F70000C857D4804800B2081490860306B214638
:100F800005F024FE049844757548C485204605F094
:100F900053F906F04DFE1D2078490860039806F0CD
:100FA0005DFF059804994873A80735D56C48202142
:100FB000415C00290AD0F16B002904D00A780F2A7D
:100FC00001D87A780A700A99C9040D434621415C18
:100FD000002901D006990D432B21415C002904D042
:100FE000818F694A1160C08F506006F0F5F806F0F5
:100FF0005FFD06F067FD06F0F5FE5A480088002800
:1010000001D006F005FE089806F04AFE06F050FCF6
:10101000306C564907F01AF8284615B0F0BDC046A6
:10102000FCA7000000204D4908854F4908800E9913
:10103000896B00290B9F4A4B0DD0698889040AD41B
:1010400050490C9147490A880821002A06D02E22CF
:101050009A5C002A02D03146009A0C9220229954C0
:101060000E9E13E006200940A0110840FCFF01007D
:101070004C0C0020052000020E9E3B4908800920F0
:10108000049908730C9841300C9000202821585482
:101090000798002807D1306B0A9905F097FD2920A1
:1010A00000212F4A11540C9C204606F0D7FE204602
:1010B00006F006FE2D48C068286106F0B9FD022042
:1010C00000BF00BF1C202D4908600D980028244B4C
:1010D00000D1E2E5212001211954DEE50D922946D7
:1010E00005F084F842207F1B0CD01D4B0599195444
:1010F0000DE00221214A1160194B09E70125254025
:10110000FFF79CFB0027164B1F54022098550D9AA1
:1011100067E518481149144A48850F85178006F07D
:1011200087FD022000BF00BF14481D210160109FF1
:10113000380506F093FE77730B9F3888B978090459
:1011400040180B49084003210A0202433A80000C70
:10115000B87021710025FFF709F9C0460620094043
:101160004C0C0020FCA70000A8200940E40D002042
:10117000FF00FF00020800000228000030100840B5
:10118000A011084001A000001C21084000B5DBB000
:10119000012034A91391119041070F200F9006F000
:1011A00075FEA34806F0FCFCA249487D002814D136
:1011B000119848750A20A04C214606F067FE0920C8
:1011C000214606F063FE9D48826A9D498A4200D00E
:1011D0008162426A8A4200D0416206F091FC994ED7
:1011E000306C002800D089E0924FB86CF96C3490D4
:1011F000359134A90120239008700024204606F080
:101200002CFC786405F0A2FB8F4D9049904812C5E4
:101210002860083D28460C302427394606F018FE81
:101220008C4828636C63AC63EC632C648A4A8B48FB
:101230004B2109058A4B11C2116054609460D36040
:10124000083A104618301426314606F001FE854D46
:101250007E482860EC717E48A86028460C303946EC
:1012600006F0F6FD7B4828636C63AC63EC632C648A
:1012700079487B49C16207462C373030314606F049
:10128000E7FD499448944794469446AE3046103062
:101290007549182206F090FE744828223146694E9E
:1012A00006F08AFEAC71AC80714806F071FE716C7C
:1012B0006E4806F073FB6F486F494122D2012A61E4
:1012C0006961A8616948A8632F642C20624B195C8E
:1012D00002220A431A5465490C614C6108460D46C6
:1012E0001D300B2106F0B4FDAC61239828722B2031
:1012F00028776248624904F0C5FF306413981230C1
:10130000139051481024214604F0B4FD55481B9415
:10131000214604F0AFFD5B4846905B4F38460C30E9
:1013200046AC04251A9006F068FE3846103006F0E8
:1013300064FE052010903876544870630D957572E0
:1013400053485449544A416082601198394988751C
:10135000524D29464C3100243022204605F09AFA9D
:10136000E86C411C12D0B0720320F072686F708379
:10137000454C6C34294660311022204606F03EFB75
:1013800074637020285C3073707202E0748144488A
:1013900070837D20C000149046A8811C0891011D17
:1013A00009910146143107911830069028A801468A
:1013B00014311591014612311291014610310A91F2
:1013C00008300B90139808300C901A4820300E907B
:1013D000264F2F4DF07A032801D100F023FD002085
:1013E0000221239022910E9A01F0FAFE01242C7022
:1013F000284868602848A860F17A880001A212583D
:10140000E0B2974619140000EB140000DB14000052
:101410001F1D00001F1D0000401E064C4000C0465E
:1014200078448088400087443D003801C300DB00D9
:1014300075A600002013002002400560280A002045
:10144000897700002C1200201C0D002001200000D4
:101450009100000000726F913411002000BA6211F7
:1014600000007F7FD80C0020E8A60000A40D00201B
:1014700060040020CD50000017000800F80A00208A
:10148000A0A70000ACADACABB8100020B0A7000026
:10149000540B0020B8A5000020A80000B0110020C7
:1014A000FFFF0000287CA9684A7942435A3AAA7390
:1014B0004879E873B07A28740020687406F0AAFAB4
:1014C000A874F748401C0A24F64906F0BBFDF4480E
:1014D0000470F54C04F00CFA15E2012846D00228FD
:1014E000F14C00D00FE200F01EFC042800D1A5E072
:1014F000032868D00128EC4C00D004E201201E90A3
:10150000E873B07A287423996974A87401F038FFDD
:1015100069681D903490887D0028239A02D08A69DA
:10152000501E82411F92087F002823982090DF4A96
:1015300003D00B6A581E834120932420085C0028A6
:1015400023981C9003D08B6A581E83411C93E02083
:101550006875887CA87513200B460956E975219398
:10156000187D002900D5B4E00323B4E00124EC7316
:10157000B07AA87401F004FF0246E22068752B4699
:1015800015336868A968057DC94EB67CC94F7F8B45
:10159000897900940196C74E0297C34CC64F0391B8
:1015A0002399049103212940C14D02F06FF8AAE16B
:1015B000E87C002800D0F8E30124204603F010F86E
:1015C000EC74B94C9DE1E87C002800D0E9E30124EB
:1015D000204603F005F8EC7405F00CF8B24C92E1EB
:1015E000B64A1078001FC1B210700A2900D28AE1F1
:1015F000B2498878000249784018B149884200D041
:1016000081E1AE494879000209794018AD49884224
:1016100000D078E1A949C879000289794018A94920
:10162000884200D06FE1A548007A0D2800D06AE119
:10163000A248407AF32800D065E1BEE39F4C2078B1
:1016400020900020182804D028A900220A54401C09
:10165000F8E7611C0222159821911E9206F0CEF93E
:10166000E07828A98875261D4696487D0007850FD5
:1016700029D046A90222129806F0C0F9A11D469170
:10168000022D26463DD124A846A906F0CAFC0836FC
:101690004696249828A9088038E0E87B401EE87325
:1016A000000600D12FE1687C401C687406F0B2F996
:1016B000A874A87B401CA87304F01AF9E87B0128E1
:1016C00000D020E11DE128A87E494182002101804F
:1016D0001CE028760D9B810711D0746B2199087C42
:1016E0000028199425D0022800D09AE3091D46A8A5
:1016F00004221C4606F082F923466C4A1BE021991D
:1017000044E028A806F004FB0E364696664C28A84E
:10171000457D402D00D243E128A8007D400600D53C
:1017200029E146A902220A9806F068F9B61C4696F5
:1017300024E1C86846901893ED181795153516954D
:101740001046143046AC042506F057FC1B98009058
:101750001A980190E64821462A46199C234602F031
:1017600037FB009016980190E14821461B9A1A9B7E
:1017700002F0B2FC46901798253046A92A4606F09A
:101780003DF9189B14332199087D474C40B200283D
:101790000AD54748C018153034A904221D4606F062
:1017A0002DF92B4621992B1D0846C97C407D490700
:1017B00001D41D4603E05D1C3D49C9184875C107A9
:1017C00009D03B48401915300222219906F016F93C
:1017D000AD1C2198407D810701D4219909E034484E
:1017E000401915302199891C06F01BFC2199AD1C6C
:1017F000487D1F9A400713D5002A00D10FE38A7D48
:1018000089691046EBB22A4CE3185A756D1C020622
:1018100004D0401E4B1C0A781946F3E7224C21994C
:10182000487D000753D520980028119800D11C98B6
:10183000002800D1F4E2886A00260028374602D04A
:10184000084624300778086A002800D00E7F30460A
:101850000B460F990840390140186C1CE9B2144A34
:1018600051184875196A30060AD0761EE0B2104A3F
:10187000101815308D1C06F0D4FBA41C2946F2E785
:101880002198816A0B4E0A4A38061DD07F1EE0B2AD
:10189000101815308D1C06F0C4FBA41C2946F2E775
:1018A000A8090020F2A7000020130020B810002093
:1018B000540B00202C120020A40D00202809002029
:1018C00001080000FFFF000025468A4C8A4FE9B25C
:1018D000782900D3A2E2894D68682190AA68AB7C80
:1018E0002046748B927900910193029404460392EE
:1018F0001E9804902B461533002121981D9A01F063
:10190000C5FE04F077FE05F035FE307C012812D0CC
:10191000307D002808D0E87C002810D1386806F017
:1019200047FB00203075EEE7A07B0128EBD105F0E6
:1019300019FD03241DE000203074229C19E00021D1
:10194000384603F06FFAF0630424002811D0317D8B
:10195000002901D0491E3175C11CC278121DC27008
:10196000D2B2674F384606F049F83878801E387092
:10197000614F2C7040E528A8418A0182C0200540B3
:10198000802D08D124A846A906F04BFBB61C24984C
:1019900028A9088104E00B98314606F0B9F9083609
:1019A000564D2199721A28A8C2751F92D0B2095CAF
:1019B0003C220A400C2A534EA5D1219A121848B253
:1019C00034A9887300281C9203D4511C1D91002354
:1019D00002E05378911C1D9134ADEB7303211A463C
:1019E0000A402A741D460543AD07109D00D001250D
:1019F000209C1F9EA71BC4B2E4099B0804261E401E
:101A0000A3195B19FCB2A3423A4C3E4E3B4D3A4FF0
:101A100000D978E7002A07D01D99022A02D1087858
:101A2000491C0AE0002008E008401D9971D0002000
:101A3000139AD07090705070107034AA5074D07B8C
:101A4000C006800F01D0012808D134A8407B0023B4
:101A50000C9AD37093705370107006E004220C98A7
:101A60001D9105F0CBFF1D99091D34A8807B4322F1
:101A70000240012A04D134A8C37B40221A43C27316
:101A80001C98081A1D90000600D13CE734A8027C7F
:101A9000022A06D128A90822139805F0AFFF34A81E
:101AA000027C6868017C8A4200D02CE7022A1992E5
:101AB00038D0002A0ED1C068139B19785A781202C8
:101AC00051189A781204DB781B069A18511888422C
:101AD00000D018E734A81D9AC277C07BC006800FDB
:101AE000D2B2C0467844007940008744980D2D5802
:101AF0008FA7000020130020A40D0020540B00200D
:101B0000280900202C120020D8490878801E08706F
:101B100085E00422139805F071FF1D99091D34A872
:101B2000027C7AE7417C34AA527C914200D0EAE6FA
:101B3000001D00210829CDD0425C139B5B5C9A42BA
:101B400000D0E0E6491CF5E706F015F91C9EB11837
:101B50001891C0B21F90091824A8209206F063FAC9
:101B60000C9A107851780902081891780904D278F3
:101B700012065118081846A91E9A00920190029167
:101B800030461899B34E209A1F9B03F0A7FD249965
:101B9000B64B1A78121F1A70884240D0B3E606F08E
:101BA000EAF81C998E18C0B21E90311830A8209205
:101BB00006F039FA05F0DAFE107A537A1B0218188B
:101BC000937A1C04D37A1B061B191B18309C24A87B
:101BD000019046A81F900090199803F0CDFF9D48F2
:101BE000406B169000949A4C1796019631461E9EB3
:101BF00032461F9B02F070FA189000961F980190D1
:101C0000944E16981C99209A179B02F0E1F8974A77
:101C10001178091F11701899814200D073E61C9841
:101C20001D994018219A801AC0B2115CF02900D089
:101C300069E614180020102804D024A9FF220A54B1
:101C4000401CF8E7A61C607846A90870C10706D0BA
:101C50000222089806F0F8F9261D46A800787C4C68
:101C6000810706D51022099806F0EEF9103646A82D
:101C70000078410706D50422079806F0E5F9361DDD
:101C800046A80078C10607D5810705D5400703D5CA
:101C90000422069806F0D8F96968C87CC2066F4A23
:101CA0006C4E06D546AA1278D20700D12BE646AA7A
:101CB0005288097D890700D1A1E0800600D48CE01C
:101CC00046A80078810700D487E0400700D487E069
:101CD0001F9205F04BFE4C9B4B9D2FA8219001902D
:101CE00030AE0096199803F047FF28AC0095019498
:101CF0005F4809991B9D2A46334602F0EDF9209072
:101D00000095019604225A482199234602F060F872
:101D1000209981426CD04F4E514D4D4CF3E5022934
:101D200008D2C82507E0297D239A00920320134694
:101D300002F06AFD32254C4814994D43066802F0C2
:101D4000A9FE2C46633C4B48844200D3494C75198C
:101D500046AF002638463146324603F0B5FE299696
:101D60000120239028902A9734A8229028AB42493A
:101D7000224604F063FCF143384602F0EDFC229861
:101D800005F08CFE38490868A842FCD335482399F1
:101D90000170149805F092FC2E4E314D2E4FFFF736
:101DA00019FB06F02DF9EC74BBE706F029F9EC7489
:101DB000287C401CB072F472B3E72C48807A0F99EB
:101DC00008400B30287505F0CDFA06F019F9EC74CF
:101DD000287DB0720120F072A3E71446716B01E018
:101DE0001446099924A8102205F008FE224606E0B0
:101DF00024A828A9102205F001FE194D1F9A46A813
:101E000000784309297D0092022024AA02F0FCFCFC
:101E100006F0F6F8EC7405F0A5FA82E7FEE7FEE7B7
:101E2000FEE7FEE7154805F0BBFE154C0A34164EDA
:101E30000C4D012706213846224601F0D1F9114800
:101E400005F0AEFE2F70304605F038FCF1E7C046D5
:101E5000201300202C120020A40D0020FFFF000002
:101E6000540B00200F3302400421024028090020B7
:101E70008FA70000FFFFBFFFE17F00002FA700003A
:101E8000D81300200CA6000088130000F0B591B014
:101E900006920891079005F059FBEFF3108572B692
:101EA000A24C2078002815D100260D96F0430E9004
:101EB0000DAB1E729E4844309E4A192103F03CFA35
:101EC0009D480127394605F0C9FC9C48314605F07C
:101ED000C5FC2770002D02D1EFF3108062B604F02C
:101EE000F7F9974800254564492101244454EFF34C
:101EF000108172B63922835C002B07D0002902D1F1
:101F0000EFF3108062B68F480563FEE704948454B3
:101F1000002902D1EFF3108162B60146203104227C
:101F20000A7605628D76CD760D77112003F0FAFEE4
:101F300005951026304603F0F5FE824F824838633F
:101F400009AD0220287007980A900B967F4C204616
:101F5000089906F06AF80D950E947D480F90089642
:101F60001096059E3F6B2878082802D0022800D0E2
:101F70007DE0F2433D68EFF3108172B6E87E002801
:101F8000144602D1049BEB763446002902D1EFF3CC
:101F9000108162B6002817D0002C68D16C4910223D
:101FA000069805F02BFD6748006B00280BD00068F1
:101FB0004676112003F08CFE102003F089FE05F018
:101FC000DDF811B0F0BDFEE701922C4628346078B0
:101FD000002809D02968584802F0BEFB002801D02B
:101FE000EE7644E00498A8760DA828620498207044
:101FF000281D039009AA02920797039F1BCA1BC7BB
:102000006E6102980078079F022830D13C68514DDC
:10201000A1682846403002F0F3FE4F48E861207E78
:10202000109D042818D0102D16D378680178EFF38E
:10203000108072B63E4A494B9364D764002802D19F
:10204000EFF3108062B6192005F0DEFB0498400221
:1020500043490860109D207E0E9B0F99042801D0F3
:102060000F2D05D82A09184602F0A6FE37E0FEE734
:102070003848C2690498039101068A433549CA6108
:10208000384A0A61029304F0EBFE049820773C463C
:10209000AF0835488168354A1140354A8918816052
:1020A0002C4D2A46143202993B4604F037F9314947
:1020B00008980860304881682C4A11402F4A8918D6
:1020C000816029461831039A3B46274604F026F9D9
:1020D0002020284908602A480821016029603F68BB
:1020E000387E042803D0396AC9680F2915D87C695D
:1020F0002820385C032800D0FE76384603F08CFC9C
:10210000387E012800D047E7384628303A6A7D6A91
:10211000037807982146A84740E7022800D03DE70A
:102120000648019902F018FB7C6935E77F1400200E
:102130003411002053790000AC0B0020FC0B002070
:10214000B01100202C12002008A800005007002029
:10215000F007002010000C40280000014D5700003F
:1021600000E100E02102020040040020F73FFC00F3
:10217000008000EA2860024050040020008000AE89
:1021800004010C40F0B587B00446B34E05F020FFC3
:102190000746B24847822078069004281DD3268D32
:1021A000B004850F28012838B8421EDDC01B0590F9
:1021B000B1068A0F0A2104914A43A94B2946984740
:1021C0000090B005820F0498424305982946A44B1D
:1021D000984704900322324023E000270497019798
:1021E00003970597384602975FE0B50B29017D20DC
:1021F000484087421BDD381A059031068A0F0A21B4
:1022000004914A432946964B984700903005820F27
:102210000498424305982946914B9847049030070B
:10222000820F059829468E4B9847019003E00020C5
:10223000049001900090E36A19070A17394619398A
:102240004A43854EB58CED070DD11D032D171E0297
:1022500036176943C911891905917F4E18171B015B
:102260001917029109E01D062D171B051B1769435D
:10227000C911C918059100200290D1110391069946
:10228000082911D322462B32222F10DD1278130792
:102290009B0F9209233F15467D436D0010356E0953
:1022A0005F4310377F0917E0009F228A42E0102F1A
:1022B00021DA1278032313409206920F0F25ED1BAB
:1022C00016466E43674F774367497E1876165D431F
:1022D000664F6F437D186F1605256B435B086A4395
:1022E000964200DB1646F2179F4200DB1F469643DC
:1022F000FA17974301E000263746228A93049B0E83
:1023000015062D17282159408B19EE1B3F2B00D3A2
:102310003F230721CD43AE42009F00DC2E465449A7
:102320000A403101C9B251181B020B430521CA02F0
:102330005A40494E4F4B196F11431967617B7F25F6
:102340002940402251407B187F2B00D32B467189B6
:102350001E020127BF037E400E433F494E813E4E81
:10236000B1895B187F2B00D32B4631891B027B4040
:102370000B433381E77B2F400499002908D0574055
:102380007F187F2F05463B4B00D37F27574001E046
:102390000546384BD96E3A020A43DA66E18A4906A5
:1023A0000A0F0B2A06D801988018318842180C2A87
:1023B00000D30C2230347088824200D80246186E56
:1023C000D10001431966002020560221C9438842EA
:1023D00001DB024600E0421D0699042900D00246B6
:1023E000F08B0399081880181860B08CC00722D1B0
:1023F000308C2946029F394301D102461AE00F244E
:10240000024622400306002F05D0D219D1178A4375
:102410000F2A00D322461B0F002D05D05B19D917B8
:102420008B430F2B00D30F23FF21884310431A0146
:102430000243104B1A61708C059A002A09D0C1B270
:102440008918CA179143FF22FF2900D311469043F0
:102450000843586107B0F0BD2068094028140020E7
:10246000C56D00008EE33800FFFFFF00C7711C0040
:102470000FC0000088300840F0B587B00022002867
:1024800000D148E1A74B40C8340C5D1C2E42059199
:1024900007D00D8831462646AE43B4420E460AD0D8
:1024A00039E1002C03D18C78002C04D133E10D8864
:1024B0002C4200D12FE11E400322002E00D12AE140
:1024C000B10A00D027E1984909680191FF2400254D
:1024D0002F460495002E00D11AE1002D11D102C81B
:1024E0000A46924B1A40551C0A04140F0A0C761E19
:1024F0000B2C6ED80121A1408D4B194269D08D491A
:1025000057180B2C00D909E1A10001A251588F46A0
:10251000492500005F2500004125000041250000FD
:10252000AF2500005F250000412500004125000087
:10253000492500004125000041250000C925000073
:10254000B90729460FD0E1E0B90700D0DEE03A46EE
:10255000002D00D1CDE0002102C26D1EF8E7F90781
:1025600000D0D3E069088E4200D2D3E00691002962
:1025700000D1AAE0611E0A2900D9BEE0069BC04630
:102580007944097949008F443F05669F2C05529F85
:1025900061058100029699007A18002B03D002C8C9
:1025A00002C75B1EF9E7069BED1A17468BE0F90799
:1025B00000D0ABE023463946002D07D08A1C00240A
:1025C0000C806D1E1146F7E7F907BAE7049D1C461B
:1025D00080E7082C00D28EE0092C00D18FE0A90002
:1025E0008EE00294344699007A181E46002E06D0DA
:1025F00002C80B0C39807B80761E3F1DF6E7069BD8
:1026000059006D1A17463EE00296D90079180391D9
:10261000002B07D002C80A0C89B239607A605B1EB1
:102620000837F5E7069B59006D1A039F4BE00294AB
:10263000344601210A041E46002E22D001681142B0
:1026400064D1001D0B0CD953761EF5E73860ED1AE6
:102650009900401838E0029434460121090403919E
:102660001E46002E0DD002C80A0C8B039B0F04D00F
:10267000039B19424AD1D15301E089B2D151761E50
:10268000EFE7069BED1A2646029C1DE0029605998F
:102690008E789900791800911A460396002A10D076
:1026A00002C8002E01D089B208E00B0C26463C6817
:1026B0009C4389B221433446039E069B02C7521EA7
:1026C000ECE7ED1A009F029EF61A012D00D001E7FB
:1026D0000125042221461143052900D0FAE6002EE7
:1026E00019D00188052C01D1398000E03960001D26
:1026F000761E049DEEE6104902E7069BE4E70421FE
:102700008918019B99420BD80C49F9E6062202E090
:10271000049A00E00422104607B0F0BD0522FAE753
:102720000722F8E7FF3F000034A80000FF0F000079
:102730000F0800000000084000000940780E00204B
:10274000F0B58DB09A4A12680029069201D09168BE
:1027500001E006CA8918471A05F0BAFA064605F0DC
:102760005BFC864238460FD0380CB9B2320CB3B29B
:1027700004465C430D46554364195943090C6118DE
:10278000890942439002081804908A4B8A4C8B4A6C
:102790008B483818401C000C01210291C9072160A8
:1027A00060601880506801058D0EC0023C46C70D60
:1027B0002046294604F016FF0646BD4203D02046B7
:1027C000394604F00FFF7F4D7F4F000430437B49B3
:1027D0004864086801900594204604F027FC0646EA
:1027E000286840016968C904C90E0B186968AD6999
:1027F0007C1C1F222A406806800F0394254202D1C8
:102800002D06ED0F4019029C5A43704B9A4200D896
:102810000024CDB21746E7409A4201D8042100E0D7
:102820000321401800900924674330463F30800957
:102830006843000C04F0C6F80A28029405D30A384D
:1028400075430099091885400CE00A21091A201ADD
:10285000012282409619CE4075438E400098411A5D
:1028600000D5A1E08F405A4807604560059804995B
:10287000814203D0084604F0D9FB0646019B98002C
:10288000C0B270434D4AD0639809FC2101407143A6
:1028900011645048069D029F0168C907FCD1464853
:1028A00084686868214604F0A9FB424E7080A868DD
:1028B000214604F0A3FBB0802868C11702464A40B5
:1028C000511A203189096143083109094F433D4EAE
:1028D000B169039A114201D0002101E00906C90F34
:1028E0001622521A15234B4001210591994079185F
:1028F000D140002800DD494237480840F060F065CB
:102900002E69002E4ED02001E9680A0B42432E4B5F
:102910000B404343180B8018376830493940C20BCD
:102920004A435208264B03404B43180C841810347A
:10293000200C04F047F87B0C1821C91A00229142A0
:1029400004D007AF0025BD54521CF8E70821081A2F
:102950006109C2179043059A9204824004461334D9
:102960005B42351D002B09D02E784E43B618E64049
:1029700007AFFF183E765B1C6D1CF3E700210F4C80
:10298000182905D007AA525863185A62091DF7E79B
:10299000032800D3032012490A6830239A43000118
:1029A000104308600DB0F0BD4842C7405BE7C04629
:1029B000780E00201A680940183508408034084015
:1029C000FF7F0000D4200840FF0F00001CC7711CCF
:1029D000A82408402C320840FF030000FFFF01003C
:1029E00040310840F0B58DB0824A834EFF21090284
:1029F0000C9101210191017A804B9977029111800C
:102A00000390817A2B229B5C002910D0002B0ED1E1
:102A1000336871680124794DAC54AB87E9870C9811
:102A200003407F2213430140114333600BE05A42BD
:102A30005A410029019900D11146002904D16F4A59
:102A4000918F3160D18F71606A4803464E335630A2
:102A50000B9000216A4C0D4600910298814200D1F2
:102A60009EE008940A931820099148430399081896
:102A7000028B07955F494919CA85428B0A8602690C
:102A8000436932240A5136228B50027F5606B30F17
:102A90001B02D400802525405B1994002025254089
:102AA0005C1907252A40042A12D8C0467A441279B4
:102AB000520097441102090B0400042207E0062289
:102AC0001443019A009203E0142200E054221443BC
:102AD000002E01D5019A00924C87426A8221002A79
:102AE00000D084E0076A002F44D03D68402D7ED896
:102AF00028460F30010906970C371020461B059514
:102B00000B9A0491002917D0102D02D30020C04346
:102B100002E00C98FF30F0403C46083C248804401A
:102B20001346083B1C803B8803401380491EBF1C92
:102B3000921C1036103DE5E7049A50002D4F3918CD
:102B400056310A9B089C079D059E042A09D2084617
:102B500008381746002202800A803A467A1C891CEF
:102B6000F3E7069A14322046002E0ED002CA02C0A5
:102B7000761EF9E7E8430A9B089C079D002804D0CD
:102B8000191800220A81801CF8E710350999491CA0
:102B90000B9810300B9001200002241810335CE7D2
:102BA0000398C17A154814308174002901D0164960
:102BB00000E014490F4A51800399497AC1741348BF
:102BC00005F06EF80D494879002801D0124806E05A
:102BD000888BC008C0430E4901430E480840009945
:102BE000C90701D00D49084305F06AF803210846DA
:102BF0000DB0F0BD362009401C2108404C0C0020CF
:102C0000042209400B0B00000F0F0000B9930000D5
:102C10000181000031810000B19100001812000014
:102C2000F0B587B07A490C68002C21D0A088000448
:102C3000000F00D0E9E0012042020192049000025E
:102C40000590E06803908D6800268E6004F09EFF7A
:102C5000009003F063F9401E042818D878440079E6
:102C60004000874402120E100B00049880030DE010
:102C700069486A49742200BF00BFC6E00498400555
:102C800004E0059802E0019800E040200543211D82
:102C9000032002900702384680300542069110D08A
:102CA000487800020199884240D105F08DF93D42F3
:102CB000069E1DD00198564B28400FD01846103064
:102CC0000EE0680432D5534FBA7879680398806D66
:102CD000814216D07860511E8A4113E018461C309C
:102CE0000078182101401879E72202405018187125
:102CF000012002F05DFB31780002081830800226C6
:102D000014E00846618800F08BF8002804D005F034
:102D100016F80226002001E000260220B870F8789C
:102D2000002803D105F0F1F80498F870069840786F
:102D3000FE210140881E0D2805D8A3682046009971
:102D40002A4698470646F00709D001F0D7FF002829
:102D500005D001462E480068012200F0DDFD0F2756
:102D600080220599294030041BD5019205912948FC
:102D7000827840682649098D00F052F8002805D075
:102D800004F0DDFF02200643002000E0022021497C
:102D900088701F4800680499890403F077FB05993F
:102DA000019A38031540002901D1069F06E0069FCD
:102DB0003988014202D1049989020E43002D05D0C1
:102DC0003988014202D10499C9020E436169029A0D
:102DD00092020A43324003994B6D13434B65398885
:102DE00001400B4311D000290DD004F0DDFC05F0AB
:102DF000E7F804F045FF074CE078002803D005F021
:102E00007FF80020E07005F094F807B0F0BDC046F0
:102E1000E40D00209C0E00206BA7000011A4000010
:102E2000F0B585B01746039105466A4E7168006893
:102E3000814208D0684903F097FA04462868706018
:102E4000002C02D0C3E0002FF4D0B1686868814242
:102E500008D0624903F088FA04466868B060002C24
:102E600002D0B4E0002FF4D0F168A868814208D005
:102E70005B4903F079FA0446A868F060002C02D0A0
:102E8000A5E0002FF4D0E86800280ED0308A039A1D
:102E9000831A591E8B41012F00D802230193022F60
:102EA00006D3904204D1002421E00020019034E0B8
:102EB0000024022F01D3214600E00121328204A820
:102EC00005F095F80420E7430295E9680A687F1C3D
:102ED0009742E8D23546061D085804A9414AFFF733
:102EE000CBFA0446002830462E46029DEDD03E48DF
:102EF0007F2101603D48682101803D480F2101820A
:102F00003C480078002806D03B490A688243337861
:102F1000034013430B60002C59D138480168002945
:102F200032D085680198012830D002284BD1002486
:102F3000002D4CD032484268AB8813434360026B8B
:102F4000EB8813430363021F13682E891E43166028
:102F500002686B8913430360026A6B8A134303623E
:102F6000426AAB8A134343626A8E274B1A60006839
:102F70007F22520202401E480280284602F050FC86
:102F80002846FFF7FFF822E0082420E0002D1DD09E
:102F90001B48C26907239A43C2610269194B134057
:102FA000036142697F235B029A434261002484618A
:102FB0000268F0239A430260284602F031FC28465A
:102FC00003F01CFA03E0284603F018FA0024204618
:102FD00005B0F0BD28140020000009400040094061
:102FE00000600940FF3F00001C32084008200940F3
:102FF000366809408D14002014110840780E002016
:10300000B43008400383FFFFF0200840F0B585B0DE
:103010000026F5436E4B9969491C00D1D4E0049019
:10302000DF6AF8064FD438061BD51846183002F070
:10303000C9FF674BDF6A052040028743DF6298695A
:1030400000280ED409280CD8C00062490A58002A6A
:1030500007D0D369081840680021022298475C4BCA
:10306000DF6AB80604D4780602D520200743DF6261
:10307000D86900282CD10420384029D19869401CF7
:1030800000D19FE003203840012800D8012007210B
:103090008F433F18DF62FF240234204600F078FDA2
:1030A0004B4BD861002800D188E00146401C082223
:1030B0001743DF620919D86118625962464A474BC3
:1030C0009362434B06E0012080020743DF627BE00E
:1030D000186A596A03919962049934468A5D761C8C
:1030E000002AFAD10195072102910F40042F10D137
:1030F000002526460499002E57D098694919324672
:103100001F4604F00FFA002851D44519361A3B46E1
:10311000F0E703990D1A2146049F002945D0A942E2
:1031200003910E4600D32E46D96A029A1140022915
:10313000049513D1002D08D0324639460B780A2B5E
:1031400006D0491C521EF9D108E000252E4606E0A3
:10315000002903D0C91B4E1C012500E0002539467B
:10316000324604F029FF1A4B186A80191862BF19F9
:103170000399891B002D049D01D1AD1BCDD10E46B5
:103180003D46184618301F4602F01CFF00280ED19D
:10319000386A796A091A0491F96A20220A43FA62A4
:1031A0003B462F46049D3146B7E725460CE0F86ABA
:1031B000012189020143F962019D05E0012080029D
:1031C0000743DF62586A9862284605B0F0BDC046E2
:1031D000C00E0020881300202013002085740000FA
:1031E000F0B5A3B00E4621A90880002A00D1A1E0C5
:1031F000144608ADA0202870681C21A904F011FF16
:10320000ED1C771C2E467F1E00D194E00222304632
:10321000214604F0F3FBA078B070F51CA179E279A7
:1032200012025118227A1204637A1B069A18511856
:103230000246083A422A00D934E0C0467A4412795C
:103240005200974421252A3A7070705E2170707088
:103250007070707021252A3A7070707021252A3A9A
:103260007051707021252A3A70517070212570704C
:1032700070707070703A7070707070707056563FE9
:10328000707070703F703F000878F070351D4AE034
:10329000022204F0EFFE751D45E0032204F0EAFE71
:1032A000B51D40E0E22808D0F0282AD0F1283AD114
:1032B000102204F0DFFE133627E0042204F0DAFEC9
:1032C000F51D30E022AB00221A804328079101D07F
:1032D00048281CD122AE0222304604F08FFB3088F1
:1032E0002449884218D11EE0062204F0C3FE0936A4
:1032F0000BE0002917D00878FF2814D0461C284678
:103300000EE0082204F0B6FE0B3635460BE022A88C
:1033100004F087FE22988000801C86B22846079918
:1033200004F083FEAD190A3408A8281A642800D2D4
:1033300068E7FEE7FEE708AC371B0F4DA87A079059
:10334000688B069000F01CF8024600260321F8B2B4
:10335000009007980190069802AB43C307482346A4
:1033600000F094F904F006F9287C0128FAD12E74B3
:1033700023B0F0BDFFFF00002C120020B8A5000014
:10338000FEB500251A262846314603F0E3FC074621
:103390005C4800897B21090188424AD9002F2946CF
:1033A0001CD46C2420467843683080B21B210191E4
:1033B00003F0D0FC0028294610D480B201994F4375
:1033C0003F187C435B204001201803F0C3FC002819
:1033D000294603D480B20199794309180091F0433A
:1033E0000190484880680004800C461E284604F07E
:1033F00085F80746304604F081F8411C1AD1424A4C
:10340000974217D1721B062A14D3A81944082046E4
:1034100004F074F8421C3C4F00D00746002A2146B5
:1034200000D03146002A00D0254601981A300E46B9
:10343000E3E7FEE700290CD0002812D002F070FB71
:1034400010E03148874206D16D1C284604F056F83A
:103450000746B542F5D3002F0BD0384602F060FB8B
:1034600008E02020009D341801204002844203D14E
:1034700004E020202C18009D002C35D5214804891B
:1034800003F0DCFA00280CD0292161431F4CA06B0B
:103490001C4A128903689B689847A06B01680968F9
:1034A0008847A9B25B20400103F05CFD1B21284640
:1034B00003F0D0F904460198604340191A2811D14D
:1034C000A1B2682003F04EFD1B21204603F0C2F993
:1034D0001A2907D10E49284603F0BCF981B2002011
:1034E00003F040FD6D1C0024074802900548008948
:1034F00029214143A000081802A903F04DFD6802EC
:103500000019FEBDB8100020FFFFFF7F2C12002025
:10351000D9020000F0B585B000F02AFF03F0D2F820
:103520004C480168012421430160EFF3108072B61A
:1035300049490A78012A05D1002846D1EFF31080C5
:1035400062B642E00C70002802D1EFF3108062B640
:103550001920C5430026304602F0E4FB029602AB78
:103560001C722846193003903D483E4A152101F04F
:10357000E3FE33463C483D490096002D20D00E68BE
:10358000002E19D42F461A37B2070BD42246BA4060
:103590001343019332462240304B5F19D623FA542D
:1035A000019B06E0720704D52246BA40009F1743EC
:1035B00000972F4A164006606D1C001D091DDCE7B0
:1035C0002C4803602548009901602B4D2320000101
:1035D000019002F07DFE2948411C0091284A0626F0
:1035E0003046904700272F70204604F0FDFC2C70D9
:1035F000019804F0F9FC30460099214EB0471220A2
:103600001E49B0470D201D49B0470C201D49B04749
:103610002F703E462F73072E0BD807207040B9211C
:10362000C1402140E9712C73082004F0DDFC761CB8
:10363000F0E72C7001988C3004F0D6FC124C062078
:10364000A0471220A0470D20A0470C20A04705B09E
:10365000F0BDC046140000408814002044300240F1
:103660002C0E0020B56A0000003100408CA4000040
:10367000F8FFFF7F003502400631024000040020C1
:103680008D7E000002200460D5680000F0B58FB088
:103690001E460A91074616980DA90880484D0992C2
:1036A000EA70281D022404F0CDFC0CA945480880CE
:1036B000A81D04F0C7FC387C00280ED002280BD1CE
:1036C000681C414904F0ADFC391D28460830082229
:1036D00004F094F90F2005E0FEE7681C3B4904F074
:1036E000A0FC07200790281809990E918C214170A1
:1036F000397C07230A9A9407354A527A032A01D85B
:10370000002500E00125189A1940E30E0A9C002CC0
:10371000089601D1254600E06D01441C561EB241B9
:103720009201D218511829438170387C002806D0A4
:10373000022803D1787CA070032507E0FEE7A01CD7
:103740000C370422394604F059F9062517980690DB
:1037500015980590149F0A9E002E1CD060190EA982
:103760000422049204F04AF92A1D07988018C5190A
:103770000096099801900294204608993B4601F072
:10378000ADFF0B90681C0E4E80190BA9049A04F033
:1037900035F9281D0AE007984019441C084E3019D5
:1037A00008993A4604F02AF9E019401E307005984D
:1037B00040B202F0FBFE069804F0FCF90FB0F0BD39
:1037C000A8090020FFFF000038A8000006A800009C
:1037D0002C120020F0B589B01F4605460620C643CE
:1037E000AC6858186368984201D9F61C87E00194C8
:1037F000029103920E9C4348C06AB11D009100F0F3
:10380000ABFFE007059406D1234601980068A107A5
:103810000ED4029C2EE03B4C217A002900D03A497C
:103820000A463A40C8432379002B11D1134612E0CF
:10383000029C01193A46039B002A1AD01C780D7885
:1038400025405B1C491C521EAC42029CF4D052E045
:103850000123DB02D318384200D01A4602980140F7
:10386000A86801F0B3F90646002845D10198006820
:10387000029C059B02193C4603990497002C24D016
:10388000082C274600D30827EFF31080089072B663
:103890001E4B1D68002018601D4806681D480691D3
:1038A00007923B46B04719490D600899002902D19B
:1038B000EFF3108162B600281CD1E41B0699C919E8
:1038C000079AD219049F059BD8E70026580712D5FE
:1038D00001980068029940180A4C002F0CD0039BF5
:1038E000197802785B1C0393401C7F1E9142F4D030
:1038F000009E01E0009E034CE06A02F0EBFD3046C2
:1039000009B0F0BD2C12002000F8FFFF2444024053
:103910006000000F8FA0E3B7F8B516460F460546C6
:1039200004F05AFA01462C1D6879002800D183E082
:103930000F2800D980E0002F7ED0012800911ED1F1
:1039400004F074FA0125284601F032FD21780002C6
:10395000081820803B4E3046103004F0C2FA03288D
:103960001DD1306800281AD0317C490705D436496A
:103970000D60317C04220A433274690259E0032F3E
:103980003DD0022F24D0012F4CD12E480179B2070F
:10399000D20EE7230B4099180171802148E0304690
:1039A0001C3004F09EFA0228009945D130680028A6
:1039B00042D0317F490709D4317C490706D42249D6
:1039C00002220A60317F04220A433277290230E062
:1039D000012001021B48027FB307DB0EE7261640D9
:1039E000F3180377520723D4027C520720D4164AD7
:1039F00002231360027F04231343037718E001229C
:103A000051021048037CB607F60EE7271F40BE1987
:103A100006745B070CD40C4B1A60027C042313431E
:103A2000037405E009480A490A4A00BF00BF0021A3
:103A3000284602F02BFD0099084604F079F96078D9
:103A4000F8BDC046E40D00203010084028A8000052
:103A500011A40000A1030000F8B514460E46074665
:103A600004F0BAF9009004F0FFF90546002C04D0E8
:103A7000C835012C05D12E460BE04248C5602E46C4
:103A800018E0A81B3E49884201D9354601E0022CC6
:103A900061D13C48C560284603F008FD04F0E4F914
:103AA000401B3749884205D837483849AD22520073
:103AB00000BF00BF002F2DD0324C20794007800F6F
:103AC00028D1B868F968002905D08A196261227C7A
:103AD0000123134323744218012A00DC0122002829
:103AE00000D40246002900D10246012A05DB9019C4
:103AF0002062207F0121014321772046103001F010
:103B0000CFFC20461C3001F0CBFC2079F92101408C
:103B1000881C20711B48017C4A0718D4C906890FEC
:103B20000BD0012902D00146183101E001461431C1
:103B30000968691A124A914209D9017F4A0718D4C3
:103B4000C906890F11D0012909D0243008E004F0FA
:103B500066FA032010E004F062FA8620F8BD2030F7
:103B60000068281A0649884203D904F058FA03204D
:103B7000F8BD04F054FA022001F01AFCF8BDC0466A
:103B8000FFFFFF1FE40D0020F4A4000010A30000BD
:103B9000FEB5002805D045490024072903D825464D
:103BA00003E0002480E00D46083D85427CD302946A
:103BB000C71D07203E4A1378002B0BD1012309298A
:103BC00001D2002103E03B4900248C600D603A4C97
:103BD0002160137001958743374E3568002D37D02B
:103BE0002E46083629460F3181438E4213D00A46AD
:103BF000083A2B4610339A4200D81A46521A0F320E
:103C0000C3431340CC182968012291437118E2196B
:103C10009142E2D305E0296801229143B942DCDBFD
:103C20003446284603F036FEB44213D0A01B0838B1
:103C300029680122D3431940091A286018402C181A
:103C400011430839A1600834284603F05FFB02E005
:103C5000029C29E02C46216801260846B043C21B7D
:103C6000102A1ED3E319083A9A600833251808353C
:103C700010480199401885420FD22878C0070CD10E
:103C80002846029303F006FE029B1868F1430840A1
:103C90002A680A40801808301860184603F036FB7E
:103CA00039463143216008342046FEBD000400003F
:103CB0009014002000000020B80E0020F0B585B060
:103CC00004460668701C7BD06769204602F07AF9CA
:103CD000002875D1012001900503207D000707D53C
:103CE0006068401E00F06CFA6069082188436061DA
:103CF0002F4000256560A560E5602068002814D489
:103D0000092812D8C0002F4A115800290DD01018C8
:103D10000969009040688847401C06D0009B1868DD
:103D20004189019A914341811D60E8432060002F41
:103D300046D03001244908180746397800291CD09C
:103D40003A2901D07F1CF8E7204E002F36D0391ACF
:103D50000191082901DB082101910090874213D0CD
:103D600002AB0199009A1478581C1C70002C06D0E4
:103D7000521C491E0346F6D106E0144E1EE00229ED
:103D800002D3491E04F064F802A801994554007852
:103D900000280CD028240D4E782C08D0351902A903
:103DA000284601F0CDF8002803D02834F4E7009825
:103DB00004E0002D009801D0781C2E46316A884717
:103DC00005B0F0BD88130020B0060020A41200202A
:103DD000F0B587B001931646039106900C9C0D999F
:103DE0003E4D3C2049222A542F463C3728463D3040
:103DF0000D2203F003FE00200290B8730094FC73C0
:103E00002A462C320698059739460492FEF73EF86A
:103E1000300A6876AE760E27002E28D0E81B2930AF
:103E2000BE4208D9039C21463A4603F0E7FDE41957
:103E30000394F61B0CE0039904F0F7F8F01B00283C
:103E400005D02918292200238B54401CF7E7029E35
:103E500029461931049C2046059F3A4603F008FE86
:103E6000069839462246FEF711F81027D4E7019943
:103E7000009B049F059E102B10D3384632460D46FA
:103E80001C4603F0F5FD069831463A46FDF7FEFF65
:103E900023462946114D1031103BECE7002B19D079
:103EA0000020102804D02C1800226276401CF8E76D
:103EB0002E46193630461A4603F0A0FD049C2046D3
:103EC0003146059E324603F0D3FD06983146224620
:103ED000FDF7DCFFE86A07B0F0BDC046B81000206F
:103EE000F8B503F0A9FF00280BD00546C168364C91
:103EF00020462A4600F0D4FB03F09EFF854204D002
:103F0000F8BD042000BF00BFF8BD2068002809D01C
:103F100080880004000FF3D02C482D492D4A00BFA3
:103F200000BFF8BD2879002824D003F09DFF296A3E
:103F300003F040FD064603F079FF201D282103F021
:103F400087FF2560286903F0CBFEE9682268224FCD
:103F5000384602F02EFA214886421ADBFD20C100C5
:103F6000D720C600B878022819D2002823D0E868E4
:103F7000806D1AE003F05AFF201D282103F068FF2E
:103F80002560286903F0ACFEE9682268124802F057
:103F900010FA20680121890302F078FAF8BDE86878
:103FA000806D7A689042354600D00D4602F0D6FD0D
:103FB000002801D102E00D46751978352068006AA5
:103FC000401B03F0C3F8F8BDE40D00203BA5000042
:103FD00011A40000250200009C0E0020214E0000CC
:103FE000F8B50D4604463248002787800762314BFA
:103FF0005888314901400126300308185880002CA8
:1040000005D12E48C7732E4847650776DF602B49D8
:10401000487C002800D0F8BD3346C87B28490028DA
:1040200005D1486D002802D18A754C650D76254E64
:10403000304639461A4600932B4602F0A7FE204927
:104040008864A91C0170401C03F0D7FF1C4844651C
:10405000057603F07BFA174C27700C36E660009D5E
:10406000207D022101432175144EF57303F086F87B
:10407000307C002808D060881349014061801348D3
:10408000214601F063F8F8BD1148124B6A03084954
:104090000A614B61886120461430CC6308646088F3
:1040A000104360800648006C02F0B4FBF8BDC046C7
:1040B0001C0D002034110020FFEB00002013002015
:1040C0002C12002090080020FFDF0000D80C0020F8
:1040D000CD50000012000800F0B587B001930692A1
:1040E000049102900D9A0C9800900120039006987C
:1040F0001028059223D35C200121304E31543546DF
:104100005C35304603F050FF039C200AA873EC7323
:104110004C3602982946069F049D3246FDF7B6FEAE
:1041200030462946059E324603F0A2FC3246103541
:1041300004951032103F0697641C0394D7E7069845
:10414000002825D05C2501201C4E705534465C3477
:10415000304603F029FF0399080AA073E1734C3637
:10416000029821463246FDF791FE0020102805D026
:104170001249091800224A55401CF7E720460499C5
:10418000069A03F03BFC30462146059A03F070FC8A
:104190005C200121094D29542C465C34284603F04B
:1041A00003FF0020E0812A464C3202982146FDF7A9
:1041B0006DFEE86C0099484007B0F0BDB8100020D3
:1041C000F8B5002819D00446083C314E002231468B
:1041D0001546306801270246BA43B6180836A14290
:1041E0000A46F4D32B4B2A4A072B01D99A18083ACE
:1041F000964200D90026A14200D0F8BDC007FCD0ED
:10420000002D0AD029683940284600D00020002E11
:1042100006D100292AD100260BE0002E26D000204E
:104220003178C907314600D0002100280BD00E4656
:104230000546284603F02EFB002E08D103F08DFD25
:10424000801808300FE0002500292F460ED0304698
:1042500003F020FB002F0DD003F07FFD33680B40EF
:104260008018C018103028602C460CE0206801210E
:10427000884307E020680121C943084032680A40AA
:10428000801808302060204603F040F8F8BDC04692
:104290000000002000040000FEB5314D2C68002C09
:1042A0005DD0E768002F05D12E482F49FF2240320C
:1042B00000BF00BF03F0DEFD0290A0880004000FE5
:1042C0000DD02A6800212960D0680368934202D18A
:1042D00002C002F0FFF803F031FE03F0D9FC03F056
:1042E0007BFD7D6D6669A16901910021796503F00F
:1042F0001FFD2805800F24D003F09EFD002820D04C
:104300000746C07900281CD115480079C00718D08D
:1043100003F08CFD124A1079FE210140117103F067
:104320000DFE38790B2149024018B880BB69002B7B
:1043300007D0B88A0D49084203D000210B4A3846FD
:1043400098472E400299002901D0019B02E0002EDF
:10435000019B04D0002B02D0204632469847FEBD78
:10436000E40D0020CBA6000011A4000002200000F4
:10437000F8B524484178002941D10126467086705D
:104380002149C16221486030214A1321002423467B
:1043900000F0D2FF1F4803210160F50328460A30D0
:1043A0001D4F38601D48082101601D481D4A20210D
:1043B000234600F0C1FF1C48066086601B4806606B
:1043C0001B48C1681B4A0A40C26001680F221203E1
:1043D000914349190160184D18497D2082002846F3
:1043E000234602F02BF901F009F9284600F068FF96
:1043F000F86CF1070143F9641148102101600020B5
:10440000F8BDC046201300201545000034110020DF
:1044100045440000105402405810004000E100E004
:10442000480E0020217E00005820004060200240FD
:104430001C11004000F0FFFF940C00207D5C000088
:1044400000580040F8B52C4E01243568B560356140
:10445000280410D56004B060284801F05DF8002001
:10446000014603F061F926487065082002F0C4FC9B
:10447000204602F0E3FB234A0A272F4011D0E00335
:10448000B16BA143B163716D114071651E490A683A
:104490000F231B039A4302430A6001F0AFF8194A45
:1044A000F760280710D5EFF3108072B6B16D114098
:1044B000B165B16D521C0A43B265002802D1EFF319
:1044C000108062B60820F060104F3968002911D0C2
:1044D0002846884700280DD00020386074660C48B4
:1044E000016804220A430260102002F085FC204685
:1044F00002F0A4FBF8BDC0464C100040940C002014
:1045000011000380FFFFFF7F1C1100407414002086
:104510002C000040FEB5EFF3108572B62A49086BF7
:1045200004240440800726D402F0AEFE002843D0C5
:104530000194264A264B274807681E68002F0295DB
:1045400024D048330025EA43052D1BD03946E940E5
:10455000C9070DD019682048445D3046A040091AAB
:104560001A48814200D90021E1408A4200D30A461C
:104570006D1C1B1DE8E7002C1ED1086B40071BD4E7
:1045800030BF19E0FF20F63082420CD3134C25686F
:10459000901900F0DFF9E807029D0DD02068052191
:1045A0000143216008E001980028029D064803D1DC
:1045B000006B400700D430BF002D00D0FEBDEFF3EC
:1045C000108062B6FEBDC04620130020FFFFBFFF73
:1045D00004210240442002402FA8000010E000E027
:1045E000F8B5044602F0B2FF254D287C002C24D0FB
:1045F000002841D1234E00273775234CA78023483C
:1046000003F0C6FC716C224803F0C8F92148224926
:104610004122D20122616161A0611D48A0631F484F
:104620002C302064E87B002800D1E763306C164909
:1046300002F0F0F8707301201DE000281CD0E87B28
:10464000002819D1104C0221204603F045FC0D4EE4
:104650007073401E02280DD80120687402F08EFD90
:10466000204601F089FB707302F070FF002068742F
:10467000707BEEE70020287402F080FDF8BDC04694
:10468000201300202C120020D80C002060040020F1
:10469000A40D0020CD5000001700080034110020A8
:1046A000F8B5164604460068114603F0CBFB0546F4
:1046B000371D307900281BD003F0D6FB316A03F098
:1046C00079F9F179002913D1C72811DC7269B3692E
:1046D00038784321490240183880002B05D01C4807
:1046E000024002D000213046984703F09FFBF8BDFE
:1046F000206800282BD0002D29D003F0B5FB316AAB
:10470000144A8E18314603F0F1FB217901220A4345
:1047100022713978002908D0002806D0022D08D04F
:10472000032D14D12046103005E0206802222946CE
:104730000BE020461C30002809D0314603F0DBFB9B
:10474000002804D0014620680222FFF7E5F8F8BDF2
:1047500002200000A0F1FFFFF0B593B00D46044623
:1047600000220692049125480890099202A900921D
:104770000A752348583002F020FE681E0221C94302
:10478000884202D802A800F09BFD0120EFF31086BA
:1047900072B61C4F0190F874E068002819D1681CAB
:1047A00003D002A8007D002813D06068002800D044
:1047B0008047002E02D1EFF3108062B6387D0028CA
:1047C00003D00198B87000203875EFF3108672B6E8
:1047D000E2E7009DFD74E068002803D0E068401E19
:1047E000E06000E0FF25002E02D1EFF3108062B6FA
:1047F00002A803F053F968B213B0F0BDCB6F00000C
:104800002C12002020130020F8B5254FB972F87241
:10481000032810D0022841D11C4606987883224DE7
:104820006C351023284611461A4603F0E7F87D63DD
:104830003C737C72F8BD1B4CE16421464C31002076
:10484000042201F0A5FFF87A00280AD0401EC0B269
:104850008000001D21180122CA644C31042201F09D
:1048600097FF20466030104D6C351026294603F026
:10487000DCFB0E4B1420294632461E469847387BF7
:10488000206721467031242004252A46B047788BC2
:1048900060677434282021462A46B047F8BDC046D8
:1048A0002C120020B0110020B810002091670000E9
:1048B000F8B5014600040DD40122C8050FD400202C
:1048C000890306D51E498B6E0A2B30D120484864D7
:1048D0001046F8BD184802F0C1FD0020F8BD174B86
:1048E0001749986800281CD4174F184C2568206079
:1048F0007E1B01DC134EAE19952E12DC3E1A01D838
:10490000104E8619952E0CDC401BC5176840401BC5
:10491000952806D8081F520402600A600020206013
:10492000F8BD1402002018601A600C60F8BD520433
:104930000A238B660A60F8BD0202000000120040E4
:1049400058100040A01CE9FF60E31600701400201E
:1049500080841E80F0B589B001901F4D1F4A204809
:1049600001680127B943016010680390286C029028
:1049700004A81C49142203F01FFB1B4904200860F3
:104980003E041A4806602868194CA169019A101A59
:10499000B938C0084018A06200F068FE0190E760D6
:1049A00067652068114806601B200F490860E86BA6
:1049B0000128FCD10B4804A9142203F0FDFA029847
:1049C000286406480399016001F0C4FB042002F04A
:1049D00013FA019809B0F0BD0421024044200240BE
:1049E00010E000E04C2102404454024080E200E02C
:1049F00000200040F8B504460078C206970F022F49
:104A000003D0012F05D1221D01E02246083216688D
:104A100000E000260125002901D1E94301E002213F
:104A2000C94308402070204600F03AFD2078C006B7
:104A3000800F012810D0002811D10025002F21D08F
:104A40001348017906220A40042A1BD110308442FF
:104A50001AD002F0A9FE15E02F46241D01E02F46D2
:104A6000083420680025B0420CD0094C207906217A
:104A70000140042906D100F041F9054620683905B6
:104A800001F004FD2846F8BD03F09AFAFAE7C046A3
:104A9000E40D0020F8B51D480078002830D11C49ED
:104AA0001C480F680126066000248C60C660EFF386
:104AB000108172B6184A194B53609460002902D1D4
:104AC000EFF3108162B616491B220A604660154D4D
:104AD0002846583002F016FFEF641348381828654E
:104AE000EC810A480670EFF3108072B6296D084C0D
:104AF000666432040D4B1A60E1612965002800D01C
:104B0000F8BDEFF3108062B6F8BDC0467E140020F9
:104B10000421024054200240480E0020B54E0000FF
:104B2000445402402C120020FFFFBFFF80E200E04F
:104B3000FEB502460E063F204006864204D102F032
:104B400063FD030A040C38E01F4C00237F20002A79
:104B500033D01768002F30D049B27D292DDC7D2558
:104B60002D06AE4207D00125ED07AE4209D11079DE
:104B70005379D48821E0B8008118805C4B784C8848
:104B80001BE0042502955557A94216DB3D46171D2B
:104B900001956D1E002D05D0029EBE57B14209DB66
:104BA0003F1DF6E7019DAD00AE56B14205D1A918F3
:104BB000F0B2E3E738787B787C882104DAB212021D
:104BC0008918C0B20818FEBDFFFF0000F8B5044602
:104BD0000520204B1B7A002B00D01F4BC0431D46E5
:104BE0000D408D422BD165688D422AD913409342E6
:104BF0002CD15318AB4229D820684118174C002AF1
:104C000021D00092EFF3108772B626680020206052
:104C10001348026813480D4690472660002F02D1C2
:104C2000EFF3108162B60028009A0CD1294609489A
:104C30000079431E9841C0024119121ADFE7401C57
:104C4000F8BD801CF8BD002A01D11046F8BD002037
:104C5000C043F8BD2C12002000F8FFFF244402409E
:104C60005800000F8FA0E3B7FEB50C4605460F2095
:104C7000C043102D00D208304019102D01D31C4F15
:104C800000E01A4F80080190A807C00EFF2602908E
:104C900086400F2D05D1009717480068022707406E
:104CA00009E0284610381F2815D8009711490968CF
:104CB000012787400F40284602F0A8FB019880009A
:104CC000009B195803F042F81C50002F0CD02846C6
:104CD00002F0B0FBFEBD284602F098FB0198800070
:104CE000395803F033F83C50FEBDC0461CED00E0DF
:104CF00000E400E000E100E010E000E0F8B5224F41
:104D000038794007800F0CD003F066F80446387CF1
:104D1000C0060025800F15D0012804D03846183071
:104D200003E000252EE0384614300668304602F0D5
:104D30005BFD03F099F8801B1449884202D803F008
:104D40003FF90325387FC006800F13D0012802D019
:104D50003846243001E0384620300668304602F0FC
:104D600041FE03F081F8801B0849884202D802F016
:104D70001BFD02253879F9210140081D38712046B4
:104D800002F0D6FF2846F8BDE40D0020FFFFFF1F0C
:104D900070B478C8194A78C2491EFAD170BC7047FD
:104DA000F0B4F0C8144BF0C3124BF0CBF0C1521E5C
:104DB000F7D1F0BC7047C046F0B4F0C80F4BF0C359
:104DC000521E07D0F0C80D4BF0C30A4BF0CBF0C118
:104DD000521EF7D1064B1C680F25AC431C60054BD7
:104DE000F0CBF0C1F0BC7047C046C046C046C046DC
:104DF0002C000C4070000C4080000C4090000C40D7
:104E0000820706D18A0704D130B43CC93CC030BC0B
:104E1000704710230A780270491C401C013BF9D1ED
:104E200070477047FEB507680024002F39D0019005
:104E30000291BE89FD89AE4204D91B481B498E22CE
:104E400000BF00BFAE4212D3387A02280FD1019DB5
:104E50002846029902F0F6FD2F68FD89B8890026E0
:104E6000002804D012481149982200BF00BFAE426A
:104E700017D2BC19208A401D032188438619AE42EF
:104E800004D909480949A12200BF00BF1034BE81DE
:104E9000AE4206D3387A022803D10198029902F073
:104EA000D1FD2046FEBDC04618A7000092A3000019
:104EB00094A60000F8B51D4A01241D480460EFF3D4
:104EC000108172B610681B4FFC813D6D002902D124
:104ED000EFF3108162B6461B0020864206D34519C7
:104EE000361A2046294600F069FDF6E7EFF31086F2
:104EF00072B6F97B012903D10020294600F05EFD3E
:104F00000D49884200D308464019084B5C642104CF
:104F10000A4A1160D86138650020B873FD64002E1C
:104F200000D0F8BDEFF3108062B6F8BD0421024056
:104F3000542002402C120020FFFFBFFF80E200E05F
:104F4000024670B50A4392072AD11E4DEE0104C8ED
:104F500008C9541B9443344017D0D0B2D9B2401A78
:104F60002106014310D190B299B2401A21040143A5
:104F70000AD110021902000A090A401A210201434B
:104F800002D1100E190E401A70BD9A42DFD010BA2D
:104F900019BA884201D9012070BD0020C04370BDFC
:104FA00002780B7801300131002A09D09A4207D1EA
:104FB00002780B7801300131002A01D09A42EFD0FB
:104FC000D01A70BD0101010170B504460078C30616
:104FD0009E0F022E03D0012E05D1231D01E0234692
:104FE00008331D6800E00025002A01D1042300E0F9
:104FF0000823002A01D1012200E00222E1501043DF
:105000002070204600F04CFA002E0AD1207818219A
:105010000140082901D0082000E004202058A842BF
:105020000ED0094D287906210140042908D1FFF747
:1050300065FE044628680121090501F027FA00E011
:105040000024204670BDC046E40D002070B5164611
:1050500004461B4A107CC006800F0CD0022804D0E6
:10506000012815D10819516901E00819916902F068
:105070003DFF00280CD00125002E11D001F0FAFDD3
:10508000204602F0B1FB1048C4600221017415E013
:105090000D48007C0025002810D000F0C1FE0DE076
:1050A000084801880126B2030A430280204602F024
:1050B0009BFB02F057FD0448C4600674284670BD8F
:1050C000E40D0020302009404C0C0020B0B51446FF
:1050D0000188194A91422ED1C06B002825D0C168A1
:1050E000002922D0210320D50078432801D01028A0
:1050F0001BD11249887D02280CD3401E88751248A6
:105100000025C563486D097E2A46FEF769FF0C48F5
:10511000C5730AE00A480022C273012008744A6578
:105120000A760848C2600848C263600703D503488E
:10513000017D491C0175B0BD012000002C1200202A
:105140002013002034110020D80C0020F8B50646AA
:105150000878401E0F2801D28B271EE00D4602F072
:105160003BFE04468027002E14D0B0880004000FB8
:1051700010D1F06B002803D00078401E0F2808D310
:105180000F4802680F482021B24208D1435C002B2F
:1051900005D08B27204602F0CBFD3846F8BD002312
:1051A0002B70F563B24205D101224254910430467E
:1051B00001F06CF9204602F0BBFD2F78EDE7C04608
:1051C000E40D00204C0C0020F8B51C4DFF242046B7
:1051D00002F08AFB2868042188432860E04302F03B
:1051E00075FB28680821884328601548046801F089
:1051F0005DFD0546002C18D0264624680E20375E3B
:10520000BD4203DD0C20375EBD42F3DB0C48314666
:1052100002F024F8002030750094B4683269284602
:1052200039463346A047009CE4E701F09BF9034A66
:1052300050680C2101405160F8BDC04648600040F4
:10524000840E0020F8B5451C00780023082B32D0CE
:105250002F78C2070CD16A780F241440E41C122C5A
:105260000BD102242E57F4B2002E08D4EE1C0EE00F
:105270006D1C4A1C0F7011461AE0AE1C08E02E1D72
:10528000ED7800957F252C40009DED012C191234FE
:105290003D0112095219094DAA420ED0D243002CE9
:1052A00005D08D5C4F1C0D70641E3946F7E73546FE
:1052B00040085B1CCAE72846C5E7F8BDFF0F0000A1
:1052C000F0B51A4BEFF3108172B6194A957B1C6842
:1052D000002D06D083681B19C36001230375D373A7
:1052E0001CE0D56C661B156DD76CEF1BBE4206D952
:1052F0001A6883689A18C260012202750EE08768F6
:105300003E19C660012606752C1BA74206D2C0684E
:105310005E643404074D2C60D8611065002900D00C
:10532000F0BDEFF3108062B6F0BDC046042102402C
:105330002C12002080E200E07FB504460020002C03
:105340002DD01E460D46002B0AD07168CBB2FF2B24
:105350000DD0144B1B68AB420BD0C0291FD008E006
:1053600000200190C043029001AE012030728020E5
:105370007060A8000C490C5062603068A060256025
:105380000A49284601F012FF31792846FFF76CFCE4
:10539000307A002802D0284602F04CF8204604B0AB
:1053A00070BDC0461C130020B00F00209D7500008A
:1053B00080B5032818D002280BD0012820D1154829
:1053C0000079C006800F022822D0032818D131208E
:1053D0001CE01048007FC006800F401E03280FD23B
:1053E000C006010E0D4809E00A48007CC006800F87
:1053F000401E032804D2C006010E0748C84005E03D
:1054000007480849832200BF00BF8020C0B280BD8A
:105410003220FBE7E40D0020383A390034363500FD
:1054200054A6000010A30000F0B585B001920E460E
:10543000009002AF384602F0E2FB80200390114C4E
:1054400020462830104A114D14213B46A8474020E1
:105450000390204644300E4A17213B46A8470020BF
:10546000039060340B4A162120463B46A8470A4861
:105470000660009941600199816008480E21016031
:1054800005B0F0BD3C100020517B000039530000F6
:105490003D7B0000297B00005C1400201454024076
:1054A000B0B50446007802210140C20704D10029AA
:1054B00008D1E42108402AE0002907D1E52108406D
:1054C000083024E0E6210840103020E002F0CCFC57
:1054D0006168421A520F0DD00E4BA268851A9D4288
:1054E0000DD9121A091A2078182398438A420CD32E
:1054F00008210BE0217808200843102103E02178DF
:10550000102008430821884301E010214018207032
:10551000B0BDC046FFFFFF1FF8B5EFF3108572B6B0
:1055200000210175154EB17B012902D10120F073D4
:105530001CE0C068316D884218D1114F3C68F16C95
:10554000611AF26C801A814210D20020214600F0CC
:1055500035FA0C49884200D30846001901217964C4
:105560000904094A1160F8613065F464002D00D027
:10557000F8BDEFF3108062B6F8BDC0462C120020D3
:1055800004210240FFFFBFFF80E200E070B5054646
:10559000164EF06A002803D0002D09D0002411E037
:1055A00001F08CFDF06A002400280BD0002D09D1F9
:1055B0000024E143FFF7D0F8707E002804D0F06AA1
:1055C00000F088FF204670BD30790128F7D10948E6
:1055D00009490140F3D1307A0128F0D10C20684309
:1055E00003490C1801207076E9E7C0462C12002010
:1055F000DCA7000000A00600FF07000070B5164DF4
:10560000E86BC0071FD1154C2C66154E316842203F
:105610008847201D28661348A865316806208847FA
:105620004020E860A96D01200143A965A96D81436F
:10563000A96529684906FCD5A96D0B4A0A40AA65E7
:10564000E96B0143E9630124204601F009FCE00312
:10565000E860286170BDC046481000400D00008021
:105660009400000F00000380FFFFFE7F70B501254E
:10567000284601F0C1FB0446002820D1124E00F05C
:10568000E1FE002804D002F06FF83068A8433060D3
:10569000F0690E490840F061706A084070620020AD
:1056A0007062EFF314810A4D296080F31488094970
:1056B00009688847286880F31488FFF79FFF064829
:1056C0000021C170204670BD84100040FFFFFF7FA5
:1056D000AC0E00204C00000F20130020F0B585B068
:1056E00004931446039106460C9D0A9F15481430F6
:1056F0000BA902F098FC032F16D0022F1FD1B54240
:1057000003D02846314602F09DFC281903998842AF
:10571000049E01D002F089FC0B48406B3319002233
:1057200000920192294607E00748406B04990091D6
:1057300001953146039A234600F04AFA00E0002022
:1057400005B0F0BDB81000202C120020F8B50446BA
:10575000056815488768154900260E6006600F2108
:105760000161284602F08FF938071BD51048202127
:1057700001602820285C04210143052900D1EE7630
:10578000284600F049F9287E022803D1094800F094
:10579000A1FEF8BD284628302A6A6E6A6969037836
:1057A0002046B047F8BDC04604010C4020000C4024
:1057B00004650240FC0B0020FEB5EFF3108472B6C6
:1057C000114D2878002818D11048022101600027C7
:1057D0000097F84301906B4601261E720C480D4A53
:1057E0001221FFF7A9FD0C488764032101600B48D3
:1057F000016804220A4302602E70002C00D0FEBD16
:10580000EFF3108062B6FEBD8A1400200C540240F3
:10581000100E00204D67000000600040005800405E
:10582000F0B50478042C02D30B7D497D01E0002102
:105830000B46144AD569DE008619378B2F43D76192
:105840001569778B2F4317615569B78B2F435761C4
:105850009569F68B2E439661042C11D31468C518F4
:105860003626AD5D25431560994209D013691F2482
:10587000A402A343C9004018408B204018181061AF
:10588000F0BDC046B4300840B0B5002828D004466A
:1058900014480068884201D1002003E012494018F2
:1058A00060600120114D6070288AA07002F0A6FA95
:1058B0000146803105D102F0A7FA0146803100D0BF
:1058C0007F20E07028882081E88860812889A08175
:1058D0006888E0816889A082A8892082A88860827F
:1058E000B0BDC0465020094047FDFFFF3A200940A7
:1058F000FEB51749887B0290C87B441E601E844118
:105900008D680E7C6879401EC7B2012202F034FB1C
:105910000190022202F030FB0E49029ACA700A7A04
:10592000BF231340A2019A180A72019A521D0F2335
:1059300013400001C018503088721220044C2056C9
:1059400000F034FEA068807902F034F9FEBDC04654
:10595000540B0020A8090020FCB5002925D4FF28FD
:1059600023D0124F124E022401250C400CD10F46B9
:105970002F40331801939C230094019CE754009C12
:105980000A4F85403D6000E0854080004B0701D410
:10599000103601E0356008363560064B194011437A
:1059A000054A8150002C00D03D61FCBD10350240FD
:1059B00064300240F8FFFF7F00310040F8B50C462C
:1059C0000546144F583700200090C6433F68002F0B
:1059D0001ED0397D0029F9D0002D0FD0F968A142E1
:1059E0000CD13969F8693A69002A03D0FA6851186C
:1059F000F96001E000993975B9698847397D002956
:105A0000E4D0F968091BB14200D331460E46DDE708
:105A10003046F8BD2C12002010B504460F4810493E
:105A2000227E042A09D000220260CA6001225202AA
:105A30000C4B1A600C4A3023136001220A600F21BC
:105A40000161A07E002804D00020A076074800F065
:105A500041FD204602F017F810BDC04604010C407D
:105A600014000C4080E100E02C600240AC0B0020F0
:105A700010B51249124A12681206930D83420CD9CE
:105A80000128024600D801220C68A218D41A00D3BB
:105A900022468C68944205D110BD0A4A1278012A28
:105AA000FAD10A68834201D8002400E001240831B9
:105AB000104601F0BBFD0348047010BDAC11084056
:105AC000C41008408E140020F8B516460D46044652
:105AD000114FB87C002803D1FEF7DCFF0120B87419
