:10000000009000202DC702008DCE02008DCE020090
:100010008DCE02008DCE02008DCE02008DCE02006C
:100020008DCE02008DCE02008DCE02001FD90200BF
:100030008DCE02008DCE020001470200659D0200B8
:100040008DCE02008DCE02008DCE02008DCE02003C
:100050008DCE02008DCE02008DCE02008DCE02002C
:100060008DCE02008DCE02008DCE02008DCE02001C
:100070008DCE02008DCE02008DCE02008DCE02000C
:0C0080008DCE02008DCE02008DCE02005D
:10009000F0B591B007910446074631370646303631
:1000A000011D0125069250040F94089101960A95AE
:1000B000059708D408888978090440180021099117
:1000C00003910F4669E129F059FB03902CF06BFF77
:1000D0003078384C482160542A4625464835014638
:1000E00011408207D20F51184007C00F0E1820345C
:1000F000142120462CF0C4FD267500266675A675D1
:10010000E6750F9C2C482D4901602D482D4908604B
:100110002D48808D2749C88128F0C3FB2A4988864D
:100120002848868010200E9022494871EE7009966A
:10013000AE80608828F08EFE0646387826F0ECF80F
:10014000002801D07D20C643F0B20328099F00D0CB
:1001500012E128F063F8174F388100267E61A06B0A
:100160002DF080FB2AF02EF87881A16B088B154AC0
:10017000D083488B1084888B50842420085C8007AF
:10018000C00F108388680322109200285DD0827B04
:100190001218D37B0F221A40072A07D87A44127903
:1001A000520097442413030303032A2F49200025F8
:1001B0003D544BE00066002040140840D6BE898EB6
:1001C000005555553C20094006200940084624307A
:1001D000CA8BED4B1A860A8C5A86498C9986007810
:1001E0000A99084098834920395405252EE0492072
:1001F0000A99395403252E4629E049200A99395491
:10020000022523E000226A700A99E9700D46817B7D
:100210000918497C890600D1EEE300210E4611F051
:10022000E5F93520385C00280FD0608803210A46A4
:1002300008403946213189780904490D884201D0A6
:100240004C203D543546164601E03546109E4B2065
:100250000D90385C00280BD000233A463832BB633F
:10026000FB63137253819381A06B0830012104E07A
:10027000A06B083002210022134610F09BFE0021E3
:1002800000282CD01091022229460C9211404A429B
:100290004A41431E581E834113430993012B22D127
:1002A000D6480B9505800022B74F7A81A36B252590
:1002B000585D03240440FC82585D40080427384000
:1002C000CF4C2085585DC006C00F6085002904977B
:1002D0000BD10020C94988810F9CCA4F1AE08326A0
:1002E00009910F4648E0832630E0586825331B7893
:1002F000D90707D1C4495A073B40D41721405A00B7
:10030000204001E0C149491C0F9CBE4FBB4B2DF062
:10031000F5F8BA490B98C00702D10020088215E011
:10032000A26B1068525D930709D4B74B049D15402A
:100330005207D1170B406A000840B04902E0B34AA7
:10034000531C00220B829E3126F047FB0D98385C2F
:10035000002810D0A06B083029F058FA002801D1ED
:10036000842179710C990172B96B884201D1002006
:10037000B8630E9F00E0109FF1B2089D2888AA780C
:10038000120480180A02FF231B0298438018288059
:100390000F2901D902210F430A9DFF2109020140C3
:1003A00003200E900002814262D1A8040490984E6E
:1003B00029020846B030079A024202915ED01046E8
:1003C00008400C90069D284630400B909148C06A2A
:1003D000042857D3109700200D9027F00BFA80B215
:1003E000471D3C460E988443864E7069214623F093
:1003F000B7FE324606465069864204D0082010995E
:10040000014310915661002E3ED0B908F08935188D
:100410001035284620F094FE7A4A0C980028109F48
:1004200017D04B20105C002813D068680F210904F6
:1004300001400E98000481420BD1284627F0B4FFFA
:10044000704AC00602D535200D9911544D200A99E5
:100450001154F0893118D279CA740019F08104203E
:1004600007430F9CA06B2DF0FDF90B9D684EADE787
:10047000B80701D500F01DFC00F021FC1097069C88
:10048000254613E05F4A07E08520507162480A99CB
:1004900001600F9C5E4E109F90790028109704D049
:1004A000E06B5E49C96824F0D5FB069C04980440C3
:1004B00068062946C50F0A4608460299084003D037
:1004C0004A2701234F49CB55A40C10990D432F46C1
:1004D0000799C907154614D00499294011D13E4601
:1004E00047490988042920D12748406D45498A6930
:1004F000801A0F9A506340204871032000BF00BF4C
:1005000049E00798000455D53E484079102803D1AA
:100510003B48008826F07CFA2CF09CF9404A2CF0ED
:10052000A7F907430024099444E0AA052AD4CB1F65
:100530005A425A41334F4A23FB5C5F1EBB4100289D
:1005400024D11A4322D102292E4F03D13520385C01
:10055000002820D1012009904820385C002800D1D3
:10056000B0E22C4805210160B879002805D00F9829
:10057000C06B2A49C96824F06DFB27F039FE0024BE
:10058000374616E0032002E03C20094002201BF021
:10059000DDFA1C4948711B4840792CF05BF9204A70
:1005A0002CF066F937460743032000BF00BF002444
:1005B0000994174EE80304D50F98806B2DF052F97B
:1005C000354005990998002800D1CCE00D4A482013
:1005D0000C90105600280D9428D44E78052E00D982
:1005E000002607210840801E052829D87844007974
:1005F00040008744191723211D27C0469620094033
:1006000006200940006600200A8000000A80FFFFE3
:10061000FFFFFEFFA011084030100840AC6A002028
:10062000FF00FF00F0070BD026260DE006460BE08A
:1006300001200640263607E0F00701D0272603E018
:10064000252601E0760825362020105C918925F0CA
:10065000D3FE0446F0B20B901EF0C2F9002814D06D
:1006600010970A998F030121099107F041FC27F0A7
:1006700079F83D4214D10598807800283DD0E048B3
:100680002BF022F80746089D5BE0089A2CF014FC3A
:10069000DC490840412149022CF008F90D9C62E038
:1006A0000F98039920F0CAFD07460F2822D84B2047
:1006B000D54A105C00280AD03520105C002806D0EE
:1006C0000C982CF08DFA002801D17D20C7430D9C99
:1006D0000F98C06BCD4DE96821F078FBCA4A907144
:1006E0004A2000211154287F800701D02BF048FCBC
:1006F000089D27E0089D0D9C27E04B20C249085C1F
:100700000028089D1AD03520085C002816D0A708BC
:100710001D371E21384624F03DFB781A80009721B2
:10072000C900401870302AF0CFFF07460C98B64A2F
:100730002CF056FA002804D18227DCE72CF0E0F8F0
:1007400007460D9CF8B210284DD32888A9780904D3
:1007500040183902AB4A104001432980000CA870B0
:100760000220109F0743002C00D19AE2A6482125C1
:10077000405D3F26064030461EF032F900280F9CAF
:1007800023D009960A9907F0B3FB26F0EBFFA06B84
:1007900081680020002922D00C910D9010974C24E4
:1007A000994E375D2020305CB18925F025FE014649
:1007B000002F27D002984118E0310B919348008D0B
:1007C00028F048FB002030551DE0089A2CF074FBFF
:1007D0008C490840412149022CF0FCF9E0E00B90E3
:1007E000894A0646B3E08A490020888375B20B998E
:1007F000402901D240203043834A864F002D2BD41C
:1008000006462BE00B91109F0C9EB07B8019C17B9C
:100810000F242140072913D1477C0021304607913E
:1008200010F0E4FEB809022874D001285ED0002838
:100830000F9C109F00D083E04920734A079984E001
:10084000089A2CF039FB6F490840412149022CF0ED
:100850002DF80F9C6C4A79E07F200640F0B2788634
:100860001079002804D030066B4941406B48016084
:100870004920105C00280AD0164628F0EFFBB27918
:10088000B88D6749002A06D08031084606E00998ED
:10089000C003401C02E08007800E4840109F2BF0F0
:1008A000CDFE2BF0E3FD022000BF00BF5D48052117
:1008B0000160002D15D40B982538099B8340524ABE
:1008C0000C99505C9843505405998978002900D1BF
:1008D00049E7002800D046E7019800780C99505469
:1008E00041E70020FC490C9A88543CE73520FA4B3C
:1008F000185C00280F9C109F00D168E149200799DF
:100900001954089A2CF0D8FAFC490840A9022BF097
:10091000CDFF13E03520F04B185C002800D16BE1CF
:10092000492000211954089A2CF0C6FAF3490840CE
:10093000A9022CF04FF9109F07430F9C1A4605E0BF
:100940004920E54A07991154352011540D9EA06B9A
:10095000083038320121334610F02CFB054633466F
:100960003246002D0DD0681E414241410E4208D151
:100970001092411E8841012219460A9251400143BA
:1009800010D13846089B19889A7812048918DB4AD6
:100990001140832212020A431A80090C997002271F
:1009A00007437FE10C930D969720C1000B980791A8
:1009B0004018703084081D341E21204624F0EAF9C6
:1009C000601A84004D20C44E305C00282CD048367C
:1009D000F079C1498989069125F00EFD0B900C2014
:1009E000069925F009FD079961180B9A89180C18CA
:1009F00000207071B84E18E08426154627E4C046E2
:100A000088130000FF00FF0000660020AC6A002091
:100A10009620094006200940D6BE898E4014084021
:100A20003181000030100840083420462AF04CFE86
:100A30000B903520305C002811D02020305CB1892B
:100A4000344625F0D9FC4821715C3246483212798F
:100A500012F0EAF9002802D17D20C0430B901098D3
:100A6000A04908809A48042444810F99896B25265F
:100A70008A5D0E9B1A40974BC282885D40082040D9
:100A80001885885DC006C00F58855020924A105CBA
:100A9000002802D0588D204358850D9800280C9AC4
:100AA0000CD0486825310A78D1073AD18E495307CE
:100AB0002240DB1719401840520035E000208949D8
:100AC000888136E03520385C002800D163E521209C
:100AD000385C2137797809020818B9780904401878
:100AE00087490140802900D055E5814807210160F0
:100AF00027F07EFB4C207849095C0020002900D1BA
:100B0000E3E0B9780904490D0F9A52880423134091
:100B10000B4379490B850121C90337460F430990DF
:100B200047E57249491C00226E4B2CF0E7FC0C9AF9
:100B3000684B002A0DD00F98816B08688A5D910779
:100B40000ED4694914405207D21711401040620078
:100B500009E00020634908820F9C5F4E0B990CE06E
:100B60006249491C00225C4E5E4B198219469E3137
:100B700025F033FF0F9C0B99564BC8B2102809D3B0
:100B8000089A10880B4691780904401819025B4BAB
:100B9000184021E60024534884830999403159863E
:100BA0003079002804D008064D4941404B48016087
:100BB0004920305C002853D028F050FAB2794548DB
:100BC000808D5049002A4FD0803108464FE049209F
:100BD000012119543068002800D1D2E6A06B0830FA
:100BE0000D461A4638320221079E334610F0E2F9CC
:100BF0002A4605460A9BB4E6492001211954376864
:100C0000002F5FD0B87BC019C17B214007290BD1D1
:100C1000407C3F2808D8B07B3018007C0B30FC218A
:100C20000140384610F0E2FC0F9CA06B08302A4AC5
:100C300038320226002531462B4610F0BBF93246E9
:100C40002B460546B87B3818007C2349483188710B
:100C50000C9EB07B3018007CC8710A9E109F80E605
:100C60000A98C003401C02E08007800E48402BF029
:100C7000E5FC2BF0FBFB1F48052101600F98806B02
:100C8000083028F0C3FD002801D1842171710221B0
:100C90000172B16B884200D1B4636D1EEED1102099
:100CA00007430F9CB8070AD5E06B1349C96823F0C6
:100CB000D1FF27F09DFA2BF0A5F82AF0CBF83846A3
:100CC00011B0F0BD10980F9C5CE6099C099057E4A8
:100CD0003C200940062009400066002040140840DE
:100CE000D6BE898E962009400A8000000A80FFFF48
:100CF000A011084030100840AC6A0020FF00FF003F
:100D000080FF1F0031810000F0B591B0002902D4AE
:100D1000002400F01AFC0C46284D28781BF042F8FD
:100D2000002801D100F00EFC07460078A2280D979C
:100D30005DD0B02801D000F002FC0EA80021018097
:100D40001F4E7068002808D12BF0ECFE2CF026FC1A
:100D50007060002801D100F0EDFB07942C4614349C
:100D600000261822204631460C922BF071FA387971
:100D70000125811E162900D9D6E3401C0690059452
:100D80004900C0467944898849008F441B00CD033F
:100D9000CD03CD03CF00CD036900CD031502CD03F4
:100DA0004802CD036F00CD034701CD03D401CD032D
:100DB000CD03CD03B002CD037A02C046C87900202E
:100DC000D07800202E462BF0ADFEF54DA882788815
:100DD000214629F0E7F8002800D1F8E23889A98AED
:100DE000884200D30846A8820125032089E3787948
:100DF000652820D1EA480C300C902CF04DFD0028DD
:100E000026D006460089B17A37460C373A4613F0A9
:100E10006FF90546142801D0002D0CD10C983146ED
:100E20002AF02AFD142D03D1B17A38462BF0DEFAD0
:100E300030462CF0BBFBDB480078FF280D9F00D12B
:100E40007DE3394628F010FF002800D077E379E3EE
:100E5000D4480078D4490870D44900220A70ECE7DD
:100E600000210EAA38460CF0ABFF2BE3788829F05E
:100E7000A9F80890461ECA48808A00221346CC4C26
:100E80000496B9898B4200D3BCE280B2864200DC72
:100E9000B8E20A93B86881180C92805C497809021C
:100EA000081880B210A923F007F80125002800D106
:100EB000AEE20146099578880B9010AA1288636803
:100EC0003879B6B20027B64CA51C0095019702965A
:100ED00003900B9808F0E6F8002800D09BE2A06988
:100EE00000280D9F254609D178880F210023B14A9B
:100EF00018F028FEA861002800D12BE3A98A6A888F
:100F00005318089CA342049E02D3721A6A8092B2BC
:100F10004018A74C61682AF0BBFC6888A98A0818A9
:100F2000A8820A9B5B1C0C9A921CAAE7788829F07D
:100F300049F82BF0A4FC10AC00941BF0C1FB054653
:100F4000701F0A90F01F002480B20990944EB01CCC
:100F50000890A1B2002D00D122E20A98884200DC5C
:100F60001EE20B910C940D9E708810A90A8890497E
:100F70004B6831790024089F00970194099F0297DC
:100F80000391294608F08EF800281CD1328A844843
:100F90004088824217D170698549496829F0B2FAC0
:100FA00000287F4E10D0B06900280AD10D984088E3
:100FB000072100237F4A18F0C5FDB061002800D149
:100FC00072E36C8900E0764E0D98418910A8028882
:100FD0000FAB284618F042FB0546002C13D0B06931
:100FE0000C9A511C0B9BC454200A1446B269A31CD2
:100FF00089B25054002D99B207D00F98B26950545D
:101000000FA8407804E00C9CA3E7B269FF2050547D
:10101000E11CB269241D89B250549AE7788828F0FF
:10102000D1FF2BF02CFC10AC00941BF049FB0746C1
:10103000B01F0A9000255A48801C099008950C950D
:10104000002F00D101E20D9C608810A90A88394662
:101050001BF01CFA002800D0B4E10C9E60880B90B5
:1010600010A90A8852494B6821790A9CA4B23846D3
:101070000027099D00953D4601970746029403917C
:101080000B98394608F00EF8002800D09AE1B4B267
:10109000002C0FD04248C18A4088021D8A4200D0ED
:1010A000FAE100190A9988422E4600DDF5E13C4E2E
:1010B000B06910E00D9840881126002331463D4A62
:1010C00018F040FD364A9061002800D1C2E25188F4
:1010D000091DD1821646B97A0C9B5A1C0155F87A23
:1010E000B1699C1C92B288540D98418910A802885D
:1010F0000FAB384618F0B2FA07460028A1B205D067
:101100000F98B26950540FA8407802E0B269FF20EE
:1011100050540C9BD91CB26989B250541C1DB06943
:10112000A1B240182249496872882AF0B1FB708840
:1011300000190C9084E70124387C0026022804D191
:10114000787C012801D103260024388910A922F0D7
:10115000B3FE002C00D12EE10746002800D12AE181
:10116000387A8006059C0DD510A800882BF04CF825
:10117000002800D16BE203460D98408812223946C0
:1011800098470646002E0D9F00D07DE27888398969
:10119000FA687B897C7C002C00D162E2522561E2F6
:1011A000C8790020EB7B0020EA7B0020BB7F002079
:1011B000D0780020FFFF0000388910A922F07CFEC3
:1011C000002800D10CE13D46074668880B21FE4A05
:1011D0000FAB18F0B7FC0346FC488361002B00D12D
:1011E00026E168880C9010A90A880FA90988287937
:1011F000002600940196029103900C98394607F05E
:1012000051FF002800D134E10746F048806916F00C
:101210009FFB162F059C00D133E13E46E1E0388963
:1012200010A922F049FE002800D1DCE005467888AC
:101230000D21F44A0FAB18F085FC0346F248836198
:10124000002B00D1FAE078880D9010A90A887989DE
:1012500026460FAC248838790096019102940390B9
:101260000D98294607F01EFF002800D10BE1064625
:10127000E548806916F06CFB162E059C00D109E14B
:1012800027E17888089027F0C1FE0B90002800D154
:10129000ABE0387A012800D028E20995DB48857850
:1012A0000A963046C4B2AC4200D359E10B9A526858
:1012B0000C236343D75A002F00D152E1002E0ED0E9
:1012C000BE4200D084E1D21853888CB29C4200D038
:1012D0007EE192880A9BD3180A93511805E0D11831
:1012E0008A8849880A9289183E46401CDAE778883D
:1012F0000125294628F004FC002878D008373888D2
:1013000010A922F0D9FD002800D19CE00646007A01
:10131000800600D59BE00D984688304627F076FE83
:10132000002806D1B74827F071FE002800D102E25C
:101330000680B6498A780C2151430C3100231A46A5
:101340000C32914200D103E14468E35A002B13466A
:10135000F6D1A0180C380C26394632462AF098FAF5
:101360000598394632462AF093FA0D9C6088A28986
:10137000172100252B4618F0E5FBF649C861002827
:1013800000D1C1E12169A2892AF082FA6088059919
:1013900026F01EFD0028274600D0CEE10646CDE10E
:1013A000200428D08808B0820D9F7888059C2146AB
:1013B00026F028F884E0002C0D9F00D161E1012681
:1013C000059C61E1064678890EA9088065E0788869
:1013D0003989AA8A914200D3114621F0F7F8A2E098
:1013E00001260D9F75E0012673E0089883E1142023
:1013F00078700E2670E00D9F38890EA908800A26A5
:10140000059C69E07888059C214626F00DFD74E175
:101410002E46059C03E006460D9F059C099D2AF07B
:1014200019FDCC488069002857D016F091FA54E095
:1014300028890EA9088011262F464DE038890EA96B
:101440000880112648E02E4660E1089E25E010A89D
:1014500000882AF0D9FE002800D100E103460D984B
:101460004088122231469847002800D153E70646AB
:101470004CE16888059C214626F0ECFC002800D051
:1014800016260D9F28E07888059C214626F0B6FC9C
:10149000002819D100261FE02E460C9800040D9F4D
:1014A000059C13D0AB4826460446C18A0C9880B2EE
:1014B00023F070FCA08234467888314625F0BAFFCC
:1014C000002801D1064607E0162605E0002E00D1CF
:1014D0000A2638890EA908800125002E13D0162E61
:1014E00011D0787814280ED038799A4908750E985A
:1014F000C8820E767888214629F066FF002802D03F
:101500000120069001E0162E0ED12E46788806990D
:10151000CDB22946224617F025FC002803D02046EC
:1015200029462AF063FF3546384623F073FA002D2A
:10153000079C04D03846083039792AF057FF3846DE
:1015400029F000F80120C0078443204611B0F0BD07
:101550000926DAE02AF07EFC01251126059CC0E769
:101560002846C0B201286CD90A98000430D00A98E5
:1015700080B220F05BF80890002829D0A54200D363
:1015800025460C2068430C90002425460B9847689C
:101590000C98A04200D18DE03E19B16800290AD014
:1015A000A8B2089A1018B2882AF072F9B0884519C2
:1015B000B06816F0CDF9002C04D000210C22304682
:1015C0002AF046FE0C34E1E7FFFF0000C879002056
:1015D000002201231646591E5F48807881420D9FE4
:1015E00000D39DE00B994C68A15A002900D197E0E7
:1015F00083420C980DD0A0188089002808D01620AE
:1016000007E0C046FFFF0000C8790020D078002026
:1016100018207E880A92A718BA680993BB887D882B
:1016200000950190304617F0D3FF099B064600282D
:1016300003D0162E6FD10020B8600A9A0C325B1CC2
:10164000C9E70B984768BA68BB88089838E00E2647
:101650000D9F19E078890EA908800D9FD0E60E260F
:1016600054E03D7900240094019517F0B1FF16284D
:1016700016D00646002804D1787C002861D00125C8
:101680000FE0002E059C09D038890EA9088001259D
:10169000787C002800D120E700261EE70026F6E728
:1016A00025462646059CF3E70D9F38890EA908803C
:1016B0001126A5E6089ABA600A9BBB800D9840885F
:1016C00039887C881825009401959BB217F080FF1B
:1016D0000028059C099D09D00646162812D1002035
:1016E000B8600B9821F0F8F90D9F1DE70B9821F0D9
:1016F000F3F90D9F78882AF029FE0125002800D0F3
:1017000003E711E7388808E01126059C38880EA900
:1017100008800D9FE1E60A98205A0EA908800D9FC7
:101720000B9821F0D9F90125162E00D1FCE6002EE8
:10173000059CDFD0D1E60926E8E716260025059CA2
:10174000CBE678882AF00AFE01250028A9D01626C3
:10175000F5E7C046C8790020D0780020F0B597B0F2
:1017600003464A1C0C7820462D38C0B20E2805D2FC
:10177000204619462BF0EAFF17B0F0BD12920D91EA
:101780002320C00018180F90252C00D90BE1DD2074
:10179000400018180E906720800018180C905720F1
:1017A000800018181190FF200630181810901E465F
:1017B000F03618468C300B9018468A300A901A463C
:1017C00077321D4676351F466737A000139402A175
:1017D0000858139C8746C046A51A0000331B00001A
:1017E000571A0000171B0000A7190000A7190000D6
:1017F0005D1A0000631A00007B1B00009D1B0000A7
:10180000ED1B0000E71B0000AD1900007D18000073
:10181000A719000095190000A71900007D18000005
:10182000651B0000731B0000CF180000CF180000DC
:10183000031C0000A7190000111A0000A7190000DE
:10184000A7190000A7190000A7190000A719000098
:10185000A7190000A7190000A7190000A719000088
:10186000A71900007118000071180000711800001D
:1018700018461299224621F042FB7DE7079508920F
:1018800098791D462BF05CFF139C2B460028129A7A
:1018900000D06DE70F2C089A079D7BD0112C00D04B
:1018A00081E00D984178827818462BF0DFFC28788B
:1018B000012800D0ADE30898007801460F390229CD
:1018C00001D300F021FC01201199487354E7142C36
:1018D00003D17879002800D15AE109930D9D6878E9
:1018E000A97809020C18E8782A7912021318687985
:1018F000AA7912021618E8792A7A12021218139895
:10190000152800D0A2E1A5B21B2012901B2D29465C
:1019100000D812992920C4001B2D274600D31F464A
:101920001092FB20FB2900D301465B4AFB2D134696
:1019300000D83B469DB2EB08292B129F00D30F46DF
:10194000A5422B4600D823469542014600D8394689
:10195000934200D31346B6B21B2E354600D8129DD3
:101960001B2E274600D3109FFB2D00D30546FB2ED0
:10197000104600D8384680B2C608292E00D31295EA
:10198000A04205460C9F00D82546904200D80CE2A4
:10199000FB260CE20795089210980078800700D586
:1019A00056E10F209FE20F9844729EE2109C207C2B
:1019B000012817D00D98811C40780F9A10708D2047
:1019C00040001818022422461D4629F05EFC0146FC
:1019D0004720800028182246109C29F056FC2B46F0
:1019E000012020747879002800D1D1E0A07C002863
:1019F00000D0C1E6607C002800D0BDE60C2118466E
:101A000007F016FA002800D176E20120A074B3E6B0
:101A100016460D9A51789078814209D107200840E6
:101A2000129C207000D190E2491E014200D12CE3AB
:101A300018211E24184622461D4623F0EBFAA979E8
:101A40000022204613461AF0ABFE0E9EB0784021CD
:101A50000143B17090E6129800789AE00120B073CB
:101A60008AE635460E9E0C9B119A129800780E3825
:101A70000828109C00D97FE64000C0467844808842
:101A8000400087440C0085020B000B0081020B0014
:101A90008D020B009302C046904200006CE60320CA
:101AA000287569E6089209930D98811C40780B9F70
:101AB0003870B81CE64E022513902A46B0470146FE
:101AC0003C1D20462A46B0470146B81D12902A46C2
:101AD000B04701463846083010902A46B0470146C4
:101AE000387800280A9E14D03D462288531E9BB2A7
:101AF000082B00D3082383420BD3139B1B889342EC
:101B000007D8062A05D31394F24CA242139C00D2A4
:101B100005E330203DE010980078C00700D0FAE0DF
:101B20001A207073307B0D21012866D1F4221846EB
:101B30002FE1119E184662300B9C052212991D461A
:101B400029F0A3FB014620460C30022229F09DFB20
:101B5000A2892989511A8AB2DF498A4200D81BE139
:101B6000282016E010980078C00600D51BE112204E
:101B7000B9E1002011990872FEE5184612991C4639
:101B80001BF0AAFE7879002802D009212046AEE198
:101B90003D200F9908720120C871EDE5119C1D468A
:101BA000184612991BF098FE10984078000703D44D
:101BB000CA482146E0866086C9484078800600D43D
:101BC000DAE52846A18E1B290BD1218E1B2908D1CD
:101BD0002921CA00E18E914203D1618E914200D148
:101BE000CAE514210AE00120F073C5E50020387031
:101BF00078713080012030730B2118461CF0EAFF09
:101C0000BAE50E9D0C9E109840780921084200D13B
:101C100068E10D9C6078A178014007200840607061
:101C2000E9780140697000D18BE1481E084200D17B
:101C300089E1032900D904E20220020600D182E1F1
:101C4000084200D0FEE1C0B24008F6E70C9FAFE0CA
:101C500009930D9B58780E9098780C90D878197944
:101C600009020F185879997909020C18D879197A4C
:101C7000090208181390587A12909E7ADD7A187B20
:101C8000597B0902091814A80180997BDA7B12029A
:101C900051184180197C5A7C120251188180997C1C
:101CA000DA7C12025118C180197D5A7D1202511836
:101CB0000181997DDA7D12025118418105202BF0B6
:101CC00095F8002800D120E10C98000223460E99D7
:101CD000441828028219099D288914A90C9292B2ED
:101CE000139EB6B205960096019012980290039248
:101CF00004910694A1B20E97BAB21F469EB228462E
:101D00000D92334616F0E8FD002800D151E13E4621
:101D10001E240E9FFCE000203870787118469C301D
:101D200013900120069630741846B430684E08258A
:101D300012992A461C46B04701462046BC30022272
:101D4000B04701462646A4362746AC3738462A46D1
:101D50005F4B984712903846294628F003FA0994B9
:101D6000A0340427204612993A46594B98472046FA
:101D7000394628F0F7F930462BF05BF813982BF032
:101D800053F80698007B0421012800D0BBE0F42220
:101D9000099818F0E7FEEFE428460121A17200221D
:101DA000EA83317049E11321A0E0129E2A460C46D5
:101DB000119910944C87CB870E878A8790B24A8EF0
:101DC000824200D302460E980078A9242501AA4237
:101DD000144600D82C46042800D01446FD88FC8008
:101DE00004280ED109981FF079FB0246B888111A11
:101DF000481E81411291BA8011994F8F0E98007838
:101E00000DE01199CA8E9BB29A4200D31A46BB8844
:101E1000D11A4B1E99411291BA801199109F661BDD
:101E2000731E9E418C8EB9B28C4200D30C460C9F1F
:101E30003988631A591E8B4110933C800E9D297975
:101E400001230F9322F0BEFA844203D2388806E0C1
:101E50008BB2020028782979BA882BF0A5FC119959
:101E6000129A1643F8820B8E088F834200D30346E2
:101E7000109806437988581A421E90417B808B4205
:101E800003D9397D80220A433A75064313981428F2
:101E900014D1002E07D0099880793988BA88FC8837
:101EA000009421F003FB1521099806F0C1FF0028DA
:101EB00000D061E4B14800780F9920E0387D002E11
:101EC00001D00821084320210143397554E4C0465C
:101ED0008BB20200810C0000FE7F00004808000069
:101EE000126D002016200F9948720721184606F03F
:101EF0009FFF002800D03FE4A0480078012189031B
:101F000013F0A0FE38E40998BBE026461A24099D88
:101F100010980078400705D40F200F9948720721C8
:101F20002846E4E70F212846224623F073F8A979D2
:101F3000139880B20090BAB2B3B2204621F092FA60
:101F40001AE428787EE008467DE03078162808D12B
:101F500099790E98027800201C4613461AF020FC4E
:101F60002346099302200C9DA8760E9E3078287691
:101F7000012474712F883179AA88234622F022FA2D
:101F800087424BD228884EE000201072FFF7F4FB06
:101F9000012010732078FD2101402170FFF7ECFB38
:101FA000187D122101431975FFF7E6FBB078122165
:101FB0004EE51096119B069818820E9A5A823E465C
:101FC0009F82139CDC82129818760C98588314AF69
:101FD00083CFD86119625F621F460B998A80CE80D9
:101FE0000C810220087000204880A88EC11D0A9B29
:101FF0001980698E49080D9A8A4262D110998142EE
:102000005FD1E88E0009059981425AD110212846F6
:1020100037E0002028F010FFFFF7AEFB287E317973
:10202000AA882BF0C1FB099B119AE882B078402165
:102030000143B1701470182118462BF038FCFFF7DB
:102040009BFB042068701F46C1B2042904D13846A6
:102050001FF044FAB0806878C0B228F019FC3076DE
:1020600034882979B2882BF09FFB844201D23088D2
:1020700004E0307E2979B2882BF096FBF08217219C
:10208000384616F0D7FFFFF777FB0E994870D178E6
:102090001279120251180C9DA9831A89891A89B2E2
:1020A000374A914200D95BE509930121A9760428BA
:1020B0000E9E00D05BE709981FF010FAA880707898
:1020C00055E7079800780128089908D108780F2863
:1020D00005D1F12128463C461CF07CFD0AE0887AB7
:1020E000002802D008781A2841D1F12128463C4620
:1020F00016F0A0FFA879398A7A8ABB8AFC8A0094F4
:102100001BF06CFFFFF738FB162801D0FFF734FBFC
:102110000E9A9078012101439170FFF72DFB40004A
:102120002870580068805000A88028890001288104
:102130000222304629F0A9F8328809980189511AFB
:102140008AB20F498A4200D90AE510990B88129980
:102150000988491C22884A4351008B420CD901222C
:1021600008994A740021C183119B1A7065E70F20FA
:10217000C873F321284641E53B200AE5526F002051
:10218000FE7F0000F0B5FFB08EB0049306920646C5
:10219000929802900025E84305908C91346820467F
:1021A0002AF01FFC21188B9503918C4200D3BBE0D1
:1021B0000020879087A908738890059889902F46FA
:1021C000049D2078002800D1AFE0252805D0641CAC
:1021D00034600699A8477F1CF3E78B97601C30603A
:1021E00087AC2046314600F0A7F88CAA204631463D
:1021F00000F0BFF8306801787A2925D0682919D015
:102200006A2908D06C290ED0742908D04C2922D113
:10221000879980221BE087990122D20217E08799D3
:102220000122520313E0427887996C2A64D101227B
:10223000120205E042788799682A60D10122520291
:1022400011438791801C05E08799012212030A43FC
:102250008792401C0178441C346087A8017373295D
:102260001FD06E2929D1879832490840202850D0A4
:1022700040283CD001214A03904238D04A02904283
:1022800042D0CA02904205D00A0390422FD00902E0
:1022900088422CD1F8178C9904C98C911760506032
:1022A0003BE087A80078400619D4009587A88CAA3F
:1022B0008BAB069900F01DF92FE007AD87A98CAA1A
:1022C000284600F06DF9024628460699029B984779
:1022D000411C059D00D0C5198B9503991FE0009501
:1022E00087A88CAA8BAB069900F09FF815E08C9814
:1022F00002C88C900F6010E0401C402201E0401C9E
:10230000202211438791A5E78C9802C88C900F700A
:1023100003E08C9802C88C900F8003998B9D681CF9
:1023200000D042E7059F00E02F4638467FB00EB050
:10233000F0BDC046603F000010B50A681378302B2E
:102340000FD0232B07D02B2B09D02D2B05D0202BE2
:102350000ED1042306E0082304E0012302E0022357
:1023600000E0102304681C430460521C0A60E5E787
:1023700010BDFEB516460D460446086802782A2AA6
:1023800010D13068011D316000686060002805D5FB
:102390004042606020680121014321602868471C99
:1023A0002F6017E00021303A092A08D84218531C40
:1023B0002B60435C6F467B545278491CF3E76A46B6
:1023C0000023535412784718002A03D0684622F09D
:1023D00021FD606038782E2826D1781C2860797815
:1023E0002A2908D13068011D31600068A060286882
:1023F000401C2860FEBD00203039092908D8391852
:102400008A1C2A604A786B461A548978401CF3E784
:102410006A46002111541078002804D0684622F042
:10242000F9FCA060FEBDA160FEBDF0B587B01E4600
:102430000C9F13681C1D14601D68002D3BD0049177
:1024400006908468002C04D428462AF08FF9844230
:1024500003D328462AF08AF9044606984068A04229
:10246000039000DC20460146306801914018029636
:10247000306005940398A0420EDD06980078C007EE
:102480000AD1059801990E1A0024B44204DA2020DA
:102490000499B847641CF8E70026049C069805993F
:1024A0008E420BDA2868010A19D12D1DC0B22146CF
:1024B000B847761CF2E70020B84718E00599039A60
:1024C0008A4214DD0078C00711D00198451A002413
:1024D000AC420CDA20200499B847641CF8E70020CD
:1024E000C0430299086020F085FA5821016007B0C6
:1024F000F0BDF0B585B00C4606460A9D1068011D7A
:10250000116000680490002844D00393B768002F3E
:1025100004D404982AF065FA874203D304982AF079
:1025200060FA074602967268BA42114600DC3946E4
:10253000039B18680091401818600192BA420FDDA1
:1025400002980078C0070BD10098C01B03900026AA
:102550000398864204DA20202146A847761CF7E734
:102560000026BE4205DA0498805D2146A847761C05
:10257000F7E70198B84210DD02980078C0070CD048
:102580000098C61B0027B74207DA20202146A8473B
:102590007F1CF8E700202146A84705B0F0BDC046E3
:1025A000F0B589B001920F460446FF210846FA3083
:1025B000251878680290002607960391FE312022A4
:1025C000204600922AF0CEF97F2080000694211840
:1025D000089104952E713D46387B0246613A172AD0
:1025E0002AD8012393402C46B44D2B42254608D0CF
:1025F00007A908AA2846019B00F066F9002605965F
:10260000B3E071252B42254622D1022A14D1019B29
:102610001868021D1A600068C2B253425341059304
:10262000039AFC32069B9A180892087028680221C7
:1026300088432860002698E001464539032907D3DE
:10264000252860D0412803D058280596D0D08DE0A9
:10265000019A1068C11D07208143084608301060A8
:1026600005C9D1432F7B4900490D0BD17B3F9449CC
:1026700011400143049C2CD01920C1438F4234D314
:102680006E2033E0002A01D4114602E00121C9077F
:102690005140D60F002205923A46413A062A0BD9FC
:1026A000613F062F61D8C0467F443F797F00BF4419
:1026B0000B5C5C5C3B3631007A44127952009744E3
:1026C00003545454332E290008AB2A4607F048F926
:1026D0004BE0002311461A4605931CF0E3FB192139
:1026E000C9438F4225D3662224E04E20E0708F42FA
:1026F00001D3612100E04121A170089460700020A5
:102700000590022631E000200699487025200870C7
:102710000120A1E008AB2A4608F016F925E008AB35
:102720002A461EF0D7F820E008AB2A460DF036FD09
:102730001BE04622E2708F4201D36E2200E04E225F
:10274000A2708F4201D3692100E0492161703F21CD
:10275000C900069A51180891002803D02D20207036
:10276000042602E02B2020700326287B0127014647
:102770006F39092904D801228A4052490A4201D1FD
:1027800058286BD1049B029C04972946069F3D194B
:1027900008980C460978C90707D1191D091A6268FB
:1027A0009142069F01DC691A4F1C411C03984300AB
:1027B00000263846324627F070FB0890059900291C
:1027C00003D0411C0891067000E00146A94206D8DA
:1027D000481E691A491C20222AF0C4F82E7020785D
:1027E000C00605D40698391A20222AF0BBF82EE03C
:1027F000069887422BD00698391A302632462AF09E
:10280000B1F807984142414104980140012905D19E
:102810002078400702D43846069905E03878069AB1
:10282000511C1070781C3E70227B412A0CD0582A13
:1028300005D0612A08D0782A01D0702A07D12378E0
:102840001B0701D4612A02D142784A70467006986B
:102850002AF0C7F80599401809B0F0BD002E09D03C
:10286000012E049B029C8FD1012007902968022031
:10287000084007E0079A296802200840002A09D08A
:10288000049B029C08994A1E08922D220A70474216
:10289000474179E70028049B029C08D1480700D4EF
:1028A00072E70898411E0891009901706CE708983A
:1028B000411E08912B210170002765E708C1900097
:1028C000FFFF0F0043020000F8B514460F4605460F
:1028D0008068002804D4286810218843286001E01B
:1028E0000120A860287B1026582808D0782806D018
:1028F000702804D06F2801D1082600E00A26284657
:10290000194600F055F8AA68002A09D102460A4380
:1029100006D12878000749D52B7B0020024612E01B
:102920002B7B642B03D1642300290BD504E0692B96
:1029300008D1002906D5692301223A6000224042CD
:102940008A4100E00A4600941146324600F0B0F891
:10295000A968884206DA401C21684A1E226030229B
:102960000A70F5E7287B582803D0782801D0702812
:102970000FD1297809070CD5702800D1782021685B
:102980004A1E226008702068411E216030210170BB
:10299000287B6F280AD12878000707D5206841785E
:1029A000302903D0411E216030210170F8BDC0469E
:1029B00010B5037B702B05D10868021D0A60006802
:1029C00000226FE00068384A024001204403A2421E
:1029D00022D0402A20D00402A24230D04402A24297
:1029E00046D0C402A2422AD00403A24214D0202A14
:1029F00012D100221C46643C142C06D8A0402B4C5B
:102A0000204204D1212420423ED1582B49D10868CC
:102A1000031D0B60008845E000221C46643C142C1A
:102A200006D8A040214C204204D1212420422BD1A1
:102A3000582B36D10868031D0B60006832E01A4637
:102A4000643A142A06D89040184A104206D121222E
:102A5000104203D10020582B024623D10868C21D22
:102A6000072082431046083008601068526819E059
:102A700000221C46643C142C0CD8A0400B4C204275
:102A80000AD12124204205D00868021D0A6000688E
:102A9000C21707E0582B04D10868031D0B600078AB
:102AA00000E01046114610BD603F00000008120013
:102AB000FEB501920D460646582B01D0174800E09E
:102AC00015480090089802903046284305D1029A94
:102AD0001068411E116030210170019C304628436E
:102AE00013D030462946224600F01AF807460D4614
:102AF000224626F051FF301A0099085C029B1968A3
:102B00004A1E1A6008703E46E8E70298006829F0FD
:102B100068FF401EFEBDC0463E180300601803005B
:102B200080B5102A06D0082A09D1C0084A078018A3
:102B3000C90880BD00090A078018090980BD00295D
:102B400004D1114622F026F9002180BD002329F08E
:102B5000EFF980BDF0B591B00446807800251028CB
:102B600000D99CE34000C0467844808840008744F8
:102B70001000960396039603960356003A009603B8
:102B8000960320015000E500FC0096036E0137011A
:102B900070036078002800D081E329F08DFF079052
:102BA0002AF086F8089026F0CDF90BAC20700226AA
:102BB000102730463946079AB04B984703203946CC
:102BC000089AAE4FB847042001212246B847207822
:102BD0003043032800D062E3012019F039FD02469A
:102BE00006200146F9E0A08822F074F92AF036FAAE
:102BF000002800D053E3A24CA07B012800D05FE165
:102C000026F000FF0021A173606A627D29F020FB9D
:102C10005DE16078002800D140E10025FDE26078A8
:102C2000FC2802D0002800D039E30126E178201DDD
:102C300062890892277B00250095314009AA2B461E
:102C400029F02BFE00286DD109A8007827F0E1F8C3
:102C500004463E46083E701E86418948C07D80007D
:102C60002AF09CFC0790002800D177E109A8069083
:102C700001788348C078801E424242410092089801
:102C8000059422463B461CF034F90BAC0027142275
:102C90002046394629F0DCFA06980078062106918C
:102CA000484324301021224628F098F9002818D1F2
:102CB0000BA8FF21102227F0FAFD002811D109A846
:102CC00001780698484325300BAC22461032042187
:102CD00028F084F9012105980140089822461EF049
:102CE000ADFF09A800785321890040186449C97DC7
:102CF0008900079A28F072F9002800D16DE1604838
:102D0000007E002807D10598800704D55D4801782A
:102D1000089820F0ABFA09A800781CF08BFB079804
:102D20002AF044FC002E00D1B9E25548C0780228B0
:102D300000D0B4E208982AF041FAB0E2012529F067
:102D40004DFB002800D1AAE24D48C06A002800D1FE
:102D5000A1E00668002E00D19DE0E01C6189227B85
:102D6000637B24690094B04799E2A588277B2846B5
:102D700021F07EFA002800D190E2044629F02EFBD3
:102D8000002800D08AE2A01D61790023009301266B
:102D900031400BAA29F081FD002800D1E2E038483B
:102DA000C078002800D074E20521284627F0D9FC1D
:102DB00074E2201DE17800230093012529400BAA2D
:102DC00029F06BFD002800D069E20BA801780620ED
:102DD000484325300C340421224628F089FD5EE268
:102DE000274FF86A002806D04368002B03D0A0883C
:102DF00000210A469847F978A088002953D021F08D
:102E000037FA002800D14AE20646A07AC00715D05A
:102E1000B01D727900230093012111401A460893D6
:102E200029F03BFD002809D07079022806D3A0893B
:102E300053218900B431084200D1F0E0F87B022828
:102E400036D1A07A000733D4A08803212DE0607822
:102E5000062800D0B2E0A08821F00AFA002800D1AC
:102E6000ACE00749897C491E032900D9A6E0C04689
:102E70007944097949008F440799949EF1B802007A
:102E8000B0770020F36D0020A38841790022184616
:102E900014F0D2FA92E06089012106E0A079C0071F
:102EA0001BD10025BEE10125052127F05AFCF6E1E2
:102EB0000125A08808347179224614F0BDFAEEE1AC
:102EC000E07C002839D013F0C9FD0020E0745020C8
:102ED00026F028F91FF01AF8E1E109A800250826D4
:102EE0002946324629F0B4F9A08821F0C1F900281A
:102EF0004CD007466069002815D00697079011301E
:102F000000210622089027F0D2FC002800D1A4E07E
:102F1000002706220798394627F0C9FC002800D16F
:102F200083E06761069F78790121014009A88171DA
:102F3000B91D062228F0ACFCB4E0607D0026864274
:102F4000C5D2616A895D012906D1F0B20CF0BAFDE3
:102F5000606A00218155607D761CF0E7042027F02F
:102F60006BFF9CE10BA8007826F053FFFF2800D1EF
:102F70008FE10246780745D4002A43D10BA8017897
:102F8000A37C009628461BF0B4FF87E127F0CAF91E
:102F9000002800D196E0CE480078042112F052FEBD
:102FA00090E0CD4800210A4603F056F8A08805219C
:102FB0001FF074FA02E0A08822F010FD0125C54838
:102FC000C06A002800D16AE14368002B00D166E1A5
:102FD000A08862780221984761E1079C204627F08B
:102FE000B1F9BC48C07D874200D388E6218800291A
:102FF00005D0A278089827F0C3FBB648C07D7F1C97
:10300000241DF0E70C2007400C2F00D13CE1082FD5
:1030100000D135E1042FB1D1D007AFD139E1A0887B
:10302000032127F09EFB089D39E105960798007C57
:103030000121014007913E46761C089806700097D2
:1030400007993A463B4629F028FC002801D1300672
:10305000F2D13006059E00D163E76269002A069F1F
:1030600020D00596107C0121014009A881710892A9
:10307000164611360622314628F00AFC78790128D6
:1030800005D138460C30B91D062228F001FCB81DC8
:103090000622314628F0FCFB0898007C02210143FF
:1030A0007971059EA1793879FD22024048080223F2
:1030B0000340D018090702D4DF21084001E0202195
:1030C00008433871A0794107C90F09AAD37906408E
:1030D0001E430E43D6716169002921D00BAE102723
:1030E00030463A4628F0D4FB3046394627F03AF8C5
:1030F0007A4800780D277A4E854211D23168C91975
:103100000A460D3A1278FF2A07D00BA8102227F0A2
:10311000F9F9012805D0714800786D1C1E37EBE7DE
:10312000FF2509A881790026009610AA334629F0C8
:10313000B4FBFF2D1DD034281BD16648007D01282B
:1031400062D0002815D1664801681E226A4388189B
:10315000401C895C0025009510AA2B4629F09DFB98
:10316000002806D110A800780CF0ACFC002800D193
:1031700098E009A88179009610AA334629F08DFBC2
:10318000002804D021F066FE10A908701DE06169D6
:1031900010A80078002918D00623434323331021B8
:1031A0000BAA184627F01AFF00280CD10BA8FF2104
:1031B000102227F07CFB002805D109A98A7901207B
:1031C000104027F0CDFC10A800784249497D884284
:1031D00018D2A26825460C352ACD0F6900950191B9
:1031E0000297039609A90BF03BFB0546A08817F050
:1031F000EBFF002D38D010A800780CF063FC1EF017
:1032000085FE06E0152504E0A08805211FF046F99B
:103210000125A08821F05EFE60780B2802D1A088ED
:1032200022F0DCFB2B4EF06A002812D04368002B02
:103230000FD0A0886278012198476078002808D1D3
:10324000A079C00705D0F06A4368A08803212A4608
:103250009847012527F066F8002820D01C48007800
:10326000042112F0EFFC1AE01A48817DA0880029A1
:1032700002D021F02FFE01E020F0ECFA3546CBE73A
:103280000920024205D079E6D00702D0100700D508
:1032900074E661790022284614F0CEF8012528460C
:1032A00011B0F0BD1EF032FE21F0D4FD10A908705F
:1032B000A1680891E1682369626900292F4600D05E
:1032C0000F69009201910297039509A9089A8AE76C
:1032D000F36D0020B0770020090400007B6F002010
:1032E000286F0020F0B595B00F4609780626002912
:1032F00002D17C78012C02D1304615B0F0BD069287
:10330000BD781D2D01D01B2D1CD132490978FF2914
:10331000F2D000261D2D079070D125F03BFE00282D
:103320006CD00546827A002A67D050B20026002869
:10333000E2D41D21079827F025F8A87A80210143BF
:10334000A972D9E7079025F025FE0024002800D1B6
:10335000BCE2012D06D10546B868B98809AA27F054
:10336000F1F90BE0817804268D42C5D14368002B2A
:10337000C2D00546B868B98809AA98470646002809
:10338000BAD12E46A878401FC1B2C20149085118CF
:10339000C9B2092900D9A3E001252A468A4057234A
:1033A0001A4200D196E0BF78E8410928059500D976
:1033B0005EE2059D4000C046784480884000874416
:1033C0000B001A01980057023901570251015702A8
:1033D0005702E100A47E0020052F00D026E129F04D
:1033E0004BFD09A98A780A980988012A00D0EAE1E8
:1033F00089004018011FC01EEBE12E460596BA68F1
:10340000BB8809A8009000252846214625F042FBEC
:1034100006460028079A00D06EE70FA8FF2101702A
:1034200008A80570F54E706800280AD00368002BC4
:1034300007D008A914460FAA20469847224600281C
:103440001CD03078BB7809A900910024114622468F
:103450001DF072FF0646002800D04DE70A980028AC
:1034600001D0069804700599002900D12EE2B878A1
:103470001D2800D02AE21D20887227E20FA80178BB
:1034800008A8027820461AF049FF22460028D8D022
:103490000A98002802D00120069908700599002991
:1034A00008D0B8781D2805D11D208872104624F058
:1034B00037FC2246706800280AD04468002C07D0E8
:1034C0001046164629F0E2F8012801D13046A047FF
:1034D0002E4611E7092903D13169002900D062E79E
:1034E0003546707AC6490978884200D0DEE0002669
:1034F000F1E0092F00D000E109A801884A1E4088A8
:1035000042432423F55C6D1CF5540A9B92B29D182E
:103510009A5C6B781B029A180292327B012A00D0C7
:103520004FE10197414309AA0027178089B203910F
:103530000496354613353946CEB203998E4200D3F0
:103540003DE10499897C0A9A9219521D401F83B269
:1035500028461EF0E3FE002810D0B8B2864206D0FE
:103560000A990818891909AA528828F091F909A915
:103570004888C719099A521C0A8001E009A84088A6
:103580003118D9E7307B012800D0C2E0172F00D0D6
:10359000E7E03069717D0C256943425A09AB1B880D
:1035A0009A4200D0DDE04018418809AA5288914231
:1035B00000D0D6E0828809A989888A4200D0D0E06C
:1035C00080680B9926F09EFF002800D1C9E0019782
:1035D000707D411CC8B271753746317D884200D379
:1035E0007EE1396945434E193888495B7288B38852
:1035F000B5680095AAE0072F18D129F03DFC0A987C
:1036000009A9098889004018011F0978C01E00789F
:1036100000024018F189884200D31AE131460C318A
:10362000401CB08130881DF0BAFBE0E009A80079A9
:103630000A28A4E00D2F00D09EE029F01DFC09A867
:103640000588308826F0BEFC401EA84200DD00E15F
:1036500031460C310998F2891018F081308827F032
:10366000FBFEC4E0112F00D092E00998401E09A98A
:10367000498841432420325C521C32540A9889B252
:1036800040188178C0780002401800259949884286
:1036900000D1F3E0411CB181F189814200D8EDE015
:1036A00031460C31308825F025FFA0E0BB7809A910
:1036B00000910024079922461DF03EFE0646002890
:1036C00009D1B97809A820F08FFD0028264602D03C
:1036D0000026069806702946A8780328079808D17E
:1036E000898909AA1288914200D311461EF06EFF03
:1036F0002946084617F057FFFEE509A80079062875
:1037000001D00A287ED12420305C00283ED101203F
:103710007BE0172F25D1308826F054FC401FB18B59
:103720000A18B283718A511A8BB2B18A8B4200D3C4
:1037300091E00197CD1A854200DB05463088318A39
:103740003746B669F3180093ABB292B21EF0E2F8B6
:10375000002800D1BCE00FA8002101703E46019F67
:1037600002E00FA80021017030880FA927F038FE71
:10377000012F17D101201EE009A800790728059D17
:1037800076D12420305C0028059D71D0002556E0BC
:1037900009A800790A28059D6AD12420305C454299
:1037A00045414CE0307A51491CF08AFB1920B07039
:1037B0004F48706016200125012859D084E0049EEE
:1037C000019F029925E012224A43801801461239CE
:1037D00011380978007800024018F189884238D2FF
:1037E00031460C31401CB081308827F005FE307A1C
:1037F0003E491CF065FB162540E0C046A47E002033
:10380000636F00202420305C401C2421705409A8E0
:103810004188481E00250A46374988420FD8308A19
:1038200082420CD2521CF281317B012916D10FA9A0
:103830000A804880314888802820887110E0012F54
:1038400016D1002D14D109A800790A2801D101252B
:103850002DE0002512E00FA8012184E731460E314A
:10386000308825F059FE307A20491CF029FB1625B6
:1038700009A8092F02D10088002813D0707A09A95D
:103880000091002207993B461DF056FD002802D00A
:103890000120059006E009A8394620F0A5FC414228
:1038A00041410591162D0ED0002D059D07D1707A4E
:1038B000B378002100911A2207991DF03DFD304692
:1038C00017F071FE00E0059D06980570264613E589
:1038D0003E46387A05491CF0F3FA1620019F6AE744
:1038E0003E46B87D0FA9087039E7C0463075000024
:1038F00033D00200FFFF0000FDFF000002030000C4
:10390000F0B593B0002800D127E204461B20000147
:1039100020180D905B20800020180E90FF2001469B
:10392000663163182321C9006118099101460631E7
:1039300061180B912146F0310F912146843110918D
:1039400026467736214676311191214667310C9112
:103950000E3020180A90581C02902046E030069045
:103960002046A43005902046D03004902046B43044
:1039700008902046BC3007901C4F1293B07A002567
:10398000002800D14DE2317808462D380D2800D8A6
:10399000E8E1881E232840D84000C046784480884B
:1039A00040008744E80143002500E3009600DC0066
:1039B000430013014300880075000F01FD00500013
:1039C000480036016F004300C30043001E01D300CE
:1039D00043004300430043004300430043004300CF
:1039E000430043004300E401E401E401986C00203B
:1039F00029F008FD00D0D4E1F87A002800D1C2E116
:103A000000200C994871F12129F0F8FDA07908995E
:103A1000079A1FF06FFD129BB0E7F22900D112E167
:103A2000F12900D1FDE1F32900D1E2E1002027F0E6
:103A300003FA129BA2E729F0E5FC00D0ADE118796A
:103A4000012808D03CE129F0DDFC00D0A7E118797D
:103A5000012800D025E10E98007E0F2803D0002019
:103A600027F0EAF9129B002018710E98407EA17988
:103A7000109DAA895208EB892D8A2D0900951FF007
:103A8000CDFC65E129F0BEFC00D084E1F87A19E1B3
:103A900029F0B8FC00D093E10B99087C012800D0F4
:103AA0009DE1487C012800D052E128F006FF00206B
:103AB00020F0ABFE4CE129F0A5FC00D0CAE00F9845
:103AC000C07B012800D05EE1F12129F097FD129B17
:103AD00054E729F097FC00D07BE1F87A002800D168
:103AE00051E1608CE08320461BF034FD01250C9FE2
:103AF0003D7020461DF060FF7D710F9D297B0B9866
:103B0000027810201040012900D001E1002808D0DF
:103B100000201299087048780999896C49081CF0AE
:103B2000CFF9A079002123F097F800E129F06AFC91
:103B300000D041E10D9A1078810600D5C5E08107DB
:103B400000D420E1DD2108401070D0E029F05AFCBB
:103B500000D03CE10D9A107B410656D413E10721B9
:103B600029F068FE012800D1F2E05AE129F04AFC70
:103B700000D083E0F87A00280F9F09D00121109827
:103B80008175A0790A4629F0A9FD00207860B86007
:103B9000B87B012800D0F6E0062129F02FFDB4E023
:103BA00029F030FC00D0FEE00F9F387D032800D1C3
:103BB000A1E0022800D041E1A17900200A9A1CF07E
:103BC00055FD9FE029F01EFC27D0FEE029F01AFCED
:103BD00000D000E1F87A002800D1D4E0608CE083C6
:103BE000B6E029F00FFC00D0E8E00D9A107B41060A
:103BF0000BD4C10700D0A1E0810700D428E1BC218B
:103C000008401073A1791A209EE0BF21084010736C
:103C10009EE029F0F7FB00D0DFE0F87A002810D012
:103C2000002210988275A0790127394629F056FDA7
:103C300003960C9E377020461DF0BEFE7771944FA0
:103C4000039EB87A3EE01098817829F0D7FC0120D5
:103C5000119923E00B2129F0EDFD012800D0E0E0CF
:103C600000220F98C27310988275A0790125294609
:103C700029F034FD11980570129B7FE60F990878A2
:103C8000012800D1D0E04878002800D1C9E006988A
:103C90000599049A1DF0D6F901200F990870129B1E
:103CA0006CE6D87801280BD10020D870A179109D3E
:103CB000A8894208EB89288A000900901A20DEE6CC
:103CC00010980079002843D15DE0DF210140117098
:103CD00001070CD5D72108400D990870A0790E9DD9
:103CE000298EAA8E6B8EED8E00951FF0DFFB0020D3
:103CF0000E9988772CE0A1791A200A9A1CF0B6FC5C
:103D00000020387520461BF025FC129B604F35E6DD
:103D1000002807D00998806C42085E482146029B23
:103D200029F008F8A0790021012222F07BFF584FEA
:103D3000002028732874E881129B1FE6BE210840EA
:103D400010730E98407EA1790022134618F028FDCA
:103D500020461BF0FFFB129B10E6002027F06CF8BA
:103D600001255EE0204629F0F3FC054659E0204697
:103D700029F0C6FCF9E729F045FB4DD1B87A0028B7
:103D800001D0162103E028F011FF4AD1222120465C
:103D900025F078F9E4E712213FE010213DE00F2102
:103DA0003BE0042139E00E2129F044FD119908700F
:103DB00001200F99087534E014212EE016212CE023
:103DC00001200B9988740C2127E00D2125E0172193
:103DD00023E0062121E009211FE011211DE028F048
:103DE000E5FE1ED128F069FD2225284620F00DFDB4
:103DF00038E01098817808460C38082842D8C04628
:103E00007844007940008744043D04303D3D3D3D09
:103E1000040029F0F3FB0FE0022129F00BFD1199BA
:103E20000870284613B0F0BD052129F003FD0128D4
:103E3000F7D100250F9885730120F0E728F0B6FE32
:103E4000EFD1A179222528460A9A1CF00FFC09E03F
:103E500028F0ACFEE5D1A1792225002228461346A0
:103E600018F09EFC2046294692E7F12129F0C6FB76
:103E7000A0790E9C21886288A388E48800941AF0B7
:103E8000ADF8CEE70025284626F0D6FFC9E7C046A4
:103E9000986C0020859F0100F0B5A5B00446FD4850
:103EA0004068002802D08047002843D003200C90AF
:103EB000FD4AFE480078411E1394002C0E9100D05C
:103EC00001210C9B1B04159353780F939378169341
:103ED000D1731746183700241494844222D21698BE
:103EE000A0421AD0E5B2002117AA0426284633467C
:103EF00027F08AFB17981599084202D01499491C9B
:103F000014913043C0B27C2806D10621F8262846F9
:103F1000324627F085FB3E70E34A641CE348007894
:103F20000C37DAE71499C9B2401E884204D150799F
:103F3000002801D1002028E201200390C302139938
:103F4000002901D0084600E01020591A049112936C
:103F5000181A079000200B9006900F9D0E9C0B994D
:103F6000200400D1DFE11491D07B002801D1012091
:103F7000D073EEB2002717AA04233046394627F043
:103F800043FB17981399002916D01599084210D0B1
:103F9000701CC649097820F0FDFE0D46FD4A1298B6
:103FA00010825173D07B401ED073641E1499491C3B
:103FB000D6E70F950E94149FC0B2702804D00F98C6
:103FC000C0B2702122F0B0FE0A971698C4B2002544
:103FD00017AE042320462946324627F015FB3078D9
:103FE000FE2803D0FE21204622F09EFE0621FE265A
:103FF0002046324627F014FB0C22104611946043F1
:10400000E44F394616310C18A01C0990A67016987A
:104010003873129838820F9E7E73F3B21093149205
:10402000104658430818C08816907882FF20B8734D
:10403000BD827D208100DA48059128F021FED44818
:104040000570F87BD549109A51180818D24909789B
:1040500000B21CF079FE169B3A4637461091A01D1F
:104060000890E0880D902946CB4800781690FCB265
:104070001198844200D1C7E0E80700D0D8E03E465E
:104080009FB2162F18D8002903D014986043101837
:1040900083831098C0B2844200D1D0E0601C16998E
:1040A00020F078FEBB4A0F46084614994843101882
:1040B000838B00252946DAE7B5480078002800D030
:1040C00038E70F911693D81F029081B218AD2046A1
:1040D0002A4619F01BFAE98908461030B8420DD873
:1040E000A87A96280AD10298471A18A8427AB8B234
:1040F0000D4623461BF046FD00282AD0169B5B1E6A
:104100001D46A44A37461693A8B217280F9935D3EF
:10411000362802D82E46163E00E02026AD1BB3B24C
:10412000A9B21DAA204627F06FFA9A4A169B3004BE
:10413000EAD0B0B21DA94018401E0078962801D0E0
:10414000761EF4E7731900200F99002503288BD100
:1041500076E02B4618A8C07A0025C10708D1019740
:10416000002580078B4A37460AD4019B284603E086
:104170003B462846874A37460F99E7E70C98E4E71D
:10418000DB1D0D9880B299B20918129800918142F6
:1041900003D90220039D169BEEE77D480078019924
:1041A0001691190420D000281ED102939DB20598C3
:1041B000854200D3059D169881B22046784A2B4649
:1041C00027F022FA0D9FB9B21198754A2B4622F0BA
:1041D000F7F86F49087016997F190D974919029BD6
:1041E0005B1B6C4A3746DBE70F98401C0F900020A2
:1041F0001299009C8C4203D1019B0D91039DBBE75A
:10420000019B0D940546B7E761480078002800D06F
:1042100090E6624816990818001900B21CF094FD47
:104220005C4A0F46C8B2149948431018838B0CE0BF
:10423000002905D0149844431019838300E0109F8F
:1042400053480078002800D074E60D9911829382BB
:10425000977308980180517B12204E4A125E012408
:10426000119E3046234624F0A5FD4A48817B142048
:10427000484A125E0223304624F09CFD4548008ADD
:104280001399002908D004998142069A05DB224639
:10429000069402E0287900200022079981421092BA
:1042A00006DB7C2105E0C046C4660020536F002079
:1042B0007821304622F038FD0EF072FA0546354F6F
:1042C000F87B401BF8730621FC243046224627F079
:1042D000A7F909980470B8780A9989B2691808187A
:1042E0002D490E78314620F055FDB9701691481CC5
:1042F000C0B2314620F04EFD7970B97B1498484326
:104300003818808B102805D1481C314620F042FD1A
:10431000204A00E03A460F9110990E98401B0E90EB
:10432000C80700D119E67C2023F094FA0446FF2840
:104330001AD17E2023F08EFA0446FF2814D11549A5
:104340004C780C2060430818807DFF2808D08878BE
:10435000114909784018401E1CF0F6FC0C4603E099
:104360007E21204622F0E0FC0A4DEC70E0B20C21E8
:1043700041436818808BE880A878FE2122F0D4FCA5
:1043800000206871288A1299081A00B225B0F0BD81
:1043900028790020C4660020536F0020FFFF000032
:1043A00094550020F0B59DB00446FB4E3078FB4D8F
:1043B0002870032800D024E100203070287011A854
:1043C00028F0CAFC002800D019E101200F901190BC
:1043D0002846243011A920F09FF8002800D00EE1D3
:1043E0000F98C0020D90EE4F5E21384628F048FC31
:1043F0000C370A21FF2238460C9228F0B3FA23F03A
:1044000065FF0020109021461FF04CF9A860294656
:104410000C3128F027FD2C696D692046294620F0D3
:10442000B9FCC1B2062900D30621DD480170DD4F79
:1044300039700D98854200D0E1E0C802844200D274
:10444000DDE0D6488068002800D1D8E0D44A109E2C
:1044500056710C9BD3700F98C002D08006960996B7
:1044600007960596049608960A960193029303937D
:10447000CCB2A64200D3C6E0F4B200251CAA0423A5
:104480002046294627F0C0F81BAA20460E9529464B
:10449000F14DA84701271AAA20463946A84702210C
:1044A00019AA2046A8471C99C8B20246703A0E2A9B
:1044B00004D83B469340E94A134203D10246FE3AF0
:1044C000022A03D28A0CE64B9A421FD0204611F0F2
:1044D0009FFEDD490870002800D0CAE0354600265E
:1044E0001CAA04232046314627F08EF81BAA20463A
:1044F00031462E46D84DA84701211AAA2046A84782
:10450000022119AA2046A8471C99C8B20C2210966D
:104510007243CE4B9E183346163318700A0AF27552
:104520008903890F71761BA989783176FD2801D915
:10453000102126E01BA90988CA4A914221D10B9378
:104540000E9814900D9DA8B2051FA9B214AA0423B9
:10455000204627F059F81498411C03D12946C24A35
:104560001140F0D139460B9BFAB2042A06D8C2B2E8
:10457000FF2A00D03946000A7F1CF5E7C8B2291887
:104580001878B1831AA98978B1761A99F18319A993
:104590008978F17619993184702828D07828AC4F21
:1045A000109E20D07C280AD07E2812D0FE280BD066
:1045B000FF2814D10698401C069003961CE005982D
:1045C000401C0590029617E00998401C09900C9633
:1045D00012E0B0B201900798401C07900CE00A98D6
:1045E000401C0A9008E00498401C049004E00898DD
:1045F000401C0890964F109E761C397838E70120B1
:1046000030701DB0F0BD0A9800060BD10998C0B2F9
:10461000012807D80898C0B2012803D80798C0B26B
:10462000012810D98B48042202700024CAB2E0B2DB
:1046300090420FD211F0ECFD834A117801431170C2
:10464000641C3978F2E70698C0B2A04214D18148C0
:104650000022027000207D4C6070491EA170E07045
:10466000A18BE1807E2122F05FFBA078FE2122F069
:104670005BFB75480078C4E70898000624D00998C9
:10468000000605D10698000603980C9000D18BE037
:104690007048022101706D4E0C9FB770781C80B27B
:1046A000214620F077FB7170FCB2204611F0B0FD7E
:1046B00065490870FE21204622F036FB0F98707184
:1046C0000020FFF7E9FBD4E7099800061ED00C98FC
:1046D000039060480F9A02705C4C0398A070401CD5
:1046E00080B2C9B220F056FB6170029880B2FF28F8
:1046F00022D10198FF2800D098E0544AD17088B2A6
:104700000C2141435018808BD080B2E70598049A61
:10471000104300064E4F85D024F038FBA04247D30B
:104720000698000600D18AE048488078FE2122F0F1
:10473000FBFA47480178CCE7444A0299D1700C2132
:1047400041435018808BD080182892D3C11F029803
:10475000C0B289B214AC224618F0D8FEE07A400705
:10476000AED53A49C878C98814ACE289891AC91FFC
:104770000022009289B20323224608F03BFE002863
:1047800000D076E7A189002900D172E714A8007C47
:1047900020F000FA6DE7C0462B7E0020287900202B
:1047A000C4660020536F002024F0F0FAA04246D2E5
:1047B00028480321017024F0E9FA0446234E30739F
:1047C0000C25284660433018817E7173C07EB0731B
:1047D0000DF0E6FF00191E490C78214620F0DAFAA8
:1047E000B170481CC0B2214620F0D4FA71707C2010
:1047F00023F030F8FF2810D17E2023F02BF8FF287B
:104800000BD1FF2023F026F8FF2806D1782023F0D3
:1048100021F8FF2801D10D4840780C49C870C0B27A
:1048200045434819808BC88088781FE70749019A5B
:10483000CA700C2050430818808BC88019E70548BF
:1048400006210170FEE7C04628790020C4660020DA
:10485000536F00205E6F0020BDC4020001510000B4
:1048600083250000FFFF0000FCFF0000F0B587B0CB
:1048700016460546041D50040595029440D4019146
:10488000C805C00E00D188E0052080033146814371
:10489000039100200690814C81480068042800D2D2
:1048A00087E00496002022F0A5FF80B2451D2F4628
:1048B0007C480740606939461FF052FC0646606933
:1048C000864204D008200699014306916661002EB5
:1048D00068D0A908F0893546103528181CF030FC3E
:1048E000F0892918E279CA70C019F081042006996C
:1048F00001430691059D686B28F0AAFF039ECBE754
:1049000004962E463036F64C24F038FF039028F0FB
:104910004AFB6F6B7969B869009121600002F24926
:104920000860F248808DF34CE08123F0BAFFEF4934
:10493000888600200190EB4908830697788AEA4927
:10494000888010206071688824F084FA04463078EA
:104950001AF046F829468227002821D00546084645
:104960003130007821F0D8FC002800D0AEE0032CD4
:1049700000D0AAE00698007C41424141284603F05D
:10498000B7FA22F0EFFED748019AC286B056C1B2FC
:10499000402900D2CCE01146CCE00020069011E086
:1049A0000D4694E085206071D54801210160059D88
:1049B000049EA079002804D0A86BCF49C9681AF0DA
:1049C00041F8029C0198800431D50496C94E708943
:1049D000CC494968411A4220375A0391B94225D23D
:1049E0004420345A686B24F011FF002810D00221B3
:1049F00001728189B26B904202D10020B063F063F2
:104A0000481DC14908403F1A641E0398B842E9D3C3
:104A1000039887420DD1002C0BD43836039870814F
:104A2000B481102006990143029C09E0049E069976
:104A30000AE084207071B24801210160029C06994D
:104A4000B148001D049E06437006C70F0F430120A6
:104A5000C503681C019901422ED0032000BF00BF8E
:104A6000A14880880599496B48820224A148407971
:104A700010281BD1019828409C48008814D1411E61
:104A8000062900D996E013207944097949008F441A
:104A90000D03939191959700142007E00066002084
:104AA000CC110840FCFF010021F0B2FF2743029C1B
:104AB0002178000208182080B807059D14D5A86B3E
:104AC0008D49C96819F0BEFF0EE02746059D049E7A
:104AD000F8B20F2801D8002000E00120029C2178C4
:104AE0003A028918218047006078000203210902F8
:104AF000884212D1F00305D5686B28F0A9FE012089
:104B0000000486438048001D064206D0686B794A3F
:104B100038320023D9430CF04DFAB80705D523F0FD
:104B200067FB27F06FF926F095F9384607B0F0BD1E
:104B3000402211437F240028059D049E01D408468D
:104B400000E02040694948866A490979002904D073
:104B500000060099484066490860FF206249888243
:104B6000284603991CF06AFB07460F28B0D8A86BAB
:104B70000025002829465B4B45D05F49C96819626A
:104B80001C820021417084700278D2071CD1564AE1
:104B9000D186118751879187D18719805980998053
:104BA000D980198159819981D98101758160C1604C
:104BB000016124E0102079E7152077E7412075E7AF
:104BC000022016F0C3FF71E7017A474AD186417A85
:104BD0001187817A5187C17A9187017BD187417B87
:104BE0001980817B5980C17B9980017CD980417C6F
:104BF0001981817C5981C17C9981017DD98100789D
:104C00000221014049083B4881710298007801283F
:104C1000284604D13848C0680599096A081A0190E5
:104C200024F01CFA23F0FAFA324E308175610598AF
:104C3000406B28F00DFE012725F0C4FA708106981C
:104C4000017C00292B4604D0428A182111404B4296
:104C50004B413E04274C22463832A563E563177268
:104C600055819581022103920CF0A4F9A2791F4885
:104C7000808D2249002A02D08031084602E0400798
:104C8000400E4840059D0499B1430E4627F0D6FCDE
:104C90000698007C002806D0698E019840180028EC
:104CA00003DC132702E004240BE00327002902D0D1
:104CB000012800DA0CE7002900D10846094948829A
:104CC000032427F0D3FB022000BF00BF0C48046080
:104CD0000023D9430698039A0CF06CF90327F7E6F2
:104CE000401408407C2009403C200940062009402F
:104CF0004014084000660020AC6A002071A100004A
:104D000030100840CC110840FCFF0100F0B58DB018
:104D100000270C970B971E25002800D11EE2066E77
:104D2000002E5AD002950446203431466531089150
:104D30000A9035463035311DEB48801C3080778035
:104D40008F7003910F80F771E848B06030460C30E7
:104D5000242127F095FF072007902870681C0F2159
:104D600027F08EFF0920069404902056394626F03D
:104D70001BFC68700A98406E407A28700595AF70E9
:104D8000079D3446403430466830B463F0632A21CE
:104D9000204627F075FF7F2008994871F76637672E
:104DA000099677670A9E0BA90CAA30460EF012FAF4
:104DB000072800D1D2E1019442360B9800900028D8
:104DC0000DD00C98099C2062039D29880122114373
:104DD000FE2399432980E27103E01225BEE1099C7C
:104DE000206A7D25ED23E04912226261A1610A9CBF
:104DF0002061B776DD4800780796F076606E017D19
:104E0000022906D100201E4626F016F83346606EB1
:104E1000017DED009F00827D099E304627F0EBF971
:104E200006980499415600223046049221F03CFA3B
:104E3000606E40784006079E0CD5E07DC10602D426
:104E40002146173102E021461F31E07F4022024314
:104E50000A700A9C099B5D19D81903903078342197
:104E6000059E725CC007800FFD273A4010187054F1
:104E70001846583021463031062226F009FDE17DE2
:104E8000C806264601D4099C20E0726E5078800640
:104E900001D4099C09E0FE200140F1755278920787
:104EA000099C02D1F27F0240F2773940F175084641
:104EB00021F0FFFD307663885907C90F421C03209B
:104EC0001840002320F021FA7083F17DB07D3F234C
:104ED0009843327E05931A401018B075039F3870BE
:104EE0007970A34820187860079B1878C007400F96
:104EF0005A78D207120F8018C01CB870049AFA7042
:104F0000BA605888974C2040746EE47D24032018C2
:104F1000588030460BF0AAFD307E401C2978FC22D8
:104F20000A402A70C2B20721304628F067F90546C8
:104F30000028019C00D011E18E4E3078012804D069
:104F40000A98406E817C002928D028F0C3F80646D4
:104F500028F0C4F80146304622F0C0F90028029D2E
:104F600000D0FBE03346089A1078182101431170F5
:104F7000804E3078012803D123600A98406E0BE000
:104F80000A98406E817CFE220A40022A00D12360EA
:104F900002221143032901D109994B64817D481EE6
:104FA000022807D3832904D17348C18E0220084305
:104FB00000E00220099CB8812546503524F030FEDF
:104FC0000146284626F05CFB3078002804D0089A79
:104FD00010781C21014311700A9EF07F21F069FDB9
:104FE000069D2870304617F023FF2878411C099150
:104FF000F17F7970726E53789A0709D4079A528AB2
:10500000DB0710D1002A1CD0079A5079B16D1BE044
:105010000498F870B860CF200140F177084621F07D
:1050200048FD287018E0FA70002A01D0B36D04938F
:10503000049BBB60EF231940F17709998918099106
:105040000AE000200146079A069BF870B960507983
:105050000999411809911878079A518AD2794243DF
:105060005218B8894107C90F03230893184092B218
:10507000002320F04AF9B084706E4078400706D5CE
:105080005E3431463C310622204626F001FCF17F99
:1050900034460026204632460BF0E8FC0998C2B29E
:1050A0000721204628F0AAF8002807D00546206EE0
:1050B000483024F0ABFB0028F9D14FE0606E407817
:1050C00081072DD50798C1797878012901D9102158
:1050D0000843022188437870079A518A002907D033
:1050E00056790A9CA16D05E0FF0F000091000000B9
:1050F00031460A9CFE70B960C1B2002220460BF016
:10510000B5FC787821F0D5FC27F05AF80721204625
:1051100028F074F83878284080303870606E407815
:10512000C00715D00022FA70BA60089979700A9CFD
:1051300020460BF09BFC787821F0BBFC27F040F870
:105140000821204628F05AF8387828404030387036
:1051500000250098002801D025F0A4F928460DB0BC
:10516000F0BDC046FF0F000035D40100DB7F0020FA
:10517000C2030000646E0020147A0020F0B595B0E0
:1051800027F0DCFCFF2800D1DFE10446F048456849
:1051900027F0D4FC7B2291004143681871218900DB
:1051A000405CC00700D0D0E10B92E0B228F062F87A
:1051B00007460646FF202030395C012903D1381804
:1051C00041783046BFE10F20400138180F90DB20B6
:1051D0004000381812909F243D46763528F079FB20
:1051E000A87C022814D10F98007900070ED5B17958
:1051F000708E4208B38EF08E0009009000201EF0E1
:105200000DF90F9A1079E721014011710020A8745F
:1052100004954B21912260003B4696330D93129BDF
:105220001B78022B02D10023129C237089005500A9
:105230003C1838462E3005900D98007802280BD186
:10524000002014910D990870B07939466231059AA1
:10525000127B1FF05FFC149913967E180A97781939
:105260000C90218B002902D0A07D10F0EBFC0720D0
:10527000039028F02FFB139A50891081B54F797C49
:10528000787B11904318F87B14901818BB7BC018DA
:105290003D7C089540191090AF48056892793C20F4
:1052A00007900292504328183025405D0690B08840
:1052B00009914018B080F87CF5882818F080387D76
:1052C0003589281830817089119A80187081B089C9
:1052D0000E93C018089BB081F08914994018F08192
:1052E000308AC0183082B87C258828182080787AC7
:1052F000658828186080F87AA5882818A080B87A70
:10530000E5882818E080387B658928186081387A1C
:10531000A5892818A0810C9A9088401C908010883C
:105320001099401810805088119C001950803568E1
:10533000002D10D02146069840002A182B5A109CA8
:105340001B192B524A20135A59181152B87B0E9030
:10535000F87B14903B7C099800280A9D27D10E9871
:10536000002824D11498002821D1002B1FD100201F
:10537000139CE0830F9F38683979039A1140012606
:10538000F2070240501803D0002102981DF088FC5B
:10539000704B587B00281BD0207C002801D0E0896E
:1053A000A081207F012830D1608CE0832DE0002691
:1053B000129806840F9F3868C10F139C47D0397923
:1053C0004A07920F3AD0002102981DF069FC3EE096
:1053D0000C99C888401CC880207C0226002814D064
:1053E00060694000059909785C4A4A4380180B9926
:1053F00009014018149058490968A2793046079E5F
:10540000724306468918149848862089A1898842E3
:1054100004D0401A25D95249884222DC38798006C6
:1054200006D40C980088002800D18AE0082189E081
:10543000A0793E2128F09EF9FD2183E0CAB2521CDA
:1054400003231340F8220A409918386039712089E3
:10545000E1890818A081207F01283E4B01D1608C92
:10546000E0832B20C0002918587A00280FD0012093
:10547000207704980078002809D10498807C0028BF
:1054800005D10D980078002801D1608CE08308795F
:1054900000280BD0022804D1987B002801D10020DD
:1054A00003E0187D002801D00220087158780028F8
:1054B0000BD058682168C86027480168A079079A0E
:1054C0004243891800224A860EE023480268A079E8
:1054D000079B4343D218538E0B601E4B116A226800
:1054E000D1600021E1832177743599787F2900D13B
:1054F00081212970812902D028F00AF9A07928F0A9
:105500002BF9204628F026F92046FEF7F9F9012864
:105510001BD027F0F7FE1348103018F049FA304638
:10552000109922460FF006F8022E01D000202074B8
:1055300000F01AF828F020F9002806D007F016FA33
:1055400003E03E21204623F09DFD15B0F0BDC0468E
:105550005C6E0020986C00204C7F0020C409000085
:10556000AA100000307B0020F0B589B027F0E6FAE1
:105570000446FF2802D1002025F05EFCE0B227F0AF
:1055800079FE04461B2000012318205600280893AA
:1055900006D57F2108401870204615F023FB089B94
:1055A0002246883221462E31A06E0068006800280D
:1055B00002D00020E08311E04820085C00280DD1D3
:1055C000107800280AD1907B002807D1987900280C
:1055D00004D1207F012801D1608CEBE70792009174
:1055E000DD272B2006902189E08B05914E1C351874
:1055F0006581204624F0BAFA002803D1C248007819
:10560000012803D10020E083668135467E0006989C
:10561000C0000690079F387801280BD17A88A9B27C
:10562000059822F04FFA002804D027F054F92DD025
:105630007A8821E0B87B01280BD1208961893A8AD8
:1056400022F040FA002804D027F045F91ED03A8A0B
:1056500012E0089B9879012818D1208961891A895C
:1056600022F030FA089B002810D062892189481C5A
:1056700080B282420AD01A89824207D0501E6081CD
:1056800080B227F0F0FF401EE083089BA519069822
:105690002618987900210291012814D118892189AE
:1056A000491C89B288420ED820461F461AF075FD63
:1056B0006A782A700220B871079FA17900200292AF
:1056C000134617F06DF83079002804D00020E083ED
:1056D0002089401C6081039638780128089510D1F4
:1056E000788821894A1C92B290420AD1608127F0C1
:1056F000BAFF618E4143F8880E18204611F05CFB1A
:1057000000E0668E0F21254620358048E28B059209
:10571000571C774302467A432668F06801921018B6
:105720000690F0607A483822825C002A06D0794AD6
:105730005278002A04D0784800220280608A0EE065
:105740000491754A13885A1C73490A80002B01D0B2
:10575000608A03E0408F039AD28810180499784336
:1057600049010491192109011FF014FB401C6061DB
:10577000A76105992970694B1968A2793C256A438C
:1057800089180A6A3261069A101A0862B0600879AC
:105790008880A08A1A68A679294671430692521811
:1057A00011463231538E400018185086079A1278ED
:1057B000022A05D1009A1278544B5A4310180880D7
:1057C000049AA7182022534B5B78002B079705D02B
:1057D0003979114210D13146069A1DE0029B042B03
:1057E00003D1E1231B01C0180880079800791042FB
:1057F0002ED0002008802BE00021304627F0BAFF91
:105800003879DF210140397144480268A17928467E
:1058100048431018408E0E466943069251180A6A92
:105820003F4BD2180A6223689A60019FD21B1A610B
:105830007B22120182184A86089B1B78042B04D114
:1058400032315722920182180A8090B2039908607F
:10585000618E3448027C437C1B029A18837C1B04B3
:10586000C07C0006C01880180068484364211FF0FF
:1058700091FA264941432A48401890306E430699D0
:105880008919C862FF20063020180421062225F05D
:1058900071FC00280CD027F069F941B21F4E326824
:1058A000A3796B43D318491001220240184609E03E
:1058B0001A4E3068A179694340180799896809220E
:1058C0008956002220F0F0FC08980178002904D1C4
:1058D000002025F0B1FA08980178A079089A127989
:1058E00017F04AFE204628F019F83068A1794D4398
:1058F0004019216848600C4807210170204618F0C3
:1059000075FD002009B0F0BD7E6F0020C4090000C5
:10591000147A0020986C0020A47F00204C7F002087
:10592000C0FAFFFF7C1403006F6F0020F0B591B048
:105930000646002710970F971E20002E00D1BBE1CE
:105940000C90356E0FA910AA30460DF043FC0728C5
:1059500001D10720B0E132462932706E1321405642
:105960007F2805D100211046144623F0F5FE0AE0F9
:1059700010700021144625F017FEC0B227F068FA17
:10598000002800D1E2E00D9430465D3008902846B2
:10599000C0300A90284680300990284665300B9028
:1059A0002C463034291DC548286006918F700F8021
:1059B000EF71C348A86028460C30242127F060F915
:1059C00007202070601C0F2127F05AF90D98C0574E
:1059D000394625F0E9FD6070706E407A2070069BB4
:1059E000188801221043FE210491884318800592F3
:1059F000EA7127F0C7FD7D2149014018286207940C
:105A0000A7703046294627F0CDFC2846403029466D
:105A10006831A863E9632A21009027F031F97F20DB
:105A20000B994871EF662F676F67286A3061A54848
:105A3000007808990870A448007800280D9A16D0BC
:105A4000507E04990840022811D1A04800680D300A
:105A5000144625F0F9FF2246002808D130463030A0
:105A60009A490968C91D062225F012FF2246507E78
:105A7000411E8841079B1946343103910E96342408
:105A80000294195DFD220A4040001018185528465E
:105A90005830303606968E4B0624314622469847BB
:105AA000099E37708B48F0800895059D35810898D0
:105AB0008C3006992246864B9847F4723C20019719
:105AC00037540A9E83487080B58008990298079AD7
:105AD000105C4001402207921040001DB0710D463D
