:100000000090002089A10200DBA80200DBA802000A
:10001000DBA80200DBA80200DBA80200DBA80200CC
:10002000DBA80200DBA80200DBA80200CDB20200C0
:10003000DBA80200DBA8020061250200597902005A
:10004000DBA80200DBA80200DBA80200DBA802009C
:10005000DBA80200DBA80200DBA80200DBA802008C
:10006000DBA80200DBA80200DBA80200DBA802007C
:10007000DBA80200DBA80200DBA80200DBA802006C
:0C008000DBA80200DBA80200DBA80200E5
:10009000F0B591B007910446074631370646303631
:1000A000011D0125069250040F94089101960A95AE
:1000B000059708D408888978090440180021099117
:1000C00003910F4669E127F065F903902AF085FC5A
:1000D0003078384C482160542A4625464835014638
:1000E00011408207D20F51184007C00F0E1820345C
:1000F000142120462AF0F0FA267500266675A675AA
:10010000E6750F9C2C482D4901602D482D4908604B
:100110002D48808D2749C88126F0E3F92A49888631
:100120002848868010200E9022494871EE7009966A
:10013000AE80608826F0AEFC0646387823F0DEFFFD
:10014000002801D07D20C643F0B20328099F00D0CB
:1001500012E125F083FE174F388100267E61A06BE7
:100160002BF052F827F018FE7881A16B088B154A06
:10017000D083488B1084888B50842420085C8007AF
:10018000C00F108388680322109200285DD0827B04
:100190001218D37B0F221A40072A07D87A44127903
:1001A000520097442413030303032A2F49200025F8
:1001B0003D544BE00066002040140840D6BE898EB6
:1001C000005555553C20094006200940084624307A
:1001D000CA8BED4B1A860A8C5A86498C9986007810
:1001E0000A99084098834920395405252EE0492072
:1001F0000A99395403252E4629E049200A99395491
:10020000022523E000226A700A99E9700D46817B7D
:100210000918497C890600D1EEE300210E460FF053
:100220007FFE3520385C00280FD0608803210A4605
:1002300008403946213189780904490D884201D0A6
:100240004C203D543546164601E03546109E4B2065
:100250000D90385C00280BD000233A463832BB633F
:10026000FB63137253819381A06B0830012104E07A
:10027000A06B08300221002213460FF0BBFB0021C7
:1002800000282CD01091022229460C9211404A429B
:100290004A41431E581E834113430993012B22D127
:1002A000D6480B9505800022B74F7A81A36B252590
:1002B000585D03240440FC82585D40080427384000
:1002C000CF4C2085585DC006C00F6085002904977B
:1002D0000BD10020C94988810F9CCA4F1AE08326A0
:1002E00009910F4648E0832630E0586825331B7893
:1002F000D90707D1C4495A073B40D41721405A00B7
:10030000204001E0C149491C0F9CBE4FBB4B2AF065
:10031000BFFDBA490B98C00702D10020088215E042
:10032000A26B1068525D930709D4B74B049D15402A
:100330005207D1170B406A000840B04902E0B34AA7
:10034000531C00220B829E3124F01DFA0D98385C5C
:10035000002810D0A06B083027F064F8002801D1E5
:10036000842179710C990172B96B884201D1002006
:10037000B8630E9F00E0109FF1B2089D2888AA780C
:10038000120480180A02FF231B0298438018288059
:100390000F2901D902210F430A9DFF2109020140C3
:1003A00003200E900002814262D1A8040490984E6E
:1003B00029020846B030079A024202915ED01046E8
:1003C00008400C90069D284630400B909148C06A2A
:1003D000042857D3109700200D9025F073F880B2B1
:1003E000471D3C460E988443864E7069214621F095
:1003F0000DFE324606465069864204D00820109908
:10040000014310915661002E3ED0B908F08935188D
:10041000103528461EF002FF7A4A0C980028109FDB
:1004200017D04B20105C002813D068680F210904F6
:1004300001400E98000481420BD1284625F0D4FDDE
:10044000704AC00602D535200D9911544D200A99E5
:100450001154F0893118D279CA740019F08104203E
:1004600007430F9CA06B2AF0CFFE0B9D684EADE7B3
:10047000B80701D500F01DFC00F021FC1097069C88
:10048000254613E05F4A07E08520507162480A99CB
:1004900001600F9C5E4E109F90790028109704D049
:1004A000E06B5E49C96822F005FB069C0498044095
:1004B00068062946C50F0A4608460299084003D037
:1004C0004A2701234F49CB55A40C10990D432F46C1
:1004D0000799C907154614D00499294011D13E4601
:1004E00047490988042920D12748406D45498A6930
:1004F000801A0F9A506340204871032000BF00BF4C
:1005000049E00798000455D53E484079102803D1AA
:100510003B48008824F052F929F0C2FE404A29F0F5
:10052000CDFE07430024099444E0AA052AD4CB1F3A
:100530005A425A41334F4A23FB5C5F1EBB4100289D
:1005400024D11A4322D102292E4F03D13520385C01
:10055000002820D1012009904820385C002800D1D3
:10056000B0E22C4805210160B879002805D00F9829
:10057000C06B2A49C96822F09DFA25F059FC002475
:10058000374616E0032002E03C200940022019F023
:10059000DFFC1C4948711B48407929F081FE204A44
:1005A00029F08CFE37460743032000BF00BF00241C
:1005B0000994174EE80304D50F98806B2AF024FEA7
:1005C000354005990998002800D1CCE00D4A482013
:1005D0000C90105600280D9428D44E78052E00D982
:1005E000002607210840801E052829D87844007974
:1005F00040008744191723211D27C0469620094033
:1006000006200940006600200A8000000A80FFFFE3
:10061000FFFFFEFFA011084030100840AC6A002028
:10062000FF00FF00F0070BD026260DE006460BE08A
:1006300001200640263607E0F00701D0272603E018
:10064000252601E0760825362020105C918923F0CC
:10065000C5FD0446F0B20B901CF0E4FA002814D05B
:1006600010970A998F030121099106F021FD24F0CA
:10067000E1FE3D4214D10598807800283DD0E04845
:1006800028F08AFD0746089D5BE0089A2AF033F9B6
:10069000DC4908404121490229F02EFE0D9C62E010
:1006A0000F9803991EF038FE07460F2822D84B20DA
:1006B000D54A105C00280AD03520105C002806D0EE
:1006C0000C9829F0B9FF002801D17D20C7430D9C6B
:1006D0000F98C06BCD4DE9681FF06AFBCA4A907154
:1006E0004A2000211154287F800701D029F0ACF95D
:1006F000089D27E0089D0D9C27E04B20C249085C1F
:100700000028089D1AD03520085C002816D0A708BC
:100710001D371E21384622F06DFA781A8000972185
:10072000C9004018703028F037FD07460C98B64ACB
:1007300029F082FF002804D18227DCE729F006FE99
:1007400007460D9CF8B210284DD32888A9780904D3
:1007500040183902AB4A104001432980000CA870B0
:100760000220109F0743002C00D19AE2A6482125C1
:10077000405D3F26064030461CF054FA00280F9C8E
:1007800023D009960A9906F093FC24F053FEA06B3F
:1007900081680020002922D00C910D9010974C24E4
:1007A000994E375D2020305CB18923F017FD01465A
:1007B000002F27D002984118E0310B919348008D0B
:1007C00026F068F9002030551DE0089A2AF093F8C9
:1007D0008C4908404121490229F028FFE0E00B90B4
:1007E000894A0646B3E08A490020888375B20B998E
:1007F000402901D240203043834A864F002D2BD41C
:1008000006462BE00B91109F0C9EB07B8019C17B9C
:100810000F242140072913D1477C0021304607913E
:100820000FF07EFBB809022874D001285ED00028A2
:100830000F9C109F00D083E04920734A079984E001
:10084000089A2AF058F86F4908404121490229F0D6
:1008500053FD0F9C6C4A79E07F200640F0B2788609
:100860001079002804D030066B4941406B48016084
:100870004920105C00280AD0164626F0FBF9B27910
:10088000B88D6749002A06D08031084606E00998ED
:10089000C003401C02E08007800E4840109F29F0F2
:1008A00003FC29F021FB022000BF00BF5D480521A9
:1008B0000160002D15D40B982538099B8340524ABE
:1008C0000C99505C9843505405998978002900D1BF
:1008D00049E7002800D046E7019800780C99505469
:1008E00041E70020FC490C9A88543CE73520FA4B3C
:1008F000185C00280F9C109F00D168E149200799DF
:100900001954089A29F0F7FFFC490840A90229F078
:10091000F3FC13E03520F04B185C002800D16BE1AC
:10092000492000211954089A29F0E5FFF3490840AD
:10093000A90229F07BFE109F07430F9C1A4605E091
:100940004920E54A07991154352011540D9EA06B9A
:1009500008303832012133460FF04CF80546334653
:100960003246002D0DD0681E414241410E4208D151
:100970001092411E8841012219460A9251400143BA
:1009800010D13846089B19889A7812048918DB4AD6
:100990001140832212020A431A80090C997002271F
:1009A00007437FE10C930D969720C1000B980791A8
:1009B0004018703084081D341E21204622F01AF998
:1009C000601A84004D20C44E305C00282CD048367C
:1009D000F079C1498989069123F000FC0B900C2025
:1009E000069923F0FBFB079961180B9A89180C18DC
:1009F00000207071B84E18E08426154627E4C046E2
:100A000088130000FF00FF0000660020AC6A002091
:100A10009620094006200940D6BE898E4014084021
:100A200031810000301008400834204628F0B4FB23
:100A30000B903520305C002811D02020305CB1892B
:100A4000344623F0CBFB4821715C324648321279A0
:100A500010F084FE002802D17D20C0430B90109836
:100A6000A04908809A48042444810F99896B25265F
:100A70008A5D0E9B1A40974BC282885D40082040D9
:100A80001885885DC006C00F58855020924A105CBA
:100A9000002802D0588D204358850D9800280C9AC4
:100AA0000CD0486825310A78D1073AD18E495307CE
:100AB0002240DB1719401840520035E000208949D8
:100AC000888136E03520385C002800D163E521209C
:100AD000385C2137797809020818B9780904401878
:100AE00087490140802900D055E5814807210160F0
:100AF00025F09EF94C207849095C0020002900D19E
:100B0000E3E0B9780904490D0F9A52880423134091
:100B10000B4379490B850121C90337460F430990DF
:100B200047E57249491C00226E4B2AF0B1F90C9A34
:100B3000684B002A0DD00F98816B08688A5D910779
:100B40000ED4694914405207D21711401040620078
:100B500009E00020634908820F9C5F4E0B990CE06E
:100B60006249491C00225C4E5E4B198219469E3137
:100B700023F009FE0F9C0B99564BC8B2102809D3DD
:100B8000089A10880B4691780904401819025B4BAB
:100B9000184021E60024534884830999403159863E
:100BA0003079002804D008064D4941404B48016087
:100BB0004920305C002853D026F05CF8B2794548D3
:100BC000808D5049002A4FD0803108464FE049209F
:100BD000012119543068002800D1D2E6A06B0830FA
:100BE0000D461A4638320221079E33460EF002FFA8
:100BF0002A4605460A9BB4E6492001211954376864
:100C0000002F5FD0B87BC019C17B214007290BD1D1
:100C1000407C3F2808D8B07B3018007C0B30FC218A
:100C2000014038460FF07CF90F9CA06B08302A4A2F
:100C300038320226002531462B460EF0DBFE3246C6
:100C40002B460546B87B3818007C2349483188710B
:100C50000C9EB07B3018007CC8710A9E109F80E605
:100C60000A98C003401C02E08007800E484029F02B
:100C70001BFA29F039F91F48052101600F98806B94
:100C8000083026F0CFFB002801D1842171710221A8
:100C90000172B16B884200D1B4636D1EEED1102099
:100CA00007430F9CB8070AD5E06B1349C96821F0C8
:100CB00001FF25F0BDF828F009FE27F05BFE38465D
:100CC00011B0F0BD10980F9C5CE6099C099057E4A8
:100CD0003C200940062009400066002040140840DE
:100CE000D6BE898E962009400A8000000A80FFFF48
:100CF000A011084030100840AC6A0020FF00FF003F
:100D000080FF1F0031810000F0B591B0002902D4AE
:100D1000002400F01AFC0C46284D287819F044FAFB
:100D2000002801D100F00EFC07460078A2280D979C
:100D30005DD0B02801D000F002FC0EA80021018097
:100D40001F4E7068002808D129F018FC2AF0ECF832
:100D50007060002801D100F0EDFB07942C4614349C
:100D600000261822204631460C9228F0AFFF387931
:100D70000125811E162900D9D6E3401C0690059452
:100D80004900C0467944898849008F441B00CD033F
:100D9000CD03CD03CF00CD036900CD031502CD03F4
:100DA0004802CD036F00CD034701CD03D401CD032D
:100DB000CD03CD03B002CD037A02C046787900207E
:100DC000807800202E4629F0D9FBF54DA88278883E
:100DD000214626F0E1FE002800D1F8E23889A98AF0
:100DE000884200D30846A8820125032089E3787948
:100DF000652820D1EA480C300C902AF01FFA002810
:100E000026D006460089B17A37460C373A4611F0AB
:100E100009FE0546142801D0002D0CD10C9831464E
:100E200028F07AFA142D03D1B17A384629F01CF84B
:100E300030462AF081F8DB480078FF280D9F00D16A
:100E40007DE3394626F01CFD002800D077E379E3E6
:100E5000D4480078D4490870D44900220A70ECE7DD
:100E600000210EAA38460BF007FF2BE3788826F006
:100E7000A3FE0890461ECA48808A00221346CC4C26
:100E80000496B9898B4200D3BCE280B2864200DC72
:100E9000B8E20A93B86881180C92805C497809021C
:100EA000081880B210A920F05DFF0125002800D1AC
:100EB000AEE20146099578880B9010AA1288636803
:100EC0003879B6B20027B64CA51C0095019702965A
:100ED00003900B9807F008FB002800D09BE2A06964
:100EE00000280D9F254609D178880F210023B14A9B
:100EF00017F070F8A861002800D12BE3A98A6A884E
:100F00005318089CA342049E02D3721A6A8092B2BC
:100F10004018A74C616828F00BFA6888A98A08185D
:100F2000A8820A9B5B1C0C9A921CAAE7788826F080
:100F300043FE29F0CAF910AC009419F0C3FD054630
:100F4000701F0A90F01F002480B20990944EB01CCC
:100F50000890A1B2002D00D122E20A98884200DC5C
:100F60001EE20B910C940D9E708810A90A8890497E
:100F70004B6831790024089F00970194099F0297DC
:100F80000391294607F0B0FA00281CD1328A844820
:100F90004088824217D170698549496827F07CF8FA
:100FA00000287F4E10D0B06900280AD10D984088E3
:100FB000072100237F4A17F00DF8B061002800D107
:100FC00072E36C8900E0764E0D98418910A8028882
:100FD0000FAB284616F08AFD0546002C13D0B069E9
:100FE0000C9A511C0B9BC454200A1446B269A31CD2
:100FF00089B25054002D99B207D00F98B26950545D
:101000000FA8407804E00C9CA3E7B269FF2050547D
:10101000E11CB269241D89B250549AE7788826F001
:10102000CBFD29F052F910AC009419F04BFD0746A6
:10103000B01F0A9000255A48801C099008950C950D
:10104000002F00D101E20D9C608810A90A88394662
:1010500019F01EFC002800D0B4E10C9E60880B90B3
:1010600010A90A8852494B6821790A9CA4B23846D3
:101070000027099D00953D4601970746029403917C
:101080000B98394607F030FA002800D09AE1B4B244
:10109000002C0FD04248C18A4088021D8A4200D0ED
:1010A000FAE100190A9988422E4600DDF5E13C4E2E
:1010B000B06910E00D9840881126002331463D4A62
:1010C00016F088FF364A9061002800D1C2E25188AC
:1010D000091DD1821646B97A0C9B5A1C0155F87A23
:1010E000B1699C1C92B288540D98418910A802885D
:1010F0000FAB384616F0FAFC07460028A1B205D01F
:101100000F98B26950540FA8407802E0B269FF20EE
:1011100050540C9BD91CB26989B250541C1DB06943
:10112000A1B2401822494968728828F001F97088F4
:1011300000190C9084E70124387C0026022804D191
:10114000787C012801D103260024388910A920F0D9
:1011500009FE002C00D12EE10746002800D12AE12B
:10116000387A8006059C0DD510A8008828F08AFDE5
:10117000002800D16BE203460D98408812223946C0
:1011800098470646002E0D9F00D07DE27888398969
:10119000FA687B897C7C002C00D162E2522561E2F6
:1011A00078790020727E0020717E0020077E00206A
:1011B00080780020FFFF0000388910A920F0D2FDC0
:1011C000002800D10CE13D46074668880B21FE4A05
:1011D0000FAB16F0FFFE0346FC488361002B00D1E5
:1011E00026E168880C9010A90A880FA90988287937
:1011F000002600940196029103900C98394607F05E
:1012000073F9002800D134E10746F048806914F0F2
:1012100081FE162F059C00D133E13E46E1E038897E
:1012200010A920F09FFD002800D1DCE00546788859
:101230000D21F44A0FAB16F0CDFE0346F248836150
:10124000002B00D1FAE078880D9010A90A887989DE
:1012500026460FAC248838790096019102940390B9
:101260000D98294607F040F9002800D10BE1064609
:10127000E548806914F04EFE162E059C00D109E168
:1012800027E17888089025F0CDFC0B90002800D14C
:10129000ABE0387A012800D028E20995DB48857850
:1012A0000A963046C4B2AC4200D359E10B9A526858
:1012B0000C236343D75A002F00D152E1002E0ED0E9
:1012C000BE4200D084E1D21853888CB29C4200D038
:1012D0007EE192880A9BD3180A93511805E0D11831
:1012E0008A8849880A9289183E46401CDAE778883D
:1012F0000125294626F010FA002878D008373888CA
:1013000010A920F02FFD002800D19CE00646007AAD
:10131000800600D59BE00D984688304625F082FC7B
:10132000002806D1B74825F07DFC002800D102E254
:101330000680B6498A780C2151430C3100231A46A5
:101340000C32914200D103E14468E35A002B13466A
:10135000F6D1A0180C380C263946324627F0E8FFA3
:1013600005983946324627F0E3FF0D9C6088A28934
:10137000172100252B4616F02DFEF649C8610028DE
:1013800000D1C1E12169A28927F0D2FF60880599C7
:1013900024F028FB0028274600D0CEE10646CDE108
:1013A000200428D08808B0820D9F7888059C2146AB
:1013B00023F090FE84E0002C0D9F00D161E1012616
:1013C000059C61E1064678890EA9088065E0788869
:1013D0003989AA8A914200D311461FF099F8A2E0F8
:1013E00001260D9F75E0012673E0089883E1142023
:1013F00078700E2670E00D9F38890EA908800A26A5
:10140000059C69E07888059C214624F017FB74E16F
:101410002E46059C03E006460D9F059C099D28F07D
:101420007DFACC488069002857D014F073FD54E051
:1014300028890EA9088011262F464DE038890EA96B
:101440000880112648E02E4660E1089E25E010A89D
:10145000008828F017FC002800D100E103460D9811
:101460004088122231469847002800D153E70646AB
:101470004CE16888059C214624F0F6FA002800D04B
:1014800016260D9F28E07888059C214624F0C0FA96
:10149000002819D100261FE02E460C9800040D9F4D
:1014A000059C13D0AB4826460446C18A0C9880B2EE
:1014B00021F0A0FBA08234467888314623F022FE3A
:1014C000002801D1064607E0162605E0002E00D1CF
:1014D0000A2638890EA908800125002E13D0162E61
:1014E00011D0787814280ED038799A4908750E985A
:1014F000C8820E767888214627F0DAFC002802D0D0
:101500000120069001E0162E0ED12E46788806990D
:10151000CDB22946224615F06DFE002803D02046A4
:10152000294628F0A1FC3546384621F0A3F9002DC4
:10153000079C04D038460830397928F095FC3846A5
:1015400026F0CAFD0120C0078443204611B0F0BD3B
:101550000926DAE028F0E2F901251126059CC0E70A
:101560002846C0B201286CD90A98000430D00A98E5
:1015700080B21EF09FF80890002829D0A54200D321
:1015800025460C2068430C90002425460B9847689C
:101590000C98A04200D18DE03E19B16800290AD014
:1015A000A8B2089A1018B28827F0C2FEB088451970
:1015B000B06814F0AFFC002C04D000210C2230469F
:1015C00028F084FB0C34E1E7FFFF0000787900206D
:1015D000002201231646591E5F48807881420D9FE4
:1015E00000D39DE00B994C68A15A002900D197E0E7
:1015F00083420C980DD0A0188089002808D01620AE
:1016000007E0C046FFFF00007879002080780020C6
:1016100018207E880A92A718BA680993BB887D882B
:1016200000950190304616F01BFA099B06460028EB
:1016300003D0162E6FD10020B8600A9A0C325B1CC2
:10164000C9E70B984768BA68BB88089838E00E2647
:101650000D9F19E078890EA908800D9FD0E60E260F
:1016600054E03D7900240094019516F0F9F916280C
:1016700016D00646002804D1787C002861D00125C8
:101680000FE0002E059C09D038890EA9088001259D
:10169000787C002800D120E700261EE70026F6E728
:1016A00025462646059CF3E70D9F38890EA908803C
:1016B0001126A5E6089ABA600A9BBB800D9840885F
:1016C00039887C881825009401959BB216F0C8F9DA
:1016D0000028059C099D09D00646162812D1002035
:1016E000B8600B981FF0C0F90D9F1DE70B981FF015
:1016F000BBF90D9F788828F067FB0125002800D0F2
:1017000003E711E7388808E01126059C38880EA900
:1017100008800D9FE1E60A98205A0EA908800D9FC7
:101720000B981FF0A1F90125162E00D1FCE6002E22
:10173000059CDFD0D1E60926E8E716260025059CA2
:10174000CBE6788828F048FB01250028A9D016268A
:10175000F5E7C0467879002080780020F0B597B092
:1017600003464A1C0C7820462D38C0B20E2805D2FC
:101770002046194629F0B0FC17B0F0BD12920D9129
:101780002320C00018180F90252C00D90BE1DD2074
:10179000400018180E906720800018180C905720F1
:1017A000800018181190FF200630181810901E465F
:1017B000F03618468C300B9018468A300A901A463C
:1017C00077321D4676351F466737A000139402A175
:1017D0000858139C8746C046A51A0000331B00001A
:1017E000571A0000171B0000A7190000A7190000D6
:1017F0005D1A0000631A00007B1B00009D1B0000A7
:10180000ED1B0000E71B0000AD1900007D18000073
:10181000A719000095190000A71900007D18000005
:10182000651B0000731B0000CF180000CF180000DC
:10183000031C0000A7190000111A0000A7190000DE
:10184000A7190000A7190000A7190000A719000098
:10185000A7190000A7190000A7190000A719000088
:10186000A71900007118000071180000711800001D
:1018700018461299224621F096FC7DE707950892BA
:1018800098791D4629F022FC139C2B460028129AB9
:1018900000D06DE70F2C089A079D7BD0112C00D04B
:1018A00081E00D9841788278184629F0E1F928788E
:1018B000012800D0ADE30898007801460F390229CD
:1018C00001D300F021FC01201199487354E7142C36
:1018D00003D17879002800D15AE109930D9D6878E9
:1018E000A97809020C18E8782A7912021318687985
:1018F000AA7912021618E8792A7A12021218139895
:10190000152800D0A2E1A5B21B2012901B2D29465C
:1019100000D812992920C4001B2D274600D31F464A
:101920001092FB20FB2900D301465B4AFB2D134696
:1019300000D83B469DB2EB08292B129F00D30F46DF
:10194000A5422B4600D823469542014600D8394689
:10195000934200D31346B6B21B2E354600D8129DD3
:101960001B2E274600D3109FFB2D00D30546FB2ED0
:10197000104600D8384680B2C608292E00D31295EA
:10198000A04205460C9F00D82546904200D80CE2A4
:10199000FB260CE20795089210980078800700D586
:1019A00056E10F209FE20F9844729EE2109C207C2B
:1019B000012817D00D98811C40780F9A10708D2047
:1019C00040001818022422461D4627F0D2F901468D
:1019D0004720800028182246109C27F0CAF92B4681
:1019E000012020747879002800D1D1E0A07C002863
:1019F00000D0C1E6607C002800D0BDE60C2118466E
:101A000006F038FC002800D176E20120A074B3E68D
:101A100016460D9A51789078814209D107200840E6
:101A2000129C207000D190E2491E014200D12CE3AB
:101A300018211E24184622461D4621F0FBF9A979DB
:101A400000222046134619F0ADF80E9EB0784021D2
:101A50000143B17090E6129800789AE00120B073CB
:101A60008AE635460E9E0C9B119A129800780E3825
:101A70000828109C00D97FE64000C0467844808842
:101A8000400087440C0085020B000B0081020B0014
:101A90008D020B009302C046904200006CE60320CA
:101AA000287569E6089209930D98811C40780B9F70
:101AB0003870B81CE64E022513902A46B0470146FE
:101AC0003C1D20462A46B0470146B81D12902A46C2
:101AD000B04701463846083010902A46B0470146C4
:101AE000387800280A9E14D03D462288531E9BB2A7
:101AF000082B00D3082383420BD3139B1B889342EC
:101B000007D8062A05D31394F24CA242139C00D2A4
:101B100005E330203DE010980078C00700D0FAE0DF
:101B20001A207073307B0D21012866D1F4221846EB
:101B30002FE1119E184662300B9C052212991D461A
:101B400027F017F9014620460C30022227F011F940
:101B5000A2892989511A8AB2DF498A4200D81BE139
:101B6000282016E010980078C00600D51BE112204E
:101B7000B9E1002011990872FEE5184612991C4639
:101B800019F0CCFF7879002802D009212046AEE177
:101B90003D200F9908720120C871EDE5119C1D468A
:101BA0001846129919F0BAFF10984078000703D42C
:101BB000CA482146E0866086C9484078800600D43D
:101BC000DAE52846A18E1B290BD1218E1B2908D1CD
:101BD0002921CA00E18E914203D1618E914200D148
:101BE000CAE514210AE00120F073C5E50020387031
:101BF00078713080012030730B2118461BF03EF9BC
:101C0000BAE50E9D0C9E109840780921084200D13B
:101C100068E10D9C6078A178014007200840607061
:101C2000E9780140697000D18BE1481E084200D17B
:101C300089E1032900D904E20220020600D182E1F1
:101C4000084200D0FEE1C0B24008F6E70C9FAFE0CA
:101C500009930D9B58780E9098780C90D878197944
:101C600009020F185879997909020C18D879197A4C
:101C7000090208181390587A12909E7ADD7A187B20
:101C8000597B0902091814A80180997BDA7B12029A
:101C900051184180197C5A7C120251188180997C1C
:101CA000DA7C12025118C180197D5A7D1202511836
:101CB0000181997DDA7D120251184181052028F0B9
:101CC000BCFD002800D120E10C98000223460E99AB
:101CD000441828028219099D288914A90C9292B2ED
:101CE000139EB6B205960096019012980290039248
:101CF00004910694A1B20E97BAB21F469EB228462E
:101D00000D92334614F0E6FF002800D151E13E4623
:101D10001E240E9FFCE000203870787118469C301D
:101D200013900120069630741846B430684E08258A
:101D300012992A461C46B04701462046BC30022272
:101D4000B04701462646A4362746AC3738462A46D1
:101D50005F4B984712903846294625F0EDFF0994CD
:101D6000A0340427204612993A46594B98472046FA
:101D7000394625F0E1FF304628F082FD139828F01F
:101D80007AFD0698007B0421012800D0BBE0F422F4
:101D9000099817F0ABF8EFE428460121A172002260
:101DA000EA83317049E11321A0E0129E2A460C46D5
:101DB000119910944C87CB870E878A8790B24A8EF0
:101DC000824200D302460E980078A9242501AA4237
:101DD000144600D82C46042800D01446FD88FC8008
:101DE00004280ED109981DF0E7FB0246B888111AA5
:101DF000481E81411291BA8011994F8F0E98007838
:101E00000DE01199CA8E9BB29A4200D31A46BB8844
:101E1000D11A4B1E99411291BA801199109F661BDD
:101E2000731E9E418C8EB9B28C4200D30C460C9F1F
:101E30003988631A591E8B4110933C800E9D297975
:101E400001230F9320F014FA844203D2388806E06D
:101E5000738D020028782979BA8829F077F91199C9
:101E6000129A1643F8820B8E088F834200D30346E2
:101E7000109806437988581A421E90417B808B4205
:101E800003D9397D80220A433A75064313981428F2
:101E900014D1002E07D0099880793988BA88FC8837
:101EA00000941FF059FA1521099806F0E3F900286B
:101EB00000D061E4B14800780F9920E0387D002E11
:101EC00001D00821084320210143397554E4C0465C
:101ED000738D0200810C0000FE7F000048080000A6
:101EE000E26C002016200F9948720721184606F070
:101EF000C1F9002800D03FE4A048007801218903FF
:101F000012F0D8FA38E40998BBE026461A24099D55
:101F100010980078400705D40F200F9948720721C8
:101F20002846E4E70F212846224620F083FFA979BE
:101F3000139880B20090BAB2B3B220461FF0E8F90D
:101F40001AE428787EE008467DE03078162808D12B
:101F500099790E98027800201C46134618F022FE4C
:101F60002346099302200C9DA8760E9E3078287691
:101F7000012474712F883179AA88234620F078F9DA
:101F800087424BD228884EE000201072FFF7F4FB06
:101F9000012010732078FD2101402170FFF7ECFB38
:101FA000187D122101431975FFF7E6FBB078122165
:101FB0004EE51096119B069818820E9A5A823E465C
:101FC0009F82139CDC82129818760C98588314AF69
:101FD00083CFD86119625F621F460B998A80CE80D9
:101FE0000C810220087000204880A88EC11D0A9B29
:101FF0001980698E49080D9A8A4262D110998142EE
:102000005FD1E88E0009059981425AD110212846F6
:1020100037E0002026F0A0FCFFF7AEFB287E3179E8
:10202000AA8829F093F8099B119AE882B078402198
:102030000143B17014701821184629F00FF9FFF709
:102040009BFB042068701F46C1B2042904D13846A6
:102050001DF0B2FAB0806878C0B226F0D4F93076BC
:1020600034882979B28829F071F8844201D2308805
:1020700004E0307E2979B28829F068F8F0821721CF
:10208000384615F01FFAFFF777FB0E994870D178A4
:102090001279120251180C9DA9831A89891A89B2E2
:1020A000374A914200D95BE509930121A9760428BA
:1020B0000E9E00D05BE709981DF07EFAA88070782C
:1020C00055E7079800780128089908D108780F2863
:1020D00005D1F12128463C461AF0D0FE0AE0887A64
:1020E000002802D008781A2841D1F12128463C4620
:1020F00015F0E8F9A879398A7A8ABB8AFC8A0094B3
:102100001AF058F8FFF738FB162801D0FFF734FB18
:102110000E9A9078012101439170FFF72DFB40004A
:102120002870580068805000A88028890001288104
:102130000222304626F01DFE328809980189511A84
:102140008AB20F498A4200D90AE510990B88129980
:102150000988491C22884A4351008B420CD901222C
:1021600008994A740021C183119B1A7065E70F20FA
:10217000C873F321284641E53B200AE5326F002071
:10218000FE7F0000F0B591B004468078002510284D
:1021900000D99CE34000C0467844808840008744D2
:1021A0001000960396039603960356003A00960392
:1021B000960320015000E500FC0096036E013701F4
:1021C00070036078002800D081E328F0A1F907901F
:1021D00028F09AFA089024F0C1FC0BAC207002267B
:1021E000102730463946079AB04B984703203946A6
:1021F000089AAE4FB847042001212246B8472078FC
:102200003043032800D062E3012018F023FC02468B
:1022100006200146F9E0A08820F06CFD28F03CFC87
:10222000002800D053E3A24CA07B012800D05FE13E
:1022300025F0F4F90021A173606A627D27F046FD64
:102240005DE16078002800D140E10025FDE2607882
:10225000FC2802D0002800D039E30126E178201DB7
:1022600062890892277B00250095314009AA2B46F8
:1022700028F039F800286DD109A8007825F0C3FBB3
:1022800004463E46083E701E86418948C07D800057
:1022900028F04AFE0790002800D177E109A80690AF
:1022A00001788348C078801E4242424100920898DB
:1022B000059422463B461AF03EFF0BAC0027142241
:1022C0002046394627F002FD06980078062106913F
:1022D000484324301021224626F010FC002818D153
:1022E0000BA8FF21102226F09DF8002811D109A883
:1022F00001780698484325300BAC22461032042161
:1023000026F0FCFB012105980140089822461DF0AB
:1023100087FC09A800785321890040186449C97DC9
:102320008900079A26F0EAFB002800D16DE1604899
:10233000007E002807D10598800704D55D48017804
:1023400008981EF0E9FE09A800781BF095F9079897
:1023500028F0F2FD002E00D1B9E25548C0780228DD
:1023600000D0B4E2089828F03FFCB0E2012527F045
:1023700073FD002800D1AAE24D48C06A002800D1B0
:10238000A1E00668002E00D19DE0E01C6189227B5F
:10239000637B24690094B04799E2A588277B28468F
:1023A0001FF0BCFE002800D190E2044627F054FD47
:1023B000002800D08AE2A01D617900230093012645
:1023C00031400BAA27F08FFF002800D1E2E0384807
:1023D000C078002800D074E20521284625F08BFF44
:1023E00074E2201DE17800230093012529400BAA07
:1023F00027F079FF002800D069E20BA801780620B9
:10240000484325300C340421224626F0C1FF5EE209
:10241000274FF86A002806D04368002B03D0A08815
:1024200000210A469847F978A088002953D01FF068
:1024300075FE002800D14AE20646A07AC00715D0F2
:10244000B01D727900230093012111401A460893B0
:1024500027F049FF002809D07079022806D3A08907
:1024600053218900B431084200D1F0E0F87B022802
:1024700036D1A07A000733D4A08803212DE06078FC
:10248000062800D0B2E0A0881FF048FE002800D146
:10249000ACE00749897C491E032900D9A6E0C04663
:1024A0007944097949008F440799949E91930200D9
:1024B00060770020C36D0020A38841790022184670
:1024C00013F0ECFA92E06089012106E0A079C007E0
:1024D0001BD10025BEE10125052125F00CFFF6E109
:1024E0000125A08808347179224613F0D7FAEEE16D
:1024F000E07C002839D012F037FE0020E074502034
:1025000024F01CFC1DF0F4FCE1E109A800250826DC
:102510002946324627F0DAFBA0881FF0FFFD00288D
:102520004CD007466069002815D0069707901130F7
:1025300000210622089025F075FF002800D1A4E0B4
:10254000002706220798394625F06CFF002800D1A5
:1025500083E06761069F78790121014009A88171B4
:10256000B91D062226F0E4FEB4E0607D0026864216
:10257000C5D2616A895D012906D1F0B20CF060F91B
:10258000606A00218155607D761CF0E7042026F00A
:10259000E3F99CE10BA8007825F035FAFF2800D17B
:1025A0008FE10246780745D4002A43D10BA8017871
:1025B000A37C009628461AF0BEFD87E125F09CFC1E
:1025C000002800D196E0CE480078042111F072FF77
:1025D00090E0CD4800210A4602F01EFEA0880521A9
:1025E0001DF0FEFE02E0A08821F0EAF80125C548B2
:1025F000C06A002800D16AE14368002B00D166E17F
:10260000A08862780221984761E1079C204625F066
:1026100083FCBC48C07D874200D388E6218800291E
:1026200005D0A278089825F075FEB648C07D7F1CBD
:10263000241DF0E70C2007400C2F00D13CE1082FAF
:1026400000D135E1042FB1D1D007AFD139E1A08855
:10265000032125F050FE089D39E105960798007C7E
:102660000121014007913E46761C089806700097AC
:1026700007993A463B4627F036FE002801D130063E
:10268000F2D13006059E00D163E76269002A069FF9
:1026900020D00596107C0121014009A88171089283
:1026A000164611360622314626F042FE7879012878
:1026B00005D138460C30B91D062226F039FEB81D6A
:1026C0000622314626F034FE0898007C02210143A0
:1026D0007971059EA1793879FD22024048080223CC
:1026E0000340D018090702D4DF21084001E020216F
:1026F00008433871A0794107C90F09AAD379064068
:102700001E430E43D6716169002921D00BAE1027FC
:1027100030463A4626F00CFE3046394625F00CFB92
:102720007A4800780D277A4E854211D23168C9194E
:102730000A460D3A1278FF2A07D00BA8102225F07E
:10274000ABFC012805D0714800786D1C1E37EBE703
:10275000FF2509A881790026009610AA334627F0A4
:10276000C2FDFF2D1DD034281BD16648007D0128F5
:1027700062D0002815D1664801681E226A43881875
:10278000401C895C0025009510AA2B4627F0ABFD64
:10279000002806D110A800780CF052F8002800D1CB
:1027A00098E009A88179009610AA334627F09BFD8E
:1027B000002804D020F05EFA10A908701DE06169BD
:1027C00010A80078002918D0062343432333102192
:1027D0000BAA184626F092F900280CD10BA8FF216D
:1027E000102225F01FFE002805D109A98A790120B1
:1027F000104025F045FF10A800784249497D8842E5
:1028000018D2A26825460C352ACD0F690095019192
:102810000297039609A90AF07FFF0546A08816F0E3
:10282000D5FE002D38D010A800780CF009F81DF066
:102830005FFB06E0152504E0A08805211DF0D0FD12
:102840000125A08820F056FA60780B2802D1A088D4
:1028500020F0B6FF2B4EF06A002812D04368002B00
:102860000FD0A0886278012198476078002808D1AD
:10287000A079C00705D0F06A4368A08803212A46E2
:102880009847012525F038FB002820D01C48007807
:10289000042111F00FFE1AE01A48817DA08800295A
:1028A00002D020F027FA01E01EF02AFF3546CBE7E0
:1028B0000920024205D079E6D00702D0100700D5E2
:1028C00074E661790022284613F0E8F801252846CD
:1028D00011B0F0BD1DF00CFB20F0CCF910A9087070
:1028E000A1680891E1682369626900292F4600D038
:1028F0000F69009201910297039509A9089A8AE746
:10290000C36D002060770020090400005B6F002089
:10291000086F0020F0B595B00F460978062600290B
:1029200002D17C78012C02D1304615B0F0BD069260
:10293000BD781D2D01D01B2D1CD132490978FF29EE
:10294000F2D000261D2D079070D124F02FF9002819
:102950006CD00546827A002A67D050B20026002843
:10296000E2D41D21079825F0F7FAA87A80210143C7
:10297000A972D9E7079024F019F90024002800D1A2
:10298000BCE2012D06D10546B868B98809AA25F030
:10299000A3FC0BE0817804268D42C5D14368002B4F
:1029A000C2D00546B868B98809AA984706460028E3
:1029B000BAD12E46A878401FC1B2C20149085118A9
:1029C000C9B2092900D9A3E001252A468A40572324
:1029D0001A4200D196E0BF78E8410928059500D950
:1029E0005EE2059D4000C0467844808840008744F0
:1029F0000B001A0198005702390157025101570282
:102A00005702E100207E0020052F00D026E127F0AC
:102A10005AFF09A98A780A980988012A00D0EAE1B0
:102A200089004018011FC01EEBE12E460596BA68CA
:102A3000BB8809A8009000252846214623F04AFEBD
:102A400006460028079A00D06EE70FA8FF21017004
:102A500008A80570F54E706800280AD00368002B9E
:102A600007D008A914460FAA2046984722460028F6
:102A70001CD03078BB7809A9009100241146224669
:102A80001CF0C8FC0646002800D04DE70A98002834
:102A900001D0069804700599002900D12EE2B8787B
:102AA0001D2800D02AE21D20887227E20FA8017895
:102AB00008A80278204619F051FD22460028D8D0F7
:102AC0000A98002802D0012006990870059900296B
:102AD00008D0B8781D2805D11D208872104622F034
:102AE00029FF2246706800280AD04468002C07D0CD
:102AF0001046164627F000FB012801D13046A047BA
:102B00002E4611E7092903D13169002900D062E777
:102B10003546707AC6490978884200D0DEE0002642
:102B2000F1E0092F00D000E109A801884A1E408881
:102B300042432423F55C6D1CF5540A9B92B29D1808
:102B40009A5C6B781B029A180292327B012A00D0A1
:102B50004FE10197414309AA0027178089B20391E9
:102B60000496354613353946CEB203998E4200D3CA
:102B70003DE10499897C0A9A9219521D401F83B243
:102B800028461DF06DFB002810D0B8B2864206D052
:102B90000A990818891909AA528826F0C9FB09A9B7
:102BA0004888C719099A521C0A8001E009A8408880
:102BB0003118D9E7307B012800D0C2E0172F00D0B0
:102BC000E7E03069717D0C256943425A09AB1B88E7
:102BD0009A4200D0DDE04018418809AA528891420B
:102BE00000D0D6E0828809A989888A4200D0D0E046
:102BF00080680B9925F050FA002800D1C9E00197B0
:102C0000707D411CC8B271753746317D884200D352
:102C10007EE1396945434E193888495B7288B3882B
:102C2000B5680095AAE0072F18D127F04CFE0A9846
:102C300009A9098889004018011F0978C01E007879
:102C400000024018F189884200D31AE131460C3164
:102C5000401CB08130881CF010F9E0E009A8007930
:102C60000A28A4E00D2F00D09EE027F02CFE09A832
:102C70000588308824F0A0FF401EA84200DD00E156
:102C800031460C310998F2891018F081308826F00D
:102C900057F9C4E0112F00D092E00998401E09A90D
:102CA000498841432420325C521C32540A9889B22C
:102CB00040188178C0780002401800259949884260
:102CC00000D1F3E0411CB181F189814200D8EDE0EF
:102CD00031460C31308824F019FAA0E0BB7809A9FC
:102CE00000910024079922461CF094FB0646002818
:102CF00009D1B97809A81FF0CDF90028264602D0DD
:102D00000026069806702946A8780328079808D157
:102D1000898909AA1288914200D311461DF0F8FB57
:102D20002946084616F041FEFEE509A80079062866
:102D300001D00A287ED12420305C00283ED1012019
:102D40007BE0172F25D1308824F036FF401FB18B50
:102D50000A18B283718A511A8BB2B18A8B4200D39E
:102D600091E00197CD1A854200DB05463088318A13
:102D70003746B669F3180093ABB292B21CF0BCFDB3
:102D8000002800D1BCE00FA8002101703E46019F41
:102D900002E00FA80021017030880FA926F094F8F6
:102DA000012F17D101201EE009A800790728059DF1
:102DB00076D12420305C0028059D71D0002556E096
:102DC00009A800790A28059D6AD12420305C454273
:102DD00045414CE0307A51491BF066F91920B0703A
:102DE0004F48706016200125012859D084E0049EC8
:102DF000019F029925E012224A43801801461239A8
:102E000011380978007800024018F189884238D2D8
:102E100031460C31401CB081308826F061F8307AA0
:102E20003E491BF041F9162540E0C046207E0020B7
:102E3000436F00202420305C401C2421705409A8DA
:102E40004188481E00250A46374988420FD8308AF3
:102E500082420CD2521CF281317B012916D10FA97A
:102E60000A804880314888802820887110E0012F2E
:102E700016D1002D14D109A800790A2801D1012505
:102E80002DE0002512E00FA8012184E731460E3124
:102E9000308824F04DF9307A20491BF005F91625C9
:102EA00009A8092F02D10088002813D0707A09A937
:102EB0000091002207993B461CF0ACFA002802D092
:102EC0000120059006E009A839461FF0E3F84142C9
:102ED00041410591162D0ED0002D059D07D1707A28
:102EE000B378002100911A2207991CF093FA30461A
:102EF00016F05BFD00E0059D06980570264613E57B
:102F00003E46387A05491BF0CFF81620019F6AE744
:102F10003E46B87D0FA9087039E7C04630750000FD
:102F20006FAA0200FFFF0000FDFF00000203000087
:102F3000F0B593B0002800D127E204461B20000121
:102F400020180D905B20800020180E90FF20014675
:102F5000663163182321C9006118099101460631C1
:102F600061180B912146F0310F9121468431109167
:102F700026467736214676311191214667310C91EC
:102F80000E3020180A90581C02902046E03006901F
:102F90002046A43005902046D03004902046B4301E
:102FA00008902046BC3007901C4F1293B07A002541
:102FB000002800D14DE2317808462D380D2800D880
:102FC000E8E1881E232840D84000C0467844808825
:102FD00040008744E80143002500E3009600DC0040
:102FE000430013014300880075000F01FD005000ED
:102FF000480036016F004300C30043001E01D300A8
:1030000043004300430043004300430043004300A8
:10301000430043004300E401E401E401686C002044
:1030200027F0BAFE00D0D4E1F87A002800D1C2E13E
:1030300000200C994871F12127F0AAFFA079089986
:10304000079A1EF0ADF9129BB0E7F22900D112E108
:10305000F12900D1FDE1F32900D1E2E1002025F0C2
:103060007BFC129BA2E727F097FE00D0ADE1187918
:10307000012808D03CE127F08FFE00D0A7E11879A5
:10308000012800D025E10E98007E0F2803D00020F3
:1030900025F062FC129B002018710E98407EA179E9
:1030A000109DAA895208EB892D8A2D0900951EF0E2
:1030B0000BF965E127F070FE00D084E1F87A19E1A0
:1030C00027F06AFE00D093E10B99087C012800D01C
:1030D0009DE1487C012800D052E127F014F900203E
:1030E0001FF0C3FA4CE127F057FE00D0CAE00F985A
:1030F000C07B012800D05EE1F12127F049FF129B3F
:1031000054E727F049FE00D07BE1F87A002800D18F
:1031100051E1608CE08320461AF03EFB01250C9FB4
:103120003D7020461CF03AFC7D710F9D297B0B9869
:10313000027810201040012900D001E1002808D0B9
:1031400000201299087048780999896C49081AF08A
:10315000ABFFA079002121F003FC00E127F01CFE69
:1031600000D041E10D9A1078810600D5C5E08107B5
:1031700000D420E1DD2108401070D0E027F00CFEE3
:1031800000D03CE10D9A107B410656D413E1072193
:1031900028F022F8012800D1F2E05AE127F0FCFDE6
:1031A00000D083E0F87A00280F9F09D00121109801
:1031B0008175A0790A4627F055FF00207860B86035
:1031C000B87B012800D0F6E0062127F0E1FEB4E04C
:1031D00027F0E2FD00D0FEE00F9F387D032800D1EC
:1031E000A1E0022800D041E1A17900200A9A1BF059
:1031F00003FB9FE027F0D0FD27D0FEE027F0CCFDB9
:1032000000D000E1F87A002800D1D4E0608CE0839F
:10321000B6E027F0C1FD00D0E8E00D9A107B410632
:103220000BD4C10700D0A1E0810700D428E1BC2164
:1032300008401073A1791A209EE0BF210840107346
:103240009EE027F0A9FD00D0DFE0F87A002810D03A
:10325000002210988275A0790127394627F002FFD5
:1032600003960C9E377020461CF098FB7771944FA4
:10327000039EB87A3EE01098817827F089FE0120FD
:10328000119923E00B2127F0A7FF012800D0E0E0EF
:1032900000220F98C27310988275A07901252946E3
:1032A00027F0E0FE11980570129B7FE60F990878D1
:1032B000012800D1D0E04878002800D1C9E0069864
:1032C0000599049A1BF02CFF01200F990870129B9E
:1032D0006CE6D87801280BD10020D870A179109D18
:1032E000A8894208EB89288A000900901A20DEE6A6
:1032F00010980079002843D15DE0DF210140117072
:1033000001070CD5D72108400D990870A0790E9DB2
:10331000298EAA8E6B8EED8E00951EF01DF8002072
:103320000E9988772CE0A1791A200A9A1BF064FA8A
:103330000020387520461AF02FFA129B604F35E6B0
:10334000002807D00998806C42085E482146029BFD
:1033500027F01CFAA0790021012221F0E7FA584F4A
:10336000002028732874E881129B1FE6BE210840C4
:1033700010730E98407EA1790022134617F012FCBC
:1033800020461AF009FA129B10E6002025F0E4FA14
:1033900001255EE0204627F0A1FE054659E02046C3
:1033A00027F074FEF9E727F0F7FC4DD1B87A002832
:1033B00001D0162103E027F025F94AD12221204629
:1033C00023F06CFCE4E712213FE010213DE00F21E7
:1033D0003BE0042139E00E2127F0FEFE1199087030
:1033E00001200F99087534E014212EE016212CE0FD
:1033F00001200B9988740C2127E00D2125E017216D
:1034000023E0062121E009211FE011211DE027F022
:10341000F9F81ED126F077FF222528461FF025F95E
:1034200038E01098817808460C38082842D8C04601
:103430007844007940008744043D04303D3D3D3DE3
:10344000040027F0A5FD0FE0022127F0C5FE119929
:103450000870284613B0F0BD052127F0BDFE0128F5
:10346000F7D100250F9885730120F0E727F0CAF8FF
:10347000EFD1A179222528460A9A1BF0BDF909E06F
:1034800027F0C0F8E5D1A17922250022284613466D
:1034900017F088FB2046294692E7F12127F078FDB6
:1034A000A0790E9C21886288A388E488009418F093
:1034B00081FECEE70025284625F04EFAC9E7C04632
:1034C000686C002015840100F0B5A5B00446FD48E5
:1034D0004068002802D08047002843D003200C9089
:1034E000FD4AFE480078411E1394002C0E9100D036
:1034F00001210C9B1B04159353780F93937816931B
:10350000D1731746183700241494844222D2169897
:10351000A0421AD0E5B2002117AA04262846334655
:1035200025F0DAFD17981599084202D01499491C24
:1035300014913043C0B27C2806D10621F8262846D3
:10354000324625F0D5FD3E70E34A641CE34800781E
:103550000C37DAE71499C9B2401E884204D1507979
:10356000002801D1002028E201200390C302139912
:10357000002901D0084600E01020591A0491129346
:10358000181A079000200B9006900F9D0E9C0B9927
:10359000200400D1DFE11491D07B002801D101206B
:1035A000D073EEB2002717AA04233046394625F01F
:1035B00093FD17981399002916D01599084210D039
:1035C000701CC64909781FF015FB0D46FD4A12987C
:1035D00010825173D07B401ED073641E1499491C15
:1035E000D6E70F950E94149FC0B2702804D00F98A0
:1035F000C0B2702121F01CFA0A971698C4B20025B7
:1036000017AE042320462946324625F065FD307862
:10361000FE2803D0FE21204621F00AFA0621FE26CC
:103620002046324625F064FD0C221046119460437A
:10363000E44F394616310C18A01C0990A670169854
:103640003873129838820F9E7E73F3B210931492DF
:10365000104658430818C08816907882FF20B87327
:10366000BD827D208100DA48059127F035F8D448E5
:103670000570F87BD549109A51180818D249097875
:1036800000B21BF0CFFB169B3A4637461091A01DA7
:103690000890E0880D902946CB4800781690FCB23F
:1036A0001198844200D1C7E0E80700D0D8E03E4638
:1036B0009FB2162F18D8002903D014986043101811
:1036C00083831098C0B2844200D1D0E0601C169968
:1036D0001FF090FABB4A0F46084614994843101849
:1036E000838B00252946DAE7B5480078002800D00A
:1036F00038E70F911693D81F029081B218AD20467B
:103700002A4618F025F8E98908461030B8420DD845
:10371000A87A96280AD10298471A18A8427AB8B20D
:103720000D4623461AF050FB00282AD0169B5B1E3C
:103730001D46A44A37461693A8B217280F9935D3C9
:10374000362802D82E46163E00E02026AD1BB3B226
:10375000A9B21DAA204625F0BFFC9A4A169B300448
:10376000EAD0B0B21DA94018401E0078962801D0BA
:10377000761EF4E7731900200F99002503288BD1DA
:1037800076E02B4618A8C07A0025C10708D101971A
:10379000002580078B4A37460AD4019B284603E060
:1037A0003B462846874A37460F99E7E70C98E4E7F7
:1037B000DB1D0D9880B299B20918129800918142D0
:1037C00003D90220039D169BEEE77D4800780199FE
:1037D0001691190420D000281ED102939DB205989D
:1037E000854200D3059D169881B22046784A2B4623
:1037F00025F072FC0D9FB9B21198754A2B4620F046
:10380000D1FC6F49087016997F190D974919029BD1
:103810005B1B6C4A3746DBE70F98401C0F9000207B
:103820001299009C8C4203D1019B0D91039DBBE733
:10383000019B0D940546B7E761480078002800D049
:1038400090E6624816990818001900B21BF0EAFACF
:103850005C4A0F46C8B2149948431018838B0CE099
:10386000002905D0149844431019838300E0109F69
:1038700053480078002800D074E60D991182938295
:10388000977308980180517B12204E4A125E0124E2
:10389000119E3046234623F0ADF84A48817B142020
:1038A000484A125E0223304623F0A4F84548008AB5
:1038B0001399002908D004998142069A05DB224613
:1038C000069402E0D87800200022079981421092E5
:1038D00006DB7C2105E0C046C4660020336F002073
:1038E0007821304621F0A4F80DF0F4FB0546354F61
:1038F000F87B401BF8730621FC243046224625F055
:10390000F7FB09980470B8780A9989B26918081801
:103910002D490E7831461FF06DF9B9701691481C8B
:10392000C0B231461FF066F97970B97B14984843EC
:103930003818808B102805D1481C31461FF05AF9E1
:10394000204A00E03A460F9110990E98401B0E90C5
:10395000C80700D119E67C2021F0E4FD0446FF28C9
:103960001AD17E2021F0DEFD0446FF2814D115492E
:103970004C780C2060430818807DFF2808D0887898
:10398000114909784018401E1BF04CFA0C4603E020
:103990007E21204621F04CF80A4DEC70E0B20C215B
:1039A00041436818808BE880A878FE2121F040F818
:1039B00000206871288A1299081A00B225B0F0BD5B
:1039C000D8780020C4660020336F0020FFFF00007D
:1039D00094550020F0B59DB00446FB4E3078FB4D69
:1039E0002870032800D024E100203070287011A82E
:1039F00026F0DEFE002800D019E101200F90119082
:103A00002846243011A91EF0DDFC002800D00EE16C
:103A10000F98C0020D90EE4F5E21384626F05CFEF6
:103A20000C370A21FF2238460C9226F0C1FC22F006
:103A30006DFA0020109021461DF08AFDA8602946ED
:103A40000C3126F036FF2C696D69204629461FF09F
:103A5000D1F8C1B2062900D30621DD480170DD4F3F
:103A600039700D98854200D0E1E0C802844200D24E
:103A7000DDE0D6488068002800D1D8E0D44A109E06
:103A800056710C9BD3700F98C002D0800696099691
:103A900007960596049608960A9601930293039357
:103AA000CCB2A64200D3C6E0F4B200251CAA04237F
:103AB0002046294625F010FB1BAA20460E952946D4
:103AC000F14DA84701271AAA20463946A8470221E6
:103AD00019AA2046A8471C99C8B20246703A0E2A75
:103AE00004D83B469340E94A134203D10246FE3ACA
:103AF000022A03D28A0CE64B9A421FD0204610F0CD
:103B000063FFDD490870002800D0CAE03546002672
:103B10001CAA04232046314625F0DEFA1BAA2046C3
:103B200031462E46D84DA84701211AAA2046A8475B
:103B3000022119AA2046A8471C99C8B20C22109647
:103B40007243CE4B9E183346163318700A0AF2752C
:103B50008903890F71761BA989783176FD2801D9EF
:103B6000102126E01BA90988CA4A914221D10B9352
:103B70000E9814900D9DA8B2051FA9B214AA042393
:103B8000204625F0A9FA1498411C03D12946C24ABF
:103B90001140F0D139460B9BFAB2042A06D8C2B2C2
:103BA000FF2A00D03946000A7F1CF5E7C8B2291861
:103BB0001878B1831AA98978B1761A99F18319A96D
:103BC0008978F17619993184702828D07828AC4FFB
:103BD000109E20D07C280AD07E2812D0FE280BD040
:103BE000FF2814D10698401C069003961CE0059807
:103BF000401C0590029617E00998401C09900C960D
:103C000012E0B0B201900798401C07900CE00A98AF
:103C1000401C0A9008E00498401C049004E00898B6
:103C2000401C0890964F109E761C397838E701208A
:103C300030701DB0F0BD0A9800060BD10998C0B2D3
:103C4000012807D80898C0B2012803D80798C0B245
:103C5000012810D98B48042202700024CAB2E0B2B5
:103C600090420FD210F0B0FE834A117801431170D8
:103C7000641C3978F2E70698C0B2A04214D181489A
:103C80000022027000207D4C6070491EA170E0701F
:103C9000A18BE1807E2120F0CBFEA078FE2120F0D8
:103CA000C7FE75480078C4E70898000624D0099834
:103CB000000605D10698000603980C9000D18BE011
:103CC0007048022101706D4E0C9FB770781C80B255
:103CD00021461EF08FFF7170FCB2204610F074FE7A
:103CE00065490870FE21204620F0A2FE0F987071F1
:103CF0000020FFF7E9FBD4E7099800061ED00C98D6
:103D0000039060480F9A02705C4C0398A070401CAE
:103D100080B2C9B21EF06EFF6170029880B2FF28B7
:103D200022D10198FF2800D098E0544AD17088B27F
:103D30000C2141435018808BD080B2E70598049A3B
:103D4000104300064E4F85D022F040FEA04247D3DC
:103D50000698000600D18AE048488078FE2120F0CD
:103D600067FE47480178CCE7444A0299D1700C219C
:103D700041435018808BD080182892D3C11F0298DD
:103D8000C0B289B214AC224617F0E2FCE07A4007D8
:103D9000AED53A49C878C98814ACE289891AC91FD6
:103DA0000022009289B20323224608F031FB00284A
:103DB00000D076E7A189002900D172E714A8007C21
:103DC0001EF018FE6DE7C046D37C0020D878002096
:103DD000C4660020336F002022F0F8FDA04246D2D6
:103DE00028480321017022F0F1FD0446234E307370
:103DF0000C25284660433018817E7173C07EB073F5
:103E00000DF068F900191E490C7821461EF0F2FEEB
:103E1000B170481CC0B221461EF0ECFE71707C20CF
:103E200021F080FBFF2810D17E2021F07BFBFF28B2
:103E30000BD1FF2021F076FBFF2806D1782021F05E
:103E400071FBFF2801D10D4840780C49C870C0B201
:103E500045434819808BC88088781FE70749019A35
:103E6000CA700C2050430818808BC88019E7054899
:103E700006210170FEE7C046D8780020C466002005
:103E8000336F00203E6F0020399F02000151000077
:103E900083250000FFFF0000FCFF0000F0B587B0A5
:103EA00016460546041D50040595029440D4019120
:103EB000C805C00E00D188E005208003314681434B
:103EC000039100200690814C81480068042800D2AC
:103ED00087E00496002021F0F5FA80B2451D2F46B8
:103EE0007C480740606939461EF090F806466069D4
:103EF000864204D008200699014306916661002E8F
:103F000068D0A908F0893546103528181BF086F9C5
:103F1000F0892918E279CA70C019F0810420069945
:103F200001430691059D686B27F064F9039ECBE77A
:103F300004962E463036F64C23F02CFA039026F0E9
:103F40004CFD6F6B7969B869009121600002F249FC
:103F50000860F248808DF34CE08122F0C2FAEF490C
:103F6000888600200190EB4908830697788AEA4901
:103F7000888010206071688822F08CFD04463078BB
:103F800018F050FE29468227002821D00546084611
:103F90003130007820F0B2F8002800D0AEE0032CD9
:103FA00000D0AAE00698007C41424141284603F037
:103FB0007FF821F03FFAD748019AC286B056C1B2C5
:103FC000402900D2CCE01146CCE00020069011E060
:103FD0000D4694E085206071D54801210160059D62
:103FE000049EA079002804D0A86BCF49C96818F0B6
:103FF0004BFE029C0198800431D50496C94E70890D
:10400000CC494968411A4220375A0391B94225D216
:104010004420345A686B23F005FA002810D002219E
:1040200001728189B26B904202D10020B063F063CB
:10403000481DC14908403F1A641E0398B842E9D39D
:10404000039887420DD1002C0BD438360398708129
:10405000B481102006990143029C09E0049E069950
:104060000AE084207071B24801210160029C069927
:10407000B148001D049E06437006C70F0F43012080
:10408000C503681C019901422ED0032000BF00BF68
:10409000A14880880599496B48820224A14840794B
:1040A00010281BD1019828409C48008814D1411E3B
:1040B000062900D996E013207944097949008F44F4
:1040C0000D03939191959700142007E0006600205E
:1040D000CC110840FCFF010020F070FB2743029C3C
:1040E0002178000208182080B807059D14D5A86B18
:1040F0008D49C96818F0C8FD0EE02746059D049E4D
:10410000F8B20F2801D8002000E00120029C21789D
:104110003A028918218047006078000203210902D1
:10412000884212D1F00305D5686B27F063F80120AF
:10413000000486438048001D064206D0686B794A19
:1041400038320023D9430BF055FCB80705D521F0D0
:104150006FFE25F0BBFB24F00DFC384607B0F0BD28
:10416000402211437F240028059D049E01D4084667
:1041700000E02040694948866A490979002904D04D
:1041800000060099484066490860FF20624988821D
:10419000284603991BF0C0F807460F28B0D8A86B33
:1041A0000025002829465B4B45D05F49C968196244
:1041B0001C820021417084700278D2071CD1564ABB
:1041C000D186118751879187D1871980598099802D
:1041D000D980198159819981D98101758160C16026
:1041E000016124E0102079E7152077E7412075E789
:1041F000022015F0ADFE71E7017A474AD186417A77
:104200001187817A5187C17A9187017BD187417B60
:104210001980817B5980C17B9980017CD980417C48
:104220001981817C5981C17C9981017DD981007876
:104230000221014049083B48817102980078012819
:10424000284604D13848C0680599096A081A0190BF
:1042500022F010FD21F002FE324E3081756105988A
:10426000406B26F0C7FF012723F096FD708106986A
:10427000017C00292B4604D0428A182111404B4270
:104280004B413E04274C22463832A563E563177242
:1042900055819581022103920BF0ACFBA2791F4856
:1042A000808D2249002A02D08031084602E0400772
:1042B000400E4840059D0499B1430E4625F0F4FE9A
:1042C0000698007C002806D0698E019840180028C6
:1042D00003DC132702E004240BE00327002902D0AB
:1042E000012800DA0CE7002900D108460949488274
:1042F000032425F0F9FD022000BF00BF0C48046034
:104300000023D9430698039A0BF074FB0327F7E6C2
:10431000401408407C2009403C2009400620094008
:104320004014084000660020AC6A002071A1000023
:1043300030100840CC110840FCFF0100F0B595B0EA
:1043400026F028F9FF2800D1DFE10446F04845684F
:1043500026F020F97B2291004143681871218900E1
:10436000405CC00700D0D0E10B92E0B226F084FCA4
:1043700007460646FF202030395C012903D1381852
:1043800041783046BFE10F20400138180F90DB2004
:104390004000381812909F243D46763526F070FF75
:1043A000A87C022814D10F98007900070ED5B179A6
:1043B000708E4208B38EF08E0009009000201CF031
:1043C00083FF0F9A1079E721014011710020A87432
:1043D00004954B21912260003B4696330D93129B2E
:1043E0001B78022B02D10023129C237089005500F8
:1043F0003C1838462E3005900D98007802280BD1D5
:10440000002014910D990870B07939466231059AEF
:10441000127B1EF0AFFA149913967E180A9778193A
:104420000C90218B002902D0A07D10F043F80720CA
:10443000039026F026FF139A50891081B54F797C9E
:10444000787B11904318F87B14901818BB7BC01828
:104450003D7C089540191090AF48056892793C2042
:1044600007900292504328183025405D0690B0888E
:1044700009914018B080F87CF5882818F080387DC4
:104480003589281830817089119A80187081B08917
:104490000E93C018089BB081F08914994018F081E0
:1044A000308AC0183082B87C258828182080787A15
:1044B000658828186080F87AA5882818A080B87ABE
:1044C000E5882818E080387B658928186081387A6B
:1044D000A5892818A0810C9A9088401C908010888B
:1044E0001099401810805088119C00195080356830
:1044F000002D10D02146069840002A182B5A109CF7
:104500001B192B524A20135A59181152B87B0E907E
:10451000F87B14903B7C099800280A9D27D10E98BF
:10452000002824D11498002821D1002B1FD100206D
:10453000139CE0830F9F38683979039A1140012654
:10454000F2070240501803D0002102981CF04AFBE9
:10455000704B587B00281BD0207C002801D0E089BC
:10456000A081207F012830D1608CE0832DE00026DF
:10457000129806840F9F3868C10F139C47D0397971
:104580004A07920F3AD0002102981CF02BFB3EE024
:104590000C99C888401CC880207C0226002814D0B2
:1045A00060694000059909785C4A4A4380180B9974
:1045B00009014018149058490968A2793046079EAD
:1045C000724306468918149848862089A189884232
:1045D00004D0401A25D95249884222DC3879800615
:1045E00006D40C980088002800D18AE0082189E0D0
:1045F000A0793E2126F086FDFD2183E0CAB2521C3F
:1046000003231340F8220A40991838603971208931
:10461000E1890818A081207F01283E4B01D1608CE0
:10462000E0832B20C0002918587A00280FD00120E1
:10463000207704980078002809D10498807C00280D
:1046400005D10D980078002801D1608CE0830879AD
:1046500000280BD0022804D1987B002801D100202B
:1046600003E0187D002801D0022008715878002846
:104670000BD058682168C86027480168A079079A5C
:104680004243891800224A860EE023480268A07936
:10469000079B4343D218538E0B601E4B116A22684E
:1046A000D1600021E1832177743599787F2900D189
:1046B00081212970812902D026F0F0FCA07926F012
:1046C00011FD204626F00CFD2046FEF731FC0128A6
:1046D0001BD026F00DFB1348103017F08BFA304634
:1046E000109922460EF02CFC022E01D000202074DE
:1046F00000F01AF826F008FD002806D007F082F82E
:1047000003E03E21204622F0C9FA15B0F0BDC046B4
:104710003C6E0020686C0020CC7E0020C4090000A4
:10472000AA100000E07A0020F0B589B025F032FF31
:104730000446FF2802D1002024F00EF9E0B226F052
:104740009BFA04461B2000012318205600280893DA
:1047500006D57F2108401870204614F007FC089BFE
:104760002246883221462E31A06E0068006800285B
:1047700002D00020E08311E04820085C00280DD121
:10478000107800280AD1907B002807D1987900285A
:1047900004D1207F012801D1608CEBE707920091C2
:1047A000DD272B2006902189E08B05914E1C3518C2
:1047B0006581204622F0E6FF002803D1C248007838
:1047C000012803D10020E083668135467E000698EB
:1047D000C0000690079F387801280BD17A88A9B2CB
:1047E000059820F0A7FF002804D025F09AFD2DD0D1
:1047F0007A8821E0B87B01280BD1208961893A8A27
:1048000020F098FF002804D025F08BFD1ED03A8AB6
:1048100012E0089B9879012818D1208961891A89AA
:1048200020F088FF089B002810D062892189481C4D
:1048300080B282420AD01A89824207D0501E60811B
:1048400080B226F0DAFB401EE083089BA51906988B
:104850002618987900210291012814D118892189FC
:10486000491C89B288420ED820461F461DF0C1FF60
:104870006A782A700220B871079FA17900200292FD
:10488000134616F08FF93079002804D00020E08319
:104890002089401C6081039638780128089510D142
:1048A000788821894A1C92B290420AD1608126F010
:1048B000A4FB618E4143F8880E18204610F002FEDA
:1048C00000E0668E0F21254620358048E28B059258
:1048D000571C774302467A432668F0680192101805
:1048E0000690F0607A483822825C002A06D0794A25
:1048F0005278002A04D0784800220280608A0EE0B4
:104900000491754A13885A1C73490A80002B01D000
:10491000608A03E0408F039AD28810180499784384
:1049200049010491192109011EF064F9401C6061DC
:10493000A76105992970694B1968A2793C256A43DA
:1049400089180A6A3261069A101A0862B0600879FA
:104950008880A08A1A68A67929467143069252185F
:1049600011463231538E400018185086079A12783B
:10497000022A05D1009A1278544B5A431018088025
:10498000049AA7182022534B5B78002B079705D079
:104990003979114210D13146069A1DE0029B042B51
:1049A00003D1E1231B01C018088007980079104249
:1049B0002ED0002008802BE00021304626F0A2FBFC
:1049C0003879DF210140397144480268A1792846CD
:1049D00048431018408E0E466943069251180A6AE1
:1049E0003F4BD2180A6223689A60019FD21B1A615A
:1049F0007B22120182184A86089B1B78042B04D163
:104A000032315722920182180A8090B203990860CD
:104A1000618E3448027C437C1B029A18837C1B0401
:104A2000C07C0006C01880180068484364211EF04E
:104A3000E1F8264941432A48401890306E430699D0
:104A40008919C862FF20063020180421062224F0AC
:104A500005F900280CD025F0B5FD41B21F4E326893
:104A6000A3796B43D318491001220240184609E08C
:104A70001A4E3068A179694340180799896809225C
:104A8000895600221FF002FB08980178002904D102
:104A9000002023F061FF08980178A079089A127924
:104AA00016F08CFE204626F010FC3068A1794D43AC
:104AB0004019216848600C4807210170204617F012
:104AC000B5FD002009B0F0BD5E6F0020C4090000F4
:104AD000C4790020686C00201C7F0020CC7E002060
:104AE000C0FAFFFFE8EC02004F6F0020F0B591B074
:104AF0000646002710970F971E20002E00D1BBE11D
:104B00000C90356E0FA910AA30460CF0FDFF072857
:104B100001D10720B0E132462932706E1321405690
:104B20007F2805D100211046144622F021FC0AE01E
:104B300010700021144624F09FFAC0B225F0AFFE99
:104B4000002800D1E2E00D9430465D300890284600
:104B5000C0300A90284680300990284665300B9076
:104B60002C463034291DC548286006918F700F806F
:104B7000EF71C348A86028460C30242125F0ACFD15
:104B800007202070601C0F2125F0A6FD0D98C0574E
:104B9000394624F071FA6070706E407A2070069B7E
:104BA000188801221043FE21049188431880059241
:104BB000EA7126F0B1F97D21490140182862079475
:104BC000A7703046294626F0C3F8284640302946CB
:104BD0006831A863E9632A21009025F07DFD7F20DC
:104BE0000B994871EF662F676F67286A3061A54897
:104BF000007808990870A448007800280D9A16D00B
:104C0000507E04990840022811D1A04800680D3058
:104C1000144624F069FC2246002808D13046303082
:104C20009A490968C91D062224F082FB2246507E5B
:104C3000411E8841079B1946343103910E96342456
:104C40000294195DFD220A404000101818552846AC
:104C50005830303606968E4B062431462246984709
:104C6000099E37708B48F0800895059D358108981E
:104C70008C3006992246864B9847F4723C20019767
:104C800037540A9E83487080B58008990298079A25
:104C9000105C4001402207921040001DB0710D468B
:104CA0000846C83006992246794B9847F4710E9809
:104CB000807B012801D004282AD1039E307840014E
:104CC000079908400D99897EC9014018401C099F29
:104CD000B8720C20F8722C46284692300E9D3C3556
:104CE00006220792294624F023FB0D98807E317816
:104CF000059A1040049A11400818307020465E3022
:104D00002946079A24F014FB0A9B41E01220B3E0E5
:104D100027460E9B986E00282C4612D0C11C0A789C
:104D2000497809028A180CD0411D204692301E464F
:104D300024F006FC3346B06EC078099AD17A081880
:104D4000D072D86E0028019E11D0C11C0A78497813
:104D500009028A180BD0411D2046CE3024F0F0FB0A
:104D60000E9BD86EC0780A9AD1790818D071987BBA
:104D70000228394600D03146032800D102210A9B7F
:104D8000099F039800784001079A10404018B872B4
:104D9000214678312546B435F87A801DB880D87917
:104DA000801D18803C488078400606D5B87A2022BD
:104DB0001043B8729879104398712746483738469F
:104DC00024F0F6F93846294624F0F2F92546503504
:104DD00022F032FD0146284624F0BAF90E98006F01
:104DE000C17800790002411802D02C48484300E005
:104DF0002B48E0622B480026022726616761A061EC
:104E00000E9B586E807C0B9D297803220240FC206B
:104E1000084080182870586E807C002803D11A48FA
:104E20000078012824D125F073FE054625F074FE94
:104E30000146284620F0BAF800280C981CD10B9A9D
:104E400010781821014311700F480078012802D111
:104E5000009805600BE00E98406E807C049901403C
:104E6000022901D100990D603843032800D16564FF
:104E70000F980D498180304611B0F0BD011000003F
:104E8000910000004D7F0020446E0020086F00203C
:104E90003193020003020000E26C0020409C0000FD
:104EA00000204E0079B60100AC0D0000F0B58BB0CB
:104EB0000446016CC26A1FF025F8E16F4A1C90425B
:104EC00001D9352591E1002813D0206C8A0087187C
:104ED0000837891C384625F063FAA168384624F063
:104EE000EDFA002807D0E66F711C884205D9C62567
:104EF0007BE1532579E16C2577E123786625022B48
:104F000000D272E1052B00D96FE10890216C0A688C
:104F1000981E4342434101252A405A4080200A906E
:104F200022500898E06720463A460B4614F0DEF817
:104F300020784000001F294681400A982150216CAA
:104F400020460A461FF0E6FFE667E16C20460A9518
:104F50002A4624F00BFB626EA06EE16CA36FE56F36
:104F60000095A34DA847A26EE06E25F0FFFCA06E51
:104F7000E26E25F0FBFC216F226B20461EF0C2FF83
:104F8000E56FA84201D93C252FE100280ED0606CC6
:104F9000E26E216F26F014F8216F626B20461EF03E
:104FA000B1FFE56FA84203D965251EE1C3251CE1C9
:104FB000074600280ED0A06C216FA26E26F000F8E4
:104FC000E16EE26820461EF09DFFE56FAF4203D917
:104FD0005C250AE1562508E126468036A26EE16E80
:104FE000206F25F0EDFFE26C206D216FA36FE56F60
:104FF000009500F087FFE06F421C09963260656DF6
:105000000026277825F07CFC09DA616C284625F01B
:10501000FFF80998026890002D18761CF1E7A56D3D
:10502000002625F06DFC06DAA16C284625F0F0F884
:1050300025F085F9F5E7E56D002625F061FC06DA37
:10504000E16C284625F0E4F825F079F9F5E7216CC4
:1050500008688007C20F089840010290401C019028
:10506000002507952B460A9E02988642E8B26AD828
:105070000490069308920198801BB84200D33846EA
:10508000099A1060204632461EF006F94119C8B24E
:105090007B1E01252A469A409042059500DA00259C
:1050A0002B46BB4090420A9600DB48421818089AEB
:1050B0005049895C9600504A9219079F7B00D2188C
:1050C000525D920051180006800D001F042290438B
:1050D000081809990860204600F0F2FB680047496B
:1050E00089190918049A895C039145498919081896
:1050F000C75D079720780490811E42488019405C64
:105100000A9E36181420089A50433F4A1218052068
:1051100041435118069D4D5D216C720992008A58D9
:105120001F233340DA40059B1A40039F7A404243D5
:105130000A20089B5843354B18188018425D2B46AF
:105140003D46049F90E7012810D107988000C01CBD
:10515000099E30602E4D2046A84701203060204631
:10516000A847022030602046A84727789925032FBA
:105170003BD30020C0430890B91E01200A9088400C
:10518000FE30099EC7B20A983060002F11D07A1CF9
:105190002046394605F006FC0A9830602078801ECB
:1051A00008998140C94320463A4605F0FBFB781E2A
:1051B000E8E72078801E089F39468140CA430021D5
:1051C00007912046134B98470A9830602078801E3C
:1051D0008740FA432046079F39460E4B98470A9A64
:1051E0003260204639460B4B984728460BB0F0BD3D
:1051F000055F000054F50200CCEE02009CEE0200B8
:10520000E4EE0200B4EE0200A9DC0200E0E50200D8
:10521000C1580000A5A900007FB51546D14A8218E3
:105220001D2A00D934E152007A44928852009744F2
:105230001D002F01C5005000BA0060009A00DE007A
:105240002F01E4002F012F01230115012F0145003B
:10525000A50078003E00EF000001440139012F0154
:1052600028002F018E004D0133006A001824012907
:1052700000D069E12878022800D965E1BA49C870F0
:1052800061E11824012900D05EE1002D00D15BE12D
:105290002878B549087056E11824012900D053E157
:1052A0002878012800D94FE1AF4908754BE1012961
:1052B00000D0DFE0287823F087FF44E1182401299B
:1052C00000D041E12878042800D93DE1A64988743E
:1052D00039E11824012900D036E12878042800D9C2
:1052E00032E1A1490871032800D02CE100244C715F
:1052F00078E0102900D0BDE09B48543010222946A8
:1053000024F016F81FE11824012900D01CE1002D1B
:1053100000D119E12878012800D915E19249887057
:1053200011E11824012900D00EE12878022800D9C3
:105330000AE1002800D107E18B49C873022800D098
:105340000BE110200874012025F01AFAFBE0002977
:1053500000D08FE025F0A0FB002800D1E0E08248DB
:105360000121C174EFE01824012900D0ECE0287875
:10537000012800D9E8E07C490872E4E0072979D1E6
:10538000691C01AE0622304623F0EAFF297800248A
:10539000009403AA3046234624F0A5FF002800D13C
:1053A000A7E03424D0E01824012900D0CCE02878EC
:1053B000012800D9C8E06C49C871C4E0182401294B
:1053C00000D0C1E02878012800D9BDE06649012855
:1053D00003D10A79032A00D184E04871002800D063
:1053E000B1E000248C71204624F0FEFDACE00129E0
:1053F00040D128785C494873A5E000293AD125F0CE
:105400004BFB002800D192E05748012181739AE0BC
:10541000554E707A1824002800D095E0602978D184
:10542000002D76D051486022294623F081FF0120CB
:1054300074E01824012900D086E02878012800D9DA
:1054400082E049494872002400287DD001208872FA
:1054500046484749602223F06BFF75E0012909D1D6
:1054600041494A7C287848740024002A6CD10128DC
:1054700063D069E0182467E01824012964D13A4810
:10548000C27B2978022A2FD110295DD110212EE06C
:1054900002240E2858D8022956D129881DF0CAF9AD
:1054A000044651E0002401294ED1287801284BD828
:1054B0002D49C87224F090FD46E01824012943D1FB
:1054C0002878012840D8284908733CE0182401298D
:1054D0003AD12878012837D82349012830D14A7990
:1054E000002A2DD102242FE0CA1F0A2A2CD20174CF
:1054F00029E01D4D287B002804D125F0CDFA002895
:1055000002D0287B012822D103A8007809F098F95D
:105510000FE0012918D1002D16D02878B07212E0C2
:105520000FF022FE0446502021F008FC0CE022F08F
:1055300075F80446502021F001FC1AF0D9FC03E074
:10554000887124F051FD0024204604B070BD686AC3
:1055500003A9097801224254F6E70024204625F0E9
:105560000FF9F1E700FCFFFF60770020C47700200F
:1055700064DE0200F0B58DB00646086800281AD037
:105580000A917468B0680B902546C03521F060FE22
:105590000746686A082801D8002100E001210A9A1C
:1055A0009068014202D15068084207D0032010746D
:1055B000384623F0ABF800200DB0F0BD2346F83399
:1055C000296800290993069709D019780029EDD098
:1055D00069684A616A6006211174197917E02A60C6
:1055E0002F466A602146CC31CC220023A3504B6069
:1055F0008B60CB6009990979002901D0052200E070
:1056000001220A9B1A741A463D46069F099B05957E
:1056100000255561012907D102201871D878A449C5
:105620001CF0C2FB0A984068401EA249884202D87A
:10563000032020F0ADFCFF200230089001200790ED
:1056400020F0A6FC0998007800280B9B09D10A9845
:105650000068196B884204D209980079002800D1AB
:1056600090E00A951868089A1146FE314165416C30
:105670007F320A4342647768B1683D46C0356A6943
:10568000A869002A02D0002806D101E0002828D00D
:10569000384609F0EDFD0B9B1868416C01220A4366
:1056A0004264069823F032F809980078002801D067
:1056B000079881E76C34059DA96A20461DF072FFAA
:1056C0000028079800D177E7286803210174304645
:1056D00007F024FA20460A9C21461DF063FF20466D
:1056E0006AE73846FE3002900846383003908078EA
:1056F000049125F0E1F9049880680221019122F0DB
:105700009BFD0498C068019922F096FD0498406CB6
:105710000399497822F052FF0498006C03990978A4
:1057200022F04CFF0398807825F0C2F90398807826
:1057300025F0C6F93846049909F09AFD0020E86181
:10574000286800685C49884203D33846049909F008
:105750008FFD02980078002808990B9B049A9BD132
:1057600030460D46174620F0D1FE0B9B38682818AE
:10577000132142582A434250B868F96801434F4800
:10578000016089E709984078002804D00598806A6C
:10579000401C00D065E7384622F0B8FF7068B16859
:1057A00004910346E4330A9A91680991002904D0D0
:1057B0001968092906D3022105E00146F43109914F
:1057C000002100E0012102915468002C039304D0D1
:1057D0001868092806D3022005E0F63000210B9155
:1057E000044601E001200B901568304620F08EFE43
:1057F0002A462E46089B002A41D00692039800684C
:1058000009281BD224F0B8FB002E10D0DB070ED0E5
:105810002778455802232B4000D08750002B00D01A
:10582000761E002B01D00B9D2C195B08ECE70CA910
:1058300023F0B2FE0C98099908701AE024F09CFB42
:10584000002E10D0DB070ED02788455802232B40AE
:1058500000D08750002B00D0761E002B01D00B9D6E
:105860002C195B08ECE70CA923F096FE0C9809991B
:105870000880069A521E029841180991BAE70498C6
:1058800000685F3303998968C2580A40102902D121
:10589000002AF9D101E0002AF6D00A98406823F0E6
:1058A0003BF9059A10680021017411605160FFE610
:1058B00004000300FEFFFF1F0104000028600240F7
:1058C000F0B589B0044680202158C8080D460391E0
:1058D000E26F511C4143E06DC9B28F00C019616F86
:1058E000636C06AE0BC6A807060F05A88159206E8B
:1058F000A36F0092BB4D0A46A847606E25F022F8C0
:1059000005A88059A16CA36FE26F0092B64D0A46BC
:10591000A847E06E216FA26C636E06920791089310
:1059200005A98959E26DD2190497236EE56C069298
:105930000793089505AA25F01EF8AA4DA847606EA2
:10594000E16EE26C06AB07C305A88059E26F521CFA
:1059500024F05EFCE06E216F06900791089005A888
:105960008059216E24F0D1FF9F4DA847206FA16E72
:1059700006900790089105A88059A16DC919226E5B
:10598000636E06AD0EC505A98959A26CE36C656FFF
:1059900006930795089205AA24F0EDFF914DA847BC
:1059A000606F216E06900791089005A88059A16E3E
:1059B00024F0ABFF8C4DA847234660330ECB0693F3
:1059C0000791089205A88759E56C606F06910795C5
:1059D000089005A9895906920790089305A882594D
:1059E000A36FE06F009038467E4DA847226E606E30
:1059F000616F06AB07C305A88559E16EA36FE06F21
:105A000000902846784FB847216E226DA36FE06F53
:105A100000902846B847E06C616E226E06AB07C363
:105A200005A88159E06E626FA36E06AD0DC505A88D
:105A3000805924F06AFF6B4DA847616EA06D049FEA
:105A4000C219E56E06A826C005A988590290216FE3
:105A5000226E636F06910792089305A98959E26D3A
:105A6000D219636C06950792089305AA24F083FF68
:105A70005C4DA847606EE16DC919E26E06AB07C3C5
:105A800005A88059E16F4A1C029924F0C1FB206DE2
:105A900024F058FF05A88159206F226E06900792C6
:105AA000089005A8805924F030FF4F4DA847606E3C
:105AB000616FA26E06AB07C305A88059216EE36E25
:105AC00006920791089305A98A59A36FE16F009187
:105AD000464D0146A847226F216E206D0692079120
