:10000000D034002035040000450400004504000001
:1000100045040000450400004504000045040000BC
:10002000450400004504000045040000F52B0000D5
:100030004504000045040000512C0000952C0000F0
:10004000450400004504000045040000450400008C
:10005000450400004504000045040000450400007C
:10006000450400004504000045040000450400006C
:10007000450400004504000045040000450400005C
:0C00800045040000450400004504000099
:10009000002243088B4274D303098B425FD3030AC7
:1000A0008B4244D3030B8B4228D3030C8B420DD3DA
:1000B000FF22090212BA030C8B4202D31212090268
:1000C00065D0030B8B4219D300E0090AC30B8B42A6
:1000D00001D3CB03C01A5241830B8B4201D38B0354
:1000E000C01A5241430B8B4201D34B03C01A5241F9
:1000F000030B8B4201D30B03C01A5241C30A8B423C
:1001000001D3CB02C01A5241830A8B4201D38B0226
:10011000C01A5241430A8B4201D34B02C01A5241CA
:10012000030A8B4201D30B02C01A5241CDD2C3093C
:100130008B4201D3CB01C01A524183098B4201D3B8
:100140008B01C01A524143098B4201D34B01C01AA3
:10015000524103098B4201D30B01C01A5241C3081B
:100160008B4201D3CB00C01A524183088B4201D38A
:100170008B00C01A524143088B4201D34B00C01A76
:100180005241411A00D20146524110467047FFE7E2
:1001900001B5002000F006F802BDC0460029F7D0E6
:1001A00076E770477047C0461C2101231B04984224
:1001B00001D3000C10391B0A984201D3000A0839F8
:1001C0001B09984201D30009043902A2105C4018AF
:1001D0007047C04604030202010101010000000053
:1001E0000000000010B502F053FE80210E208905AA
:1001F00002F0D8FE01210E2002F024FF012002F0BF
:100200009BFC0E2002F014FFF8E7C0467047C04682
:1002100070B503F05DF903F037FA01212E4A072487
:100220001368B9260B43136002F032FE2B490620F7
:1002300002F0B8FE0021062002F004FF012003F0C6
:100240001DFB0121062002F0FDFE8C20800003F042
:1002500015FB2249062002F0A5FE2149122002F0DA
:10026000A1FE1F490D2002F09DFE1E490C2002F048
:1002700099FE0021062002F0E5FE01250021122052
:1002800002F0E0FE310021410D20294002F0DAFEAB
:100290001220012102F0D6FE082003F0EFFA013C03
:1002A000ECD20021122002F0CDFE0121062002F046
:1002B000C9FEAF20800003F0E1FA062002F0A0FDA5
:1002C000122002F09DFD0D2002F09AFD0C2002F09C
:1002D00097FDFFF79BFF70BD140000400104002054
:1002E0000004002002200460F0B5384B384C1E6832
:1002F00023688C469D68DF685A69AF60DF68516883
:100300007D601D1DA94258D000255D611368013B29
:1003100013601368431C39D0236830185860864234
:1003200017D92C4B1D6820682A004168041D08322B
:100330004B1C01D143E01A0053681E68B142FAD247
:1003400083609C602B68C2600133546045612B6000
:10035000F0BD214B1D6824682A006168261D083203
:100360004B1C01D12EE01A0053681F68B942FAD223
:10037000A3609E602B68E2600133566065612B606C
:10038000164B1A688242E3D91860E1E76346002BF6
:10039000C2D0134B21685A688A6090682168C8608F
:1003A00021689068043141602168043191602268BD
:1003B00053611A6801321A60CAE75760A4E72A69D4
:1003C0005368BDE72A695368D2E7C0462C2A00204B
:1003D0003002002040020020380200208029002046
:1003E000042A002010B5114A00E01A001368834265
:1003F000FBD351685418A04213D041684418A3425B
:1004000004D00360904200D0106010BD084C2468F6
:10041000A342F6D05C681B68A44661444160036057
:10042000F0E74068091851601000E7E7AC290020A8
:100430003C02002002480068854602F00DFA0000E8
:100440000000000072B6FEE7074B10B55A68FF23A4
:100450001340064A9B009B58002B04D098685B68A9
:10046000984702F0C9FB10BD00ED00E0A00100209C
:10047000F0B5D6464F464646C0B5040002F0C8FB6C
:10048000744A136801331360734B99461B68002B41
:1004900037D0724EE06A3368002B2AD0704A714B15
:1004A000196801311960704B61641968814200D28A
:1004B000186083001B189B00D71879688868A160B2
:1004C000E0608D68201D68608860D15867610131E7
:1004D000D15002F0A9FB3368002B05D04B461B68B6
:1004E000DA6AE36A9A4215D31CBC90469946A24642
:1004F000F0BD4B461B68DB6A8342CFD84B461C607D
:10050000CCE749460C601268E06A012A05D0544ADB
:10051000524EC4E702F070FBE6E7514A0121160093
:1005200008365660D660166116001C369661166253
:10053000566216003036D66256639663160044360D
:1005400016649664D664160058365665D6651666E7
:1005500016006C3696661667566716008027494265
:100560008036136091605361D16193621163D363EC
:10057000516413659165D1665366D667D1510437CE
:10058000D6510437D651160008379436D651043761
:10059000D1510437D6510437D6518C2693679351E5
:1005A00016000837A836D6510437D1510437D65132
:1005B0000437D651A026935116000837BC36D651C1
:1005C0000437D151294D0437D6510437AA46D651A4
:1005D0000825B426264F9351AC463E00D444083635
:1005E00065467E60FE603E61564675606546F56014
:1005F0003561204D3B60AC4608256544A846B16096
:10060000654633604646B9606E60A9602B60EE6057
:100610002E61194DAC4608256544A84665464646F8
:100620002B606E60A960EE602E61144DAC4608250B
:100630006544A84665464646A96061460B60CE60A3
:100640000E6151460E4B6E601F600E4B034E1960DB
:1006500025E7C0465024002030020020A8290020B1
:10066000480200205C26002060280020A0280020EE
:100670008C28002094290020182A0020042A002019
:100680003802002040020020F8B50122DE4657461D
:100690004E4645464E4BE0B51A604E4B5B68DB0557
:1006A00000D18DE0EFF3108182F310884A4B1F6870
:1006B0004A4B994601234A461370494B9B460023F7
:1006C0005A461370474B1E689A46424BBF1B5B68E5
:1006D000DB0500D171E081F31088434B002598467B
:1006E000434676197F1B01251C686D42002C0BD1F7
:1006F00018E0237D002B04D0E3689B1B9D4200D9AA
:100700001D002468002C0DD0237D002BF9D0E36858
:100710009E42EED12369E069002B46D12375A3697F
:100720009847E6E7AF42DBD22A4B5B68DB0540D057
:10073000EFF31084012383F310885B461B78002BB2
:1007400013D043461B68002B12D001256D421A7D41
:10075000002A07D01A7D002A04D0DA68921B95423D
:1007600000D915001B68002BF1D1204B9D4200D908
:100770001E4D01221E4B20201A6003F00DF91D4B67
:10078000AD191D6053464A461D60002313701A4B75
:100790001E60104B5B68DB0516D084F310883CBCF0
:1007A00090469946A246AB46F8BDE2689B18E360C6
:1007B000B5E702F02DFA0024BFE702F035FA8CE726
:1007C00002F026FA002171E702F02EFAE7E7C046B0
:1007D0005420024000ED00E0042102408801002086
:1007E00098010020940100208C010020FFFFBFFF32
:1007F00048210240202102409C01002001220021CA
:10080000F8B52D4B1C682D4B1A602D4B19602D4BE4
:100810001A602D4B5B68DB053FD0EFF3108182F34C
:1008200010882A4B2A4A5A6000229A60264B5B683D
:10083000DB053DD081F3108801261B21254803F0FC
:1008400021F8254B25481E6002F0AAFA244B254AC0
:100850001C60254B254D9C4600231370244A64449C
:100860001370244B2C601E70174B5B68DB0518D08F
:10087000EFF3108786F3108801221F4B2C6820208D
:100880001A6003F089F81D4B1C600F4B2C605B68ED
:10089000DB050AD087F31088F8BD02F0B9F9002112
:1008A000BFE702F0B5F90027E6E702F0BDF9F3E78C
:1008B00002F0BAF9C0E7C0460421024054200240C9
:1008C0000C2102406020024000ED00E0302B0020AF
:1008D0008906000044040000582002408C010020DA
:1008E0009C01002088010020FFFFBFFF9401002031
:1008F0009801002089010020482102402021024067
:10090000F0B5DE4657464E4645464D4BE0B51A68B3
:1009100083B0013294461A60002A00D174E0494F36
:100920003B689C450FD200230093474B1B68002B6C
:1009300001D001230093009803B03CBC9046994637
:10094000A246AB46F0BD0023009399463F4B404E74
:100950009A46404B404D9B46019733681B68002BDD
:100960004AD03368DB68DB685A6894455ED399687F
:10097000D8685A698860DC68181D616051688142D6
:100980003ED0494659611168013911609A6A002ABE
:100990000ED0D9691C6A57688C601C6A61601900A6
:1009A00018318F422ED04946996211680139116081
:1009B0005146DA6A09688A4201D951460A609100B3
:1009C0008918890088466C1861688F689960DF60B3
:1009D0008F68786088605C6143464146EB5801331C
:1009E0006B505B461B68DB6A9A42B6D901230093C1
:1009F00033681B68002BB4D1019F013B3B6094E737
:100A00005460BEE75460CEE7114E144B326819684B
:100A100031601A60124A13680133136033681B682F
:100A2000002B06D1074F013B3B6079E7019F3A60FD
:100A30007BE73368034FDB681B683B6070E7C046A9
:100A40002C2A002080290020F82A0020602800207D
:100A5000380200203002002048020020400200201E
:100A600084290020F8B502F0D3F8264E3568002D11
:100A700002D002F0D9F8F8BD234A01271300083349
:100A80005360D3601361214B7F42190008315960D4
:100A9000D96019611E4915600A6097601D4A9F6000
:100AA00013601D60012246231B4CE2541B4B236044
:100AB0001423E363043B236402F0AAF8216CE36B84
:100AC00022684B43D0185B1AD318E360442362605A
:100AD000FF22A563E7540133E25423001833636116
:100AE000E361236223002C332561A36223636363E4
:100AF000A060A761E762656202F096F84C2334605B
:100B0000E554B6E7302A0020642800207828002029
:100B10003402002044020020B429002010230020C9
:100B2000F8B5DE4657464E4645464B4CE0B5C0222A
:100B30000021200002F0D7FFBD239946BB3B9A4617
:100B40004B465246E2548022444D92002563A52133
:100B5000280002F0C8FF0723FD35FF359D43984666
:100B60003F4BAB4625646363002538233F272000B5
:100B7000E5542E3BA36160220021E55524616462A7
:100B8000583002F0B0FF374B374E2366374B002208
:100B900063663749E665584602F01CF8206020007D
:100BA000FFF766FCFFF75EFF324B1B68002B4AD055
:100BB000314CC0220021200002F095FF2F4B5246FD
:100BC0009B4623634B46E2548022A521920058465F
:100BD00002F089FF5B464246FD33FF3393439B4659
:100BE0002364274B20006363264BE555A36305234D
:100BF0002461E362E364A3616462593200215830E6
:100C000002F071FF174B00222366184B1E496366E2
:100C1000E665584601F0DEFF20602000FFF728FC63
:100C20001A4B1C6072B61A4B1A4A1B685833136071
:100C30000122194B52421A60184B02321A60184BAB
:100C40001D6002F05FF8174B1B683CBC904699464C
:100C5000A246AB46F8BDC046B82800205824002064
:100C600049444C45683C0000483C0000283C0000DA
:100C7000791E0000302A0020382A0020602600203B
:100C8000546D72205376630041180000342A00200E
:100C9000300200201801002080290020A82900200F
:100CA0002C2A00200C010020F8B5DE464E4657469F
:100CB0004546E0B501F0ACFF504E3368013B336070
:100CC0003368002B00D080E04D4B1B68002B7CD09C
:100CD0004C4A00239046002291464B4A4B4D924687
:100CE0004B4A934642461268002A45D04346DB6889
:100CF000DB68D969186A9A6A8860186A5468416022
:100D0000190018318C426AD049469962116801393C
:100D100011609968D8685A698860DC68181D61603C
:100D2000516881425DD049465961116801391160AD
:100D30005146DA6A09688A4201D951460A6091002F
:100D400089188C0029198C4649688F689960DF6082
:100D50008F6878608860614659612959013129514D
:100D600059460968C96A8A42BCD3012229490A60E6
:100D700042461268002AB9D1002B07D0264B1A68C8
:100D80001268002A33D1254B013A1A60244D2C6891
:100D9000002C16D00123984605E02B6801332B6008
:100DA000013C002C0CD03368002BF6D1FFF7A8FDD6
:100DB0000028F5D04346174A013C1360002CF2D1BD
:100DC0002C60144B1B68002B0DD1002401F02CFF6C
:100DD00020003CBC90469946A246AB46F8BD506008
:100DE00092E754609FE701F007FF0124EEE71B68DC
:100DF000DB681A68094B1A60C8E7C046582600200D
:100E0000502400209429002060280020480200205F
:100E100030020020F82A002038020020802900201B
:100E20009029002070B50B4C0B4A236812681B18E0
:100E30000500934203D020684019206070BD01F086
:100E4000E7FE064A013D13680133136001F0ECFE32
:100E5000F1E7C0462C2A002080290020902900209C
:100E6000064B10B51B68002B02D1FFF749FD10BDE2
:100E7000034A0020136801331360F8E75826002066
:100E800090290020F8B5104B02001C680E002500C8
:100E9000A169183508324B1C01D111E01A005368C2
:100EA0001F68B942FAD2E3619D6003682262013390
:100EB00055600121A06203603000FFF715FAF8BD0C
:100EC00002695368EFE7C04630020020C368F0B5FE
:100ED000DB68D969186A9A6A886018001C6A183039
:100EE0006160516881424DD00021996211680139D9
:100EF0001160294AD96A1268002A2CD19868DC68E6
:100F00005A698460DC681D1D60605068A84241D049
:100F100000205861106801381060204A106888422B
:100F200000D211608A001E4C52189200A6187068F8
:100F300087689860DF6087687D6085605E61A35820
:100F40000133A350174B1A681268002A1CD1164BA4
:100F5000013A1A600BE0154A5468A568DC611D620D
:100F6000A5686860A0609A62136801331360104B33
:100F700000201B68DB6A8B4203D201220D4B01303B
:100F80001A60F0BD5460AFE71B68DB681A68064B57
:100F90001A60ECE75460BBE7582600206028002068
:100FA00048020020380200208029002094290020D7
:100FB00030020020F82A0020F0B5C64600B5040033
:100FC00001F026FE4523E55C6DB2002D17DD636A56
:100FD000002B14D02600204B24369846012702E02F
:100FE000636A002B0BD03000FFF770FF002801D0A0
:100FF00043461F60013DEBB25DB2002BF0D14523AB
:10100000FF22E25401F010FE01F002FE4423E55CF1
:101010006DB2002D17DD2369002B14D026000E4B76
:1010200010369846012702E02369002B0BD03000D0
:10103000FFF74CFF002801D043461F60013DEBB293
:101040005DB2002BF0D14423FF22E25401F0ECFD0D
:1010500004BC9046F0BDC046F82A0020F0B5DE463C
:10106000454657464E4600230400E0B59846534B8C
:1010700083B09B46524B019115009A4601F0C8FD82
:10108000A66B002E6DD1002D41D043464C4E002B57
:1010900004D15B4656461B683768994601F0C4FD8B
:1010A000484A13680133136001F0B2FD4422A35C87
:1010B0005BB2013301D10023A3544522A35C5BB290
:1010C000013301D10023A35401F0AEFD01F0A0FDD6
:1010D00033686A1C29D0394A1168494501D0BB429E
:1010E00002D2DF1BAF421CD301F09EFD2000FFF7B0
:1010F00063FFFFF7D9FD01F08BFDA36B002B06D03A
:1011000001F092FD01F084FDA66B002E29D101F0C3
:101110008BFD002003B03CBC90469946A246AB46EE
:10112000F0BD1368ED1B9946376801F07DFD01F0B5
:101130006FFDA36B002B29D101F076FD2000290063
:101140002430FFF79FFE2000FFF736FFFFF7ACFDCE
:10115000002823D00123984601F05AFDA66B002EEB
:1011600091D0226C002A08D0E3689918A368E16046
:10117000994216D2019802F0ADFC013EA6632369A4
:10118000002B11D101F050FD0120C3E701F04CFD0F
:101190002000FFF711FFFFF787FDDBE701F02CFDD3
:1011A000D8E72168E160E5E720001030FFF78EFE08
:1011B0000028E7D001F020FDE4E7C04684290020A4
:1011C0002C2A00205826002070B5002833D0036D4B
:1011D000C26CC16A013B036591422CD0002B2AD11D
:1011E0008168C56843698D60C568041D6960596878
:1011F0008C4222D0002141611968013919601B68B5
:101200000A239B1A83610E4BC26219688A4200D975
:101210001A6093000B499A1892008D186B689E68AB
:101220008360C6609E6874609C608B584561013322
:101230008B50012000E0002070BD5D60DAE7C04601
:10124000602800204802002070B51600026C0400DF
:10125000856B002A06D1066801350020002E2CD0AF
:10126000A56370BD002E0FD1406802F033FC226CE4
:1012700063689446A268634463600135002093422A
:10128000EED323686360EBE7C06802F023FC236CB5
:1012900021685A42E3689B18E3608B4203D2A3683B
:1012A0009C466244E260022E02D001350020D7E75E
:1012B0000020002DD4D10135D2E7A068FFF784FFCC
:1012C000A660CDE7F0B5DE46574645464E460400DB
:1012D000E0B54B4B83B09B464A4B15009A460191B3
:1012E00001F096FCA36BE26B002793425CD3002DC8
:1012F00000D17BE0434E002F05D15B4656461B686C
:1013000099463368984601F08FFC3F4A13680133D1
:10131000136001F07DFC4422A35C5BB2013301D178
:101320000023A3544522A35C5BB2013301D1002307
:10133000A35401F079FC01F06BFC33686A1C1DD0EA
:101340002F4A1168494501D0434503D241465B1AF3
:10135000AB420ED301F068FC2000FFF72DFEFFF733
:10136000A3FC002003B03CBC90469946A246AB4685
:10137000F0BDED1A136899463368984601F054FCA5
:1013800001F046FCA36BE26B93421DD001F04CFCD4
:101390002000FFF711FEFFF787FC012701F038FC62
:1013A000A36BE26B9342A2D2002201992000FFF7C7
:1013B0004BFF636A002B1DD1002801D001F01CFCFB
:1013C00001F032FC0120CDE701F02EFC20002900C5
:1013D0001030FFF757FD2000FFF7EEFDFFF764FC2C
:1013E0000028DAD101F008FC0127D7E701F01CFC46
:1013F0000020B7E720002430FFF768FDDCE7C04697
:10140000842900202C2A002058260020354AF8B5CF
:10141000136801331360344B1A689446002A39D09C
:101420000027002832D0072310210340C91ACB43DC
:1014300083422BD34118002928DD2C4E35688D427C
:1014400024D32B48046804E02368002B04D0200038
:101450001C0062688A42F7D3644541D027002368A4
:1014600008370360531A102B2FD8224BAD1A196876
:1014700035608D4200D21D6080231B061A43002375
:1014800062601D4A2360136801331360FFF70CFC90
:101490003800F8BD072419490C421DD10A000D007F
:1014A0000024134E74603560154EB446072661441F
:1014B000B14319608B1A0F4A4C6013600B4A0C60E1
:1014C0008C466B6029601360AAE760184360616016
:1014D000FEF788FF6268C8E7CA1DA2431500DFE770
:1014E0000027D3E7582600203C020020B428002023
:1014F000AC2900207C29002088290020100300202E
:10150000F81F0000F8B506000F00002830D050206A
:10151000FFF77CFF041E29D000254623C554206018
:10152000C663056401F074FB216CE36B22684B43D6
:10153000D0185B1AD3186260E3604422FF23A563CE
:10154000A060A3540132A35423001833463A6361C8
:10155000E361236214332561A36223636363A261A1
:10156000E262656201F060FB4C23E7542000F8BDA5
:101570000024FBE710B5002806D008384368002B8C
:1015800002DA0268002A00D010BD0B4A5B005B083B
:101590004360136801331360084A436811688C463E
:1015A00063441360FEF71EFF054A1368013313609E
:1015B000FFF77AFBE8E7C04658260020B428002051
:1015C0008C290020F8B5CE464746960080B5804667
:1015D00030000D009946FFF719FF071E00D196E075
:1015E000C020FFF713FF041E00D18AE0C0220021B3
:1015F00002F079FABD2300222763A521E2543800C6
:10160000320002F070FA236B043E9C4607236644C6
:101610009E432664002D47D034232A78E2542B7849
:10162000002B3ED035236A78E2546B78002B38D0FB
:101630003623AA78E254AB78002B32D03723EA78ED
:10164000E254EB78002B2CD038232A79E2542B7902
:10165000002B26D039236A79E2546B79002B20D0F5
:101660003A23AA79E254AB79002B1AD03B23EA79CA
:10167000E254EB79002B14D03C232A7AE2542B7AE3
:10168000002B0ED03D236A7AE2546B7A002B08D0EF
:101690003E23AA7AE254AB7A002B02D03F23EA7AA7
:1016A000E2543F230022E254089B092B27D8002252
:1016B00020006261A2620A32E362E364D31AA3618A
:1016C0005632002124616462583002F00CFA114B4A
:1016D0004A46E365104B41462366104B3000636673
:1016E00001F078FA099B2060002B00D01C602000DC
:1016F000FEF7BEFE01200CBC90469946F8BD0923BA
:10170000D5E73800FFF736FF01204042F3E701201C
:101710004042F0E7483C0000683C0000283C0000E4
:1017200070B5040001F074FA3D4D002C67D0A2683A
:10173000E06863699060E068211D42605A689142E8
:101740004AD0002262611A68013A1A601B68A36AD3
:10175000002B0FD0E269206A5E689060206A4260C8
:1017600022001832964235D00022A2621A68013A4D
:101770001A601B682B4A1368013313602B68A3425D
:101780002CD0294A1368013B1360284B1A68126851
:10179000002A19D1264B013A1A6001F045FA2B684C
:1017A000A34209D02868583002F0B2F9BD23E35CA7
:1017B000002B26D0012B2ED01E4B1B68002B02D0F5
:1017C0002B68A34224D070BD1B68DB681A68184BD5
:1017D0001A60E2E75860C7E75860B2E7164B5A68EC
:1017E0009068A260E0609068416091601A686361EF
:1017F00001321A60114A136801331360CDE72C6877
:1018000095E7206BFFF7B6FE2000FFF7B3FED3E7A6
:1018100001F0F2F9D7E72000FFF7ACFECCE7C046B5
:10182000300200205C2600205024002038020020D6
:1018300080290020A8290020182A002054240020F4
:10184000C24BF0B5DE4657464E4645469846C04B1D
:10185000E0B59A46BF4B87B09B46BF4B994643467F
:101860001B681A68002A00D135E10022DB681C6879
:10187000BA4BBA491B6801330B605146B84B096833
:101880001B6800938B4200D2BAE051460B60002ADD
:1018900000D16BE15B461B681E6873425E414B469C
:1018A0001D6801F0B5F94422AB5C5BB2013301D194
:1018B0000023AB544522AB5C5BB2013301D1002362
:1018C000AB5401F0B1F9AB6B002B00D1F7E101F0A3
:1018D0009FF94523EC5C64B2002C15DD6B6A002B8C
:1018E00012D02E000127243602E06B6A002B0BD0A9
:1018F0003000FFF7EBFA002801D09A4B1F60013C43
:10190000E3B25CB2002BF0D14523FF22EA5401F090
:101910008BF901F07DF94423EC5C64B2002C15DDF9
:101920002B69002B12D02E000127103602E02B6904
:10193000002B0BD03000FFF7C9FA002801D0894BEB
:101940001F60013CE3B25CB2002BF0D14423FF22C4
:10195000EA5401F069F9FFF7A7F9002801D101F075
:101960004BF94B46002202A91868FFF777FB0028C5
:1019700000D174E7029B049F002B0ADA059B380014
:101980000093039B009901939847029B002BE8DB8F
:10199000049F7A69002A0FD0B968F8685468886093
:1019A000F8684160391D8C4200D1A9E100217961BC
:1019B00011680139116012685146694A0968126854
:1019C00000928A4200D2F9E0524600991160092B38
:1019D000C7D8654A9B00D3589F4658600022626171
:1019E0001A68013A1A601B6828230422E35C1A4231
:1019F00074D1012293432732A354236A20009847CD
:101A000043461B681A68002A00D14CE1DB68DC6899
:101A10001968A268E06863699060E068261D42600A
:101A20005A689642DAD1D8E72823FB5C9A0700D49B
:101A300098E1012293432732BB5492E728210122E7
:101A40007B5C13437B54039A0099BA618B187B60CB
:101A50003F61994200D258E1002A82D05A4610686C
:101A60003C1D010008315A1C01D179E111004A687E
:101A70001568AB42FAD24B68BB609C600368F960A2
:101A800001334C60786103606BE7282101227B5CA5
:101A900093437B5465E728220123B85C03990343F1
:101AA000BB54BA69009C8B187B603F619C4200D29A
:101AB00044E1611A8A4200D835E15A4610683C1D5B
:101AC000010008315A1C01D14AE111004A68156829
:101AD000AB42FAD2CFE701220024C9E6A369246110
:101AE000CD18C94365608B4214D95B4619680A005A
:101AF00008326B1C01D11EE01A0053681868A84216
:101B0000FAD9A3609E600B68E260013356606161A0
:101B10000B6072E72F00FF43236A20009847A369F8
:101B20002461ED186560BB42F4D95B4619680A0070
:101B300008326B1CE1D10A695368A3609E600B6890
:101B4000E2600133566061610B6056E734020020A9
:101B50007829002044020020302A00205826002046
:101B60002C2A0020F82A0020FC3B000000269C4282
:101B700000D994E6FFF798F843461B68DB68DD68F8
:101B8000AA68E9686B699160E9682F1D4A605A6824
:101B9000974200D16BE100226A611A68013A1A602B
:101BA0001B682823EB5C5A0700D520E101229343F0
:101BB0002732AB542B6A28009847D2E64246126877
:101BC000116800294CD0019716E0002262611A6862
:101BD000013A1A601B6828230422E35C1A421AD1D6
:101BE000012293432732A354236A20009847434697
:101BF0001A681368002B31D0D368DC681968A268B2
:101C0000E06863699060E068271D42605A68974207
:101C1000DBD15860D9E7A3692461CD18C943656059
:101C2000994224D25B4619680A0008326B1C01D124
:101C30002EE01A0053681868A842FAD9A3609F6082
:101C40000B68E2600133576061610B60236A20001A
:101C5000984743461A681368002BCDD1019F029B19
:101C6000584641460068086059460A60ACE62E00B6
:101C7000F643236A20009847A36924615D196560D3
:101C8000B342F4D95B4619680A0008326B1CD1D103
:101C90000A695368A3609F600B68E2600133576074
:101CA00061610B60D2E759464246096811605A46A5
:101CB00013605346009A1A60FEF7F6FF51E66D4A2C
:101CC000AB6A12689968D3616A4A12681162694AFC
:101CD0009968126818324A60664A126818329A6027
:101CE0002A00644B24321B689A626B6A01336B6270
:101CF000002E07D0012040423100FEF7F5FAE6E55C
:101D0000506053E6009BE01AF6E7424610683C1D1F
:101D1000010008315A1C01D122E011004A681568FF
:101D2000AB42FAD2A7E6042101421FD10123984316
:101D30002733F8543B6A3800984712E68C4201D2A8
:101D40009942F0D9424610683C1D010008315A1CE6
:101D500001D105E011004A681568AB42FAD28AE663
:101D6000016988E63800FFF705FCFAE5009D9C183C
:101D70007C603F61A54223D3EB1A934216D25B46A7
:101D80001968381D0A000832631C01D12DE01A00C1
:101D900053681D68AC42FAD25368BB6098600B6808
:101DA000FA600133506079610B60C3E73B6A380029
:101DB00098472300BA693F619C187C60A542DBD23A
:101DC0009D420DD2A342F1D943461968381D0A003D
:101DD000083200E01A0053681D68AC42FAD2DBE713
:101DE0004346381D1968631CF1D10A69D4E7230002
:101DF000AA69009C9E186E602D61B44222D3E31A3A
:101E00009A4215D95B4619680A000832731C01D141
:101E10002BE01A00536818688642FAD25368AB6008
:101E20009F600B68EA600133576069610B60C1E62F
:101E30002B6A280098473300AA692D619E186E60AE
:101E4000B442DCD29C420CD2B342F1D94346196869
:101E50000A00083200E01A00536818688642FAD275
:101E6000DCE743461968731CF2D10A69D6E759606A
:101E700091E6C04630020020944BF0B54E4699469C
:101E8000934B57469A4600234546DE469846BD3357
:101E90009B46E0B58F4E904D904F85B02B68002B40
:101EA0002CD000F0B5FE4B46DB68DC68A268E16828
:101EB00063699160E16858684A60221D904243D08E
:101EC000424662611A68013A1A601B683368013B36
:101ED00033602B68013B2B6000F0A6FE3868583059
:101EE00001F016FE5B46E35C002B2FD0012BD5D111
:101EF0002000FFF73FFB2B68002BD2D153461B6815
:101F0000002B63D13B68DB6A002BC7D1744B1B6885
:101F1000012BC3D8734B744A1B6812689B1A012BA0
:101F2000BCD9724B714A1B680133136053461B685E
:101F3000002B00D18AE03B68DB6A002B01D1684BA3
:101F40001B68FEF7B1FEA9E75960B9E7236B002BC8
:101F500006D0083B5A68002A02DA196800293DD0E9
:101F6000083C6368002B99DA2268002A96D15B004E
:101F70005B0863605D4B5D4A1B68210001331360A1
:101F800063685B4A9C465A4B1B680093634413602A
:101F9000584A00E01A0013689C42FBD8506800932E
:101FA00013189C4200D18AE06346C818009B834204
:101FB00079D00B608A4200D011604F4B4E4A1B68AB
:101FC000009301331360FEF76FFE67E73B68DB6A3F
:101FD000002B00D062E7424B1B685FE752005208BB
:101FE0005A60424A41491268009301320A605A68B5
:101FF00011008C463E4A3E491268019262440A60D2
:102000003C4900E011000A689342FBD801924A68FB
:10201000604694468C440290100063453CD0009A80
:10202000029B9446019A63449A4226D01300009A78
:1020300013601300994200D00B602F4B2E4A1B688F
:10204000009301331360FEF72FFE89E73B68DB6ADC
:10205000002B00D075E7224B1B68012B00D970E7DD
:10206000204B214A1B6812689B1A012B00D868E795
:10207000224A136001F0B8FA63E7214B1B6803930F
:102080009A42D3D0029853688446009863444360D0
:10209000136803600300CDE78446029B009163440C
:1020A00002934B60BBE71C00154B1B6801939C42DD
:1020B0000AD0636863444B6023680B607AE784440A
:1020C0006346110053606FE70C6073E7182A002025
:1020D00060280020502400205424002030020020DA
:1020E00048020020802900202C2A002058260020A9
:1020F000B4280020AC2900208C2900202C020020CC
:102100003C020020FEE7C0460022434B70B5434C22
:102110001A60236842491B6B1A688A4202D15968C7
:1021200091426AD0206821683431FFF7EBFF3D4DC2
:102130003D4829688B005A1892008258002A44D1E1
:102140004E1EB20093199B00C358002B4FD18E1E18
:10215000B20093199B00C358002B48D1CE1EB20089
:1021600093199B00C358002B41D10E1FB200931945
:102170009B00C358002B3AD14E1FB20093199B000D
:10218000C358002B33D18E1FB3009A199200825886
:10219000002A3BD1CE1FB3009A1992008258002A20
:1021A00034D1013EB3009A1992008258002A2DD1F1
:1021B0000A00093A93009B189B00C358002B27D1B3
:1021C0000A398B005A18920082585B189B00C61877
:1021D000726808335268C31872609A420AD0D36892
:1021E000124A2360296023685833136070BD3100A0
:1021F0001300EAE752687260F1E79A688A4200D0F9
:1022000090E7DB68934200D08CE790E73100DCE791
:1022100011009300D9E7C046F82A002030020020C0
:10222000A5A5A5A5602800204802002018010020CF
:10223000054B10B51B68002B02D1FFF765FF10BDE1
:102240000122024B1A60FAE758260020F82A0020E3
:10225000F8B5040000F0DCFC3D4E002C67D0A1680E
:10226000E06863698860E068221D416059688A42BD
:102270005BD0002161611968013919601B68A36A8C
:10228000002B0FD0E169206A5D688860206A416098
:10229000210018318D4246D00021A1621968013910
:1022A00019601B682B4D6B689968A360E1609968A1
:1022B0004A609A602B68656101332B60BC23E25C45
:1022C000012A09D000F0B0FC234F3B68002B0BD152
:1022D0003368A34217D0F8BD0022E25400F0A4FCFA
:1022E0001D4F3B68002BF3D000F092FC1B4B1A688B
:1022F0001268002A1FD11A4B013A1A6000F094FCB0
:102300003368A342E7D13B68002B1AD1154A2968EC
:10231000126891420DD0144B1B68002B14D001227F
:10232000124B1A60D7E75860B6E75860A1E73468E7
:1023300095E73360CFE71B68DB681A68084B1A60C3
:10234000DCE700F059FCC6E7FFF7DEFEC3E7C04656
:1023500030020020042A0020A82900203802002092
:10236000802900205024002058260020F82A002030
:10237000F8B5264B04005B68DB0542D0EFF310850F
:10238000012383F31088224AA3681278002A1CD103
:10239000204A214E17689446204A30681168126816
:1023A000791A821A91421FD8FA18E2600122C01BE2
:1023B0002275984211D91A4BE46820201A6001F066
:1023C000EBFA184B1C60346007E0124A12689B1845
:1023D000E3600123144A237513700C4B5B68DB0523
:1023E0000CD085F31088F8BD624612689B18E36034
:1023F00001232375054B5B68DB05F2D100F014FC6B
:10240000F1E700F005FC0025BDE7C04600ED00E067
:102410008801002004210240940100209C0100203A
:1024200048210240202102409801002070B504009C
:102430001D00002817D0002B1AD06B68A260236102
:10244000AB68A161E361002323750A4B1B78002B65
:102450000BD02100084800F0ADFC2B78002B02D0F7
:102460002000FFF785FF200070BDFEF7C7F9F0E7F9
:10247000024DE2E7890100208C0100207C01002050
:10248000F0B5C6462C4B00B55B680400DB0549D0AF
:10249000EFF31085012383F3108800232375274B66
:1024A0001B78002B0BD00122254B1A70224B5B6846
:1024B000DB053BD085F3108804BC9046F0BDE36893
:1024C000204C22689342F1D11F4A204F16683A6887
:1024D0003968B21A5B1A9A42E8D21D4B1B68002B6E
:1024E00027D0012149421A7D002A07D01A7D002AEF
:1024F00004D0DA68921B914200D911001B68002BAE
:10250000F1D1144B994214D801228846124BB044A1
:102510001A60202001F040FA4246104B1A602260F7
:102520003E60C3E700F074FB0025B6E700F07CFBDB
:10253000C2E70849E8E7C04600ED00E08801002056
:102540009801002094010020042102409C010020F9
:102550008C010020FFFFBFFF4821024020210240E4
:10256000104B70B55B6804000E001500DB050DD044
:10257000EFF31082012383F310880A4BA661E56113
:102580005B68DB050BD082F3108870BD00F040FB68
:10259000044BA661E5615B680022DB05F3D100F026
:1025A00043FBF2E700ED00E00120704710B501F0B9
:1025B000F3F910BD70B5040084B00E001D000028B2
:1025C00020D0002B21D059681B79FF2B29D0174B25
:1025D0001B689E4201D0C02925D028681449B30049
:1025E0005C506260A06013493000266001F052F92F
:1025F0002979300001F066F92B7A002B02D03000E7
:1026000001F0B6F9200004B070BD012101AB0195C5
:1026100000201D00494202910231197280236B6033
:10262000DCE72868FAE70024ECE7C046F400002065
:10263000A001002049040000074B10B55B68DB05D2
:1026400005D0EFF31080012383F3108810BD00F054
:10265000DFFA0020FAE7C04600ED00E010B501F017
:1026600087F910BD002805D000230360013B4360BB
:10267000023303727047C046054B10B55B68DB053B
:1026800002D080F3108810BD00F0CEFAFBE7C04600
:1026900000ED00E0F0B5C6465B4B00B55B68DB05BE
:1026A00026D0EFF31084012383F31088574B1B6867
:1026B000002B14D1564B1B68002B10D1554B1B68B7
:1026C000002B0CD1544B04261B68544B02271B686B
:1026D00000F084FF0640074014D0002E0FD04A4B74
:1026E0005B68DB0508D084F3108804BC9046F0BD1D
:1026F00000F08EFA0024D9E700F096FAF5E700F032
:10270000BBFFECE701F0A2F80028E8D0444B454AB3
:102710001B681568002B2ED1434A444B19684801A9
:10272000401A80004018C000904200D91000FA23DF
:102730005B009842D1D93E4A1368013313603D4F84
:1027400028183B683C4E984600F0F0FF4346336043
:10275000344B1868401B00F03FFBFEF763FB00237F
:102760000521364A3B6013680B431360344B3360DA
:10277000FEF79AFAB3E7DA072CD4012252429907FE
:1027800006D5304928480968491B814235D90022BD
:10279000590707D52C49A8000968091A224881421F
:1027A00021D90022190707D52849A8000968091A64
:1027B0001D4881421CD90022DB06AED5244BA9005E
:1027C0001B685B1A18498B421BD89B089A42A4D9F4
:1027D0001A00A2E71F4A14491268521B91427F4116
:1027E0007F423A40CBE789088A42DBD90A00D9E721
:1027F00089088A42E0D90A00DEE78A42C8D90A007D
:10280000C6E7002289E7C04600ED00E094290020D9
:10281000F82A002090290020042A002050240020BB
:102820004420024004210240FFFFBFFF2C02002091
:102830005826002018E000E014E000E010E000E07E
:102840007FBB000050210240542102405821024029
:102850005C2102404C21024070B582B001F016F9B3
:1028600072B6BFF34F8FBFF36F8F1E4801AB834229
:1028700008D902AB1A1A053A920801329200A52132
:1028800001F031F91848194B984207D2C243D218C7
:10289000920801329200002101F025F914491548EF
:1028A000814209D0144B984206D2C243D2189208F2
:1028B0000132920001F00EF90023104E104D0193E9
:1028C000AD1BAD1007D00024A300F3580134984786
:1028D0000194AC42F8D10B4B0B4A1A6000F034FA69
:1028E00002B070BDD02C00207C010020D02C002034
:1028F000903C00008C0000207C010020DC3B0000AC
:10290000DC3B000008ED00E0000000007047C0461E
:1029100010B5002903D008390868FEF72BFE10BD5A
:10292000020010B5034B13CB13C203CB03C200202C
:1029300010BDC046F80000201623012901D800234D
:10294000016118007047C0460B685A1E082A02D859
:102950000360002070471620FCE7C046816000201D
:102960007047C046F0B5C64600B5070082B00D00FE
:1029700090461E0000293FD03420FEF747FD041E7C
:1029800040D02A6986611300591E8B410374434667
:10299000436100232968C3608360C36103624160AF
:1029A00083620363C362002A38D02A4B01261B6866
:1029B000002B3FD12A8901942B6892080093264965
:1029C00023002648FEF7FEFD01281DD0A068002840
:1029D00003D04623C35C002B35D02000FEF7CAFD90
:1029E0000C2500243C60012E01D0FEF75DF9280083
:1029F00002B004BC9046F0BD3420194DFEF706FD30
:102A0000041EBED10C25F2E72568002D1ED000F073
:102A1000FFF86C6500F008F90025E3E703210120C9
:102A2000FEF770FDA0600028BFD12000FEF7A2FDD8
:102A30000C25DCE70B4B1E68724256411A68760083
:102A400001321A60B6E7FEF795FDC6E7064B1D6832
:102A5000DDE7C046A8290020243C0000292B000007
:102A6000F8000020582600203002002070B52C4CC1
:102A700006002568002D00D1256800F0C9F86D6DAD
:102A800000F0D2F86E622668002E00D1266800F0B1
:102A9000BFF8746D00F0C8F80123E361AB6A002B46
:102AA00008D01A681969986891625B689847AB6AA0
:102AB000002BF6D11B4A136801331360EB6A002B1D
:102AC00019D01C691A686168EA622268002901D07D
:102AD0000A602268002A00D051609A681268002AB1
:102AE00003D0D868002800D090472000FEF742FDB0
:102AF000EB6A002BE5D1FEF7D7F82B7C002B06D034
:102B00002800FEF737FD0020FEF70AFE70BDA8681A
:102B100000220021FEF7D6FB0020FFF799FBF5E726
:102B20003002002058260020030010B55B69806940
:102B30009847FFF79BFF10BD0E4B10B5984211D977
:102B40000D4BC4180D480E4A136801331360002161
:102B5000FDF7CAFBFEF7A8F8002801D100F04CF8F9
:102B6000200010BD43011B1A9B001818C000013043
:102B70000024E8E736894100C976BEFFD9FEFFFF91
:102B800058260020002382B0019372B6019B002BCF
:102B9000FCD002B07047C0460000000000000000FA
:102BA0000B4A13681868203080F30988022080F3EC
:102BB0001488BFF36F8F3FBCAE4608BC04BC62B63E
:102BC0001847C046C046C046C046C046C046C0467C
:102BD0003002002010B58024031F64041C60043BF5
:102BE00019600349043B1960143B40381A6010BD5A
:102BF000852B00007047C0468022044B52051A60A6
:102C0000BFF34F8FBFF36F8F7047C04604ED00E0F6
:102C100072B6044A136801331360BFF34F8FBFF3DA
:102C20006F8F704710010020034A1368013B136047
:102C3000002B00D162B6704710010020EFF3108026
:102C400072B6704780F310887047C04600000000DD
:102C5000EFF309800E4B1A6820381060F0C044462C
:102C60004D4656465F46F0C008B572B6FFF7E0FA2B
:102C700062B60CBC116808681030F0C8A046A946BE
:102C8000B246BB4680F309882038F0C81847C046D2
:102C90003002002010B5FFF7D1FF0400FEF7E0F886
:102CA000002803D08022034B52051A602000FFF752
:102CB000C9FF10BD04ED00E00A4B0B4A0B491A6036
:102CC0005E220B4BFF321A600A4BFF3A1A60002259
:102CD000094B1A600A60094A0949116007221A6003
:102CE0007047C046002B002080BB000018E000E0C9
:102CF000042B0020FC2A002010E000E014E000E09B
:102D00007FBB0000FF220E4B1204196810B50A4366
:102D10001A60FF220024196812060A4382B01A6062
:102D2000FFF7CAFF074B1C60FFF73AFFFFF780FA77
:102D3000019472B6019B002BFCD0002002B010BDA4
:102D400020ED00E01001002010B588B0FDF760FA1A
:102D500003A8FFF7E5FD012302A903A80293FFF7EB
:102D6000F3FD0121040003A8FFF7E6FD80210443E1
:102D7000C90003A8FFF7F2FD044300D0FEE70023DB
:102D8000064A03A901A8FFF7EDFD041E00D0FEE7E7
:102D9000FDF7C6FE200008B010BDC046E5010000EA
:102DA00010B50400FFF748FC002363602360FFF7C1
:102DB00063FC10BD70B50C000500FFF73DFC00235F
:102DC00023606B686360002B04D01C606C60FFF7AD
:102DD00053FC70BD2C60F9E7074B020C190000048E
:102DE000000C4343054851435043C018C009DE302E
:102DF000400A4018400A704712830000986E000095
:102E000070B50400FF2800D170BD00F037F8094EFE
:102E1000A50033682000595900F0C4F873685B19A5
:102E20001A68002A01D000221A600022B3685A51A1
:102E3000EAE7C046DC3B0000F8B50D4B1C680D4BC3
:102E40001C60002C12D01F2601250B4F2000FDF71F
:102E5000ABF92B00301A83409C437B688200D35827
:102E6000002B01D0C0B29847002CEFD1F8BDC0466E
:102E70005430024064300240DC3B0000FF2803D0A5
:102E800001238340014A13607047C04674300240FA
:102E9000F0B5DE4657464E464546E0B587B0FFF7EB
:102EA000CBFB354B1A78002A5ED101221A70FFF74E
:102EB000E3FB002000F0A8FB03A8FFF7D3FB2F4C97
:102EC0001521E3682E4A04932E4803ABFFF772FBEB
:102ED0002D4B19782D4B1878002398460193814289
:102EE00047D807339C46033B0227994612E04D46DC
:102EF0001D4206D001258D40AA464546564635431B
:102F0000A846234DAA4665465244AB43136001319F
:102F100081422CD823688A009B58002BF7DB1F4284
:102F2000E5D101258D40019E2E43012501961D40CE
:102F3000FF2908D0EDB2AA46164D5646AB468B4443
:102F40005D462E70DDE707229343134A136032007B
:102F5000124B1A604246124B1A6007B0F0BCBB46D7
:102F6000B246A946A046F0BDFFF786FBF5E7019AF9
:102F7000EEE71A00ECE7C046242B0020DC3B000003
:102F8000392E0000082B0020EC3B0000ED3B000038
:102F90000031004000310240FC3400400035024066
:102FA00044300240F0B500291CDBFF282ED001245C
:102FB00007230E00250004229E43164B8540C318AC
:102FC0000A409B008F070FD40C4013498C461349CD
:102FD000604404700D60002A0ED0114A1560114A39
:102FE00015601E600020F0BD002A09D10E4A156050
:102FF0001E600E4B1D60F5E70B4A15601E60F1E781
:10300000074A1560074A15601E60F2E7012040423A
:10301000E9E7C046400C0010003102401035024084
:10302000643002406C30024074300240203502406F
:10303000FF2804D0024B9C46012360440370704774
:1030400000330240FF2805D0034B9C460123604417
:103050000B4003707047C0460031024080230200DD
:103060001B0270B51A40184217D0284B284A8021FD
:103070001A600123274A89001360274A27481360F2
:10308000274A1160002227490A600132FF3202609C
:103090000B60254B1A60002070BDC3051BD5234B68
:1030A0001B68002B24DB95202149224E0C68400030
:1030B000A5190B6085421BD89D19854218D81B1B8A
:1030C0009533834214D8802314489B02036016482A
:1030D00003600A60DFE780239B021842DBD0164AB8
:1030E00011680A290DD00A2111600F4A1360D2E736
:1030F00000220C4B1A6001321A600B4BFF321A602F
:10310000C9E70E4B0E4A01201A60C5E710120040B5
:10311000020200001C120040C41000405410004085
:1031200018120040001200405810004008120040E1
:10313000282B0020351DE9FFC01000409C100040E6
:1031400080841E80024B1A68024B1A607047C0468A
:103150004C2000405420004070B5F024FFF76CFA7A
:10316000A0230F4964050A681B0522409A4202D039
:10317000FFF782FA70BD0B4E0B4B35681D40802364
:103180001B022B433360094D094B1D600B68234024
:103190009342FBD0064A13685B005B081360E7E7C5
:1031A000F01000401C110040FF0FFFFF12000180D3
:1031B000A010004070B501251F4B1B681D4225D192
:1031C0001E4C1F4B1F4E23604220B36C98471E4B72
:1031D000062023601D4C1E4B2360B36C9847402291
:1031E0001C4B1D491A6023682B4323602368AB43A3
:1031F00023600B681A42FCD0144A184913680B402C
:10320000012113600C4A13680B431360FFF714FA93
:103210000221134A13680B431360124A5378013397
:10322000DBB25370FFF728FA80230A4A1B021360AF
:103230000D4A136070BDC04684100040A8100040C5
:103240000D0000804C00000F11000080A010004015
:10325000000003805410004048100040FFFFFE7F34
:10326000EC2B0020F02B002058100040274B10B50D
:103270001A687F2319001140120C13405B00994219
:1032800023D3234B1A68120B12073DD5214A13682A
:103290005B005B081360204A13685B005B081360E7
:1032A00000231360EFF314821C4C226083F3148814
:1032B0001B4B00201B689847236883F31488FFF793
:1032C00079FF0122174B1A7010BD114A5B1A126860
:1032D000120B092BD8D9102BD8D90C231342D5D0D7
:1032E000012464420A4A1048136811681B041B0F2A
:1032F0001B191B0701401B0C0B43012113600B4AD8
:1033000013688B431360C1E70124EBE7E81000402A
:103310001C110040A0100040A81000402C2B0020E1
:103320004C00000F14010020FF0FFFFF841000402D
:10333000554B70B5554A1C68554B1C6014602204EF
:1033400066D40A231D00254023424AD10825254280
:1033500036D1504D2B68002B03D020009847002811
:1033600000D170BD0023012204212B604A4B1A605A
:103370004A4A13680B431360494B1C68002C0DD05C
:103380001025A3682B4206D0002110202269E36893
:103390009847002802D12468002CF2D1FFF74CF99D
:1033A000404A5378013BDBB253705378002B04D171
:1033B00002213D4A13688B431360FFF75DF9D0E7A4
:1033C000FFF73AF9394A13685B005B081360802302
:1033D00011681B060B431360FFF74EF9344B1D6059
:1033E000B7E70121334A13688B431360324A3349EC
:1033F00013685B005B0813600A68314B1A40802336
:103400001B0213430B60FFF7D5FE294B1D609DE7A0
:1034100080222C4D92021A602800FFF731F800221A
:1034200028000021FFF79CF8234B274A274D1A60FC
:103430002B68002B03D0984700232B6081E7184BA3
:103440001D68002D0DD00826AB68334206D0002140
:1034500008202A69EB689847002802D12D68002DC2
:10346000F2D1FFF7E9F80F4A5378013BDBB2537012
:103470005378002B04D102210B4A13688B4313604D
:10348000FFF7FAF85DE7C0464C1000405C100040C2
:1034900054100040F82B0020B01000402C000040D9
:1034A000B02B0020F02B0020EC2B0020A4100040BB
:1034B0005810004084100040A01000401C11004033
:1034C000FF0FFFFF4C2B002011000380902B0020EA
:1034D0002D4B70B51A78002A53D12C4A012451681B
:1034E0001C700800451EA841294B92681870294B92
:1034F00029481960294B13211A600023284AFFF735
:1035000059F882200321C00000F0BCF9254B264A5F
:1035100013201A60FFF7A2F800232021234A244831
:10352000FFF748F8234B244A1C60244B24491C60B5
:10353000244B1C6013681B0B1B0313600A68224B8F
:103540001A4080231B0213430B60FFF72DF8010084
:10355000FA204000FCF79CFD1C4C020000231C4993
:103560002000FEF763FFFFF725FE2000FEF700FFB7
:103570008023184A1B0611680B4313601022164B58
:103580001A60002070BDC046B82B0020F03B000040
:10359000B92B0020BC2B0020942B0020902B002066
:1035A00031330000581000400A800000453100000F
:1035B000302B00205820004028110040602000409F
:1035C0001C11004060200240FF0FFFFF4C2B002029
:1035D00059310000A410004000580040014B186809
:1035E0007047C046EC2B0020054B10B51B68002B24
:1035F00004D0044A1278002A00D0984710BDC04673
:10360000BC2B0020B92B002070B50400FFF714F884
:10361000FF2322001B0205001A401C4212D1FF2387
:1036200012482340C15C4A1CD2B2C254002904D1C2
:1036300001229A4013000E4A13602800FFF71CF87D
:10364000002070BD80235B009A42F6D10948013BFF
:103650002340C15C4A1CD2B2C2540029EDD10120E2
:103660009840002180B200F0B7F9E6E7CC2B0020AB
:1036700014000240C02B0020024B1B685B0700D4E3
:1036800030BF7047EC2B002010B50124194B1A4AAB
:103690001C601A4B1A60FEF7CFFF0221184A13680C
:1036A0000B431360174A53780133DBB25370FEF7B4
:1036B000E3FFFEF7C1FF144B1A68802311001B02C1
:1036C00019401A4212D1114B114A1A60114B023A99
:1036D0001C60114B1C60114B1A608023104A5B0068
:1036E000116010490B6014600F4A1360FEF7C4FFAD
:1036F00010BDC046901000405D300000F82B002047
:10370000EC2B0020F02B0020441000401012004051
:10371000020200001C120040C410004018120040B9
:10372000001200405410004058100040F0B5C6464A
:1037300001210400374A00B5136886B08B4313603B
:10374000354B14221D68354B354901A81E6800F021
:10375000C1F90421334800F095F82020FEF726FF38
:10376000314B324A1B681268E31AB93BDB089B18DD
:103770002F4A13602F4B1C689846002C0DD0012750
:10378000A3683B4206D0002101202269E3689847E4
:10379000002806D12468002CF2D1FFF767FD00272E
:1037A00003E0254B1F7001277F420123234A20207D
:1037B0001360234A1360234B1B68FEF7F7FE1B219F
:1037C000184800F05FF8204A1368012BFCD114223E
:1037D00001A9134800F07EF9104B1E600E4B1D60CE
:1037E00000F02AF943461C68002C0DD00425A3687C
:1037F0002B4206D0002104202269E3689847002864
:1038000002D12468002CF2D1380006B080BCB84642
:10381000F0BDC04610E000E04420024044210240D8
:103820004C210240440400000421024018200040C2
:1038300028200040B02B0020140100200C20004064
:10384000542000400020004040210240084B01204D
:103850001A6803231340012B00D07047054A06491C
:103860001268002009689201F7D5480C1840F4E767
:10387000C0100040E0100040481000400138FDD169
:103880007047C046024B9C46604401607047C0468A
:1038900000500240094B70B59A68094E964209D013
:1038A0009A68002320CA9C0001333551232BF9D19B
:1038B000024B9E608000315070BDC04600ED00E0BC
:1038C000000000203F23F0B599430F281BD80400C7
:1038D000FF25083C3C3B2340DB009D40A2080F280D
:1038E0003BD11F480226844699401E489200076833
:1038F00004686244B44304601468AC43214311601B
:103900003E421DD1F0BD0323FF2510380340DB00EC
:103910009D4082081F2817D8134C9940A4460124C3
:10392000844020008024114E920037686244305158
:103930001468AC43214311603842E3D03060E1E7C2
:10394000036833430360DDE707489940920082181B
:103950001068A84301431160D4E70148F5E7C04669
:103960001CED00E010E000E000E400E000E100E019
:103970000F2807D010381F2803D801238340044A9A
:10398000136070470221034A13680B431360F8E782
:1039900000E100E010E000E00E2812D00F2809D06E
:1039A00010381F2805D80123C0228340084952003F
:1039B0008B5070478023074A9B0451680B43536028
:1039C000F7E78023034A1B0551680B435360F0E778
:1039D00000E100E000ED00E0124A012903D84900AF
:1039E000535A18435052138852880F4913430222E6
:1039F0000868024209D00121180088430B49086079
:103A0000002B01D10A4B1A607047002BFCD00948EB
:103A1000026002200A681042FCD001229343034A4C
:103A20001360F1E7FC2B00200C000240040008406A
:103A300020000240140002400F4A104913885288A7
:103A4000086813430222024209D00121180088436A
:103A50000B490860002B01D10A4B1A607047002BFC
:103A6000FCD00948026002200A681042FCD0012202
:103A70009343034A1360F1E7FC2B00200C00024043
:103A80000400084020000240140002409C22CC2385
:103A9000D2059B00D35C032B0BD9084B1B78DBB200
:103AA000FC2B05D9064B074A1A60074B074A1A60D8
:103AB0007047074B1B78DBB2F2E7C0462F03004E7E
:103AC00018110040E3887F091C110040E3387F494A
:103AD000AF03004E002310B59A4200D110BDCC5C5C
:103AE000C4540133F8E703001218934200D1704721
:103AF00019700133F9E770B50D0009680400002959
:103B000001D0FFF7F8FF29002000FEF701FF70BD8C
:103B1000314B70B51B680400834249D0436A002BC7
:103B20000AD00025DB68AB4247D1636A19680029D7
:103B300002D02000FEF7ECFE6169002902D02000CF
:103B4000FEF7E6FE616A002902D02000FEF7E0FEE3
:103B5000A16B002902D02000FEF7DAFEE16B0029FC
:103B600002D02000FEF7D4FE216C002902D02000F4
:103B7000FEF7CEFEE16D002902D02000FEF7C8FE60
:103B8000A16D002902D02000FEF7C2FE616B002962
:103B900002D02000FEF7BCFEA369002B08D0200055
:103BA000A36A9847A16C002902D02000FFF7A3FF69
:103BB00070BD4959002908D10435636AD968802D40
:103BC000F7D12000FEF7A4FEAFE70E682000FEF755
:0C3BD0009FFE3100EEE7C0461801002007
:103BDC008C000020002C0020682C0020FFFFFFFF31
:103BEC0000190000000000009526000000000000F5
:103BFC0062190000961A0000961A00008A1A00003A
:103C0C003C1A0000281A0000961A0000961A0000B0
:103C1C008A1A00003C1A0000780000000000000026
:103C2C000000000000000000000000000000000088
:103C3C000000000000000000000000000000000078
:103C4C000000000000000000000000000000000068
:103C5C000000000000000000000000000000000058
:103C6C000000000000000000000000000000000048
:103C7C0000000000000000000000000040060800EA
:043C8C0080060800A6
:103C9000020000000200000002000000020000001C
:103CA000020000000200000002000000020000000C
:103CB00002000000020000000200000002000000FC
:103CC00002000000020000000004002002000000CA
:103CD00000000080000000800200000002000000E0
:103CE00002000000020000000200000002000000CC
:103CF00002000000020000001100000001000000AE
:103D000000000000000400000000000000000000AF
:103D100009000000AAAAAAAA010000001C010020B4
:103D200000000000483C0000683C0000283C000007
:103D30000000000000000000000000000000000083
:103D40000000000000000000000000000000000073
:103D50000000000000000000000000000000000063
:103D60000000000000000000000000000000000053
:103D70000000000000000000000000000000000043
:020000044E02AA
:10000000FFFFFFFF0000000000000000FFFFFFFFF8
:10001000FFFFFFFFFFFFFFFFAAAAAAAA0000000040
:10002000FFFFFFFFFFFFFFFF00000000FFFFFFFFDC
:1000300000000000000000F00000000000000000D0
:1000400000000000000000000000000000000000B0
:1000500000000000000000000000000000000000A0
:100060000000000000000000000000000000000090
:100070000000000000000000000000000000000080
:10074000000000000000000000000000B7DF14B748
:100750000000000000000000000000000000000099
:100760000000000000000000000000000000000089
:100770000000000000000000000000000000000079
:100780000000000000000000000000000000000069
:100790000000000000000000000000000000000059
:1007A0000000000000000000000000000000000049
:1007B0000000000000000000000000000000000039
:1007C0000000000000000000000000000000000029
:1007D0005AA500000101020305080D156DD7E43686
:1007E000EBF431DF95AE15EE03BA8EE4C4C63FD804
:1007F000453F675E74D7C2012C9058E5A2947252AF
:0400000300000435C0
:00000001FF
