:100000000090002061350400394D0400394D040092
:10001000394D0400394D0400394D0400394D0400B8
:10002000394D0400394D0400394D0400C3750300F7
:10003000394D0400394D0400F1C40300B90C04002B
:10004000394D0400394D0400394D0400394D040088
:10005000394D0400394D0400394D0400394D040078
:10006000394D0400394D0400394D0400394D040068
:10007000394D0400394D0400394D0400394D040058
:0C008000394D0400394D0400394D0400D6
:10009000F0B5BDB0044601252021159133F00EF9CD
:1000A0000646471C1CA80570307813901894601EF3
:1000B000D24BD4211A915958C0B2A4221092504365
:1000C0001B90081843F0CCFD1290007BF075707AFD
:1000D000B17A09020C188B200F9080001990195CDE
:1000E00048421691484113211191C9011491595C5C
:1000F000179529404A424A41024300D1BFE020B24D
:10010000002800D5DFE00122AD200D908100C64817
:100110000E91405A002500052E460AD520463C384F
:1001200081B20B292E4604D8C0490840C04EC640B3
:100130001640169243F09BFF41F023FF002803D0A6
:100140004078001F454245418421002E00D064E2E2
:10015000F3200C900226B448199A805C4242424136
:100160002A420CD10C9AD200AF4B9B5C33405A42CE
:100170005A410028179B00D01346002B02D1062CB1
:1001800000D949E2472C00D947E2169AD50264000B
:100190007C44A4886400A7443C07A90747004700A3
:1001A0002E09AD0684074002400240024002400290
:1001B0004002400240024002400240024002F90771
:1001C00040028209400240024002400240024002D6
:1001D0004002400240027409BE0511075606400263
:1001E0004002400240024002400240024002D1046C
:1001F000400240024002400240028B08C308450A08
:10020000BD094002D50340025B06E50A40024002F8
:100210005B044002400240022B069F0517071E05A3
:100220003E0B190BEB057B067F4E1A9C30591B9F2A
:10023000C01943F091FD01D803F087F8149543F0FD
:100240001DFB169029460D3139A844F063FF0F3588
:1002500044F008FB1590401C19903059C0190079E2
:10026000C01EC1B2284633F029F91390002801D1ED
:1002700001F027FD00201B90199F02F028FC40F0A0
:10028000E9F8002800D1B2E1707DC007C00D00D0B0
:1002900035E71F2C00D8CEE1AE482018112805D82C
:1002A00001218140AC48014200D028E72046313886
:1002B000092805D801218140A848014200D01EE745
:1002C0001CA800210170A3482218472A01D903F075
:1002D000C3F8930001A0C0588746C0466B060000D3
:1002E0006B060000DD0600009B070000B70700005A
:1002F00073060000730600005934000059340000F2
:1003000059340000593400005934000059340000B9
:1003100059340000593400005934000059340000A9
:100320005934000059340000593400005934000099
:100330003D070000593400005934000059340000D2
:100340005934000059340000593400005934000079
:1003500059340000593400005F08000049080000CB
:100360000104000001040000593400005934000069
:100370005934000059340000593400005934000049
:1003800059340000593400000104000059340000C1
:100390005934000059340000593400005934000029
:1003A0007B06000001040000E106000001040000DB
:1003B00059340000010400005934000045060000D3
:1003C00045060000593400005934000001040000C3
:1003D0005934000059340000593400000104000071
:1003E0000104000001040000DD080000B706000061
:1003F0000104000001040000010400001C20002092
:1004000009481A9940581B9941180C7949790902F1
:100410000919012901D803F01FF8472A01D903F06F
:100420001BF804A2D25897461C200020FF0F0000A2
:10043000F10F0000AB070000AB070000AB070000A6
:10044000AB070000CB070000AB070000AB070000C4
:100450005934000059340000593400005934000068
:100460005934000059340000593400005934000058
:100470005934000059340000593400005934000048
:10048000593400005934000053070000593400006B
:100490005934000059340000593400005934000028
:1004A0005934000059340000593400005934000018
:1004B0008B080000AB070000AB070000AB07000093
:1004C00059340000593400005934000059340000F8
:1004D00059340000593400005934000059340000E8
:1004E000AB070000593400005934000059340000B3
:1004F0005934000059340000AB070000AB0700007E
:10050000AB070000AB07000059340000AB07000048
:100510005934000061050000AB07000059340000A9
:1005200059340000251C00005934000059340000E3
:1005300059340000A51A0000391A0000AB0700006A
:10054000AB070000C9060000AB070000AB070000C6
:10055000BB1A00000080FFFF7F0003008303000040
:10056000189831F041FB002801D102F071FF2021E1
:10057000189C44F07BFCC178007900024018EC49DB
:10058000884201D901F0CDFE31210E01E949895B94
:10059000884201D001F0C5FEE748E64A105A884279
:1005A00001D001F0BEFEE34842F0E8FB0C3420AD80
:1005B0000B22284644F0D8FB6878002814D1A87A8A
:1005C000002811D020A84188808800044018DB4909
:1005D000491C884208D2D7498A19117C5218927B4B
:1005E000002A01D103F0A1F8189C01F09AFE43F013
:1005F0003EFD04D1707DC007C00D00D07FE52046D0
:100600002138142800D97AE501218140CC480142E3
:1006100000D174E58D2109E08D21B878FA781202B5
:100620001018C34A904201D902F016FF18983CF006
:1006300008FF02F00DFF0120A040FC49084200D055
:100640005DE529E6F74842F04FFD0B2901D202F0A3
:1006500003FFA679E7793F02BE19A419A47D0B34E4
:100660008C4200D8D9E602F0F7FE18983CF06CFEF8
:1006700097E018983EF0C4FF93E0EA481A99405872
:100680001B99411843F080FB427B842A00D18CE007
:10069000002A01D002F0E0FE43F0ECFB052901D274
:1006A00002F0DAFE0C30007916224243501D8842D7
:1006B0007BD902F0D1FEDB481A9940581B994018AB
:1006C00043F04AFB00D01FE116980128189C02D87D
:1006D000204639F0E5FC1CA9204668E011215DE0C8
:1006E000D04842F001FD052901D202F0B5FEA679FD
:1006F000E7793F02BE19A5192E7C002E55D00C3586
:100700000B3500240527002E01D101F043FE3C46A5
:100710000C348C4201D902F09FFEEC5D032C05D015
:10072000012C01D002F098FE0E3700E015378F4201
:1007300001D902F091FE761E179CE4E7B9481A9998
:1007400040581B99401843F048FE032801D802F096
:1007500083FE44F0D7F9B34942F075FC042A01D274
:1007600002F07AFE43F04BF88A78520604D543F043
:100770008FFDAD4AAB4B98520878AD49A94A515C00
:10078000884201D002F068FEAA48A649085800280D
:1007900001D002F015FD02F05FFE0221189835F03D
:1007A000E3FC002801D102F057FE1CA9189815F0AF
:1007B000A3FC02F04DFE18983EF022FF002801D164
:1007C00002F04AFE97481A9940581B99411843F085
:1007D00003FC0C18207C43F04DFB491F0023814291
:1007E00001D002F037FE00281AD0082801D202F00A
:1007F00031FE0C34E17A4A0016460836864201D9A9
:1008000002F028FE21460C318D5C6F00F6198642FD
:1008100001D002F01FFE20460D303BF0F1FE2573A3
:10082000854880490A58002A07D08449189890477B
:100830000028179B01D102F00DFE189831F0D4F971
:100840004342434102F006FE76481A9940581B99EC
:10085000401843F0C2FD0128A7D802F0FDFD714801
:100860001A9940581B994218117953791B0259184B
:10087000032901D202F0F0FD43F036FA927BD20058
:10088000D21C8A4201D902F0E7FD002139911B995F
:10089000411843F079FA867B43F0ECFAF200D21C5F
:1008A0008A4201D902F051FD0C30C41C002E01D146
:1008B00002F04BFD20AD0822284644F055FA39A934
:1008C00044F03AFC002806D1399843F014FB02D1D9
:1008D00080793AF0A5FB0834761EE7E751481A996B
:1008E00040581B99401843F078FD022800D15CE77E
:1008F000032801D202F0B0FD01D102F0ADFDC00726
:1009000000D052E702F0A8FD032901D202F0A4FDB5
:1009100043F083F8801C891EC9B232F0CFFD002855
:1009200001D002F099FD3F481999405C1690CBE642
:10093000F7FF00001C200020A2020000FFFFFF07BD
:1009400003041800012801D902F082FD354F1A98DE
:1009500038581B99401843F0FFF901D802F0F5FC14
:1009600042F023FF3078159020211898199132F029
:10097000A5FC441C007816908B208500785D00282B
:1009800013D1B120C0002749085A4227074040062A
:1009900007D43F200001085AC00702D1284843F07D
:1009A00041FA402F01D002F041F97078FE2800D3BF
:1009B000FE2024491B4B5A189070585C02220243B7
:1009C0005A54002014901B9A43F008FC0FD1F61CD7
:1009D00014481A99405880180079C01E43F0AEFEA2
:1009E000002804D100223046394623F08DFA43F026
:1009F0005AFA0B49884201D801F069FD179800287E
:100A000001D101F021FE10480021064A1154505D29
:100A1000012801D901F018FE0C4802F0D1FBC046B4
:100A2000F7FF00001C200020A20200007F002BE046
:100A30004C08000048080000140900000480000071
:100A4000DB080400A4070000A50700002507040038
:100A50002027189844F0CAF919908B208000FB4A8F
:100A6000115C1A9810581B9A801843F052FC022A05
:100A700001D3002216920029179A00D0169A002A54
:100A800001D100F0A0FF002901D101F002FF0020F8
:100A90001597FE49149A8D180124AC72199B597848
:100AA0009A7812025118E98019788906C90F69727B
:100AB000C007204600D00420E872002028730626D4
:100AC000189844F045FA297B99221201EF4FBA1881
:100AD00089005158C90E0171297B890051581F2284
:100AE000D2060B469343017043F087FB190EC17089
:100AF000E97A4171592000013D5C2540C920800000
:100B0000385C44424441002D00D1179C189844F0B1
:100B10001FFA002D159F01D101F0BBFE002C01D161
:100B200001F0B7FE4079012801D001F0B2FEED4896
:100B3000002218993FF01EF802F08AFC2024189831
:100B400044F016F90546C078297909020818E649E3
:100B5000884201D902F0F9FB28780007800F01D004
:100B600002F0F3FB6878A97809020E18DC481A999C
:100B700040581B99411843F007F9037B0A794979DA
:100B800009028A188027022A19961B9301D202F0C3
:100B900050FC0C30411C01D102F04BFC501EC2B283
:100BA000032038F047FF002801D102F042FC20A9C1
:100BB00039F00DFE002801D002F03BFC20A8067899
:100BC000471C002E01D102F033FC38463AF0C4FF36
:100BD000761E0837F5E72027189844F007F90446F1
:100BE00041788278B320C000BD4B1858284009D105
:100BF000631C9D78DB781B025B19BC4DAB4201D3B3
:100C000002F0A3FB12025518B5491A9A89581B9A8B
:100C100089188A79CB791B029A188A18137B0028C5
:100C200007D1002D00D0F5E4607DC007C00D00D1D4
:100C3000F0E41593179519970C32551C0879401E4E
:100C4000C7B239AA2846394640F06EFAD6211B9021
:100C50000028139115D1149639AE318816980140A9
:100C6000484248413AF0C0FA308814990840400898
:100C700039F01EFC308804210140880837F062F802
:100C80000021169120AA2846394640F05EFA1A90B3
:100C9000002804D1209830F01BFF002013901DAADB
:100CA0002846394640F004F90546002801D101F0F4
:100CB000B0FBD6211B980028149101D101F0AFFBA5
:100CC0001A98002801D101F0AAFB002D01D101F0F2
:100CD000A6FB802601F0A6FB2021189C44F0C6F854
:100CE000451C0178890608D57F4BAA78E978090266
:100CF0008918994201D801F0ABF843F065FA1DA9B3
:100D000042F041FF002801D001F00BFB1DA844F088
:100D1000B3F901F006FB724842F09EF9102801D2A7
:100D200002F013FB8A79CB791B029A188F183C4684
:100D30000C34A17B4A0013461033834201D902F0E0
:100D400004FB26460F36B25C51184900103181422F
:100D500001D902F0FAFAE07A002803D0F12801D292
:100D600001F0A4FF822118983BF0EEF802F070FB2E
:100D70002021189C44F07AF843F0A4F85B4A914291
:100D800001D301F0CEFA5649199A895C002901D1A4
:100D900001F034FA411C0A7849780902891801D017
:100DA00001F0BFFA52494E4A515C090705D4407D13
:100DB000C007C00D01D101F0B4FA494842F04CF926
:100DC0008024022811D342F0CDFF0D310DD0401EFA
:100DD000C2B2042038F02EFE002806D020A939F037
:100DE000F6FC002801D102F0C2FC189821461EE44E
:100DF00014961898159F43F0F9FF0646451C047891
:100E00004078B178090208181DA932F007FE0023C6
:100E10000028199501D100F03DFF334E199943F098
:100E20009FF8B04206D81DA8032102221D463EF0BD
:100E300057FB2B46002B01D102F087FA187840F0BF
:100E4000DDFF02F082FA00211898B9E01C20002092
:100E50000025209522481A9C00591B994018817939
:100E6000C27912025118461843F04CFE1990317B9A
:100E7000707CFE28169101D100F035FFFF2801D0CB
:100E800000F09EFF092300F02FFFC0461C20002029
:100E90002021189C43F0EAFF417880780002411835
:100EA0001148814201D901F03CFA19910C481A9974
:100EB00040581B99401842F05BFF0079401E217B8F
:100EC00017910D3443F05EFB002801D101F0D6F9F3
:100ED0001C3001D101F0D6FA282001F0D4FAC04626
:100EE0001C20002099740300F7FF0000F8FF0000A9
:100EF00099050000ED4C1A9820581B99401842F0B3
:100F00002BFF01D802F021FA8179C279120251181F
:100F10004118087B1A900D31FA4B39AD022628464C
:100F2000324698472024189843F022FF014620AF0C
:100F300038461B942246F34CA0473F781DA829460B
:100F40003246A0478B208000ED4A105C3121090118
:100F5000555A022805D11DA80088854201D001F00C
:100F6000D6FA39A800888124854201D001F0C9F958
:100F7000E54EE348805D002801D101F0CBFA401D29
:100F8000C1B2189C43F0E2FF1A9901700025457028
:100F9000801C1DA9098842F09BFBD94B9A5D027009
:100FA000DA495918401C954201D301F0C1FA04C92D
:100FB000127842556D1CD24A925DF4E71898179941
:100FC00016F014FA02F044FA2021189C43F04EFF68
:100FD00042F078FFCE4A914201D901F0A2F901789E
:100FE000890601D401F09DF9457880780602C44B4A
:100FF0001A98185842F06FF81B928B2292009A5C54
:10100000002A01D101F074FB8D2400271A9701F00A
:101010004DFFC04933A80180B9491A9808581B9957
:10102000401843F0E4F90A2901D802F08EF942F0A1
:1010300076F8B44D39AC0A222046A8471DA80822EC
:101040001B922146A8472026189F384643F080FF70
:10105000014620AD28461A963246AA4B9847287872
:1010600017900C25384643F0FFFF0746C520800047
:10107000A3490E460818169021461B9A40F056FACE
:10108000002801D101F03FF939A840F0D5FF02282E
:10109000189C01D001F040F939A83EF089F801F020
:1010A00036F92025189C43F0E1FC411C169100788C
:1010B0000F900020052803D039A943F0B7FAF9E7CB
:1010C0008F4841F0C9FF072801D201F02AF98A7937
:1010D000CB791B029A188E18717C831F4A009342A9
:1010E00001D800F0D7FE002100F0D5FE844E1A9CF6
:1010F00030591B9A801843F070F9042801D802F087
:1011000024F985497F4F39A815460822B847305938
:10111000401942F004F81DAD04222846B8472027A4
:10112000189C204643F062FE014620AE30461A97D6
:101130003A46744FB84730781B9033AE022230469F
:101140002946B8470C2143F001FF05463120000134
:101150006B49085A3688B04206D0304640F079FFD5
:10116000022801D001F0F7F81B9C1DA88778022FF8
:1011700001D201F0D9F8C52080006149091839A8C9
:1011800043F032FE8026274601F0EDF863485C49C3
:10119000085C002801D100F013FC1A9808581B992C
:1011A000401843F01AF90B28189C01D801F0B9F83F
:1011B00012990C3139AE0C2244F0F8F87078B178FD
:1011C000090209185248814201D901F0AAF81B917D
:1011D00039A8C01C50490822149040F0A7F90028F3
:1011E00001D102F064F92A20C0431690494F012032
:1011F000000219903FF0A4FE1A9020A8203015900C
:101200001DA8851C0026F0B21A99884201D302F06D
:101210004EF920A92DF0E0F9002833D020A801894B
:101220008A0405D540891B9A904201D102F03AF90F
:1012300019980142179C1B9B26D108061DD5072033
:1012400001401DA801701599097841702099219AD3
:101250002A712970130EEB71130CAB71120A6A71AB
:101260000A0EEA700A0CAA70090A697037F052FA7D
:101270001B99884201D102F014F9002C189C01D16D
:1012800002F010F9761CBEE7169823304442444120
:101290000028D2D020AA1218128EBA4204D020AA56
:1012A0001218528E9A42C8D0001DEFE71C20002071
:1012B00013481A9940581B99401801794279120233
:1012C0005118012901D802F040F88179C27912023F
:1012D0005118461843F0C6FA01781691447885787B
:1012E000377B40F01BFD717B1991884201D800F0DB
:1012F00095FE40F013FD1999401AC2B200F08FFE1E
:101300001C20002075240400B8080000A408000078
:10131000F7FF0000FFFF0000148D04001D03000014
:101320002021189F3846179131F0C8FFFB4941F042
:101330008AFE012A01D801F0CFFE421C9378D278B0
:101340001202D218F64B9A4201D901F0C5FE037879
:101350000C221A4001D001F0BFFE149342F098FF16
:10136000139042F039FE09180C7B0D3120AE01229A
:101370003046199241F07EF83578052138461691AD
:101380002FF032FB04708421129041708B2080007A
:10139000EF49085C01281B9A01D901F0DCFC00230D
:1013A000129E737097208400085DB070F5701594DC
:1013B000085D854201D301F020FB002D1E4601D1BE
:1013C00001F084FC4721C900E14A51580026324609
:1013D000072E01D901F079FCAA4201D101F075FC78
:1013E0002F461C460B78199D2B40D2182346761C9D
:1013F000491D3D46ECE7D6491A9808581B994018F4
:1014000042F028FC01D801F0A0FF42F022FB0D3091
:10141000209039AD20A9284641F0F6FE20980478A6
:101420002021189F38461A9131F048FF0178179112
:1014300042F057FD1990052138462FF0D5FA07469E
:1014400006700026067131200001C149085A29881A
:10145000884201D000F06FFE002C01D101F058F954
:10146000BD48BB4A105CBD495118002801D101F0AC
:1014700010F804C913789C4200D03246401E16462C
:10148000F3E7012800D99BE2B548002218993EF005
:1014900071FB002801D001F0DFFF01F0D9FFAC495A
:1014A0001A9808581B9940188179C279120251186C
:1014B00046182021189C20461B9131F0FFFE05465E
:1014C00000781A90307B19900D3620AF02223846F2
:1014D00043F002FD872000019D49085A39880140E8
:1014E000398001D100F01DFF042143F02FFD19992F
:1014F000017000214170801C20A943F00BFE687828
:10150000A97809020A181B981A9901404B09F54855
:1015100001F0B6F98E4D1A9FE8591B9E801942F0D2
:1015200027FC20211898169131F0C8FE0546007856
:10153000159019940D3420A8092243F015FC844815
:10154000C059801942F049FF0A2801D201F0FDFE7E
:101550002F466C1C42F0A7FCE549884201D301F0FC
:10156000F4FE42F059FE40F08EFD8B218D0078494B
:10157000495D022903D1002801D001F0E6FE1B9449
:10158000C52080007249081820A943F0A7FC002854
:10159000179E05D0D74920A843F0A0FC46424641FB
:1015A000B87BF97B09023A460F18507D1390D14958
:1015B00020A8082422463FF0B9FF1290384638F0A0
:1015C00091F90746401E394681411A91002F01D1F9
:1015D00001F032FBC74920A843F080FC00280DD061
:1015E000C54920A843F07AFC002807D020A81DA9EF
:1015F00042F0BBFA002801D101F033FF7842784174
:10160000002F02D1012171401791002F199D01D0A7
:101610007B21CF43189C1799002901D100F081FE4E
:1016200001F019FB4A481A9940581B99441842F096
:1016300044FC012801D801F088FEA579E679202133
:101640001898139131F03AFE42F03CFC414A914225
:1016500001D901F07AFE02780C21114001D001F08D
:1016600074FE12923102491961184F7BA34B384A1C
:10167000D25CD41B0025BA4200D22C460E7B032C30
:1016800000D30324401C1190152014906043109047
:10169000411D18982FF0A8F906702B4645702C4A6A
:1016A0009649515C8170C7700471451DE019159011
:1016B000934816181A46F8B21599814201D800F0DD
:1016C0003DFD169217931997F168C700C819C479A0
:1016D000C52080001E490918082243F0E9FCB068C3
:1016E00003216143405C2872B068401841788078DB
:1016F000A8726972F068C0198079E872032811D065
:101700000128169A1ED1B920C00011490858C019E5
:1017100001794079687329730E2213E01C200020A0
:10172000F7FF000028460C30B921CC0008490959C0
:10173000C919097932F034F905480059C0194079BE
:101740002875149AAD18179B9B18199F7F1CB2E738
:101750001C200020F7FF0000B8080000A4080000CB
:10176000316202002A20C64366481A9940581B99E4
:1017700042F068F82021189C43F078FB2B7B6F7BAC
:101780002A36002F02D00B2F00D822E3002C01D1E3
:1017900001F05EFE401C8178C278120251185A4A4C
:1017A000914201D900F0BDFD017840780202204647
:1017B00054182A211D4631F081FD2B4600212A298B
:1017C00001D100F00FFD42F029FFF8E7002801D118
:1017D00001F0BBFD43F096F942F074FB4A4A914296
:1017E00001D901F035FE00781990464C1A9820581E
:1017F0001B99411842F0C8FA0D300979491EC9B247
:101800000026324629F0CAF9002801D100F09CFEDA
:10181000802700F0A1FE2026189C204643F098FB6C
:1018200042F050FB324A914201D300F07AFD4178F8
:10183000827812025718334D1A9969581B9A8A18E0
:1018400042F020FA0C7B314BEB5C1B0709D4002FD4
:1018500001D0FEF7DFFE437DDB07DB0D01D1FEF794
:10186000D9FE19971B960C314F78402F01D901F002
:101870006CFD42F09DFB921EBA4201D201F065FD63
:10188000891C0078169020AD284643F001FC43F0F7
:1018900011F90470002646701796002F01D101F04F
:1018A00015F82C782820214640F08CFE293809288C
:1018B00000D97CE001A1085C400087440415464F34
:1018C00078580878782B18983EF0E0FA6FE03120CD
:1018D00000010C4A115A0E48125A18983EF0AAFEFE
:1018E00065E0C0461580000018983FF00FFF5EE0ED
:1018F000F8FF00001C8D0400148D0400BD050000DD
:10190000BC0500001C200020F7FF00009905000026
:101910006E0800008B208000F94A105C411E88414F
:101920001499515C0840490700D5801C39A90880EA
:10193000FC490E9A895CC90702D0001D39A90880AC
:10194000322143F0A7FB39A906E02B2143F0A2FB8B
:101950008D218900F34A5118022226E02C2143F000
:1019600099FB23210901EF4A511804221DE02E2181
:1019700043F090FB1A90EB4E0E99715A0A0A042319
:101980001340E948325C5201164628461B9D2E4002
:1019900005469B19402616409A19179EC905890FBE
:1019A000521839A90A8002221A9840F063FD2A2CA5
:1019B00003D1C3208000DB490E526D1C7F1E6CE7F3
:1019C0008421FEF733FE021D42F04CFB4118087BD8
:1019D000D64BD44CE0540D311078401EC4B21E20BA
:1019E00043F016FC002801D100F053FF4178891C18
:1019F000A14201D300F04DFF8178CD4DC94A515528
:101A00004A00121D631E9A4201D300F042FF15974F
:101A100099221201C34B9C18C61C00278F4201D388
:101A200000F031FF0422204643F056FA361D7F1C99
:101A3000BC48415D241DF1E743F064F80178890654
:101A400004D542F04EFA01D100F0B4FEB948B549D0
:101A5000081843F071FA0446B748844201D101F0F6
:101A600074FC20463FF0F2FC014620AD2C2243F0EE
:101A70001FFB28356878C007C00D01D101F065FC57
:101A800020AD2846183039A943F0ACF92A9808212E
:101A9000C943F83901402985284621462CF0FAFF30
:101AA00001F053FC41F096FF8218537B2A20C0437B
:101AB000922B00D166E32A3065E341F08BFF851855
:101AC000002436943594687B002801D001F03DFC59
:101AD000881E0E3542F01AFE002801D001F035FCB8
:101AE000002D01D101F031FC2220294643F02EFBCC
:101AF000002801D101F029FC0746811C1DA81A907D
:101B000008221B928D4B984739460A3137A81B9AF9
:101B10008A4B98473946123136A804221992874BCE
:101B200098473946163135A8199A844B98471A3781
:101B300033A839461B9A814B984702211A981A916B
:101B400034F058FF1B90002801D101F0FEFB3B94BC
:101B50003A94399439AF169708372220294643F032
:101B6000F5FA17901DA908221992169E3046734B5C
:101B7000984735A9042538462A46704B98471A9845
:101B80003073374631AE36A930462A466B4DA847EA
:101B90002B461B99083120AD1022284698473198D2
:101BA0002099414029707078219941402971B0787D
:101BB000229941402972F07823994140297331AE2E
:101BC0000096162328463946179A3AF00DF833A99D
:101BD0003046199A3FF0AAFC002801D001F0B5FB6D
:101BE0001DA843F0A9F936992B2252014D4EB35846
:101BF00000011B180D0EDD710D0C9D710D0A5D713C
:101C00001971B1580818C17A09064D4A521C0A4385
:101C1000110EC1724B4834544B48214643F0CAFB65
:101C200001F093FB1698012802D8189838F038FA7A
:101C30002024189D284643F09BF8014620A8224600
:101C400042F064FE1DA80026068036481A994058C6
:101C500041F041FA19924F7B002F0ED10C310079DF
:101C6000801E8D1CC4B22846214631F027FC8F27E8
:101C7000002801D100F032FE189D3E2143F058F9B2
:101C8000044619993E2E01D101F066FE0020A055B0
:101C9000761CF7E713963C40601E21468141A878E8
:101CA000EA7812021018294A16469042179A00D86C
:101CB0000A46002A00D1A5E2B04201D9FFF7AEF8EA
:101CC000B3E23059C019017936A8009020AA31AB8F
:101CD00028463CF047F8002800D1E5E300201B909F
:101CE000199F00F0EDFE0723179D1B9A0D49095916
:101CF000891842F0BFF800208B4203D9074602E062
:101D00001C200020012734460C340D363D40012DA7
:101D10001ED1A01D1A9020A8042243F0DDF82098BF
:101D200017E0C0461C200020D202000088090000F5
:101D30008D09000004050000FFFF00007524040069
:101D4000FFFFFF07AE050000D52F0400F7FF0000DE
:101D50001A962A21CE431B9039F07EF82A36002DA0
:101D600027D06279FE2A179900D1014601291899D6
:101D70001B9822D11F23DF060546BD431DD031210C
:101D80000B01F949CB18197C59188C7BC10E8C4278
:101D900001D001F081F9FF2A01D101F069F9FE2A91
:101DA00001D001F0A6F91A99097830F0D7FA01F0BC
:101DB00072F93846189F01F071F90F4601F06DF97C
:101DC00006281B9A00D20125062800D258E30623D4
:101DD0008CE719931690BA00931CE3491A9C095991
:101DE0001B9C09190C79497909020C19A34201D9E4
:101DF00001F0ABFA29460E31885CFF2800D1131D93
:101E0000FE2801D103231343A34201D901F09DFA17
:101E10008A18FE28189C01D000F0ADFF012F199BF5
:101E2000169800D0B2E4577820A843F0C7FA209E55
:101E3000304639F011F8002800D172E2700100D16B
:101E40006FE23046394630F089FA064601F0ECFA86
:101E500019902A20C0431690C3481A9940581B99DC
:101E6000401841F0C5FE0D370079401EC6B2384615
:101E7000314631F023FB04460220394643F066F92F
:101E8000002800D1E7E380784538414241410020F5
:101E9000169BE3E3012137461237BB5C801AC01F53
:101EA0005A009042179800D30846012800D138E222
:101EB0000B950C3630780A90711C20ADA81C0224BA
:101EC00043F072F9F11C281D43F06EF975796C002E
:101ED000395D169A107809905078089090780E9095
:101EE000D0780D901A9148194006010E189831F0DB
:101EF000E5F9002D1995149004D02A4639463EF094
:101F000025FD07461A9A002A04D0791C1498001956
:101F10003EF01CFD3120010193480691405A20A952
:101F2000498888420C9104D09048814201D800F041
:101F300058FD8F488C490A5C20A8858814980019A0
:101F4000139000231946079311921095914201D1E5
:101F500001F0F2F912918800834908188549415827
:101F600048781B91897809020818A84202D0824853
:101F7000854250D11B988079179000210D46179803
:101F800081421ED2E8071CD1169148001B990E18F9
:101F900008360024149F2546199884420ED2E8077B
:101FA0000CD140F087FE06D11B980278D9B239A82F
:101FB0003CF05AFC0346641CBF1CEDE71699491C13
:101FC000DDE71B98C079159000211598814220D239
:101FD000E8071ED117981691081840001B990E1893
:101FE00008360024139F25461A9884420ED2E8072B
:101FF0000CD140F05FFE06D11B980278D9B239A807
:102000003CF032FC0346641CBF1CEDE71699491CEA
:10201000DBE7119A109D1299491C97E700222802CC
:10202000032A00D303220019149016205043411DA7
:10203000189815462EF0D8FC064615970770002410
:1020400044703FF06BFE2A46B0701999F1703571FB
:102050001396771D23462646132E60D810065ED0B1
:10206000FF20850040484059005DC00754D0D8B2D9
:10207000884250D31A931B92892080003A4909184C
:10208000082242F0F9FE3846083037494959091903
:102090008A7920A934F076FF334B20983874000AEF
:1020A0007874B87CFC210140B9745959095D49071D
:1020B000890F8C2202408818B87459590919497837
:1020C0004907490E0818B8745959095D0C9A10400F
:1020D000490708D404210843B87458590019417BB2
:1020E0000120084008E0B87459590919497BC9070B
:1020F000490F0143B97400201B9AF8745859005DC8
:102100004006000F387558590019C0787875521E6E
:10211000163719991A9B5B1C761C11349CE715988D
:10212000139908701798169901404B09134818998C
:10213000149A01F08BF98120787030E3D8B21099AD
:10214000884207D2401A084940F07DFF10180871F4
:10215000000A4871119942F082F8139812990140CF
:102160004B09074800F081FE1C200020F7FF00000B
:10217000B8080000A4080000FFFF00003180000044
:10218000338000002730002B00D109E10024011D1D
:1021900000D13FE2002800D01FE1002C01D100F067
:1021A00007FE204628302826A15D4078000240180E
:1021B000C10501D500F064FE2146183139AD102269
:1021C00042F076FFA05D8006400F0022032100ABA5
:1021D00027C304921DA820A901231EF093FB189C7D
:1021E00001F037FA711E8E41F10141700370C48411
:1021F000282101224254189800F078FF8D212046B2
:10220000FEF715FA1DA83FF058FF002802D0C07A4B
:1022100000280AD01DA842F0C1FD002805D027469D
:1022200000228D201B9000F0AAFF1594F8481A99FF
:1022300040581B99401841F09BFD0D340079401E19
:10224000C7B22046394631F039F9002201461C3127
:1022500000D1AEE3002800D0ADE337A800211A91E9
:10226000017039AA20AB2046394639F09DFB002881
:1022700001D100F054FFD72400F07EFFD6270020C4
:102280001690002C01D100F05EFE2120214642F084
:102290005DFF002801D100F056FE0646811C1DAFEF
:1022A0000824384642F080FF0A3637A8314642F00B
:1022B0007BFF0221384634F09DFB002801D100F05D
:1022C00041FE0646044628342A462825405D6178AA
:1022D000090208180027149210420FD11DA842F0DD
:1022E0002BFE0146705D627812021018149A10439A
:1022F0007055000A607030462CF0CCFB189C00F042
:1023000024FE054606E131200001305A189C33A90D
:102310000880DD49884271D113980007800F00D1F1
:1023200010E1204601F012F8002F06D08B2080002B
:10233000D449085C022800D062E339A943F000F8D0
:10234000002801D100F068FC0020082803D039A93A
:1023500042F008F9F9E713980007800F01D000F068
:10236000F4FF81261B9F199828706E70A81C39A94C
:1023700042F03AFD0A3533A9022242F099FE20A824
:1023800041788078000242181A9807407B09BF48BC
:1023900000F06BFDE40701D0FEF73FF801F05CF8B8
:1023A0000C32941C881E42F0EDF8002815D127202D
:1023B0008501B44843594C331DAA2046314639F0B3
:1023C000F3FA002809D1B248AE4908181DA942F015
:1023D00085FD002801D101F047F927208401A94893
:1023E000015900221898E42A02D042F063F9FAE772
:1023F000A4490A59FF21517000F0A8FF39A8007ABA
:10240000022800D2EDE113982840082889D08026C0
:102410001FE21DA800883AF0BFF90020149042F096
:10242000E3FD00261B9847424741247842F042FBD7
:102430001599017046701A98002800D17F1C002D54
:1024400000D17F1C002F00D1DEE30221189E42F054
:102450007FFE0021017079004170012142F078FE79
:10246000002800D1D0E307701B98002800D197E224
:102470001A98002800D1BBE3002D00D0C4E3BEE3CE
:10248000072333E42920C743189C179D002600F03A
:102490005DFD002E00D03EE1002C03D0FF2C01D0CA
:1024A00000F035FF822047E631A8057836A8067887
:1024B00037A8009020A81DAB2946324628F044F9E1
:1024C0000028199F00D1F1E200201B90F8E242F0B1
:1024D000F1FA00214170159901706A49495D02299C
:1024E000149901D37B21C9434170664A505D01288C
:1024F00002D86848189911542078617809020A189E
:102500001998169901404B09634800F0AEFC39A8B0
:10251000058880240521189E42F00CFD1A9901704F
:1025200044703446801C294641F0D2F800210170E5
:1025300020A841788078000242181B9807407B0948
:1025400056489DE1812684E1272080012058817A28
:102550008627022900D888E21A9B4A48C0581B994E
:10256000401841F07DFB3546067B0221189C204631
:102570001B912EF039FA06702E464770002D08D0B8
:10258000272080013F490858817AC27A204640F0CE
:1025900025F81D2142F06AFC054600201D2802D0C6
:1025A00041F0C0FFFAE70020687028701B98E873BC
:1025B0003B4843308021E972A872287C0421014302
:1025C0002974199880060ED436482E49095C20A833
:1025D0003CF006FE297C7F20C043084320996975A2
:1025E000090AA9750AE02720800126490858817840
:1025F000FE220A408270287C169908432874002E17
:10260000189902D028481F4A1154284800F0D9FDD3
:102610001C2000200421189C42F028FC002101808D
:1026200027218901174B5958897801220A40827065
:1026300003D01C49595C3CF0D3FD1D48A5214A003C
:1026400042F008FE00F004FF1898002801D000F0C6
:102650007CFE00F0FDFE169B18462A300443199AB2
:1026600001D1204601E00020C043002C00D1179189
:102670001799C90700D118462827002C1AD12646D9
:1026800019E0C0461C200020FFFF00000180000070
:1026900004050000A507000036800000058000004A
:1026A0000280FFFF26030000AA070000C1400100CE
:1026B000C9C10200FE43002C01D1034600E02833CB
:1026C000189C18462B3000D17BE1D81C00D176E154
:1026D000002B01D0FEF711FB41F076FD39A931F056
:1026E0009DF98B24002801D100F06EFD199A69E153
:1026F00019960C310079401E4E1C42F01FF88024C0
:102700000021002800D15DE31A910F46199ECDE308
:10271000DF48E0490E18B079F17908184000083018
:1027200000257D7016973871C1B242F0D9FB07467B
:10273000082242F0D1FBB079B871F079FC1D1B97EB
:10274000F87120A9087037460837B079854207D25A
:102750000222204642F02CFE6D1CBF1CA41CF4E794
:102760000446169FE1B2C0B2F279101888420DD922
:10277000E8B240001B9A101808304900711808315F
:1027800042F0C8FC6D1C641CB079EBE71B9988799A
:1027900040000818C01D20A901223FF06BFE1A9CC2
:1027A000199D179EB81C39A942F0B4FC2640730944
:1027B000B94887E0B74840F0E1FA41F07BF80028DB
:1027C00001D000F0C2FD2D20214642F011FD00286D
:1027D00001D100F0BAFD811C39A842F003FBFFF7DC
:1027E00035F90026002834D0012142F0BFFA054611
:1027F0003DF0BCFE28708B208000A649085C0128B3
:1028000027D831200001085A33A908801DA80822C2
:1028100016993FF02FFE28462878002819D039A9AC
:10282000497A441A00261B91884200D23446212C52
:1028300000D321246000411C42F052FB1B9901701F
:10284000401C379037AA08462146189C33F07EF882
:102850002870199838707E70B81C1DA942F0C4FA0F
:102860000A3733A9022242F007FB20A8417880787A
:10287000000242181A98179D05406B090120C003F9
:10288000214600F0E3FD0029159F02D03078FEF7C5
:10289000FFF8199A5078917809020D18147842F0CF
:1028A00009F9F921C9007B4A525C521CD3B2FF2BB3
:1028B00000D10022774B5A540270802141703C4075
:1028C0006309764818992A4600F0C0FD1B981699AE
:1028D00001404B097248189900F0B7FD1DAA28461F
:1028E00021463DF07FFE1F20294642F091FC002842
:1028F00001D1FFF7C1F94178032901D2FFF7BCF9F3
:10290000817839AA1170C17851700179917040793C
:10291000D0703821189836F0B9F817905D481A9998
:1029200040581B99401841F069F94631202042F087
:102930006FFC002801D1FFF79FF91690407803281B
:1029400001D2FFF799F91798801C169DA91C42F037
:10295000E1FB287917990871687948716978C91E6F
:10296000032242439142189D01D0FFF786F9169940
:102970008E1D179D09350027092F01D900F0C8FFCA
:10298000874201D300F0C4FFE81E022242F0A4FAFD
:10299000B07828707F1C179840796D1DF61CEBE706
:1029A00032211898169A3DF059FE002800D02BE1EC
:1029B0005EE5D62000E0D7201B90159FDFE334466C
:1029C00000E080242878697809020D18D67D04215A
:1029D000189F42F087FB05808670C47031483946E5
:1029E000EFE38B2080002B49085C0023022800D0F5
:1029F0003DE28020079000F09FFC12980371B2E145
:102A00000026012F01D0FEF7BEFB0128274600D982
:102A1000A9E4C5208000091839A842F0E5F9012190
:102A200042F05EFA17903DF0A1FD1799087000285A
:102A300000D198E41DA9CF78C11B0026B84200D26E
:102A40003146212900D3212116914800411C42F032
:102A500047FA0770401C379037AA3846169932F06B
:102A600075FF17990870FEF78EFB0F4AA25CCA40EB
:102A7000D1071A9B00D170E5B121C900054A515A0E
:102A80000027490701D500F049FC179E65E5C046BF
:102A9000770800001C200020048000003C8000001B
:102AA00044800000390C0300B809000020A833A9B5
:102AB00041F05BF800211B91002801D100F013FCCC
:102AC00041F0D5FA20A930F0A9FF002875D015985B
:102AD0000678042118982DF087FF04461698207078
:102AE00031200201EE48805A39A90988884253D121
:102AF00000256570387A797A0902081803284FD0C2
:102B0000022800D0A5E115920D2142F0E9F907460F
:102B1000F848F7490D1802221692384629461A95A8
:102B2000F54B9847A878B870F81CF449F04A51184A
:102B3000169D2A46F04B98471A9840797871B81D2F
:102B4000EF49EB4A51182A46EB4B98473846083074
:102B500087210901E64A51182A46E74B984738462B
:102B60000A30E849E24A51182A46E34B98471A9836
:102B7000007B3873AD208000DD49085A1499084263
:102B800000D064E11B98002800D142E1817AC27A2A
:102B900018983EF01BFE5AE181206070002558E134
:102BA0000225189829462FF075F9D749D04A5118AF
:102BB00042F006FCD548451C4BE120A842F0EEF857
:102BC000002884D0024628322823C15C55782D0283
:102BD0006D1814990D4200D079E7CD49C44E715C4F
:102BE000149C2543C5542B0A53702BF053FF6EE7FA
:102BF0002C211898139A3DF031FD284304D12B2144
:102C00001898149A3DF02AFD199804406309C148A8
:102C10001899179A00F01AFC012F00D07CE20121CC
:102C200042F05EF900260670FEF7ADFA802014909F
:102C300000201790FDF7C7FEAD48405D002800D189
:102C400009E3AB481499405C204000D003E300271F
:102C50001A9717AD31CD0C35002E18D0AE48A449C7
:102C6000085C800701D4FFF75CFB2E461A98002809
:102C70000BD120A8007AC009A8499D4D6A5CFE23AB
:102C8000134018186854A6482C5435461BE30346D5
:102C9000A4489749095C0020042800D1F0E20122F1
:102CA00082400A4200D1EDE2401CF5E79E4990487F
:102CB000455C002D00D18FE39C49405C002801D188
:102CC00000F0E6FC8521FEF74EF81B9A169F77432D
:102CD000072E3AD8834238D20E2B36D81996472180
:102CE000CC00834E3159C95DC9072AD05B1C1693AD
:102CF000052142F0F5F805463059C019C178007930
:102D0000687029703059C05D4007800FA870315934
:102D1000C95D10220A401018A8703159C95D179A70
:102D200011400818A8703059C019817820A83CF0CB
:102D300057FA169B1B9A2098E870000A287115987C
:102D4000305C199E761C7F1DC2E7129948780B7182
:102D50000028674907D01A980858801841F047FBA7
:102D6000C91E41F0F3FB1798149901404B097048B4
:102D70001899139A6AE3FF2800D13AE3052800D98D
:102D800052E3012F00D04FE30546577820A842F0C8
:102D900015FB20991798009020462A463B462BF0B9
:102DA000B1F90028199B169801D0FEF7EFFC4FE30C
:102DB000272080014E490858C07AFF2800D1A9E297
:102DC0000320A8E21694002E6CD0232031463A4608
:102DD00036F030FE002865D0811C20AC0826204645
:102DE00041F0ECFF5349204642F0A6FA002859D0A2
:102DF000514920A842F072F8002853D020A841F091
:102E0000CDFF1A90002801D100F012FE0024179F78
:102E10007CE413981C3007D1B320C0003449085813
:102E200001214905014012D18B2080003049085C06
:102E3000002804D10021FF2218983FF0CFFB2C4836
:102E40001599415A2E4A825A18983DF0F3FB199F62
:102E50003A4DA01C39A942F05DF938787978090219
:102E60000A18179806407309A8B21899EEE21C4692
:102E70000C983FF008F9012800D159E27E2058E271
:102E80008006400F27218901194A51588A7A002A61
:102E900000D104E3C97AFF2900D1CDE30321CCE3BB
:102EA0001C20002000271A97199E169C76190221D3
:102EB000189D42F03DF81B9901704470002F12D00C
:102EC00028201A99085C8106490F1B9107270740A3
:102ED000242128463DF09AFB044620A941F084FFB6
:102EE0001B9820726772164829463246179BADE23E
:102EF0001C20002068080000752404006B080000F6
:102F00006E08000072080000750800000280FFFFD4
:102F10003105000043800000590800002D04000026
:102F2000A90700002C040000BC080000E208000013
:102F300032800000148D04001C8D0400028000000B
:102F4000428000008627189C169E179D022141F0A2
:102F5000FDFF05704770380600D085E016961DA865
:102F6000022631463DF0DEFE054600200D2803D046
:102F700039A941F05BFBF9E7C5208000FE4A111832
:102F800017461791FD4B39AC0822159220469847F9
:102F90002B204301F85812932D014019817BC27BED
:102FA0001202511813913B912673491C8173090A2F
:102FB000C173F858411933AE042214923046EF4FD2
:102FC000B8471699083120AC10222046B8473398EC
:102FD0002099414021707078219941402171B07849
:102FE000229941402172F07823994140217312982F
:102FF000E14908584119405D3FF016FE339013989F
:103000003190222142F046F804461799159E324627
:10301000B8472046083037A93246B8472046103016
:1030200033A9149E3246B8472046143031A932469F
:10303000B847183400201B9A082802D041F062FAE1
:10304000FAE7CD4D1A98285880188179C279120272
:10305000511842180E32009420A839A9162338F0CE
:10306000C3FDC748189C2C54C64800232146ECE1F8
:1030700039AE42F06FF939983840401939901A98B2
:10308000411C1DAF022241F0F7FE601C3A88C0B21D
:10309000314630F037FE0646189F1798002818D0A2
:1030A0001998401C8178C278120251180822D24324
:1030B000521C92B291420CD201784078000244181E
:1030C0002A2142F00FF800212A2907D041F0A6FA60
:1030D000FAE7002F00D1BBE1384637E1711E8E417F
:1030E000F101417016990170C484384635F0B2FE82
:1030F000AEE1052A00D9D0E11A98037800240094A3
:10310000189F38461B992AF0FDFF00281798C5D153
:10311000204626462746C1E70026FEF734F839A8A0
:1031200037A940F022FD9224002825D137A807783E
:1031300038463CF02DFC002804D1384637F008FA18
:10314000002819D004460C3020A920223FF092F923
:10315000DC2000272754217839A830F021FC1A946C
:103160006078032801D0002805D11A98807A0228B7
:1031700001D800F02DFC0D9C1B94159F1A9A144643
:10318000139E707D00028005199901D531461A31D0
:1031900041F06FF8F67D0E21189830F08FF8058019
:1031A00086701B99C17079094171002C03D0A178F8
:1031B000169A11400171801D1DA941F015FE72483B
:1031C000189934F08FFD43E139A841F0E7FD00285C
:1031D00001D1FFF78BFA40F093FD199A01D1FFF767
:1031E000F1FB20AC2C2242F0E7F8204618301021E9
:1031F0003EF0FBFE20462830E15D41F0A7FA634A2D
:10320000F83A0A40E255110A417039A841F094FE9B
:10321000014620462BF03EFC40F0D6FF1DA940F0B1
:10322000B2FC002814D15A481899534A11541DA8C9
:1032300004785B200001105A41F068F955480818DD
:103240000F21090339F0C0FC0246534842F002F84E
:103250003446FFF74BFA1398C007C10D20A8002988
:1032600000D0F4E41299002900D1F0E400570028BE
:1032700000D5ECE40120704001D1FEF7ABF9E6E4A3
:103280008A2720E0002B1ED01143444A3A4B9A185B
:103290001174297880001318D9701B9D297826464F
:1032A0006C782402611811529E70092141F084FD4E
:1032B000044620AD082241F07DFF287AC009207223
:1032C000374831467DE7022141F040FE2978017000
:1032D00047701B9940F0C3FF1698159901404B09A0
:1032E0003048FFF7CDFA33A8007837F031F90028DD
:1032F00001D1FFF7E5FB817804220A438270C57093
:1033000006711D9981723799C172FFF7DEF883202B
:10331000FEF712FF0220189C00218FE1C07AFF28DF
:10332000179E01D0FFF719F900260F9FFFF715F937
:103330007620C04307902346002B0AD10D98000247
:103340000E9940181149884203D9189829F08AFB30
:103350007EE008980002099944181E46591D1898E5
:103360002DF042FB054609480C9981421CD90248C0
:103370000699405A19E0C0461C200020752404001C
:10338000AC07000047800000C19B0200F7FF00006F
:10339000AD070000FF3B0000C5DB03001C0400007C
:1033A00061C101003480000008461DA90880A81CE6
:1033B00041F0B0FE0A98287032462E71681D39A976
:1033C0003FF058F8079868700B980F9901404B0927
:1033D000FA481899224639E0189C44540146F848A6
:1033E000085C42224243F74841F034FF41F088FD37
:1033F0002EE016460C3539A841F0E0FF002468782D
:10340000844205D220A839A941F0D8FF641CF6E710
:10341000B11C1DAE022241F0C9FF6878328820A994
:1034200030F070FC0646189C199B1698FEF7AEF912
:1034300000272D780221189E41F07CFD1B99017018
:10344000477025406B09ED483146199A34F03AFD32
:103450001CA80378002B02D1189829F003FB3DB07B
:10346000F0BD1DA80078002139AA27F029FB00280B
:1034700001D0FEF7C3F8E248405D012801D9FEF70C
:10348000BDF8399840784007400D01210902884273
:1034900001D0FEF7B3F8FFF7DAFB0026FCE50021C8
:1034A000CBE0189CD74800221B993CF063FB8B2093
:1034B0008500D348405D002701283AD80028149E93
:1034C0000ED031200001CE49085A1B99884207D1FD
:1034D0001B98314624F02AFA293001D1FEF721FF4A
:1034E00020A91B9830F09AFA00286DD0C448405D9E
:1034F00001281FD8202141F0B9FC817BC27B120238
:1035000051181B9A891A4F424F41BD49495D012903
:1035100010D8017C1A913346467CBB4941F0D0FA61
:10352000002806D037A9149840F01FFB002800D1CE
:1035300024E2149E002437AB30461B99224617F034
:1035400009FC00282BD1002F29D0002720971DA986
:103550001B9840F018FB002800D0B8E21DA80078A6
:1035600020AA179927F0ACFA002800D0AFE21997EB
:10357000209A1178507840074B079E0F1A964906FB
:10358000002B03D4527B012313401993420F080FE1
:1035900016901A98032800D022E1179C25E1002FED
:1035A0002046214622461A9400D190E216911990A5
:1035B00039A8C77A9248405D012813D8032A11D14F
:1035C000B8071BD502201AE020A8082241F0F4FC1D
:1035D00000288BD01B98314624F0A8F9293085D1DA
:1035E000FEF79FFE042017921043052808D111987A
:1035F00040018349085C401C169001E003201790AD
:103600001A98022806D100201990002C1B9800D08F
:103610003EE142E1002C0DD0042017990843052813
:1036200008D11A98012800D031E17848744A115C19
:10363000491C11541B9830E10221189C002200AB58
:1036400007C30392179804901DA820A901231DF019
:1036500059F9272080016A4A1058022141706C48AC
:1036600014546C482146ACE5654841598878C00738
:1036700000D0A9E01DA841F09BFD6749884201D117
:10368000FEF7ABFE3DF0E2FE04465D4841599CE08A
:103690005948FE210022199223F0B2F9681E1A99A6
:1036A000574A5158C0B2109A4243881840F0A6FABF
:1036B000087E1B91497E09020818217B627B40F03D
:1036C0004DFF04D0544A904201D091422BD11B9D12
:1036D0000C352A460F32A87B4100501815901A92DB
:1036E000A37B58001790301816901598401C159021
:1036F000525C00930020159933462FF09FFB1595DF
:10370000AA7B1698431C1798305C009001201A99E8
:103710002FF094FB47204001394A105C3F49515C2F
:10372000014300D084E08624A2E0354A51183C4A87
:10373000895CC840C00701D1FCF756FFE07A6128D8
:1037400001D2FCF751FF37482D49095CCA0701D067
:10375000FCF74AFF344A2A4B9A5C520701D5FCF722
:1037600043FF01221143264A1154304828E520A87E
:103770000678002E01D1FDF738FB20A8451C2A2031
:10378000C0432A301B903746002F00D136E1C520B8
:1037900080001B49081841F04FF9002801D1FDF7BE
:1037A00024FB0822284618493DF0C0FE002801D01D
:1037B00000201B907F1E0835E6E7C046068000000B
:1037C000B9080000F90E040000244878012801D04F
:1037D000FEF703FE20AA179816F014FFFEF7D7FC99
:1037E000042A00D007E10024042239A8C77AB807C8
:1037F00000D48AE0012089E0F90E04002B8000004B
:103800001C20002041CA0300148D0400170400008E
:10381000AB0700002D9C0300FFFF0000060900001D
:103820001F03000058080000A407000089DB030004
:103830000D371B990D31FE48F74E3018022541F027
:10384000BFFD1598C07A232189017054F9483018BA
:10385000394641F0B5FDF8483018E17A817718997A
:103860008176F64840F0DEFA002800D1E5E08A24AF
:103870001898214638F068FBE74DEB4EA85D2146CD
:1038800038F062FB1999A955E8482954E0E51B98DE
:10389000EC4BE14AD15C491CD154002120911DA977
:1038A00040F071F9002800D010E11DA80078002434
:1038B00020AA41F033FC002800D007E13807C10FEF
:1038C0002098027843781E02B2188678360492193E
:1038D0005B075B0F179E9E4200D0D7E053079B0FFC
:1038E0001A9E9E4200D0D1E05606360F169FFFB2B8
:1038F000B74200D0CAE0022B00D0BFE0437B0126D4
:103900001E408E4200D1BEE0C0E002201A9051E677
:10391000C14D1A9EA8591B9FC01940F068FD091B94
:10392000891E40F013FE062141F0DAFAA859C019A9
:103930008179C2791202511845182C460C34284658
:10394000443039A941F03AFD1D9848216854483562
:10395000000A687000271999677021702024189D4B
:10396000284641F005FA20A941F01EFC28462EF019
:103970003BF9002800D16BE52846E7E437A8017839
:1039800020AC204619913BF02BFC248820463EF0C9
:103990007AFBA2498C4200D1CBE50A4604210843B8
:1039A000052800D0C5E51B9884420BD130021A9936
:1039B0004018904200D0BCE51B983EF04AFB02281C
:1039C00000D0B6E59E480022199932F0DFFFB0E53D
:1039D00039A841F0EDFB9149884202D03DF036FD17
:1039E00007461A98807AC01E1499C94388422FD876
:1039F0001A9BFDF713FA19981699D7E51B9800281A
:103A000001D0FDF7F2F920A8441C854D002E2DD0E1
:103A10000822204629463DF089FD002805D0204691
:103A200035F08AFF204638F097F8761E0834EDE727
:103A3000862400271A97FEF769FE0024189821466D
:103A400038F082FA74487849405C2146FDF78CF9D9
:103A50001A988078C0070CD103201B900225002FF4
:103A600067D02820385C8006400F63E00024FDF713
:103A7000BCF90320129000251B955DE0002905D0BC
:103A8000437B01241C40199B9C421FD0179B1B02A7
:103A90006D4C14401B191A9F7C001C19169E36078A
:103AA000760EA419120C82701A0A42700470022F4A
:103AB00004D1427BFE231340591804E0417BFE22CF
:103AC0000A401999511841733BF062FC149E524808
:103AD000405D01280ED830463EF0EFFA002809D0AC
:103AE0004D49495D012903D04178C91E012901D8FA
:103AF00041F0C2FA5548484909580029189C06D097
:103B000039A88847002C01D0FEF70BFCA0E4022165
:103B100000220C2341F038FA04461B982080A01C98
:103B2000082241F0D9F939A8C07AA0724848FFF7B5
:103B300047FB0020149012901A98C07A8D24411EE1
:103B4000022914D300282CD0FF2801D0FFF714FB42
:103B5000002F06D028377878C007C00D01D1FFF7B5
:103B60000BFB1A98CC302F4941F03CF925E039A8DD
:103B700037A920AA2DF09EFC401C01D1FFF7FCFACA
:103B80001A99CC3139A825F003F900281B9D129908
:103B9000149112D0C01C00D02AE700201B90FFF720
:103BA000ECFA1A99CC3139A838F0B2FD00281B9DE7
:103BB0001298149001D0FFF7DFFA1A9A1646CC3605
:103BC0000027304639462DF005FD00280D9C01D018
:103BD000FFF7D2FA032D0AD11A98C07A002806D12D
:103BE0000020179003E020A80021C1557F1C102F52
:103BF000F9D100221498009001950292039617982B
:103C0000049039A820A91446169F3B461CF07AFE62
:103C10001A984770FFF7B0FA1C200020FFFF000041
:103C2000148D040034880400BC080000E208000081
:103C3000BE080000E4080000C8080000A5850300D5
:103C40000D5B03001604000081F8FF000C09000062
:103C500079EC0300F0B5FFB0FFB081B0B4A82B90B1
:103C6000B4ADB4AB9DAEB4AC38A8DA4FDA497A5CE7
:103C7000DA49795C520702D40A0700D5A7E0490760
:103C800001D401F0E8FE2B9915312B91092149014E
:103C9000691824914635194615312991591D2891E5
:103CA0000E33269331464E310E9131464D310D91F2
:103CB0003C3621464E31229121464D3118913C34FB
:103CC000199403212091C9014018359000202C2817
:103CD00005D039186F22520140F0B8FCF7E704957F
:103CE0004720C543632080003790339547356F20C8
:103CF0004001219036953D5000203799814203D0F4
:103D000038A940F093FCF8E70F9635983699016092
:103D1000B3483F180F203290002634963146022EC9
:103D200036D0F4B20025B4AA0C2340F09DFF002841
:103D30000DD03FF0C3F8369D788801218843788004
:103D400020463BF00DFB2946761C3F1DE7E7B4A952
:103D50009DAA204636F034FB0146483101D00028A8
:103D600011D19DA800880E280AD8798801220A431B
:103D70007A80388032998842E5D234963290E2E7F0
:103D80000F203880D5E70F203880339D2535D3E7C5
:103D9000329E904F0F2E37D0E6483C180025022D5A
:103DA0002FD020880F280FD0349AAA420CD0B042CE
:103DB0000AD00F2020806088012188436080E8B20B
:103DC0003BF0CEFA339947316D1C241DE7E76F2095
:103DD0004001012139500024E0B2012803D825F028
:103DE000BDFA641CF8E7E44818213950DF200001CF
:103DF00000213954784AB85C06210143B95401F0D6
:103E000025FE0E2E00D033992A91CA483D1800266F
:103E10003696022E31D028880F2802D1761C2D1D0F
:103E2000F7E7F4B238A920461AF014FD01463831FC
:103E300013D0411C0ED0002815D1359B18681B21CA
:103E4000C90179180866187ADF221201B854586837
:103E5000C866E3E73FF032F8E0E70120B04036996A
:103E600001433691DAE768880121884368800F2092
:103E7000288020463BF074FAD0E700201024359EBD
:103E8000202800D198E00C22424338A989184968BB
:103E9000BA4B194204D038AB9A181289002A02D1C1
:103EA000401C0C34ECE7451C880F38A92A461F2A11
:103EB0000AD80B59B14E334202D09B0F984205D11C
:103EC000521C0C31359EF2E7014603E00228359E74
:103ED0002DD10221369BDCB22246C240D00714D03D
:103EE000C8B2022810D232681B23DB01FB181A6605
:103EF000DF2214013955800018186421405A0E2819
:103F000045D117F097FA44E0DCB2DF2000013A5CBB
:103F1000012108469043C440E2074DD08200BA1800
:103F2000974BD45A8C43D4523BF01AFA44E00146E2
:103F30001F2D1BD838A80059904A104212D0860F66
:103F4000C8B2B0420ED0810079187A4A8A185388D4
:103F50000127BB431F4F53800F22764BCA523BF0C1
:103F6000FFF931466D1C0C34359EE1E7369BDCB21F
:103F7000C8B22246C240D207B2D10021379A8A4243
:103F800001D101F06CFD38AA40F068FBF6E71DF0A6
:103F900085FF00203799814203D038A940F046FBC5
:103FA000F8E7339847303060385D38A91AF052FC92
:103FB000002801D03EF082FF0749785C022223925C
:103FC0001043785400206F4C08280BD040F09AFA28
:103FD000FAE7C0461C200020F10D0000F5040000A7
:103FE000E40D0000B4A8401C2F90B4A809301F9025
:103FF0009DA85B300C90B4A801460831169101468B
:104000000C311591014614311491014624310246B8
:104010002C32139202463D3212924F3017909DA8D7
:10402000024608320A9202460C32099202461432C3
:10403000089202462432079202462C320692024629
:104040003D3205924F300B90B4A8801C03900022A3
:104050004D4838181D904D48381827904C4838184E
:104060001C904C4838181B904B48381825904B48EA
:1040700038181E904A48381811904A48381810903D
:104080001A91202A01D101F0BBFC0C20369250433A
:1040900038A90F1879680B46384A1340379301D175
:1040A00001F0A8FC38AA121812893492002A01D112
:1040B00001F0A0FC8A0F359292003B4B9A181D4BE1
:1040C000D65A0E2E01D901F095FC01223292B2404F
:1040D0004F2331931B021A4201D101F08BFC38AA05
:1040E0001018408930903048304A815084183498F4
:1040F000A0803698C5B21C2D00D9C6E03298A840E1
:104100002B49084200D1C0E027482A4941580029DC
:1041100006D0369880B28847002801D101F06AFCA9
:10412000681E1E2800D9B7E003A14000085A4000CD
:104130008744C046E40D000042002A041602B20083
:10414000B200D2038301B2001102430315039104AC
:104150001201CD00F4055003600CC503C305B20085
:104160008304600CB200B200B200B200CA00800149
:10417000B200B2004506C046EC0D0000FFFFFF3F55
:10418000E60D0000E04A0020FC04000004050000E9
:10419000610200000E050000040E00004A0D000040
:1041A000140D00002A0D00001C200020FC0D000052
:1041B00001460018DC0D00003098042801D101F000
:1041C00098F80328359D01D101F085F8022801D027
:1041D00001F010FC9DAC5C26204631463FF0F2FD1C
:1041E000284637992246334635F052FB002801D045
:1041F00001F000FC9DAF3878012135910840ED4E6B
:10420000ED4D715DFE220A40101870559BAC0422E2
:1042100020460A99E94DA8479F20C0003018214642
:104220003CF0F0F808241D9809992246A8473878F0
:1042300002210140E04BF05CFD2202405018F05496
:10424000892080003018379008992246A8479E9808
:104250001021C84131210A01B050FF20F6497054A5
:1042600078781321490170547888F44970528B2072
:1042700080003490305C0028329201D101F0E2F9E4
:1042800008222798079901F0E2F9EA4AEC4BD05C42
:10429000FD210140D15437E7DB200001E5490D182D
:1042A0000027E448E7494058874201D301F0A2FBC8
:1042B0002968369884B220468847002801D000F04B
:1042C000C3FD7F1C1435ECE7DA48DF4977E230980C
:1042D000012801D000F084FDB4AA082340F0A1FB1E
:1042E0000028D44ED94F01D001F084FBB498C019F6
:1042F0005321C9007050152041010020705234999B
:10430000C9080901814201D101F074FBB59AD219A3
:104310002B235B01F45825182254140EEC70140C56
:10432000AC70120A6A70F258121800245473147395
:10433000F25812183FF0B7FBD57A2D062C19E31866
:10434000C34C641C1C431472230C9372230ED3724F
:10435000230A53721030D5E71C21349838F034FC0E
:10436000359C21073191002739460646379D32900A
:10437000B74201D301F03EFB002901D001F03AFB26
:10438000B4AA1C2340F070FC002802D033994731B6
:104390004DE034973795B4A83CF0B2FCAD49A54A3E
:1043A0005658002440F0E8FD88003218335C5578F8
:1043B0002D02EB1895782D04D7783F067D19EB1860
:1043C0001D46A34F3D4004D0132C02D8481C641C4A
:1043D000E8E7002D974C349F04D033993231359C57
:1043E000379D23E0379E3146994F39400B43137078
:1043F000190ED170190C9170190A517095496258B3
:104400001118135C4C782402E3183FF035FC354654
:10441000E3183B40349F319C23431354180EC8705B
:10442000180C8870180A48700021359C329E1C3583
:104430007F1C9DE77F488849C1E1386832900020A1
:10444000359D042803D09DA940F0F0F8F9E79DAA16
:10445000042340F041FC0646002803D19D9875498D
:104460007E4A885438F032F972487D49309A425277
:1044700010461C21002A319100D03021002801D0A3
:104480002C2031903798071D012037903498001F59
:1044900038F09AFB04463298724948600020349004
:1044A000214638F071FF6F490870329440F082FD68
:1044B00034992E905F4C3298814201D300F0FCFE7B
:1044C000002E01D000F0F8FE3491B4AA28463946F7
:1044D00026F03EFC0646002838D12C972D96B4A82D
:1044E0003CF00EFC2B2149016458142540F044FD9A
:1044F000080120183FF0C9FAC67A3606F3189A1850
:104500001346594E33405F425F41002D379E00D025
:104510003E46002E02D1481C6D1EE7E7002B454C9D
:104520002D9E01D000F0C5FE08302C9F3B464E4D1D
:104530002B401A430270130EC370130C8370120ABF
:1045400042702E980170401C2E90359D31983F1876
:104550003499491CAFE71B20C00136490B582FE1A5
:104560000020344D414FE9590A78904228D24A78C8
:104570008B781B029A18CB781B0409793FF0EAFF6D
:1045800082008A58917ED37E1B025918137F1B0428
:10459000547F2406E31859180AD0537E339A1832F0
:1045A0005A43002A04D000230B70491C521CF8E720
:1045B000401CD8E71C200020F504000075240400EE
:1045C0001821349838F000FB319000213091319857
:1045D000814201D101F00EFA3291B4AA182340F0C1
:1045E00020FA002800D0B4E0E8590178401CB4AAB1
:1045F0005278349200221746B94218D0057846788E
:104600003602751986783604C4782406A41964190C
:10461000A5583FF0E6F96B7F1B069B191B1903D0C9
:104620002B78349CA34223D07F1C121DE4E70A465A
:104630001FE0C0461C20002026030000A20200004C
:10464000F10D0000D80D0000880D0000FF030000F0
:10465000FFFFFF0F640500008C0D00002E05000019
:1046600032050000E04A0020FFFFFF07CC0A0000EF
:104670003A468F421DD2017843781B02591883783D
:104680001B04C0780006C0184018910040583EF046
:10469000D5FA5318417E3020484318180022F54DB2
:1046A000F54F914209D01C7AE40705D0521C3033F3
:1046B000F7E7F04DF04F44E018468A4241D2017AC4
:1046C00001220A430272B4AA117801705378437030
:1046D00053884380B59B0371289E337874782402F5
:1046E000E318C380B378F4782402E318C385537ABF
:1046F00003725289028200290CD1B7994182269B0C
:1047000019785A78120251189A781204DB7840F01E
:1047100039F84161B4A9498A024628320185B9991C
:104720009170299A3FF02BFC81851C21242903D00C
:10473000FF224254491CF9E735F0D0F93098401C6B
:1047400030903098002802D028F0C8FE01E0002008
:1047500030903798183037903299491C37E700204D
:10476000C44E359D042803D09DA93FF05FFFF9E7B3
:104770009DAA042340F0B0FA002800D174E3082277
:104780002798BE493CF0D2FE002805D03CF03EFE02
:10479000002801D100F075FD3FF0F6FB01D001F0DB
:1047A00029F93CF033FE002801D101F023F93FF054
:1047B00042F80122B4AB00F079FDAE48B04943584D
:1047C000002B01D101F016F935983799349A9847A2
:1047D00001F010F9A420AB4A3190115833983830C9
:1047E00048431146AC31002804D000220A70491C0D
:1047F000401CF8E70020382805D0A24909185C229F
:104800003FF024FFF7E7A0219E48329147583498A3
:10481000394638F0D9F93490002426463498844239
:1048200001D301F0E7F8002E01D001F0E3F8BBB2AC
:10483000B4AA3598379D294636F064FC0646002810
:1048400036D1B4A80189490701D0082100E004212C
:104850003CF0D0FB8B49319A8F583D46394638F0B1
:10486000B3F90801874A1218B423D358002D04D095
:10487000002B06D0481C6D1EF0E7002B01D001F084
:10488000B9F8B432379F1760A9227E4B359D9D54ED
:104890003D461A465C32B79B10184365C808800035
:1048A0001018826B4907C90E0F238B409A4382630D
:1048B0007448329947587D193795641CAEE734988F
:1048C000282801D001F096F82823359837996D4AA9
:1048D00036F018FC01F08EF8B4AA182340F0A1F8C5
:1048E000002801D001F086F82026304632F08AFFF9
:1048F000044600223146644FB847B4993DF0D6FCD7
:10490000012240F0BDF9B5993DF0D0FCFA2569438C
:10491000084635F037F9022240F0B2F9B4A9098906
:104920003DF088FC8B208000524E305C022809D17B
:10493000564841435648081840F065F855497050AC
:1049400039F0CAFD20260322204631464E4FB84793
:10495000B4A949893DF06EFC4D43284635F020FE50
:10496000042240F08DF9B7993DF0A0FC052240F0FB
:1049700087F9B8993DF09AFC062240F081F9B9997F
:104980003DF058FC01F036F8B4AA182340F049F87D
:10499000002801D001F02EF80520050240F0A2FC0D
:1049A000002837D0044610222946374FB8473EF03A
:1049B00020F8B4AE082240F08FFA3FF01BFEB84753
:1049C000717A8279C3791B029A18037A1B04407AA0
:1049D0000006C01880180170112220462946B847E9
:1049E000B7993CF0BFFF2C4AB847B6993CF0BAFFE4
:1049F0002A4AB84771893DF01DFC07204203204632
:104A00002946B847F17D3DF045FC002902D02046FB
:104A10002DF094FB40F0B2FB002801D100F0EAFF3A
:104A200020211F4A3EF0CCFA3DF0E3FFB4A9CA8929
:104A30000280497B817000F0DDFFB4AA2423359801
:104A4000379C214636F05EFB002800D1E2E233F0CD
:104A5000BCFE00F0CFFF0020042803D09DA93FF04A
:104A6000E5FDF9E70020359D08281BD0B4A93FF0EB
:104A7000DDFDF9E71C200020CC0A00001C8D04009D
:104A8000840D00007C2E0020C12F040090D0030074
:104A9000FF3B00002409000001E0000002E00000EC
:104AA000FEEF00009DAA04242846379940F0ACFB95
:104AB000002801D000F09EFF9DA84078022823988E
:104AC00000D3204620990902319101214A023092F7
:104AD0002E9109022D9137994118002633463796B9
:104AE0009DA80078864201D300F084FF002B01D0FE
:104AF00000F080FFB4AA08232846349134F0C8FEA1
:104B000003462F9800780106490F052900D1CDE012
:104B1000012909D12F9949780902081831990840CB
:104B20002D99884200D1C1E03293FF208400DD4BF3
:104B3000185911277743C15D2E9A1143C155B4A866
:104B400000781959C919887130F0CAF800280BD0BB
:104B5000D4480059379940180021329B112900D1BF
:104B6000A4E03FF05BFDF9E72F9D2878CD49095976
:104B7000CA5D0007400E872313401818C8552878CF
:104B8000F9490959C9194A781202C0003EF04CFE91
:104B90003FF01AFB0146319A1140309A914209D1F7
:104BA000F1490959C9194A7BC006C00FFE231340B9
:104BB00018184873EC480159C819C95D3EF003FF45
:104BC0006A05520F06D1B499E84AE74B9954017827
:104BD0003EF0F9FE2F994A789207520F0623294694
:104BE000994389182A0A42702A0C82700170B4A96C
:104BF000CA78DD4D28192B59DB195A712A59D21957
:104C00007F231371426809785654B5992A59D319EC
:104C1000D25D5D782D02AA189D782D045219C9061F
:104C2000890BD34D2A4051180A0C9A70090A597001
:104C30002F9A3FF0A4F90A46319B1A40309B9A42C2
:104C400011D0C94ACB49515C1259D219537B8907FB
:104C5000890ECF251D4069185173C17E491CC1764C
:104C60002F9A3FF08CF9319AE0320A40309B203382
:104C70009A42359D329B19D1BB4A1259D219537BA6
:104C8000090A3C250D40C32119404919359D51732E
:104C9000817E491C8176B4480059C0192F99497802
:104CA0008906090F002235F063FB329B34990831E5
:104CB000761C37981130379012E70023AA4F3598A9
:104CC000379C042B04D0B4A90022CA545B1CF8E71B
:104CD000B4AA0423214636F015FA002801D000F0CA
:104CE00089FE241DB4A80178A3483954A3483D186F
:104CF000002006468E4201D300F07CFE002801D041
:104D000000F078FE0C23359821462A4636F0FAF951
:104D1000761C0C349849795C0C35EBE70822259811
:104D200040F022F83098022801D100F0AFFD309811
:104D3000012800D171E2002801D000F05BFE0126BD
:104D400034022520C100B4A83FF03CF82834349840
:104D5000A04200D061E2B4AA3598379940F054FAE5
:104D6000002801D000F046FE24980278102A01D9CC
:104D700000F040FE24984078202801D900F03AFE47
:104D8000794F7F497A547918487000200399D2B23C
:104D9000904201D300F000FD4A1E1278794C3B5935
:104DA0009B195B1E1A704A780B783C59A519A355BC
:104DB0006A70401C249A1278F61C091DE7E73098A7
:104DC000002801D000F016FE0023674C3598379973
:104DD000102B00D138E2B4AD0022EA545B1CF7E797
:104DE0003D68B4AA04233FF01CFE00285E4A6649D1
:104DF00001D000F0FFFDB49840185321C900505075
:104E000015204001002414523498001F01D100F0F5
:104E1000F1FD5E494968691A5D4A914201D900F085
:104E2000E9FD80083799091DC2B2359826F0ECFAE1
:104E300056480078002801D100F0DCFD27F012FE72
:104E40005248047000F0D6FD1420784346490818F3
:104E50005049455800963098019020463599379A28
:104E6000349BA84700F0C6FD0020102803D0B4A949
:104E70003FF0DCFBF9E70120000232903798011D7A
:104E800000231A469DA80078824200D377E4002BC5
:104E900000D074E49DA840780128349204D01024F6
:104EA00003E0C0461C2000200D24B4AF28463791F3
:104EB0003A4640F0A9F90346812085002A48405926
:104EC000B97A0B26714340183FF045F8329A1142E7
:104ED00000D098E030930930B4AAD37A9B075B0CDA
:104EE000319F7F020F40DB190170190A41701E4F7C
:104EF0007859917A71434118887A00024004800FF2
:104F000018D0B4A8C07A012848D106220846224900
:104F10003DF0B0FAB6987959B4AA937A7343C91898
:104F2000030ACB718871B7987959927A72438918BC
:104F3000087248E0B4AF384633F0D4FDB6980A4959
:104F40004959BA7A72438918020ACA718871B798A6
:104F500005494959BA7A724389180872B87A398969
:104F6000014F29F041FD2EE01C2000202603000007
:104F7000FF1FFC00B3020000C4060000040600008E
:104F8000BC050000C4050000FF030000E04A00204B
:104F9000FEFFFF7FBC0D0000148D0400B4AF384647
:104FA00033F0A0FDB798F2494959BA7A724389188B
:104FB0000872EF484059B97AED4F71434018ED4AF5
:104FC000110AC17182717959B4A8827A7243891821
:104FD0003FF018F9329B1A434A72120A8A727959C1
:104FE000827A7243891800224A727959807A704312
:104FF0000818817A10220A4382728320800039586F
:10500000491C3950309B37990919349A521CD84E93
:10501000359D37E724343794B498D54FD649785422
:105020007A18B4A834904079411E88412C921077A8
:105030000C2231921E9C20461F993DF01BFA002045
:105040006070E070E0802D90A080CC4D40F04AF977
:1050500007462946CA4ACB4CA0472B9B19785A7859
:105060001E463CF0E2FB2946239D2A46A047317BA1
:10507000329A11403DF00EF903223846BF49A0474D
:10508000317B89073CF000FF307B2840400832F03C
:1050900059FE04223846B94D2946A0473499C97DA6
:1050A0003DF0F8F805223FF066FDBA993DF0F2F8C0
:1050B00006223FF060FD317B4907C90F3DF0EAF859
:1050C00007223FF058FD317B0907C90F3DF0E2F898
:1050D000357B13203090C401A54E315D6A0010204D
:1050E00002402E90EF230B40D11841403155082249
:1050F0003846A2490E46A34CA047E906C90F3DF029
:10510000C9F80922384635463146A0472B9E317BE7
:105110008906C90F3DF0BEF80A223FF02CFD349DF0
:10512000697E3DF0B7F80B2238469449A047317BA1
:105130004906C90F3DF0AEF838469049319AA0476C
:10514000A97E3DF0A7F84B204001894A11500D225D
:1051500038468A490D46A047317BC9098279C3790F
:105160001B029A18037A1B04407A0006C0188018A4
:105170000170307BC00936F037F80E223FF0FBFC9F
:105180003499C97E3DF086F80F223FF0F4FC2546A5
:10519000717B329A11403DF07DF8707BC007C00FE3
:1051A00035F086F9384675490C462E9AA847717B2A
:1051B00089073CF069FE11223FF0DAFCBB993DF013
:1051C00069F812223FF0D4FC317A727A3CF02DFB60
:1051D00037462146309AA847B17AF27A120251181E
:1051E0003DF028F834980079411E092900D986E05D
:1051F0004000C3B2359C2046379D2946119A35F0B0
:1052000081FFB4A909794A005519002800D1D3E1DA
:10521000339B47330020329074E03CF077F8002451
:105220009D949DAF0426359D284637993A463346CE
:1052300034F02EFB002800D180E04D49524A8C52B8
:105240001C3000D122E3D5E3B4AA102334F020FBB4
:10525000002800D0CEE3B4984C4960526018B4A93D
:105260004A888281B59AC281CA880282B69A4282ED
:1052700049898182B7990184002001462FF08CFE74
:10528000B8E38B208500705D002800D1B2E30124D3
:105290000021B4AB2798224615F05CFD705D012813
:1052A00000D0A7E33EF0C7FAB4AB224615F052FD9A
:1052B000A0E30026359D2C9F3098002807D0002EB3
:1052C00005D13298C2B22846394626F09DF85320BF
:1052D000000125548EE39DAA5C233FF0FDFC0446AB
:1052E00000286DD10020642852D0B4A93FF09EF967
:1052F000F9E7B4AA64233FF094FB044660E0359CD0
:10530000379D2D9BB4A83299002900D16EE1807998
:10531000002800D16AE10A2800D967E1430020464D
:105320002946109A35F0EEFEB4A989794A0055193C
:10533000002800D14EE1339B473357E131943A784E
:105340000B481149425440189DA94978417090007A
:10535000CB001818349B1B1F9BB2834200D095E2F0
:1053600033984730102A00D8E0E1319C65E7C04609
:105370001C200020FFFF00000C0D000057FC000067
:10538000FDFF0000C12F0400BC050000C40900009F
:10539000B4A89DA95C223DF06DF80C980078229B82
:1053A000597BF8220A40072101405018587333985E
:1053B0004730CB900020C1439974090AD9741875FD
:1053C000002C00D016E3B4AE3078012137910840AC
:1053D000EF4FF04D795DFE220A40101878559DACD4
:1053E000042220461699FD4DA8479F20C00038187A
:1053F00021463BF007F808241D9815992246A84736
:10540000307802210140FD4BF85CFD22024050182B
:10541000F854892080003818359014992246A847FE
:105420004320C0003818B5991022D1413122130110
:10543000F950FF21F34AB954717813225201B9543B
:105440007188F14AB9522299097D8175007D002841
:105450003494329303D0082227981A9904E0C52087
:1054600080003918082227983DF004F81998007830
:10547000E649785410261C9C204613993246E04D8C
:10548000A847E248385C2074A5208000379D3D5431
:105490001B9812993246DA4B98473F200001395A3F
:1054A00040220A433A5218980078D349329E8F1905
:1054B000F873229C2078B873B4A8007880098B21F7
:1054C0008A00CD4931928854607B8107C90F797376
:1054D000B321C900C84A52584007C00FC003EB03AC
:1054E0009A438018C44A5050B7208000C249081817
:1054F0000C221799C24B9847607BAD218900BE4AA8
:10550000525AC007000E80239A431018BA4A5052CC
:10551000CB982CF0DDFAA07CE17C0902081837F06A
:105520003BF9607B34990840C00835F05DFE7C880B
:10553000B14FB7498C4208D0B85B884205D0F32000
:10554000C000385C3799084304E0F320C000385CA1
:1055500037998843F321C90078543198385C002882
:1055600010D0359E08223046AA493BF0DFFF0028C4
:1055700000D13FE2A648844200D13BE29BAA2046EC
:105580003146B8E008221A9D2846A2493BF0CEFFDA
:105590000028359EE6D0082228469F493BF0C6FFEA
:1055A0000028DFD0C5208000381808221A993CF066
:1055B00061FF9A483C5AD5E72C98C1711018C088F1
:1055C0000023934A904200D09CE6481E94498A4AA0
:1055D000505497E62C9841771018808B00238C4A02
:1055E000904203D1481E8F49834A5054B4A8002BDF
:1055F00001D0FFF72CFAC079002801D1FFF727FA74
:10560000042801D9FFF723FA352189017A4A521873
:1056100043003FF029FB002801D0FFF718FAB4A897
:10562000C0797549804A885489184200895A784A55
:10563000914201D0FFF70BFA401E6F497A4A885415
:10564000FFF705FAC52080003118082227983CF0A2
:1056500011FF0F9800786D49705410241C9D284646
:1056600006992246664FB8476848305C2874A520E2
:105670008000359D35541B9805992246B8473B4616
:105680003F200001315A40220A4332520D980078DF
:10569000329FF419E0730E980078A073B720800051
:1056A00030180C220B9998476488FE498C4207D029
:1056B000F05B884204D0F320C000305C284303E054
:1056C000F320C000305CA843379F349AF321C9000F
:1056D0007054B05C002811D008223846F2493BF0E3
:1056E00025FF002800D185E1EE48844200D181E108
:1056F0009CAA2046394624F0BDFB7BE10822079D89
:105700002846E9493BF012FF0028E5D00822284648
:10571000E6493BF00BFF0028DED0C52080003018A2
:1057200008223FF047FDE548345AD5E71029319C5F
:1057300000D982E53296002A2146274676D037984E
:10574000071D0020012611460446002848D18C423E
:1057500046D2B4AA04232846394634F099F80028E2
:105760000FD1B4A94A78D34DC94B5B599B195B1E25
:105770001A704988C64A5259359D93199155090A9C
:105780005970641C9DA90978F61C3F1DDDE7C046D1
:105790001C200020F504000000200721049A249B0F
:1057A0005B78984200D3F0E0931F1C785B78B925B2
:1057B000ED007E597618F61E737034701378072446
:1057C0001C407B595B185B1E1C701378DB087C59EE
:1057D0006354401C0831D21DE1E7C0467524040023
:1057E0000028319F22D00021A94AB14BD1523099D3
:1057F00002294BD024E5C0461C200020F5040000FF
:105800007524040026030000A20200009502000097
:10581000FFFF00001C8D0400148D04001203000023
:10582000130D0000290D00003E0D0000B597B49740
:105830008800379940183190954C9DA84078874250
:1058400021D2329E31988119B4AA0823284634F017
:105850001FF80028C7D1B598B921C900625893191B
:105860009055000A5870B4A8C279072313406258B3
:1058700092199370C079C00861588919C8707F1C4B
:1058800008363296D9E7309802287ED13BF03EFDAB
:1058900000269D969DAF0424359D284637993A46AB
:1058A0003FF0B2FC002800D0A1E03A787848804967
:1058B000425441189DA8407848709100C30059187F
:1058C000349B1B1F9BB28B4200D090E0102A00D962
:1058D0008DE0102800D98AE0002A314632962CD07B
:1058E00034943798061D00200127114604460028ED
:1058F0001FD18C421DD2B4AA04232846314633F06E
:10590000C7FF00280FD1B4A94A786A4D604B5B5994
:10591000DB195B1E1A7049885D4A5259359DD319AF
:10592000D155090A5970641C9DA90978FF1C361DC0
:10593000DDE70028329E349C59D12746B596B496AF
:105940008800379944183546514E9DA840788542C5
:105950001BD2E119B4AA0823359833F099FF002827
:1059600044D1B598B921C9007258D319D055000A4D
:105970005870B4A882797358DB199A70C07971583D
:10598000C919C8706D1C0837DFE700240425404E94
:10599000494FF05D844211D2B920C00030584119FE
:1059A0008978032907D1405D2FF09AF9002802D0A9
:1059B000E0B238F0ADF8641C0835EAE71720800142
:1059C00030580021082902D03EF028FEFAE70020D6
:1059D00080280FD0B921C9002D4A51580A18095CF6
:1059E0003DF072F900220A700830F1E7329E284833
:1059F0002F494652369A521C254F284CFEF741FB40
:105A00002078002803D027F02DF8002020700024F3
:105A100023483C50381884802A98483001D11CF023
:105A20003DFA1D483858002810D1204639F098FC1E
:105A3000DF2000013C541B20C00138181821C1662A
:105A4000006E401C02D1012021997850114AB85CA7
:105A500004210143B9547FB07FB001B0F0BD339948
:105A60004731316038A918F0F5FE002803D03DF029
:105A700025FAFEF74AFA30681B21C9017918086631
:105A8000307ADF221201B8547068C866FEF73DFA1A
:105A90001C200020F10D0000EC0D0000E04A002069
:105AA000FC0D0000FFFF00001C8D0400148D04009D
:105AB000BC050000C4050000BD0500001203000085
:105AC000F0B5CDB0F348F449002902D03EF0D9FA40
:105AD000FAE70020142805D0F049091838223EF0D2
