:1000000028400020A11E0000B11E0000B11E00000B
:10001000B11E0000B11E0000B11E0000B11E0000A4
:10002000B11E0000B11E0000B11E000065550000A9
:10003000B11E0000B11E0000C155000005560000B1
:10004000B11E0000B11E0000B11E0000B11E000074
:10005000B11E0000B11E0000B11E0000B11E000064
:10006000B11E0000B11E0000B11E0000B11E000054
:10007000B11E0000B11E0000B11E0000B11E000044
:0C008000B11E0000B11E0000B11E000007
:10009000002243088B4274D303098B425FD3030AC7
:1000A0008B4244D3030B8B4228D3030C8B420DD3DA
:1000B000FF22090212BA030C8B4202D31212090268
:1000C00065D0030B8B4219D300E0090AC30B8B42A6
:1000D00001D3CB03C01A5241830B8B4201D38B0354
:1000E000C01A5241430B8B4201D34B03C01A5241F9
:1000F000030B8B4201D30B03C01A5241C30A8B423C
:1001000001D3CB02C01A5241830A8B4201D38B0226
:10011000C01A5241430A8B4201D34B02C01A5241CA
:10012000030A8B4201D30B02C01A5241CDD2C3093C
:100130008B4201D3CB01C01A524183098B4201D3B8
:100140008B01C01A524143098B4201D34B01C01AA3
:10015000524103098B4201D30B01C01A5241C3081B
:100160008B4201D3CB00C01A524183088B4201D38A
:100170008B00C01A524143088B4201D34B00C01A76
:100180005241411A00D20146524110467047FFE7E2
:1001900001B5002000F006F802BDC0460029F7D0E6
:1001A00076E770477047C0468446101C62468C460E
:1001B000191C634600E0C0461FB500F0F1F90028A5
:1001C00001D40021C8421FBD10B500F049F94042DA
:1001D000013010BD10B500F0E3F9002801DB00206C
:1001E00010BD012010BDC04610B500F0D9F900289F
:1001F00001DD002010BD012010BDC04610B500F08B
:100200006BF9002801DC002010BD012010BDC046A4
:1002100010B500F061F9002801DA002010BD0120BE
:1002200010BDC0461C2101231B04984201D3000CC1
:1002300010391B0A984201D3000A08391B09984259
:1002400001D30009043902A2105C40187047C0466F
:10025000040302020101010100000000000000008F
:10026000002B11D1002A0FD1002900D1002802D083
:100270000021C943081C07B4024802A1401802909B
:1002800003BDC04621FFFFFF03B4684601B50298D5
:1002900000F024F8019B9E4602B00CBC7047C0469B
:1002A00070B500220C4B04000D00FFF7B1FF0028D1
:1002B00004D12000290000F095FF70BD064B0022FC
:1002C0002000290000F046FC00F08CFF80231B0674
:1002D0009C466044F1E7C0460000E041F0B54F465F
:1002E0004646D646C0B5040082B00D0091469846F9
:1002F0008B422FD82CD04146484600F0E3FF29001E
:100300000600200000F0DEFF331A9C46203B9A4690
:1003100000D576E04B46524693401F004B4662465E
:1003200093401E00AF4228D825D05346A41BBD41A0
:10033000002B00DA7BE000220023009201930123CE
:10034000524693400193012362469340009318E084
:100350008242D0D900220023009201930A9B002BF5
:1003600001D01C605D600098019902B01CBC9046F1
:100370009946A246F0BDA342D7D90022002300929D
:1003800001936346002BE9D0FB079846414672086B
:100390000A437B0866460EE0AB4201D1A2420CD86C
:1003A000A41A9D41012024196D410021013E241809
:1003B0004D41002E06D0AB42EED9013E24196D41CD
:1003C000002EF8D100980199534600196941002B7D
:1003D00023DB2B005246D3402A006446E2401C0037
:1003E00053461500002B2DDB26005746BE40330038
:1003F00026006746BE403200801A99410090019164
:10040000ACE7624620239B1A4A46DA406146130055
:1004100042468A4017001F4380E7624620239B1A0A
:100420002A0066469A402300F3401343D4E762460D
:10043000202300219B1A0022009101920122DA4020
:10044000019280E72023624626009B1ADE402F009F
:10045000B0466646B74046463B003343C8E7C04611
:10046000F0B54F464646D6468446C0B58046194E3E
:1004700018030F034D00000B5C0082463F0B6D0D0F
:10048000C90F9146640DDB0F0120B5420AD0B4427A
:1004900003D0A54201D157450CD01CBC90469946CB
:1004A000A246F0BD66463E43F7D1AC42F5D1544674
:1004B0001443F2D10120C845EFD1994207D0002D55
:1004C000EBD163461F433800471EB841E5E70020E3
:1004D000E3E7C046FF070000F0B54F464646D64664
:1004E0004D00C0B50E03C90F8A462C491F035C009E
:1004F0008046360B6D0D91463F0B640DDB0F8D4230
:100500001ED08C4216D0002D1ED130438446002CC4
:1005100001D13A4323D06246002A1AD09A4529D005
:10052000514602200139084001381CBC90469946CA
:10053000A246F0BD39001143E5D002204042F4E765
:100540003043FAD1AC420FD0002C0FD13A43E7D060
:100550000CE00122013B934318000130E5E76346BC
:100560000020002BE1D0DBE73A43E6D19A45D7D112
:10057000A542D5DCA54205DBBE42D1D808D000207B
:10058000BE42D2D250460123013898430130CCE715
:10059000C845C5D80020C845F4D3C6E7FF0700000A
:1005A000F0B54F464646D6464D00C0B50E03C90FBE
:1005B0008A462E491F035C008046360B6D0D91461E
:1005C0003F0B640DDB0F8D4218D08C4211D0002DF3
:1005D00018D130438446002C1ED13A431CD16346C7
:1005E0000020002B30D0514602200139084001384C
:1005F0002AE039001143EAD0022025E03043FBD144
:10060000AC4226D0002C26D13A4324D151460220B8
:1006100001390840013817E06246002A0FD09A4598
:10062000E1D1A54205DBBE42DDD819D00020BE4293
:100630000AD25046012301389843013004E00122D8
:10064000013B9343180001301CBC90469946A246DA
:10065000F0BD3A43D0D19A45C5D1A542C3DCE0E70D
:10066000C845C0D80020C845E3D3EDE7FF07000028
:10067000F0B55746DE464E464546E0B58346060091
:100680000F03480087B092461D003F0B400DCC0F72
:10069000002800D16FE0DE4B984238D08023FF0065
:1006A0001B041F43730F3B430193DA4B002799460A
:1006B00000239B46F60081442B0369001B0B524626
:1006C0009846490DED0F002900D185E0D04B9942A5
:1006D00000D173E04346DA0080231B0413435246E3
:1006E000CC48520F84461343524600206144D20046
:1006F00089442100694000918C46012149448A4681
:100700000F2F00D990E0C449BF00CF59BF465B46C8
:100710003B43019300D06AE102230827002681466B
:100720009B46C9E732005846019B6146009102286A
:1007300000D175E0032800D1FEE1012800D02CE1B2
:1007400000230027002600253F032A0D3F0BB34856
:1007500012053A4302401B051343009A5B00D10780
:100760005B080B433000190007B03CBC904699462B
:10077000A246AB46F0BD5B463B43019300D12FE15F
:10078000002F00D1A5E13800FFF74CFD03000B3B23
:100790001C2B00DD96E11D22D31A5A460100DA40D7
:1007A0005E4608398F4013008E403B4301939C4BBB
:1007B00000271B1A994600239B467DE74146534676
:1007C0000B4393498C46E144002B00D01AE10222EE
:1007D0000220174300228CE7134300D10DE143466A
:1007E000002B00D181E14046FFF71CFD02000B3ACF
:1007F0001C2A00DD72E10100434608398B4098460F
:100800001D239A1A5346D3401A00434613435246B7
:100810008A404946081A824989468144002068E78F
:100820007B4B002700268EE7140C1204120C1100DB
:10083000370C3604350C794328008C462E00604373
:100840006044834656432100300C80465846794325
:1008500040440291844506D98846802149028C464D
:10086000E044414602913604010C360C00048B46EC
:1008700081191E0C1B041B0C0391190079438C4633
:10088000280075436544A8465843050C4544774302
:10089000A94203D9802149028C466744290C8C4621
:1008A00039000004000C2D042D186144AB4405915F
:1008B0005946049101990F043F0C080C390051432B
:1008C0004243904602008C46090C8B4662437C43AF
:1008D00044445C44A04503D98021490288464244EF
:1008E000210C884661460904090C8C46390059439D
:1008F000434370437E430F0CF6182404BE1964442E
:1009000042448C46B34203D980235B02984640445C
:10091000029B61469846049B370443449B46AB4583
:10092000AD416B420D0405992D0C8C467F1967442F
:10093000FD18A8465D462D19A542A4419346644280
:10094000A446C344DC448F42BF4198459B41934534
:100950009241A445A4415B427F421F43360C524260
:100960006442BF192243BF18624638184302D20DB1
:10097000039913436A020A43501E82416146ED0DFA
:100980002A434E023243D90100D4B3E00126500875
:1009900032400243DE0732435B08224C5444002CB1
:1009A00062DD510709D00F201040042805D0101D2A
:1009B0009042924152429B180200D90104D58024F2
:1009C0001948E400034054441848844200DD27E7F6
:1009D0005E075B02D2081F0B630516435B0DB2E690
:1009E000002399460133042700269B4664E603232F
:1009F000019781460C279B465EE6012201201743A2
:100A0000002276E6032303201F43434671E6C046D7
:100A1000FF07000001FCFFFF1C920000FFFF0F809A
:100A20000DFCFFFFFF030000FFFFFFFEFE070000BD
:100A30000023802700933F030026434B83E6019B5E
:100A40003200A446584670E6AC466EE6802701990F
:100A50003F0339422DD03B422BD11F433F033F0B75
:100A600000951600384B6EE601252D1B382D00DD54
:100A700066E61F2D40DC35481C00504416008240BD
:100A80008440EE40501E824134431443EB406207E1
:100A900009D00F222240042A05D02200141D9442BE
:100AA000804140421B181A023ED501230027002630
:100AB00049E68027019B3F031F433F033F0B009400
:100AC000214B40E603005A46283B9A4000260192FB
:100AD0006DE65846FFF7A6FB203057E60300524666
:100AE000283B9A401300002293E65046FFF79AFBFA
:100AF00020307BE6CA4650E71F201E004042041B00
:100B0000E640202D03D0124C5444A3401A43501EFB
:100B10008241324307260027164009D00F200023C8
:100B2000104014000428B9D122005E075B021F0B9D
:100B3000D2081643002306E680273F031F433F03E6
:100B40003F0B1600004BFEE5FF0700001E040000EF
:100B50003E040000F8B557464E464546DE460C00BA
:100B60000903E0B5490A460F5F0031431E03DB0F5E
:100B7000760A9B46530F3343C84E6500C000E40F0E
:100B8000D2006D0DA24681467F0D9C469046B7422D
:100B900000D1B9E05B46012673409B46EE1BA3459E
:100BA00000D183E0002E63DD002F00D0B1E063466A
:100BB000134300D123E1731E002B00D0BAE1861A43
:100BC0006346B04280410125C91A4042091A0B020E
:100BD00000D447E149024B0A98464346002B00D116
:100BE00089E14046FFF71EFB0300083B1F2B00DD99
:100BF0007CE120223000D21A4146D04099400200C8
:100C00009E400A439D4200DD6AE15D1B6B1C1F2B69
:100C100000DD94E1202110003500C91A8E40DA4031
:100C20008840DD40711E8E411100072228430025B7
:100C300006433240002A09D00F233340042B05D04D
:100C4000331DB342B641764289191E000B0200D40F
:100C50003DE26A1C914B55056D0D9A4200D119E198
:100C60008F4AF6080A40570752023743120B9BE09F
:100C7000002E00D0C5E06E1C7605760D012E00DC3E
:100C800048E16746861ACB1BB042BF417F42B84657
:100C90001F004346FF1A3B00B8461B0200D55FE128
:100CA00037439AD100220024002579E0002E00DC91
:100CB000FAE0002F00D18DE0784B9D4267D0802371
:100CC00067461B041F43BC46382E00DC52E16346D6
:100CD00013435A1E93411E18864280414042091810
:100CE0000B0200D4BEE06D4B01359D4200D1D2E035
:100CF0006B4A73080A4001210E401E435108D30776
:100D000007221E43324095E71E00164300D045E7F8
:100D100040E7624B9D423AD0802367461B041F4345
:100D2000BC46382E00DDEBE01F2E00DC3AE133003C
:100D30006746203BDF403B00202E05D04027BF1BED
:100D40006646BE40324390464646721E9641334345
:100D5000DAE0002B00D114E26346134300D168E1CE
:100D600080234E07C008C9081B030643194208D058
:100D70006046C008184204D163460100D2085E07ED
:100D80001643F3009946C900720F444D11434B4678
:100D9000DE08424B4F073743CA089D4200D16EE040
:100DA00012036D05120B6D0D00211203130B0A0DBA
:100DB00012051A433B4B2D0513402B435B00E40700
:100DC0005B082343380019003CBC90469946A24674
:100DD000AB46F8BD6346134311D0731E002B00D001
:100DE00007E1861886428041614440420918012586
:100DF0000B0237D502257BE73E0061469146350060
:100E0000C5E75C46002D00D0E1E00B000343F3D0C2
:100E1000731C00D1ACE1214B9F4200D13AE1F34376
:100E2000382B00DD6FE11F2B00DD8CE120250E004B
:100E3000ED1AAE40B0460600AA46DE4045463543B0
:100E40002E005546D940A8406346451EA8415B1A6E
:100E50009C463043161AB242924163465242991A56
:100E60003D00B4E607223240002A00D0E4E60B4BF6
:100E7000F6084F073743CA089D4200D090E73B0071
:100E8000134300D1A6E180231B031A431203120B64
:100E9000024D89E715000022002785E7FF070000C3
:100EA000FFFF7FFFFFFF0F80002E00D0C7E06B1C0D
:100EB0005E05760D012E00DCF0E0C84DAB4200D19E
:100EC000B9E085180A0085428941624449425118B7
:100ED0000722CE076D082E43490832401D00A9E6BF
:100EE000BF49ED1A114007223240A3E632002838EC
:100EF0008240002686E63000FFF794F9203073E642
:100F0000634613435A1E9341C61AB0428041404281
:100F1000091A5CE60E00674606431743002D5ED1B2
:100F2000002E00D0F3E0002F00D11EE15C466146A8
:100F300091462CE7A94FBE427BD01E00F1E610007F
:100F40001F3DE840202B03D04021CB1A9A40164386
:100F5000731E9E410722064332400021002583E78D
:100F6000161A6346B2428041591A40420B1A9846FB
:100F70005C4632E61F2E00DDABE02027BB1B9A4605
:100F800063465746BB40994613004F46F3401F4304
:100F90003B005746BA40571EBA4113436246F240DF
:100FA000891898E62027BB1B9A4663465746BB40E4
:100FB000994613004F46F3401F433B005746BA4043
:100FC000571EBA4113436246F240891A9CE7834B8D
:100FD0009F425FD080252D047342294320E7002ED5
:100FE0000CD1002F00D1D0E05C46614691467B4D8C
:100FF000CDE67A4FBE421CD01E0065E6002F18D009
:10100000C0084E0706438020C9080003014208D0EB
:101010006346DC08044204D12100DA46D2085E07A8
:101020001643F300994601245346C900720F114339
:101030001C406A4DABE61D0000220027B4E6002DDF
:1010400059D10B00034300D1D6E6731C00D1B2E0A6
:10105000624B9F421ED0F343382B6FDC1F2B00DD09
:1010600097E020250E00ED1AAE40B0460600AA46D5
:10107000DE40454635432E005546A840D940451E22
:10108000A8418C440643B6189642924151426144AD
:101090003D0025E63D006146914678E60B0003439E
:1010A000002D00D055E6002BF5D06346134300D148
:1010B0006DE686188642804161444042091800224C
:1010C0000B0200D4D0E6464B01351940B2E5B146DB
:1010D0005DE633006746203BDF403B00202E05D015
:1010E0004027BF1B6646BE40324390464646721EAE
:1010F00096413343EFE5394B9F42CBD080252D04F9
:1011000073422943A8E70843411E8841A2E6002F05
:1011100000D13CE66346861ACF1AB0429B415B423F
:10112000FB1A98461B024ED5161A6346B2429241EC
:10113000591A5242891A5C4600227BE501430E008F
:10114000711E8E419FE71D000E00203DEE40B0460F
:10115000202B04D04025EB1A99400843814648468D
:101160004346411E8841184374E60022002417E6D6
:10117000161A6346B2429241591A5242891A3D00E8
:1011800025E561469146154D01E6802200241203B3
:1011900079E61D000E00203DEE40B046202B04D025
:1011A0004025EB1A9940084381464E464346711E3E
:1011B0008E411E4367E7861896429B4161445B421D
:1011C000C9183D008CE547463743CED0072241463B
:1011D000324049E600273A00E6E5C046FF07000036
:1011E000FFFF7FFF30B5144D0A034B00120B5B0D60
:1011F000C90F0024AB4211DD104CA34210DC802447
:10120000640322430E4CE41A1F2C0CDD0D48C31A54
:10121000DA4013005C42002900D11C00200030BDE0
:10122000094BCC18FAE7094DE040AC4663449A40BC
:1012300013000343EEE7C046FE0300001D04000058
:101240003304000013040000FFFFFF7FEDFBFFFFEE
:1012500070B500282DD0C317C5185D40C40F2800F5
:10126000FEF7E0FF154B1B1A5B055B0D0A2815DD29
:101270000B38854000222D032D0B002110002D037B
:101280000A0D2D0B12052A430D4D1B052A40134351
:101290005B00E4075B082343190070BD02002900CE
:1012A000153291400A000B21081AC5402D032D0B61
:1012B000E3E70024002300250022DEE71E040000EF
:1012C000FFFF0F8010B5002903D1FEF7ABFF2030E0
:1012D00002E0081CFEF7A6FF10BDC0460023C25C5A
:1012E0000133002AFBD1581E7047000010B588B0AA
:1012F00000F0C2FC03A803F0C9FF012302A903A860
:10130000029303F0D7FF0121040003A803F0CAFFF2
:1013100080210443C90003A803F0D6FF044300D092
:10132000FEE70023064A03A901A803F0D1FF041E2B
:1013300000D0FEE701F0BCFB200008B010BDC046A5
:10134000C51B0000F0B5DE46574645464E46E0B5A3
:10135000A1B00AAE80460B220021300007F0BDFB91
:1013600040230424102233700021CC3312A8738050
:1013700007F0B3FB00210B201094119604F056FCEB
:1013800010A9404605F08EF901210B2004F04EFC17
:10139000072200210BA807F0A0FBF44B10220A93B0
:1013A0008823002112A8337107F097FB0523002141
:1013B0000B201093119604F039FC10A9404605F05B
:1013C00071F901210B2004F031FC072200210BA848
:1013D00007F083FBE64B1022002112A80A9307F0C6
:1013E0007CFB00210B201094119604F01FFC10A927
:1013F000404605F057F901210B2004F017FCA0230B
:101400005B009B46393BFF3B9A46042707AD02A889
:1014100084461623634418000922002107F05DFB6F
:101420000B220021300007F058FB5B462B8053460F
:101430000C22002113A8AB7007F04FFB00210B20FA
:1014400010971195129604F0F1FB10A9404605F093
:1014500029F9012104000B2004F0E8FB002CD6D070
:10146000F378002BD3D102AB9C46262005226044A2
:10147000002107F032FBBF4B10220A93D4235B00FC
:10148000B380453BFF3B002112A8B37107F025FB59
:10149000072300210B201093119604F0C7FB10A91D
:1014A000404605F0FFF801210B2004F0BFFB0722A6
:1014B00000210BA807F011FBAF4B10220A937023F9
:1014C000002112A8337107F008FB052300210B202F
:1014D0001093119604F0AAFB10A9404605F0E2F81B
:1014E00001210B2004F0A2FB072200210BA807F02A
:1014F000F4FAA24B1022002112A80A9307F0EDFA89
:1015000000210B201097119604F090FB10A9404683
:1015100005F0C8F801210B2004F088FBA0235B0034
:101520009B46393BFF3B9A46042702A88446162374
:10153000634418000922002107F0CFFA0B22002192
:10154000300007F0CAFA5B462B8053460C2200217C
:1015500013A8AB7007F0C1FA00210B20109711956A
:10156000129604F063FB10A9404605F09BF8012198
:1015700004000B2004F05AFB002CD6D0F378002B8B
:10158000D3D1D0239B009B46042308279A4602A868
:1015900084461623634418000922002107F09DFAAF
:1015A0000B220021300007F098FA5B460C22002144
:1015B00013A82B80AF7007F090FA534600210B2040
:1015C00010931195129604F031FB10A9404605F0D6
:1015D00069F8012104000B2004F028FB002CD6D070
:1015E000F378172BD3D1664A10A81368591C1160E1
:1015F000644A402107F0ECFA634B0022186810ABF4
:1016000000930021614B04F08BF802A884460A2362
:10161000634418000922002107F05FFA0B22002121
:10162000280007F05AFA912302AA9B0113819772AE
:1016300000210C220DA807F050FA05230021336089
:101640000B2004AB7360B56004F0F0FA3100404643
:1016500005F028F8012104000B2004F0E7FA002C23
:1016600003D0EB7899462B7903934B461F02039BDB
:10167000474A1F43BBB203935B055B0D9C18454A69
:10168000A4B2944663449BB2994614239B46103BF4
:101690009A4610AF0722002108A807F01EFA230A75
:1016A0002B705B46AB703B78102200210CA86C704D
:1016B000EB7007F012FA534600210B20336075607F
:1016C000013404F0B3FA3100404604F0EBFFA4B259
:1016D00001210B2004F0AAFA0137A145DAD1072233
:1016E000002108A8039C07F0F8F991239B012B80A7
:1016F0000C233F34A4B21022AB700021230A0CA8A3
:10170000EB702C7107F0E9F9052300210B20336001
:10171000756004F08BFA3100404604F0C3FF0121EC
:101720000B2004F083FA0722002108A807F0D5F95E
:10173000194B102200210CA8079307F0CEF953464D
:1017400000210B203360756004F070FA31004046D0
:1017500004F0A8FF01210B2004F068FAA0235B002D
:101760009A46393BFF3B9946042717E040040C1387
:1017700040010C01400C0CC040100C1740010C043F
:1017800090050020C8930000940500200C930000F1
:101790000080FFFF3F80FFFF40010C2002A884462D
:1017A0000A23634418000922002107F096F90B224E
:1017B0000021280007F091F9524602AB1A814A46EF
:1017C00000219A720DA80C2207F087F904AB0021C2
:1017D0000B2073603760B56004F028FA3100404692
:1017E00004F060FF012104000B2004F01FFA002C1C
:1017F000D4D0EB78002BD1D121B03CBC9046994697
:10180000A246AB46F0BDC046F0B5DE46574645465B
:101810004E46E0B59DB014AB9B46DE4B08AD9A46F4
:101820000BAC9DE15046DC4B00220021006803F028
:1018300077FF0B220021280007F04FF90B2200212F
:10184000200007F04AF939230C22002111A86B70FF
:1018500007F043F9042300210B200E930F951094F9
:1018600004F0E4F90EA9300004F01CFF0121070088
:101870000B2004F0DBF9002F08D05046E37800225B
:1018800000930021C54B006803F04AFF09270B2293
:101890000021280007F021F90B220021200007F089
:1018A0001CF90C22002111A86F7007F016F9002115
:1018B0000B200E970F95109404F0B8F90EA9300084
:1018C00004F0F0FE012107000B2004F0AFF9002F17
:1018D00014D0E378A0799846237A22796179E77960
:1018E000059343460390504602910192009304975A
:1018F000AB4B00220021006803F012FF0B220021F5
:10190000280007F0EAF80B220021200007F0E5F894
:101910000F230C22002111A86B7007F0DEF80723BB
:1019200000210B200E930F95109404F07FF90EA95F
:10193000300004F0B7FE012107000B2004F076F917
:10194000002F0ED0A079E378227961790390504678
:101950000291019200930022924B0021006803F053
:10196000DFFE0B220021280007F0B7F80B22002130
:10197000200007F0B2F82E230C22002111A86B7072
:1019800007F0ABF8042300210B200E930F95109461
:1019900004F04CF90EA9300004F084FE0121070088
:1019A0000B2004F043F9002F0DD05246E378106865
:1019B0007D4AD90700D47D4A0192009300227C4BD6
:1019C000002103F0ADFE02A884461A2363441800E8
:1019D0000922002107F081F80B220021200007F0E6
:1019E0007CF8D0239B002B8008230C22002111A817
:1019F000AB7007F072F8042300210B200E930F95B3
:101A0000109404F013F90EA9300004F04BFE0121EC
:101A100007000B2004F00AF9002F01D0E3780793A8
:101A20005046079B002200930021624B006803F0A0
:101A300077FE0B220021200007F04FF80423A82294
:101A400001279846A370C02322710021983A10A85C
:101A5000E37067706771A77107F03FF807210B20EB
:101A600089460E9100210F9404F0E0F80EA9300091
:101A700004F018FE01210B2004F0D8F80B220021FD
:101A8000200007F02AF80523414610226370A17058
:101A9000FA33002110A8E3702371637107F01DF879
:101AA00049460B200E9100210F9404F0BFF80EA9B7
:101AB000300004F0F7FD01210B2004F0B7F80B22F1
:101AC0000021200007F009F8092140463A4B6170D7
:101AD000A0700C9333231022002110A8237206F06B
:101AE000FCFF09210B200E9100210F9404F09EF8B9
:101AF0000EA9300004F0D6FD01210B2004F096F869
:101B00000B220021200006F0E8FF0F2341466370FE
:101B1000A822B133E3703223A17022710021983AD8
:101B200010A8A371677106F0D8FF4B4600210B2067
:101B30000E930F9404F07AF80EA9300004F0B2FD71
:101B400001210B2004F072F8012003F0ABFC3000FF
:101B5000FFF7F8FB300004F04FFD012003F0A2FC7A
:101B6000584604F093FD5B4608225A6100221A761B
:101B7000124A594600201A6104F068FD061E00D082
:101B800050E653460022186800210D4B03F0C8FDB3
:101B9000FEE7C0469405002094920000B092000039
:101BA000C8920000EC9200005C9200006492000079
:101BB000FC9200001093000008DC112240420F004C
:101BC0007092000010B588B003F0BCFD03F02EFF4A
:101BD00004F018FD80210E20890503F0B9FF802153
:101BE0000F20890503F0B4FF80200021C00503F019
:101BF00063FD1C4C2060002819D001210E2004F048
:101C000015F8194B00220021206803F089FD0021FE
:101C10002068164B002203F083FD03A803F036FB77
:101C2000012103A803F03EFB002801D0FEE7FEE7F8
:101C3000802103A8C90003F047FB041E00D0FEE783
:101C4000012302A903A8029303F034FB2300084AEE
:101C500003A901A803F03CFB002800D0FEE708B070
:101C600010BDC0469405002020930000449300005E
:101C7000091800007047C04670B504F05FFA04F020
:101C8000C1FB01212F4A07241368B9260B431360B7
:101C900003F0CCFE03F032FE2B49062003F058FF80
:101CA0000021062003F0C2FF012006F0DDFC012127
:101CB000062003F0BBFF8C20800006F0D5FC2249F3
:101CC000062003F045FF2149122003F041FF1F4980
:101CD0000D2003F03DFF1E490C2003F039FF0021C9
:101CE000062003F0A3FF01250021122003F09EFF30
:101CF000310021410D20294003F098FF12200121DD
:101D000003F094FF082006F0AFFC013CECD2002168
:101D1000122003F08BFF0121062003F087FFAF2084
:101D2000800006F0A1FC062003F038FE122003F02C
:101D300035FE0D2003F032FE0C2003F02FFEFFF7DE
:101D400099FF70BD14000040010400200004002031
:101D500002200460F0B5384B384C1E6823688C466E
:101D60009D68DF685A69AF60DF6851687D601D1D3E
:101D7000A94258D000255D611368013B13601368C8
:101D8000431C39D0236830185860864217D92C4B31
:101D90001D6820682A004168041D08324B1C01D1CF
:101DA00043E01A0053681E68B142FAD283609C6017
:101DB0002B68C2600133546045612B60F0BD214B3C
:101DC0001D6824682A006168261D08324B1C01D159
:101DD0002EE01A0053681F68B942FAD2A3609E60D1
:101DE0002B68E2600133566065612B60164B1A6800
:101DF0008242E3D91860E1E76346002BC2D0134B5F
:101E000021685A688A6090682168C8602168906873
:101E100004314160216804319160226853611A687D
:101E200001321A60CAE75760A4E72A695368BDE720
:101E30002A695368D2E7C046D8320020DC0A002065
:101E4000EC0A0020E40A00202C320020B0320020EE
:101E500010B5114A00E01A0013688342FBD35168A1
:101E60005418A04213D041684418A34204D0036020
:101E7000904200D0106010BD084C2468A342F6D0F8
:101E80005C681B68A446614441600360F0E74068F9
:101E9000091851601000E7E758320020E80A0020D6
:101EA00002480068854603F043F900000000000086
:101EB00072B6FEE7074B10B55A68FF231340064A77
:101EC0009B009B58002B04D098685B68984703F0F0
:101ED0004BFB10BD00ED00E0FC090020F0B5D6463C
:101EE0004F464646C0B5040003F04AFB744A1368E7
:101EF00001331360734B99461B68002B37D0724E29
:101F0000E06A3368002B2AD0704A714B196801319E
:101F10001960704B61641968814200D218608300B7
:101F20001B189B00D71879688868A160E0608D68ED
:101F3000201D68608860D15867610131D15003F07D
:101F40002BFB3368002B05D04B461B68DA6AE36A2B
:101F50009A4215D31CBC90469946A246F0BD4B460A
:101F60001B68DB6A8342CFD84B461C60CCE74946EE
:101F70000C601268E06A012A05D0544A524EC4E748
:101F800003F0F2FAE6E7514A0121160008365660DE
:101F9000D660166116001C369661166256621600EF
:101FA0003036D662566396631600443616649664DD
:101FB000D664160058365665D665166616006C3619
:101FC000966616675667160080274942803613606A
:101FD00091605361D16193621163D363516413655E
:101FE0009165D1665366D667D1510437D65104370F
:101FF000D651160008379436D6510437D1510437DC
:10200000D6510437D6518C26936793511600083762
:10201000A836D6510437D1510437D6510437D6519A
:10202000A026935116000837BC36D6510437D1513B
:10203000294D0437D6510437AA46D6510825B4266F
:10204000264F9351AC463E00D444083665467E6028
:10205000FE603E61564675606546F5603561204D0F
:102060003B60AC4608256544A846B16065463360D0
:102070004646B9606E60A9602B60EE602E61194D16
:10208000AC4608256544A846654646462B606E600A
:10209000A960EE602E61144DAC4608256544A84643
:1020A00065464646A96061460B60CE600E615146AA
:1020B0000E4B6E601F600E4B034E196025E7C04645
:1020C000FC2C0020DC0A002054320020F40A0020FE
:1020D000082F00200C3100204C3100203831002026
:1020E00040320020C4320020B0320020E40A002038
:1020F000EC0A0020F8B50122DE4657464E4645461A
:102100004E4BE0B51A604E4B5B68DB0500D18DE0AD
:10211000EFF3108182F310884A4B1F684A4B9946AF
:1021200001234A461370494B9B4600235A461370BD
:10213000474B1E689A46424BBF1B5B68DB0500D1CC
:1021400071E081F31088434B002598464346761989
:102150007F1B01251C686D42002C0BD118E0237DEC
:10216000002B04D0E3689B1B9D4200D91D0024680E
:10217000002C0DD0237D002BF9D0E3689E42EED1D8
:102180002369E069002B46D12375A3699847E6E7E8
:10219000AF42DBD22A4B5B68DB0540D0EFF3108403
:1021A000012383F310885B461B78002B13D0434632
:1021B0001B68002B12D001256D421A7D002A07D022
:1021C0001A7D002A04D0DA68921B954200D91500C6
:1021D0001B68002BF1D1204B9D4200D91E4D0122DE
:1021E0001E4B20201A6006F023FB1D4BAD191D600D
:1021F00053464A461D60002313701A4B1E60104B55
:102200005B68DB0516D084F310883CBC9046994689
:10221000A246AB46F8BDE2689B18E360B5E703F061
:10222000AFF90024BFE703F0B7F98CE703F0A8F992
:10223000002171E703F0B0F9E7E7C04654200240FF
:1022400000ED00E004210240E4090020F409002030
:10225000F0090020E8090020FFFFBFFF48210240ED
:1022600020210240F8090020F0B5DE4657464E46D0
:102270004546E0B58DB0002A00D14BE10193002323
:1022800007009B460D0016003378002B0DD0252B40
:1022900016D0012D02D93B70013D013701239C4628
:1022A00001363378E344002BF1D1002F00D03B708E
:1022B00058460DB03CBC90469946A246AB46F0BD90
:1022C00073782D2B00D1F8E00022B11C029200227D
:1022D0004E1C9046302B05D18A1C0B78310016001D
:1022E000012290462A2B4DD0002292461A00303A05
:1022F000092A00D9F3E11A00504600E031008300BA
:102300001B185B009B180A78303B18001300303B09
:102310004E1C092BF2D98246019813008A1C2E2BE1
:102320003FD00121494289464146002900D0D0468C
:1023300020211C008C434C2C01D133781600642BD7
:102340004ED0692B4CD0752B00D1C2E1782B00D137
:10235000C2E16F2B00D1F4E0702B00D1D6E1632BEA
:1023600000D1AFE0732B00D1BFE1662B00D118E1A3
:10237000012D02D93B70013D013701239C4601909C
:10238000E34481E7019B721C181D1B689A460B7879
:1023900051460029C3DA49428A46012102912E2B77
:1023A000BFD133782A2B00D1B7E00021894619002C
:1023B0003039092900D9D3E119004C4600E0320038
:1023C000A3001B195B005B181178303B1C000B004D
:1023D000303B561C092BF2D90B00A1460232A3E771
:1023E0004A46031D019303920368424560DB002BBC
:1023F00000DA9EE098460023049300232A009946C1
:1024000033000CAC25004E464446994690462000C9
:102410000A21FDF7C3FED44B013D5B5C20002B700D
:102420000A21FDF735FE0136041EF0D14B46B146B8
:102430001E00039B2C004546994509DA4A469A1A24
:10244000A01A302106F049FB4A46039BD31AE41830
:10245000049B002B01D0013C23700CAB1A1B511EB6
:102460005346981A029B9C46002B3AD0002A12D061
:1024700063180133012D03D92278013D3A700137E9
:102480000134A342F6D15B468B4601339B4463463D
:10249000002B00D1F8E6431E00D5F5E62022012DE1
:1024A00002D93A70013D0137013BF8D28344EBE693
:1024B00042460392002B9DDA3BE00122F11CB378E7
:1024C000029204E7031D01930368504608AA1370A3
:1024D000029B01389C46002108AC002BC8D1140097
:1024E00001220300013B984600D5FCE020239146E1
:1024F0009C464346012D03D96246013D3A7001379F
:10250000013BF7D283444A46180000239C46002A28
:10251000AED1B9E600239B46CAE60368043099466B
:10252000DB434A46DB171A4091467378F21C0236A9
:10253000FAE65B429846039B013B03932D230493E9
:102540005BE7673B1900031D01930068C14500DA92
:10255000C14600232A009846834B039745460496BC
:102560001F000E0090460CAC3100FDF717FE7B5C9F
:10257000013C237001350028F6D14346A846039F4D
:10258000049E1D00C14500DC67E74B4642469A1A8F
:10259000A01A302106F0A1FA43464A469B1AE418D5
:1025A0005BE75F3B0730984301339C4684446346B6
:1025B000019303684468994600220023484621009D
:1025C000FDF708FE002800D0D4E000230793210087
:1025D0004846FEF707FE0490FEF73AFE02000B00A5
:1025E00048462100FEF7B6FA0022604BFEF740F89D
:1025F000FDF756FE00235C490CAA059706960400D9
:1026000003911F00A946160001E01F002E002000C4
:102610000A21FDF7C3FD039B751E5B5C20002B7038
:102620000A21FDF735FD7B1C041EEED14A46300021
:102630003900A946059F069E1500032B0CDC3023AC
:10264000841E2370022906D0C41E2370002902D1E3
:102650000400043C2370A1464C462E234246013C14
:102660002370049B059799460CAB1B1BD31A04934C
:102670000023984633004646A84625004C46994616
:10268000039F20000A21FDF789FD7B5C013D2000AE
:102690002B700A21FDF7FCFC0136041EF1D12C0041
:1026A0004546B046049B059F4E46434509DD4246DC
:1026B0009A1AA01A302106F010FA4246049BD31A47
:1026C000E418079B002B00D1C7E62D23013C2370A3
:1026D000C3E60A23190036E71023190033E7320056
:1026E00001980E001BE640460FE70468031D0193A6
:1026F000002C32D02000FEF7F1FD02004B460133E2
:1027000002D04A4500DD4A46511EA9E6031D019349
:1027100003681548AC4600220F2105000CAC0800E8
:102720001840285C013C20701B090132002BF6D1B7
:10273000904665461300072A08DC0822D21AA01A20
:10274000302106F0CAF94346083BE4184023013C17
:1027500023700CAB1A1B511E82E60622044CCDE7F7
:1027600016000132E0E5C046309500000088C34005
:102770002895000080231B069C4601235B4264448D
:102780009C460233E044079321E7C0460122002122
:10279000F8B52D4B1C682D4B1A602D4B19602D4B35
:1027A0001A602D4B5B68DB053FD0EFF3108182F39D
:1027B00010882A4B2A4A5A6000229A60264B5B688E
:1027C000DB053DD081F3108801261B21254805F04B
:1027D00055FF254B25481E6003F02AF8244B254A57
:1027E0001C60254B254D9C4600231370244A6444ED
:1027F0001370244B2C601E70174B5B68DB0518D0E0
:10280000EFF3108786F3108801221F4B2C682020DD
:102810001A6006F00DF81D4B1C600F4B2C605B68B6
:10282000DB050AD087F31088F8BD02F0A9FE00216D
:10283000BFE702F0A5FE0027E6E702F0ADFEF3E7F2
:1028400002F0AAFEC0E7C046042102405420024024
:102850000C2102406020024000ED00E0F433002033
:10286000F52000004404000058200240E809002040
:10287000F8090020E4090020FFFFBFFFF009002055
:10288000F4090020E50900204821024020210240EF
:10289000F0B5DE4657464E4645464D4BE0B51A6804
:1028A00083B0013294461A60002A00D174E0494F87
:1028B0003B689C450FD200230093474B1B68002BBD
:1028C00001D001230093009803B03CBC9046994688
:1028D000A246AB46F0BD0023009399463F4B404EC5
:1028E0009A46404B404D9B46019733681B68002B2E
:1028F0004AD03368DB68DB685A6894455ED39968D0
:10290000D8685A698860DC68181D61605168814226
:102910003ED0494659611168013911609A6A002A0E
:102920000ED0D9691C6A57688C601C6A61601900F6
:1029300018318F422ED049469962116801391160D1
:102940005146DA6A09688A4201D951460A60910003
:102950008918890088466C1861688F689960DF6003
:102960008F68786088605C6143464146EB5801336C
:102970006B505B461B68DB6A9A42B6D90123009311
:1029800033681B68002BB4D1019F013B3B6094E787
:102990005460BEE75460CEE7114E144B326819689C
:1029A00031601A60124A13680133136033681B6880
:1029B000002B06D1074F013B3B6079E7019F3A604E
:1029C0007BE73368034FDB681B683B6070E7C046FA
:1029D000D83200202C320020A43300200C310020FB
:1029E000E40A0020DC0A0020F40A0020EC0A00209F
:1029F00030320020F8B502F0C3FD264E3568002DB8
:102A000002D002F0C9FDF8BD234A012713000833A4
:102A10005360D3601361214B7F4219000831596024
:102A2000D96019611E4915600A6097601D4A9F6050
:102A300013601D60012246231B4CE2541B4B236094
:102A40001423E363043B236402F09AFD216CE36BDF
:102A500022684B43D0185B1AD318E36044236260AA
:102A6000FF22A563E7540133E25423001833636166
:102A7000E361236223002C332561A3622363636334
:102A8000A060A761E762656202F086FD4C233460B6
:102A9000E554B6E7DC32002010310020243100205C
:102AA000E00A0020F00A002060320020BC2B002049
:102AB000F8B5DE4657464E4645464B4CE0B5C0227B
:102AC0000021200006F009F8BD239946BB3B9A4639
:102AD0004B465246E2548022444D92002563A52184
:102AE000280005F0FAFF0723FD35FF359D43984682
:102AF0003F4BAB4625646363002538233F27200006
:102B0000E5542E3BA36160220021E55524616462F7
:102B1000583005F0E2FF374B374E2366374B002223
:102B200063663749E665584602F00CFD20602000D8
:102B3000FFF7D4F9FFF75EFF324B1B68002B4AD03A
:102B4000314CC0220021200005F0C7FF2F4B524618
:102B50009B4623634B46E2548022A52192005846AF
:102B600005F0BBFF5B464246FD33FF3393439B4674
:102B70002364274B20006363264BE555A36305239D
:102B80002461E362E364A361646259320021583036
:102B900005F0A3FF174B00222366184B1E496366FE
:102BA000E665584602F0CEFC20602000FFF796F95B
:102BB0001A4B1C6072B61A4B1A4A1B6858331360C2
:102BC0000122194B52421A60184B02321A60184BFC
:102BD0001D6002F04FFD174B1B683CBC90469946A8
:102BE000A246AB46F8BDC04664310020042D00204B
:102BF00049444C456C9600004C9600002C96000011
:102C0000A5410000DC320020E43200200C2F00201F
:102C1000546D7220537663006D3B0000E03200205B
:102C2000DC0A00202C0500202C3200205432002029
:102C3000D832002020050020F8B5DE464E46574623
:102C40004546E0B502F09CFC504E3368013B3360D2
:102C50003368002B00D080E04D4B1B68002B7CD0EC
:102C60004C4A00239046002291464B4A4B4D9246D7
:102C70004B4A934642461268002A45D04346DB68D9
:102C8000DB68D969186A9A6A8860186A5468416072
:102C9000190018318C426AD049469962116801398D
:102CA00011609968D8685A698860DC68181D61608D
:102CB000516881425DD049465961116801391160FE
:102CC0005146DA6A09688A4201D951460A60910080
:102CD00089188C0029198C4649688F689960DF60D3
:102CE0008F6878608860614659612959013129519E
:102CF00059460968C96A8A42BCD3012229490A6037
:102D000042461268002AB9D1002B07D0264B1A6818
:102D10001268002A33D1254B013A1A60244D2C68E1
:102D2000002C16D00123984605E02B6801332B6058
:102D3000013C002C0CD03368002BF6D1FFF7A8FD26
:102D40000028F5D04346174A013C1360002CF2D10D
:102D50002C60144B1B68002B0DD1002402F01CFCCE
:102D600020003CBC90469946A246AB46F8BD506058
:102D700092E754609FE702F0F7FB0124EEE71B683F
:102D8000DB681A68094B1A60C8E7C046042F0020A8
:102D9000FC2C0020403200200C310020F40A0020DE
:102DA000DC0A0020A4330020E40A00202C3200209A
:102DB0003C32002070B50B4C0B4A236812681B187C
:102DC0000500934203D020684019206070BD02F0D6
:102DD000D7FB064A013D13680133136002F0DCFBA8
:102DE000F1E7C046D83200202C3200203C320020CF
:102DF000064B10B51B68002B02D1FFF749FD10BD33
:102E0000034A0020136801331360F8E7042F002001
:102E10003C320020F8B5104B02001C680E00250063
:102E2000A169183508324B1C01D111E01A00536812
:102E30001F68B942FAD2E3619D60036822620133E0
:102E400055600121A06203603000FEF783FFF8BDEA
:102E500002695368EFE7C046DC0A0020C368F0B59A
:102E6000DB68D969186A9A6A886018001C6A183089
:102E70006160516881424DD0002199621168013929
:102E80001160294AD96A1268002A2CD19868DC6836
:102E90005A698460DC681D1D60605068A84241D09A
:102EA00000205861106801381060204A106888427C
:102EB00000D211608A001E4C52189200A618706849
:102EC00087689860DF6087687D6085605E61A35871
:102ED0000133A350174B1A681268002A1CD1164BF5
:102EE000013A1A600BE0154A5468A568DC611D625E
:102EF000A5686860A0609A62136801331360104B84
:102F000000201B68DB6A8B4203D201220D4B01308B
:102F10001A60F0BD5460AFE71B68DB681A68064BA7
:102F20001A60ECE75460BBE7042F00200C3100204E
:102F3000F40A0020E40A00202C3200204032002055
:102F4000DC0A0020A4330020F8B5CE464746040032
:102F500080B58946904602F029FBA56B0700002644
:102F6000002D07D1380002F025FB30000CBC904644
:102F70009946F8BD4423226CE65C76B2002A0AD05A
:102F8000E3689918A368E160994201D32168E16080
:102F9000484605F099FD013DA563731C09D00D4B12
:102FA0001B689E4203D24423013676B2E6540126C2
:102FB000D8E72369002BFAD020001030FFF74EFF2E
:102FC0000028F4D04346002BF1D0012342460126CD
:102FD0001360C7E7FC2C0020F0B5C64600B504001E
:102FE00002F0CEFA4523E55C6DB2002D17DD636A71
:102FF000002B14D02600204B24369846012702E0EF
:10300000636A002B0BD03000FFF728FF002801D0A7
:1030100043461F60013DEBB25DB2002BF0D145236A
:10302000FF22E25402F0B8FA02F0AAFA4423E55C67
:103030006DB2002D17DD2369002B14D026000E4B36
:1030400010369846012702E02369002B0BD0300090
:10305000FFF704FF002801D043461F60013DEBB29B
:103060005DB2002BF0D14423FF22E25402F094FA27
:1030700004BC9046F0BDC046A4330020F0B5DE4647
:10308000454657464E4600230400E0B59846534B4C
:1030900083B09B46524B019115009A4602F070FA9C
:1030A000A66B002E6DD1002D41D043464C4E002B17
:1030B00004D15B4656461B683768994602F06CFAA5
:1030C000484A13680133136002F05AFA4422A35CA1
:1030D0005BB2013301D10023A3544522A35C5BB250
:1030E000013301D10023A35402F056FA02F048FA4A
:1030F00033686A1C29D0394A1168494501D0BB425E
:1031000002D2DF1BAF421CD302F046FA2000FFF7C9
:1031100063FFFFF791FD02F033FAA36B002B06D09B
:1031200002F03AFA02F02CFAA66B002E29D102F036
:1031300033FA002003B03CBC90469946A246AB4609
:10314000F0BD1368ED1B9946376802F025FA02F0CE
:1031500017FAA36B002B29D102F01EFA20002900D8
:103160002430FFF757FE2000FFF736FFFFF764FD1E
:10317000002823D00123984602F002FAA66B002E05
:1031800091D0226C002A08D0E3689918A368E16006
:10319000994216D2019805F097FC013EA663236977
:1031A000002B11D102F0F8F90120C3E702F0F4F985
:1031B0002000FFF711FFFFF73FFDDBE702F0D4F936
:1031C000D8E72168E160E5E720001030FFF746FE10
:1031D0000028E7D002F0C8F9E4E7C046303200200A
:1031E000D8320020042F0020F8B50D00040002F0B2
:1031F000C7F911492B680A68581C12D00F4E606835
:10320000B44637682668BE4201D0904202D9121AED
:10321000934208D8002301242B6002F0BDF920005E
:10322000F8BD0024F9E79B1A2B6063461B682360F6
:103230000B6863600024F0E7D832002030320020B1
:1032400070B5002821D0274AC16A1368DB6A994209
:1032500014D28369002B04DB1368DC6A0A231B1B6E
:1032600083618B005B1820499B004469CB189C420A
:103270000DD01368DB6AC362012005E01368C06CDF
:10328000DB6A98428041404270BD0020FCE78368C1
:10329000C668051D9E60C668736063689D421ED047
:1032A000002343612368013B236023681368DA6AC3
:1032B0000E4BC2621C68A24200D91A6093009B1890
:1032C0009B00CC18626896688260C66096687560DC
:1032D0009560CA5844610132CA500120D4E7666043
:1032E000DEE7C046DC0A0020F40A00200C31002092
:1032F00070B5002833D0036DC26CC16A013B036511
:1033000091422CD0002B2AD18168C56843698D6019
:10331000C568041D696059688C4222D00021416152
:103320001968013919601B680A239B1A83610E4BC7
:10333000C26219688A4200D91A6093000B499A1830
:1033400092008D186B689E688360C6609E6874608A
:103350009C608B58456101338B50012000E00020B8
:1033600070BD5D60DAE7C0460C310020F40A002031
:1033700070B51600026C0400856B002A06D1066841
:1033800001350020002E2CD0A56370BD002E0FD17A
:10339000406805F099FB226C63689446A268634418
:1033A0006360013500209342EED323686360EBE74E
:1033B000C06805F089FB236C21685A42E3689B18BA
:1033C000E3608B4203D2A3689C466244E260022E13
:1033D00002D001350020D7E70020002DD4D10135DF
:1033E000D2E7A068FFF784FFA660CDE7F0B5DE4620
:1033F000574645464E460400E0B54B4B83B09B46CE
:103400004A4B15009A46019102F0BAF8A36BE26BA1
:10341000002793425CD3002D00D17BE0434E002F68
:1034200005D15B4656461B6899463368984602F0BC
:10343000B3F83F4A13680133136002F0A1F8442245
:10344000A35C5BB2013301D10023A3544522A35CEA
:103450005BB2013301D10023A35402F09DF802F0C6
:103460008FF833686A1C1DD02F4A1168494501D076
:10347000434503D241465B1AAB420ED302F08CF8AF
:103480002000FFF7A9FDFFF7D7FB002003B03CBCED
:1034900090469946A246AB46F0BDED1A1368994690
:1034A0003368984602F078F802F06AF8A36BE26B92
:1034B00093421DD002F070F82000FFF78DFDFFF75A
:1034C000BBFB012702F05CF8A36BE26B9342A2D234
:1034D000002201992000FFF74BFF636A002B1DD1EA
:1034E000002801D002F040F802F056F80120CDE7A4
:1034F00002F052F8200029001030FFF78BFC20006A
:10350000FFF76AFDFFF798FB0028DAD102F02CF8EC
:103510000127D7E702F040F80020B7E72000243069
:10352000FFF79CFCDCE7C04630320020D832002098
:10353000042F002070B5002808D0C36C8B4206D33E
:10354000C26A9A4202D0016D012902D070BD0B00FF
:10355000F6E78169C362002902DB0A21C91A816189
:1035600091008A181549920044698A189442EDD155
:103570008268C668051D9660C6687260626895427A
:103580001AD0002242612268013A226022680C4A65
:1035900014689C4200D213609A00D3189B00CC1888
:1035A000626896688260C660966875609560CA5861
:1035B00044610132CA50C9E76660E2E7F40A0020BC
:1035C0000C310020F0B54746CE46002380B585B0CB
:1035D0000400019198469946534F544E544D18E0BB
:1035E00001F0CEFFA36B002B4CD101F0D5FF236877
:1035F000002B00D17AE0200001992430FFF70AFC6B
:103600002000FFF7E9FCFFF717FB002842D0012359
:10361000994601F0B5FFA36B002B5AD1019B002BFB
:103620004DD04B46002B03D13B6802933368039384
:1036300001F0B2FF2B6801332B6001F0A1FF44229F
:10364000A35C5BB2013301D10023A3544522A35CE8
:103650005BB2013301D10023A35401F09DFF01A906
:1036600002A8FFF7C1FD0028BAD02000FFF7B4FC84
:10367000FFF7E2FA01F084FFA36B002B0DD001F0FD
:103680008BFFC4E701F088FF2000FFF7A5FCFFF7E0
:10369000D3FABCE701F068FFB9E701F07DFF4346CC
:1036A000002B10D001F06CFF636A0021002B03D0C7
:1036B000236B0A311B68C91AA068FFF73BFF01F0B2
:1036C0006BFF00239846404605B00CBC90469946D7
:1036D000F0BD013BA3632368002B19D02369002BA5
:1036E0000DD101F059FF01239846ECE701F048FFA6
:1036F000A068FFF7A5FD804601F04EFF7BE72000A4
:103700001030FFF7ABFB0028EBD001F02DFFE8E70E
:10371000084B1A68002A03D019680A6D01320A653D
:103720001B68A360DAE7C04630320020D8320020A0
:10373000042F0020DC0A0020354AF8B51368013355
:103740001360344B1A689446002A39D000270028A9
:1037500032D0072310210340C91ACB4383422BD315
:103760004118002928DD2C4E35688D4224D32B4882
:10377000046804E02368002B04D020001C00626869
:103780008A42F7D3644541D0270023680837036095
:10379000531A102B2FD8224BAD1A196835608D4261
:1037A00000D21D6080231B061A43002362601D4A5D
:1037B0002360136801331360FFF73EFA3800F8BD49
:1037C000072419490C421DD10A000D000024134E94
:1037D00074603560154EB44607266144B1431960E4
:1037E0008B1A0F4A4C6013600B4A0C608C466B605E
:1037F00029601360AAE7601843606160FEF728FB48
:103800006268C8E7CA1DA2431500DFE70027D3E7B7
:10381000042F0020E80A00206031002058320020E8
:103820002832002034320020BC0B0020F81F00009A
:10383000F8B506000F00002830D05020FFF77CFFBD
:10384000041E29D000254623C5542060C6630564A4
:1038500001F096FE216CE36B22684B43D0185B1A93
:10386000D3186260E3604422FF23A563A060A354E1
:103870000132A35423001833463A6361E3612362A3
:1038800014332561A36223636363A261E26265620C
:1038900001F082FE4C23E7542000F8BD0024FBE732
:1038A00010B5002806D008384368002B02DA0268F9
:1038B000002A00D010BD0B4A5B005B084360136810
:1038C00001331360084A436811688C4663441360EF
:1038D000FEF7BEFA054A136801331360FFF7ACF92F
:1038E000E8E7C046042F0020603100203832002075
:1038F000F8B5CE464746960080B5804630000D00AC
:103900009946FFF719FF071E00D196E0C020FFF788
:1039100013FF041E00D18AE0C022002105F0DDF86B
:10392000BD2300222763A521E2543800320005F0B0
:10393000D4F8236B043E9C46072366449E432664CA
:10394000002D47D034232A78E2542B78002B3ED028
:1039500035236A78E2546B78002B38D03623AA7866
:10396000E254AB78002B32D03723EA78E254EB787C
:10397000002B2CD038232A79E2542B79002B26D027
:1039800039236A79E2546B79002B20D03A23AA7943
:10399000E254AB79002B1AD03B23EA79E254EB795D
:1039A000002B14D03C232A7AE2542B7A002B0ED021
:1039B0003D236A7AE2546B7A002B08D03E23AA7A20
:1039C000E254AB7A002B02D03F23EA7AE2543F2341
:1039D0000022E254089B092B27D8002220006261B4
:1039E000A2620A32E362E364D31AA3615632002171
:1039F00024616462583005F070F8114B4A46E36563
:103A0000104B41462366104B3000636601F09AFD6F
:103A1000099B2060002B00D01C602000FEF75EFA9E
:103A200001200CBC90469946F8BD0923D5E7380023
:103A3000FFF736FF01204042F3E701204042F0E764
:103A40004C9600006C9600002C96000070B50400A7
:103A500001F096FD3D4D002C67D0A268E0686369D7
:103A60009060E068211D42605A6891424AD000226D
:103A700062611A68013A1A601B68A36A002B0FD0B2
:103A8000E269206A5E689060206A42602200183213
:103A9000964235D00022A2621A68013A1A601B6869
:103AA0002B4A1368013313602B68A3422CD0294A98
:103AB0001368013B1360284B1A681268002A19D159
:103AC000264B013A1A6001F067FD2B68A34209D02A
:103AD0002868583005F016F8BD23E35C002B26D08B
:103AE000012B2ED01E4B1B68002B02D02B68A3424B
:103AF00024D070BD1B68DB681A68184B1A60E2E7B7
:103B00005860C7E75860B2E7164B5A689068A260E1
:103B1000E0609068416091601A68636101321A60E8
:103B2000114A136801331360CDE72C6895E7206BC9
:103B3000FFF7B6FE2000FFF7B3FED3E701F014FD58
:103B4000D7E72000FFF7ACFECCE7C046DC0A002038
:103B5000082F0020FC2C0020E40A00202C3200203A
:103B600054320020C4320020002D0020C24BF0B59A
:103B7000DE4657464E4645469846C04BE0B59A4607
:103B8000BF4B87B09B46BF4B994643461B681A689C
:103B9000002A00D135E10022DB681C68BA4BBA4923
:103BA0001B6801330B605146B84B09681B680093D2
:103BB0008B4200D2BAE051460B60002A00D16BE183
:103BC0005B461B681E6873425E414B461D6801F0F0
:103BD000D7FC4422AB5C5BB2013301D10023AB5470
:103BE0004522AB5C5BB2013301D10023AB5401F041
:103BF000D3FCAB6B002B00D1F7E101F0C1FC4523F6
:103C0000EC5C64B2002C15DD6B6A002B12D02E0028
:103C10000127243602E06B6A002B0BD03000FFF73F
:103C20001DF9002801D09A4B1F60013CE3B25CB241
:103C3000002BF0D14523FF22EA5401F0ADFC01F046
:103C40009FFC4423EC5C64B2002C15DD2B69002B37
:103C500012D02E000127103602E02B69002B0BD06A
:103C60003000FFF7FBF8002801D0894B1F60013CB2
:103C7000E3B25CB2002BF0D14423FF22EA5401F0FE
:103C80008BFCFEF7D9FF002801D101F06DFC4B46FB
:103C9000002202A91868FFF7F1F9002800D174E7A3
:103CA000029B049F002B0ADA059B38000093039BBC
:103CB000009901939847029B002BE8DB049F7A69E7
:103CC000002A0FD0B968F86854688860F8684160C5
:103CD000391D8C4200D1A9E10021796111680139B7
:103CE000116012685146694A0968126800928A4256
:103CF00000D2F9E0524600991160092BC7D8654AF5
:103D00009B00D3589F465860002262611A68013AAE
:103D10001A601B6828230422E35C1A4274D1012232
:103D200093432732A354236A2000984743461B68D5
:103D30001A68002A00D14CE1DB68DC681968A268C7
:103D4000E06863699060E068261D42605A689642A8
:103D5000DAD1D8E72823FB5C9A0700D498E1012246
:103D600093432732BB5492E7282101227B5C134303
:103D70007B54039A0099BA618B187B603F6199422A
:103D800000D258E1002A82D05A4610683C1D01003A
:103D900008315A1C01D179E111004A681568AB421B
:103DA000FAD24B68BB609C600368F96001334C60D9
:103DB000786103606BE7282101227B5C93437B548D
:103DC00065E728220123B85C03990343BB54BA6911
:103DD000009C8B187B603F619C4200D244E1611AD9
:103DE0008A4200D835E15A4610683C1D010008316E
:103DF0005A1C01D14AE111004A681568AB42FAD257
:103E0000CFE701220024C9E6A3692461CD18C94384
:103E100065608B4214D95B4619680A0008326B1C36
:103E200001D11EE01A0053681868A842FAD9A360AD
:103E30009E600B68E2600133566061610B6072E75F
:103E40002F00FF43236A20009847A3692461ED18DF
:103E50006560BB42F4D95B4619680A0008326B1CE6
:103E6000E1D10A695368A3609E600B68E260013388
:103E7000566061610B6056E7E00A002024320020A2
:103E8000F00A0020DC320020042F0020D83200206D
:103E9000A4330020F094000000269C4200D994E650
:103EA000FEF7CAFE43461B68DB68DD68AA68E9685E
:103EB0006B699160E9682F1D4A605A68974200D18A
:103EC0006BE100226A611A68013A1A601B682823B4
:103ED000EB5C5A0700D520E1012293432732AB5413
:103EE0002B6A28009847D2E64246126811680029DA
:103EF0004CD0019716E0002262611A68013A1A60FC
:103F00001B6828230422E35C1A421AD1012293433E
:103F10002732A354236A2000984743461A6813683F
:103F2000002B31D0D368DC681968A268E068636947
:103F30009060E068271D42605A689742DBD1586064
:103F4000D9E7A3692461CD18C9436560994224D299
:103F50005B4619680A0008326B1C01D12EE01A007A
:103F600053681868A842FAD9A3609F600B68E260A2
:103F70000133576061610B60236A20009847434614
:103F80001A681368002BCDD1019F029B5846414609
:103F90000068086059460A60ACE62E00F643236AC2
:103FA00020009847A36924615D196560B342F4D984
:103FB0005B4619680A0008326B1CD1D10A69536844
:103FC000A3609F600B68E2600133576061610B6022
:103FD000D2E759464246096811605A461360534673
:103FE000009A1A60FEF728FE51E66D4AAB6A126825
:103FF0009968D3616A4A12681162694A99681268BD
:1040000018324A60664A126818329A602A00644B75
:1040100024321B689A626B6A01336B62002E07D0F0
:10402000012040423100FDF795FEE6E5506053E681
:10403000009BE01AF6E7424610683C1D010008317B
:104040005A1C01D122E011004A681568AB42FAD22D
:10405000A7E6042101421FD1012398432733F854D6
:104060003B6A3800984712E68C4201D29942F0D957
:10407000424610683C1D010008315A1C01D105E080
:1040800011004A681568AB42FAD28AE6016988E6EF
:104090003800FFF705FCFAE5009D9C187C603F6145
:1040A000A54223D3EB1A934216D25B461968381DFA
:1040B0000A000832631C01D12DE01A0053681D6804
:1040C000AC42FAD25368BB6098600B68FA60013367
:1040D000506079610B60C3E73B6A38009847230062
:1040E000BA693F619C187C60A542DBD29D420DD22B
:1040F000A342F1D943461968381D0A00083200E08E
:104100001A0053681D68AC42FAD2DBE74346381DFB
:104110001968631CF1D10A69D4E72300AA69009CDD
:104120009E186E602D61B44222D3E31A9A4215D9CB
:104130005B4619680A000832731C01D12BE01A0093
:10414000536818688642FAD25368AB609F600B6868
:10415000EA600133576069610B60C1E62B6A280091
:1041600098473300AA692D619E186E60B442DCD274
:104170009C420CD2B342F1D9434619680A00083276
:1041800000E01A00536818688642FAD2DCE743461A
:104190001968731CF2D10A69D6E7596091E6C046E6
:1041A000DC0A0020944BF0B54E469946934B574697
:1041B0009A4600234546DE469846BD339B46E0B509
:1041C0008F4E904D904F85B02B68002B2CD001F076
:1041D000D7F94B46DB68DC68A268E16863699160E7
:1041E000E16858684A60221D904243D042466261AD
:1041F0001A68013A1A601B683368013B33602B6808
:10420000013B2B6001F0C8F93868583004F07AFCA3
:104210005B46E35C002B2FD0012BD5D12000FFF7AC
:104220003FFB2B68002BD2D153461B68002B63D178
:104230003B68DB6A002BC7D1744B1B68012BC3D8CA
:10424000734B744A1B6812689B1A012BBCD9724BC2
:10425000714A1B680133136053461B68002B00D161
:104260008AE03B68DB6A002B01D1684B1B68FEF7D4
:10427000E3FCA9E75960B9E7236B002B06D0083BA4
:104280005A68002A02DA196800293DD0083C6368A0
:10429000002B99DA2268002A96D15B005B086360E4
:1042A0005D4B5D4A1B6821000133136063685B4A04
:1042B0009C465A4B1B68009363441360584A00E0C5
:1042C0001A0013689C42FBD85068009313189C4254
:1042D00000D18AE06346C818009B834279D00B6006
:1042E0008A4200D011604F4B4E4A1B680093013345
:1042F0001360FEF7A1FC67E73B68DB6A002B00D088
:1043000062E7424B1B685FE7520052085A60424A1C
:1043100041491268009301320A605A6811008C46C4
:104320003E4A3E491268019262440A603C4900E0FC
:1043300011000A689342FBD801924A68604694468D
:104340008C440290100063453CD0009A029B944636
:10435000019A63449A4226D01300009A1360130016
:10436000994200D00B602F4B2E4A1B6800930133FB
:104370001360FEF761FC89E73B68DB6A002B00D025
:1043800075E7224B1B68012B00D970E7204B214AAF
:104390001B6812689B1A012B00D868E7224A136039
:1043A00001F058FF63E7214B1B6803939A42D3D077
:1043B000029853688446009863444360136803601E
:1043C0000300CDE78446029B0091634402934B6057
:1043D000BBE71C00154B1B6801939C420AD0636825
:1043E00063444B6023680B607AE7844463461100A2
:1043F00053606FE70C6073E7C43200200C3100207B
:10440000FC2C0020002D0020DC0A0020F40A0020F3
:104410002C320020D8320020042F002060310020F0
:104420005832002038320020880A0020E80A002094
:10443000FEE7C0460022434B70B5434C1A60236828
:1044400042491B6B1A688A4202D1596891426AD06C
:10445000206821683431FFF7EBFF3D4D3D48296866
:104460008B005A1892008258002A44D14E1EB20086
:1044700093199B00C358002B4FD18E1EB200931985
:104480009B00C358002B48D1CE1EB20093199B004D
:10449000C358002B41D10E1FB20093199B00C35883
:1044A000002B3AD14E1FB20093199B00C358002B2A
:1044B00033D18E1FB3009A1992008258002A3BD143
:1044C000CE1FB3009A1992008258002A34D1013EBF
:1044D000B3009A1992008258002A2DD10A00093A95
:1044E00093009B189B00C358002B27D10A398B00DF
:1044F0005A18920082585B189B00C61872680833DD
:104500005268C31872609A420AD0D368124A236074
:10451000296023685833136070BD31001300EAE747
:1045200052687260F1E79A688A4200D090E7DB68CF
:10453000934200D08CE790E73100DCE71100930054
:10454000D9E7C046A4330020DC0A0020A5A5A5A514
:104550000C310020F40A00202C050020054B10B57A
:104560001B68002B02D1FFF765FF10BD0122024B33
:104570001A60FAE7042F0020A4330020F8B50400E5
:1045800000F0FEFF3D4E002C67D0A168E068636933
:104590008860E068221D416059688A425BD0002132
:1045A00061611968013919601B68A36A002B0FD07B
:1045B000E169206A5D688860206A416021001831E5
:1045C0008D4246D00021A1621968013919601B682B
:1045D0002B4D6B689968A360E16099684A609A60A6
:1045E0002B68656101332B60BC23E25C012A09D092
:1045F00000F0D2FF234F3B68002B0BD13368A3425E
:1046000017D0F8BD0022E25400F0C6FF1D4F3B68F2
:10461000002BF3D000F0B4FF1B4B1A681268002A7D
:104620001FD11A4B013A1A6000F0B6FF3368A3425B
:10463000E7D13B68002B1AD1154A296812689142CC
:104640000DD0144B1B68002B14D00122124B1A60A2
:10465000D7E75860B6E75860A1E7346895E733605C
:10466000CFE71B68DB681A68084B1A60DCE700F0CC
:104670007BFFC6E7FFF7DEFEC3E7C046DC0A00208B
:10468000B032002054320020E40A00202C320020F6
:10469000FC2C0020042F0020A433002070B504005F
:1046A0000E00002832D001230025462283542060CA
:1046B000C363056400F064FF216CE36B22684B4325
:1046C000D0185B1AD3186260E3604422FF23A5630D
:1046D000A060A3540132A35423001833463A636107
:1046E000E36123621433A2612561A362E262236362
:1046F0006363656200F050FF4C230322E254002EF6
:1047000004D0002200212000FEF770FE200070BDC2
:1047100070B506005020FFF70FF8041E2DD00025BD
:104720004623C554453B2060C363056400F028FF61
:10473000216CE36B22684B43D0185B1AD31862607C
:10474000E3604422FF23A563A060A3540132A35475
:1047500023001833463A6361E36123621433A26194
:104760002561A362E26223636363656200F014FF64
:104770004C230322E254002E01D1200070BD002200
:1047800000212000FEF732FEF7E7C0464623C35C57
:1047900010B5002B01D1FFF783F810BD7047C0465C
:1047A0000D4B10B55B680400DB050FD1FA22080041
:1047B000920000230021FBF753FD01002000FEF7CB
:1047C00001FF0138431E9841404210BD00220021E4
:1047D000FEF7BAFBF5E7C04600ED00E0154B70B5FB
:1047E0005B680400DB0518D000F0E0FEA36BE26B11
:1047F000050093420DD24521625C013352B2A3639E
:10480000531C0FD00C4B1B68934202D9013252B299
:104810006254280000F0CEFE70BD00220021FEF799
:10482000E5FDF9E7636A002BF3D020002430FEF7A2
:1048300015FBEEE700ED00E0FC2C00200122002338
:104840005242036043608260C3607047164B10B5EC
:104850005B680400DB0515D0EFF31081012383F3BF
:104860001088636822681A60236862685A60A368C7
:104870001A689A420AD00C4B5B68DB0511D081F3B1
:10488000108810BD00F07CFE0021EAE70122646977
:104890000648A240036893430360034B5B68DB0553
:1048A000EDD100F079FEECE700ED00E0D40A002045
:1048B000F8B5DE4657464E464546414B8246994638
:1048C000404BE0B59B464B461B68002B4BD05B46EC
:1048D0001D68012D47D14B461B681A0763D45A0740
:1048E00067D49A0767D41D4067D1374F0026B84672
:1048F000364B5B68DB0547D0EFF31082012383F36F
:1049000010884146BC592368BB51236859602F4B1E
:104910005B68DB0544D082F31088BB59434537D030
:104920000223226A63622A4B1A60A3692362274B1F
:104930005B68DB0525D08AF31088E3692169E068AC
:104940009847224B5B68DB0516D0EFF3108A0123F2
:1049500083F31088636A022BB5D1002363624B4650
:104960001B68002BB3D100221A4B1A703CBC904636
:104970009946A246AB46F8BD00F002FE00239A46D7
:10498000E8E700F009FED8E700F0FAFD0022B8E7FA
:1049900001224B46AA401B6893434A461360BFE777
:1049A00000F0FAFDB9E70325074FEE00BB19984662
:1049B0009EE70225F8E70125F6E70025F4E7C04663
:1049C000D40A0020B00A0020B40A002000ED00E064
:1049D0008C0A0020D80A0020104B10B55B68DB055C
:1049E0000ED0EFF31084012383F310882000FFF72B
:1049F0005FFF0A4B5B68DB050CD084F3108810BDA9
:104A0000002400F0BDFD2000FFF752FF034B5B6860
:104A1000DB05F2D100F0C0FDF1E7C04600ED00E09B
:104A2000F0B5C6462B4B00B55B680400DB053DD0F6
:104A3000EFF31086012383F31088636A012B10D1F2
:104A4000254C2378002B03D1244B1D68012D34D035
:104A5000204B5B68DB052DD086F3108804BC9046A4
:104A6000F0BD012263691E4DDF00EB199846194B1A
:104A700062625B68DB0526D0EFF3108182F3108859
:104A80004346ED1923606A68124B62606A681460DD
:104A90006C605B68DB051AD081F3108801236069C4
:104AA000104A834011680B431360C9E700F068FDAA
:104AB0000026C2E700F070FDD0E70B4B186803F04A
:104AC00089FE2570C4E700F05BFD0021D8E700F007
:104AD00063FDE3E700ED00E0D80A0020B00A002003
:104AE000B40A0020D40A00200805002010B5FDF704
:104AF000BBFB10BDF8B5264B04005B68DB0542D05C
:104B0000EFF31085012383F31088224AA3681278FB
:104B1000002A1CD1204A214E17689446204A30684A
:104B200011681268791A821A91421FD8FA18E26045
:104B30000122C01B2275984211D91A4BE46820202B
:104B40001A6003F075FE184B1C60346007E0124ACF
:104B500012689B18E3600123144A237513700C4BF1
:104B60005B68DB050CD085F31088F8BD62461268DF
:104B70009B18E36001232375054B5B68DB05F2D1CD
:104B800000F00AFDF1E700F0FBFC0025BDE7C046A0
:104B900000ED00E0E409002004210240F0090020BB
:104BA000F80900204821024020210240F409002099
:104BB00070B504001D00002817D0002B1AD06B68B8
:104BC000A2602361AB68A161E361002323750A4BF6
:104BD0001B78002B0BD02100084800F033FE2B7807
:104BE000002B02D02000FFF785FF200070BDFDF7ED
:104BF000CDFDF0E7024DE2E7E5090020E8090020DD
:104C0000D8090020F0B5C6462C4B00B55B680400FF
:104C1000DB0549D0EFF31085012383F310880023CF
:104C20002375274B1B78002B0BD00122254B1A70C4
:104C3000224B5B68DB053BD085F3108804BC9046B3
:104C4000F0BDE368204C22689342F1D11F4A204F07
:104C500016683A683968B21A5B1A9A42E8D21D4B54
:104C60001B68002B27D0012149421A7D002A07D05A
:104C70001A7D002A04D0DA68921B914200D91100F3
:104C80001B68002BF1D1144B994214D8012288469D
:104C9000124BB0441A60202003F0CAFD4246104B6C
:104CA0001A6022603E60C3E700F06AFC0025B6E7A8
:104CB00000F072FCC2E70849E8E7C04600ED00E0FA
:104CC000E4090020F4090020F0090020042102403A
:104CD000F8090020E8090020FFFFBFFF482102403B
:104CE00020210240104B70B55B6804000E001500D7
:104CF000DB050DD0EFF31082012383F310880A4BFC
:104D0000A661E5615B68DB050BD082F3108870BD9E
:104D100000F036FC044BA661E5615B680022DB0510
:104D2000F3D100F039FCF2E700ED00E00022014B86
:104D30000CC07047006CDC020120704710B503F016
:104D400077FD10BD70B5040084B00E001D00002872
:104D500020D0002B21D059681B79FF2B29D0174B6D
:104D60001B689E4201D0C02925D028681449B30091
:104D70005C506260A06013493000266003F088FC3C
:104D80002979300003F0A6FC2B7A002B02D03000EA
:104D900003F0F6FC200004B070BD012101AB0195C9
:104DA00000201D00494202910231197280236B607C
:104DB000DCE72868FAE70024ECE7C0460805002095
:104DC000FC090020B51E0000F0B5CE46474680B570
:104DD000040085B00E00150000285FD0374B5B68DB
:104DE000DB0557D0EFF31087012383F31088344B92
:104DF0001A789846D2B2002A27D1324B0192190074
:104E000008315B601B60D9609960190010315961ED
:104E1000196119001831D96199612B4B2B481A601F
:104E20002B4B1A600123994649462A4B19602A4B9D
:104E30001A70C02201AB5A60284A19721168284AB8
:104E4000FFF780FF43464A461A701C4B5B68DB0540
:104E500026D087F31088002D26D0AA68531C28D0AE
:104E6000032A1BD8D3009C46230064600C332460C3
:104E700083CD83C329682000196000236362114B2E
:104E800062616344E6612162A36005B00CBC904698
:104E90009946F0BD00F074FB0027A8E70020F4E776
:104EA00000F07AFB002DD8D118230E4D9C4603222A
:104EB000DAE7182303229C46D6E7C04600ED00E05F
:104EC000AC0A0020B40A0020D40A0020900A002076
:104ED0008C0A0020B00A0020D80A00200805002013
:104EE000D94900001895000010B50400006803F0CF
:104EF0005BFC206803F0E4FB10BDC046074B10B517
:104F00005B68DB0505D0EFF31080012383F3108885
:104F100010BD00F035FB0020FAE7C04600ED00E0D0
:104F200010B503F041FC10BD10B503F029FC10BD15
:104F3000EFF3108043425841C0B27047002805D0BB
:104F400000230360013B4360023303727047C04695
:104F5000054B10B55B68DB0502D080F3108810BDEF
:104F600000F01AFBFBE7C04600ED00E0F0B5C646D6
:104F70005B4B00B55B68DB0526D0EFF310840123A3
:104F800083F31088574B1B68002B14D1564B1B68BA
:104F9000002B10D1554B1B68002B0CD1544B042611
:104FA0001B68544B02271B6801F04EF9064007406E
:104FB00014D0002E0FD04A4B5B68DB0508D084F379
:104FC000108804BC9046F0BD00F0DAFA0024D9E75E
:104FD00000F0E2FAF5E701F00DFAECE701F0F4FA7F
:104FE0000028E8D0444B454A1B681568002B2ED199
:104FF000434A444B19684801401A80004018C000D9
:10500000904200D91000FA235B009842D1D93E4A61
:105010001368013313603D4F28183B683C4E984697
:1050200001F042FA43463360344B1868401B00F0ED
:105030002FFCFDF7BFFE00230521364A3B601368B5
:105040000B431360344B3360FDF7F6FDB3E7DA072B
:105050002CD401225242990706D5304928480968C4
:10506000491B814235D90022590707D52C49A80090
:105070000968091A2248814221D90022190707D557
:105080002849A8000968091A1D4881421CD9002234
:10509000DB06AED5244BA9001B685B1A18498B426E
:1050A0001BD89B089A42A4D91A00A2E71F4A1449A8
:1050B0001268521B91427F417F423A40CBE78908F8
:1050C0008A42DBD90A00D9E789088A42E0D90A0076
:1050D000DEE78A42C8D90A00C6E7002289E7C0464F
:1050E00000ED00E040320020A43300203C320020DC
:1050F000B0320020FC2C0020442002400421024059
:10510000FFFFBFFF880A0020042F002018E000E006
:1051100014E000E010E000E07FBB000050210240FE
:1051200054210240582102405C2102404C2102409F
:1051300070B582B003F026FC72B6BFF34F8FBFF399
:105140006F8F1E4801AB834208D902AB1A1A053A89
:10515000920801329200A52103F0BFFC1848194BB8
:10516000984207D2C243D21892080132920000211D
:1051700003F0B3FC14491548814209D0144B9842FE
:1051800006D2C243D21892080132920003F09CFC6E
:105190000023104E104D0193AD1BAD1007D000241D
:1051A000A300F358013498470194AC42F8D10B4B5B
:1051B0000B4A1A60FCF79AF802B070BD283800203C
:1051C0009005002024380020C8960000A00400208C
:1051D000900500201C9200001C92000008ED00E0E9
:1051E000000000007047C04610B5040008340028D5
:1051F0000AD0A04208D82000FEF79EFA002809D065
:1052000000604460083010BD03F058FC16230360B2
:105210000020F8E703F052FC0C2303600020F2E7C3
:1052200010B50800FFF7E0FF10BDC04610B500291B
:1052300003D008390868FEF733FB10BDF8B50E003F
:105240001400002916D0002A19D01000FFF7CCFF57
:10525000051E0DD03700083F7A68083AA24200D9EF
:1052600022003100280003F02FFC3868FEF718FBFD
:105270002800F8BD1000FFF7B7FF0500F8E703F0BE
:105280001DFC162300250360F2E7C046020010B59E
:10529000034B13CB13C203CB03C2002010BDC04687
:1052A0000C0500201623012901D8002301611800F4
:1052B0007047C0460B685A1E082A02D803600020B7
:1052C00070471620FCE7C046816000207047C0464A
:1052D000F0B5C64600B5070082B00D0090461E002E
:1052E00000293FD03420FEF727FA041E40D02A6957
:1052F00086611300591E8B410374434643610023AA
:105300002968C3608360C361036241608362036391
:10531000C362002A38D02A4B01261B68002B3FD1DC
:105320002A8901942B689208009326492300264875
:10533000FEF7DEFA01281DD0A068002803D046231E
:10534000C35C002B35D02000FEF7AAFA0C25002400
:105350003C60012E01D0FDF76FFC280002B004BCB8
:105360009046F0BD3420194DFEF7E6F9041EBED17B
:105370000C25F2E72568002D1ED000F001F96C65C0
:1053800000F00AF90025E3E703210120FEF750FAB7
:10539000A0600028BFD12000FEF782FA0C25DCE7D0
:1053A0000B4B1E68724256411A68760001321A6031
:1053B000B6E7FEF775FAC6E7064B1D68DDE7C0469F
:1053C000543200201C930000955400000C0500206E
:1053D000042F0020DC0A002070B52C4C0600256844
:1053E000002D00D1256800F0CBF86D6D00F0D4F8E9
:1053F0006E622668002E00D1266800F0C1F8746D38
:1054000000F0CAF80123E361AB6A002B08D01A68E8
:105410001969986891625B689847AB6A002BF6D16E
:105420001B4A136801331360EB6A002B19D01C6907
:105430001A686168EA622268002901D00A6022685D
:10544000002A00D051609A681268002A03D0D868F8
:10545000002800D090472000FEF722FAEB6A002BCC
:10546000E5D1FDF7E9FB2B7C002B06D02800FEF7E9
:1054700017FA0020FEF7EAFA70BDA86800220021A2
:10548000FDF7B4FF0020FFF779F8F5E7DC0A00200C
:10549000042F0020030010B55B6980699847FFF76F
:1054A0009BFF10BD0E4B10B5984211D90D4BC4187F
:1054B0000D480E4A1368013313600021FCF74AFCC3
:1054C000FDF7BAFB002801D100F04EF8200010BD16
:1054D00043011B1A9B001818C00001300024E8E7A4
:1054E00036894100C976BEFFD9FEFFFF042F002098
:1054F000002382B0019372B6019B002BFCD002B056
:105500007047C046000000000000000000000000DE
:105510000B4A13681868203080F30988022080F352
:105520001488BFF36F8F3FBCAE4608BC04BC62B6A4
:105530001847C046C046C046C046C046C046C046E2
:10554000DC0A002010B58024031F64041C60043BA7
:1055500019600349043B1960143B40381A6010BDC0
:10556000F15400007047C0468022044B52051A6077
:10557000BFF34F8FBFF36F8F7047C04604ED00E05D
:1055800072B6044A136801331360BFF34F8FBFF341
:105590006F8F704724050020034A1368013B136096
:1055A000002B00D162B6704724050020EFF3108075
:1055B00072B6704780F310887047C0460000000044
:1055C000EFF309800E4B1A6820381060F0C0444693
:1055D0004D4656465F46F0C008B572B6FEF7BEFFB0
:1055E00062B60CBC116808681030F0C8A046A94625
:1055F000B246BB4680F309882038F0C81847C04639
:10560000DC0A002010B5FFF7D1FF0400FDF7F0FB26
:10561000002803D08022034B52051A602000FFF7B8
:10562000C9FF10BD04ED00E00A4B0B4A0B491A609C
:105630005E220B4BFF321A600A4BFF3A1A600022BF
:10564000094B1A600A60094A0949116007221A6069
:105650007047C046AC33002080BB000018E000E07B
:10566000B0330020A833002010E000E014E000E098
:105670007FBB0000FF220E4B1204196810B50A43CD
:105680001A60FF220024196812060A4382B01A60C9
:10569000FFF7CAFF074B1C60FFF73AFFFEF75EFFFC
:1056A000019472B6019B002BFCD0002002B010BD0B
:1056B00020ED00E024050020F0B54F46D6464646D2
:1056C0000500C0B50F1E23D0124B1B789A46002B45
:1056D0000ED00026104C2368A1469846B5420AD049
:1056E000DB699847054206D101360C345645F2D3A2
:1056F0000023994606E04346390020005B6898473E
:105700000028F1D04846E0BCBA46B146A846F0BDF4
:10571000024FD9E7F0930000E493000044950000A5
:1057200008B410B585B0002806D008AB0468009313
:1057300003932469079BA04705B010BC08BC01B0C7
:105740001847C046074B70B51E78002E09D00025BB
:10575000054C236820001B68013598470C34B5427E
:10576000F7DB70BDF0930000E49300007047C04683
:105770007047C046022040427047C0468020C005A6
:105780007047C046F0B58BB0876801AD466804002D
:10579000280001F03BFF7B680120AB6100236B70A8
:1057A000FEF7B6FF7060002809D02900387802F0B3
:1057B00097FA3060002802D020000BB0F0BD002422
:1057C000FAE7C04670B584684568A16868681E003D
:1057D000FEF7E6FF002800D070BD218A3200049B4E
:1057E0000239E068FFF782F9E068FBF777FD0D21E9
:1057F0000200E36802321954E36803391B18597038
:10580000E1680023286802F0C7F86868FEF7E6FF41
:10581000E2E7C04610B54468206802F013FA00239E
:1058200060682360FEF7B2FF10BDC0467047C046F7
:1058300010B50400FFF762FB002363602360FFF7ED
:1058400087FB10BD70B50C000500FFF757FB002368
:1058500023606B686360002B04D01C606C60FFF7F2
:1058600077FB70BD2C60F9E770B50C000500FFF701
:1058700045FB0CCC002A06D05360002B06D01A60E2
:10588000FFF766FB70BD6B60002BF8D12A60F7E76D
:10589000074B020C19000004000C43430548514318
:1058A0005043C018C009DE30400A4018400A704713
:1058B00012830000986E000010B5042801D000206B
:1058C00010BD0D3000F026FDFF22074B11201A609D
:1058D0000123064A1360064A1168064A1160064A07
:1058E000136000F04FFDEAE72C6002404C6002407C
:1058F000D894000008600240046002400F4B10B5CD
:105900001A78002A00D010BD012404210C4A1C7012
:105910000C48002300F0AEFC112000F0FBFCFF223D
:10592000094B11201A60094B1C60094B1A68094B7E
:105930001A60094B1C6000F025FDE4E7C833002025
:10594000B9580000B43300202C6002404C60024083
:10595000D89400000860024004600240FF2807D08D
:10596000044B80005B681B181A68914200D01960D4
:105970007047C046F4930000FF2803D0024B80001C
:105980009B68C1507047C046F4930000024B8000F2
:105990009B68C0587047C046F493000070B504007F
:1059A000FF2800D170BD00F037F8094EA50033681C
:1059B0002000595900F0CCF873685B191A68002A66
:1059C00001D000221A600022B3685A51EAE7C046AB
:1059D000F4930000F8B50D4B1C680D4B1C60002CB7
:1059E00012D01F2601250B4F2000FAF71BFC2B00BD
:1059F000301A83409C437B688200D358002B01D02F
:105A0000C0B29847002CEFD1F8BDC04654300240D8
:105A100064300240F4930000FF2803D00123834048
:105A2000014A13607047C04674300240F0B5DE464C
:105A300057464E464546E0B587B0FFF75FFA354B0F
:105A40001A78002A5ED101221A70FFF781FA00202D
:105A500000F060FC03A8FFF771FA2F4C1521E368F2
:105A60002E4A04932E4803ABFFF76CF92D4B19789F
:105A70002D4B1878002398460193814247D807336D
:105A80009C46033B0227994612E04D461D4206D034
:105A900001258D40AA46454656463543A846234D26
:105AA000AA4665465244AB431360013181422CD86B
:105AB00023688A009B58002BF7DB1F42E5D10125A4
:105AC0008D40019E2E43012501961D40FF2908D0DF
:105AD000EDB2AA46164D5646AB468B445D462E7037
