:1000000000900020FD6A0000777D0000277D000041
:10001000757D0000757D0000757D0000757D000018
:10002000757D0000757D0000757D0000757D000008
:10003000757D0000757D0000757D0000757D0000F8
:10004000757D0000757D0000757D0000757D0000E8
:10005000757D0000757D0000757D0000757D0000D8
:10006000757D0000757D0000757D0000757D0000C8
:10007000757D0000757D0000757D0000757D0000B8
:0C008000757D0000757D0000757D00009E
:10009000F0B595B00F91064635300C90371D012113
:1000A00088030D92104000220790002815460E96F6
:1000B0000B9700D15CE11091FC4AFD4C314626467D
:1000C000143600272784B7734123E75477754320FC
:1000D00027542774A771F7754620275447202754C3
:1000E000E7833776908BA083E7858A6BCD6B002DF5
:1000F0000DD06888C1064F0F002A0AD1002F14D1F5
:1001000003218902084010D10121002715E0002AAF
:100110000BD0107A022808D20021002D0DD0002823
:100120000BD168880005800F07D00B9A1078590210
:1001300040181080022500F06FFF0391089305928C
:1001400007F0D6F8049007F064FDDA49C8780F2864
:100150000ED00C980078C0070AD007F067FB109803
:1001600040050A9007F0FEFC0A9807F049FCD149C7
:10017000088800220990002810460A9222D00B46D7
:100180000C980178880710461CD54807C00F1979CC
:1001900041402D20069021540999C7488181D98872
:1001A0004181197A018199780C9A1278D208D20784
:1001B000520C51180A9A0698205C000308431099C3
:1001C00009024018BC490882002D06D00B9800781F
:1001D000012804D10E98036A05E00B9F46E007F062
:1001E000C7FC0A9A03466888C107069301D069686C
:1001F0000691099900290AD00C990978890706D532
:100200002846099306F02AFF099B0A9A6888800706
:1002100008D418460699099307F0E2FC099B0A9A4C
:1002200000281DD0002F02D0022108461AE028899C
:100230000699091861616888A04A0240501E8241EF
:10024000727403980028109A0B9F0FD1184607F07C
:1002500039FA400A0328109A08D304200A9A03E0C6
:100260000C2086210B9F2970202160540E9D286B45
:100270000992114602F0E4FA3020385C06F07AFB6D
:10028000002802D0089840026CE006F073FD2D6C47
:10029000002D1FD08A48C0688A49086000276F7007
:1002A0007F21A9702878C00720D1C8430A9107F0A0
:1002B00029FC7E48878647878787C786C787824904
:1002C0000F8007870A98E870AF60EF602F61AF82F8
:1002D0000B9F23E07F20C04307F014FC00207349EC
:1002E000888648878887C886C8871BE0E8787F2883
:1002F00000D1C8430B9F40B207F004FC28896B492A
:10030000888668894887A8898887E889C886A88AEE
:10031000C887288A6C4A1080688A08872878022152
:100320000140480809996071002911D00E982030C9
:1003300011AA0A92AAC8AAC20B9F60691190727C86
:1003400001210A98049B05F0ADFD0621317303E0FD
:100350000E98049905F0FEFC10285449059D00D222
:100360008DE0000239780143398002250E9E099AFA
:100370000121C80506900A914805089003210C0246
:1003800078780002A04201D000F00EFE059109929B
:100390001095474B0D9FF8020CD5187C002809D00A
:1003A000801E4242424100201874D868214604F061
:1003B00089FD3F4B7803019400D40DE1F56BD87FA4
:1003C000002809D0002D07D0297802294BD83120E8
:1003D000287007F057FCEEE02027D85D012836D1C1
:1003E000002D34D007F0C4FB06466888C1073246AA
:1003F00000D06A680599084001280CD130461146A2
:1004000004973746164607F0EBFB32463E46049FFC
:10041000002800D186E0264B987F002875D0022462
:100420002C7024480088002809D00C980078800798
:1004300005D528460C9206F011FE0C9A1C4B6888D4
:10044000C106490F00D193E0DC550E9EC2E0462163
:10045000595C00294AD000280D9F00D0BCE0022042
:10046000E1490860B8E02026995D06292ED80228C7
:1004700000D196E0032800D09DE0392492E0002DC1
:100480004BD000270F85284602F02CFB102850D3B4
:100490000B9F3988BA78120489180002D34A114098
:1004A00008433880080CB8705FE7C0460620094052
:1004B0008C0A002096A40000A82009400210000029
:1004C000240C00205020094046200940CA1F022A5F
:1004D00071D8C74A9288520771D403286BD1092971
:1004E00069D1392028700C20985564E04720185CA9
:1004F00001280D9F70D1996B30468847002802D0A3
:10050000069807F0AFFBBB4B66E068880005800FDC
:1005100085D0822028700C2008E006F09BFF208008
:1005200000F00AFE862028700C20B24BD8550E9E93
:1005300051E006F08FFF2080002D01D100F0FCFD7E
:1005400006F074FE06F048FD6080A760284606F0BD
:1005500029FF06F02BFD0998002801D000F0ECFDE2
:10056000F07C002801D100F0D4FDA34800F0D2FDBA
:100570002989511859611A4614321C469F4B18405C
:10058000431E98415074304607F09CF80199884208
:100590001CD20520E05506F05DFA0A9892490860E1
:1005A00016E0352405F082FB2C700C20914B9855F9
:1005B00000200990019C0020D8770E9E0CE00328B3
:1005C000F9D10A98884908609871F4E70420E05549
:1005D0000E9E2346019C0D9F780608D50A9807F0C9
:1005E00041FB2120195C012901D102211954F80392
:1005F00005D5B06B002802D006F0D4FE7D4B8048B4
:10060000007800280FD078020DD52120185C002832
:1006100009D0184614300A994175007B002802D190
:100620000220714908607748C07802900F2808D0EE
:100630000F980899084204D00A996B4801602C2051
:10064000195418461430017B0490407B04290CD1C6
:1006500002280AD158696C49401821460A9A04F0C8
:1006600031FC00281ED10B201DE00025022920D1DD
:1006700002281ED1F76B78680C907E8807F078FA14
:10068000002504990D74FC78059A1440012C00D8BB
:100690000124CC73F1075DD1564B58610A9D0E9E23
:1006A0000D9F03E0052005900025524B2020059961
:1006B00019540A9800050390B80502D5187C012842
:1006C00008D00F98039908420CD007F027FA494B3D
:1006D0007F2807D02020185C032803D105F0E6FA14
:1006E000444B02E0002D00D1AEE0F76B7888032187
:1006F00039703F49898800290ED02424185D0028CC
:1007000005D0039807F06CF93A4B002018551220D9
:10071000387007F0B7FA97E0C006440F042C01D1F7
:1007200000258BE007F0FAF9064624257F28314A98
:1007300029D1505D002826D1012004990874506900
:100740000521090244187888800570D4039807F0C1
:1007500057F96DE0019940180C9907F041FA00280B
:1007600058D00520000260432849411800250C9C00
:1007700020462A4604F0A6FB1E4B5C6100280E9E14
:100780000D9F93D195E730467F38414241410C910E
:10079000039807F025F900200095164948550122D5
:1007A000B95605918E42154600DA05461849C988A2
:1007B0007B881B065B0F994200D80246601E062804
:1007C0000C9C00D99AE114434000C04678448088CC
:1007D0004000874433000600810193019301930197
:1007E0008D0125462AE0C04630100840FF00FF007A
:1007F000502009408C0A002002280000021000004E
:10080000CDA4000096A4000000FDFFFF00FEFFFF46
:10081000A820094005980640012E0C9800D03BE71F
:10082000862038700C2005900E9EEB4B38E7546103
:100830000025204601992A4604F044FB2420FC4B65
:10084000185C00280E9E26D00F98000707D522209E
:1008500001211954402000211954432019540F98A4
:1008600040060B9F42D5402007F0BAF8F04B2020FD
:10087000195C09293AD1EF498988CA0707D1CA0604
:100880001FD4F26B0907490F2AD015212BE0F16B19
:1008900014220A7028E0002D00D038E75869049A25
:1008A000D17B491ED173090600D100E1052109025F
:1008B000441800222046019904F004FBDC4B5C61E3
:1008C000C2E726229A5C002A05D028229A5C002AD8
:1008D00001D00A2109E0F26B890603D5432102E029
:1008E000802100E0102111700C2119540F9840074D
:1008F00010D54720185C002808D0996B30468847EF
:10090000002806D0069807F0ADF902E0042007F0B1
:1009100067F8C74B01240F9880040CD5600307F0DB
:100920005FF8C34B2020195C082904D1F16B102219
:100930000A700C211954C049E0030C90421C0F9816
:1009400000921042059419D00888002504994D732F
:10095000097B072915D0052923D158690499497CB9
:100960001C4606F0BBFE032841D106F003FA202006
:10097000062121540A9809902346D2E000200290D3
:10098000E4E00F99214042D11979032970D10299ED
:100990000F296FD02C21595C00296BD00320C00295
:1009A0006CE0083902290CD8FC280AD19A79002A6F
:1009B00007D0F06B3921017007F064F900259D71B3
:1009C000AFE0029A0F2A28D19C490988002932D029
:1009D0002F21595C00292ED0FC282CD19849097C64
:1009E000490762D52921595C002932D127E0F16BF2
:1009F000087020210C22625401463139092923460E
:100A000000D98EE0397800020818388039E0F06BA0
:100A10001021017007F036F97FE02C229A5C022940
:100A200033D8002A31D0FC282FD1F06B1821017067
:100A300007F028F975E02921595C002903D14621E6
:100A4000595C002905D0072803D17D49097F490752
:100A50002BD5197902240329109A58D10F990C9B90
:100A6000194034D1072851D1022004F0DDFB30E0D9
:100A7000080203E005F0F0F86D4B000239780143FD
:100A80003980022007F0EEF84BE0002A9CD0FC28C9
:100A90009AD16B49097C490796D420061099091808
:100AA000109122201D5443201D540A9D39E0052138
:100AB00011733989401858617888C004C00F507488
:100AC00005F0C8FF5A4B01205E490860BCE605F0FE
:100AD000C3F8109A01461AE00125002299422846DF
:100AE00000D8104605998E4200DA15460543A5E662
:100AF0000598864200DB01E3002500E34C4B00989B
:100B0000185C00280E9E00D09EE600E610212243CD
:100B100010923878090240183880032000BF00BFC7
:100B2000434B4720185C002808D0996B3046884713
:100B3000002802D0069807F095F83D4B02952C202E
:100B400000211954089807F00DF8394B3E48001D54
:100B50000D9901424AD041241D5D002D46D0FF2D44
:100B60000CD12220195C491E012918D81E21354AB2
:100B70001160422103225A541A5435E02226985D0E
:100B8000012810D140229F5C9869002F11D10028C4
:100B90000FD0018882290BD8491D8F0809E0422017
:100BA0000221195420E04220022119540E9E1BE01C
:100BB0000027AF4212D3002810D02449096B8908BE
:100BC0008D4200D88AE21E201E490860422003217F
:100BD0001954995505E0C0468C0A00204220042192
:100BE00019549F540E9E0B9F0020185509980028F9
:100BF00053D0174CF56B03272F700A9805F03AFA7B
:100C00003046072611490E60816BA01C0024002984
:100C10000CD069880A05920F054B1DD02720185C5F
:100C200000280B4800D00B480A9C1FE0004B1DE039
:100C30008C0A0020A82009400620094096A4000044
:100C4000240C002030100840FCFF0100A0110840D7
:100C50000208000002280000890407D4F04909882E
:100C60000029DBD02E21595C0029D7D00D94FD49F5
:100C70004885EC68002C0AD02088401D8108FA487D
:100C8000006B8008814200D8E8E0842000E08320E7
:100C9000287006F0F7FF0E9E0B9F059801020F9833
:100CA0000140079104D10F988006800F00D181E0A8
:100CB000B06B00287ED0EC48C76A10200F990090D6
:100CC00001400991042F6CD300200C9006F09AF893
:100CD00085B26C1D2646E5480640BE425AD8E44F10
:100CE000B868314605F032FC3B46074698688742B3
:100CF00003D0082006F0B6FF9F60002F4BD02220C3
:100D00000D90185C002807D0032805D043201E54FE
:100D1000D548C06844215852A108F8893C181034BD
:100D2000204604F0C7FEF8898019F8810E9EB06B4A
:100D300006F038FBCE4B2020195C0A2919D1152169
:100D4000079A002A11D0032D0FD3A31CA2789B1859
:100D50001B792A25C64F7D5DAB42C54B05D1A11835
:100D60000979C906009900D54321F26B11700C2155
:100D70001954042006F076FFBB48C76A099800287A
:100D80000D9A02D1985C03289CD10C999954432068
:100D9000195497E7F24B85201871F84805990160BE
:100DA0000E9E0B9F5879002804D0306CEF4906F056
:100DB000C5FFEB4B092040020F9901420FD0B06BE9
:100DC00000280CD0222000211954432019545879AE
:100DD000002804D0306CE54906F0B0FFE04B202439
:100DE000185D0C282CD1FF200002398801400198A1
:100DF0008142109D00D093E037460598C6043543E4
:100E0000039806F0EDFDF86B418889041AD40E9919
:100E1000896B002916D02121D14B5A5C0020002A71
:100E200072D0D04A1288002A0E9E0B9F5DD02E22CF
:100E30009A5C002A59D0D149059A0A602F2161E0B5
:100E4000109D6DE02121C64B595C0078002923D00C
:100E50001871CA48059901600B2057E0204605F03B
:100E6000E3F86888410510D4C249891E08420499F4
:100E700000D1D7E06889B94A1085887C00280B9F8B
:100E8000B74B00D1F6E00120F5E0A0782188021DE3
:100E90008A420CD900200CE00B9F39780002081818
:100EA0003880B01C109D054300200E9E30E00019D4
:100EB00080790E9EAA4B6989A84A11850499897C7C
:100EC000002903D0059C21020B9F02E039020B9FF1
:100ED000059C0918A44A11800921049A1173907580
:100EE0000C9841300C902046D0E046229A5C10923B
:100EF00029239B4AD35C109A13431A0600D0F8E0CA
:100F00000222974B5A5403E00A9902910E9E0B9FBE
:100F100018555879002803D0306C944906F00EFF1C
:100F20000298002840D005F025FF8D4A4620115C2C
:100F300000290AD000211154B06B01F0D3FD102814
:100F400001D306F0B7FD06980543A8072CD406F098
:100F5000B8FD032805D10498C07C002804D0864839
:100F600003E006F0A7FD1FE082487C494885002485
:100F70000C857D4804800B2081490860306B214638
:100F800005F014FD049844757548C485204605F0A5
:100F900071F806F0EDFC1D2078490860039806F012
:100FA000E1FD059804994873A80735D56C482021C0
:100FB000415C00290AD0F16B002904D00A780F2A7D
:100FC00001D87A780A700A99C9040D434621415C18
:100FD000002901D006990D432B21415C002904D042
:100FE000818F694A1160C08F506005F0C9FF06F01B
:100FF00009FC06F011FC06F07FFD5A480088002825
:1010000001D006F0A5FC089806F0EAFC06F0D6FA36
:10101000306C564906F092FE284615B0F0BDC04629
:1010200096A4000000204D4908854F4908800E997C
:10103000896B00290B9F4A4B0DD0698889040AD41B
:1010400050490C9147490A880821002A06D02E22CF
:101050009A5C002A02D03146009A0C9220229954C0
:101060000E9E13E006200940A0110840FCFF01007D
:101070008C0A0020052000020E9E3B4908800920B2
:10108000049908730C9841300C9000202821585482
:101090000798002807D1306B0A9905F087FC2920B2
:1010A00000212F4A11540C9C204606F05BFD20467F
:1010B00006F0A6FC2D48C068286106F059FC022005
:1010C00000BF00BF1C202D4908600D980028244B4C
:1010D00000D1E2E5212001211954DEE50D922946D7
:1010E00004F0A2FF42207F1B0CD01D4B0599195420
:1010F0000DE00221214A1160194B09E70125254025
:10110000FFF79CFB0027164B1F54022098550D9AA1
:1011100067E518481149144A48850F85178006F07D
:1011200027FC022000BF00BF14481D210160109F52
:10113000380506F017FD77730B9F3888B9780904D6
:1011400040180B49084003210A0202433A80000C70
:10115000B87021710025FFF709F9C0460620094043
:101160008C0A002096A40000A8200940240C00202E
:10117000FF00FF00020800000228000030100840B5
:10118000A011084001A000001C21084000B5CDB00E
:1011900001201290B94F787D002814D112987875EB
:1011A0000A20B74C214606F0F5FC0920214606F03E
:1011B000F1FCB448826AB4498A4200D08162426A32
:1011C0008A4200D041620120119040020D9006F049
:1011D00041FBAE4E306D002800D08BE0B86CF96C4E
:1011E0002490259124A901201E90087000242046F7
:1011F00006F0D2FA386405F0EFFAA54DA549A648E5
:1012000012C52860083D28460C3024211D9106F0A7
:10121000A3FCA24828636C63AC63EC632C64A04A13
:10122000A0484B210905A04D106254629162D4621E
:1012300014635563104638301426314606F08CFC92
:101240009A4F94483860FC719348B86038460C3027
:101250001D9906F081FC914838637C63BC63FC6394
:101260003C648F48C56405464C355030314606F025
:1012700073FC379436943594349434AE3046103041
:101280008B49182206F012FD8A48282231467F4EEB
:1012900006F00CFDBC71BC80874870650D99D03993
:1012A00005F0E8FC716D834806F000FA8348844934
:1012B0004122D2013A617961B8617E48B8633D64E8
:1012C0006E4F4C20764B195C02220A431A5479491E
:1012D0000C614C6108460D461D300B2106F03CFCAC
:1012E000AC611E9828722B2028777648764904F046
:1012F000E7FE3065664800240B94214604F000FDAB
:101300006A48214604F0FCFC70483490704D243546
:1013100034A91E910424284606F028FD6C48283084
:101320001E9906F023FD05201895287369487064FE
:101330000E94747268486949694A416082601298E3
:10134000B875684D29462C3130220B9805F006FA05
:10135000E86A411C12D0B0720320F072686D70848C
:101360004F4C1034294640311022204606F0DAF95D
:1013700074645020285C3073707203E00020708128
:1013800059487084119988020F90584835905848F0
:101390003490B176574870623046703034A90822D4
:1013A00006F0C0F95448308506200690F076534880
:1013B000F0610F2010900002308424A8811C099154
:1013C000011D0C910146143108911830079034A882
:1013D00012300A90404DF07A032800D131E348489A
:1013E0000F99016081600D9C0460846005F05AFFD4
:1013F0000F98434908610C6106F07CF90128EAD195
:101400000B9CF07A0328E6D0139411992970334A83
:101410006A60334AAA60820001A39A58C9B297460B
:1014200035140000191500000D1500007B1900008F
:101430007B190000481E40007844808840008744A3
:1014400003001D01C800D600287CA9684A794243E0
:101450005A3AAA734879E873B07A287400206874FD
:1014600006F06CF9A8742748401C0A24264906F0A7
:101470007DFC2448047004F0ADF9EAE1F00E002090
:10148000024005606808002095740000000E0020EE
:101490005C0B0020012000009100000000726F91A1
:1014A000640F002000BA621100007F7F180B00203B
:1014B000A0A30000E40B002060040020454F0000C2
:1014C000170008003809002044A40000ACADACAB04
:1014D000780E002054A4000094090020B0A200005F
:1014E000B8A40000C80F0020FFFF0000EFFE0110AD
:1014F000ABBACDDC28000100CDAB000021010128F2
:1015000064300240E80700208CA4000001293ED08E
:10151000022900D09DE145E2042900D195E003298C
:101520005BD0012900D094E101201C90E873B07ACF
:10153000287400276F74A87401F0E8FD6C681B9094
:101540002490A07D00281E9702D0A769781E8741AD
:101550001A97207F00281E9902D0216A481E8141D7
:1015600019912420205C0028C94F03D0A16A481E8D
:1015700081411E91E0206875A07CA875132021563A
:10158000E975207D002900D58EE003228EE001243C
:10159000EC73B07AA87401F0B9FD1E90E220687572
:1015A0002B4615336868A968057DF74A967CF74A8B
:1015B000578C8A79002100940196F44E0297F14FDE
:1015C0000392049103212940EF4D1E9A02F08EF8F8
:1015D0003FE1E87C002804D0F8E1E87C002800D056
:1015E000F0E10124204602F077FFEC742EE1E84A96
:1015F0001078001FC1B210700A2900D229E1E44915
:101600008878000249784018E249884200D020E1F9
:10161000DF494879000209794018DF49884200D043
:1016200017E1DB49C879000289794018DA49884214
:1016300000D00EE1D648007A0D2800D009E1D44848
:10164000407AF32800D004E1C8E134A81FA900F0D3
:1016500013FB002800D0FCE01FA80078CC49081834
:101660004178F02900D0F4E0451C0020102800D17A
:1016700010E120A9FF220A54401CF7E7E87B401E36
:10168000E873000600D1E4E0687C401C687406F052
:1016900055F8A874A87B401CA87304F09BF8E87B5D
:1016A000012800D0D5E0D1E028760E9A81071D945C
:1016B00039D0716C207C0028179109D0022800D005
:1016C000BEE1211D34A8164606F052FB324601E069
:1016D000E06834901692AD1815951535AF482C304A
:1016E00034AC0426214606F03FFB102014900090F5
:1016F00018980190AA4821463246179C234602F0CA
:1017000069FA00900195A6482146149A189B02F0A8
:101710007FFE34901598253034A906F025FB169AE3
:1017200014321D9C207D40B2974D002807D5A81883
:10173000153024A9164606F01BFB3246321DE17C0B
:10174000607D490701D4164602E0561CA918487569
:10175000C10706D0A8191530022206F0DEFAB61C21
:10176000607D810706D5A8191530A11C06F0F0FA96
:10177000B61C607D40072FD4607D000750D51998B6
:101780000028129800D11E98002800D157E1A06AC5
:10179000002700283D4602D0204624300578206AE4
:1017A000002800D0277F38461099084029014018AA
:1017B0002346741CF1B2744A51184875196A3806E8
:1017C0001CD07F1EE0B2704A101815308E1C06F037
:1017D000BFFAA41C3146F2E71A98002800D12DE187
:1017E000A27DA1691046F3B2EB185A75761C020669
:1017F000C2D0401E4B1C0A781946F4E71D98816A36
:10180000604F28060AD06D1EE0B25F4A10181530EE
:101810008E1C06F09DFAA41C3146F2E726465A4D6E
:10182000F1B2782900D308E16868AA68AB7C574E0A
:10183000748C927900910193029403921C99049103
:101840002B46153300211B9A01F050FF142004F0A1
:1018500015FE05F027FD307C01280FD0307D0028D3
:1018600005D0E87C00280DD105F0B6FEF1E7B87B85
:101870000128EED105F04AFC032106E00020307477
:10188000022102E004F0A6FE04212970F07AC2E5EC
:10189000F00E0020AC1C687824A90870C10706D09F
:1018A0000222099806F039FA2C1D24A80078EC4D84
:1018B000810706D510220C9806F02FFA103424A8C0
:1018C0000078410706D50422089806F026FA241D60
:1018D00024A80078C10607D5810705D5400703D5A0
:1018E0000422079806F019FA6968C87CC206DB4C26
:1018F00005D524AA1278D207ABD024AA5488097D32
:10190000890700D18AE0800678D524A8007881076D
:1019100074D5400774D51B9434A8007C0A9A1178BA
:1019200053781B02591893781C04D3781B061B1993
:1019300059182A9B299D2FAC1E94019430AC009419
:1019400004F032FA2BA81D90009501901027C64D87
:1019500028460C993A46234602F05AFD1C900097FF
:101960000194042228461E991D9B02F033F91C990C
:1019700081424BD0B84FBA4D6BE7022819D2C8202C
:1019800018E0C046F00E002094090020000E002050
:101990006807002001080000FFFF0000780E00200B
:1019A00032A40000297D002200920320134602F099
:1019B000A9FE3220139C03F03BFE641C652C00D072
:1019C0001FE508E506F099F9EC74D8E706F095F9FB
:1019D000EC74287C401CB072F472D0E7A148807A85
:1019E000109908400B30287505F090FB06F085F93A
:1019F000EC74287DB0720120F072C0E7716C00E0D9
:101A00000C9920A8102205F08DFE07E020A82BA934
:101A1000102205F087FE904F914D1B9C24A8007862
:101A20004309297D0094022020AA02F06BFE06F0F3
:101A300064F9EC7405F06AFBA1E7FEE7FEE7FEE758
:101A4000FEE704F089FB34A8411C1C91C01C1B90CC
:101A500087480A301A9087480A301990834803F063
:101A6000E7FD022004F00AFD05F044FE022827D21B
:101A700024A92020088034A8A022027002221C98E9
:101A800005F050FE00201B9CC0071CD1724F503740
:101A90000222204606F043F9B9786F4FA170E01C8E
:101AA0005622BA5A3B4656335B881B049A1802F0FA
:101AB0009FF9044634A8201A64281298E4D3C9E098
:101AC00004F04AFB05E034A8211AC9B2012204F04F
:101AD00069FC142003F0ACFD05201E9004F0CEFC40
:101AE0000124204602F0F8FCEC7405F0DBFB307DAD
:101AF000002805D0E87C00280AD105F06DFDF4E748
:101B0000B87B0128F1D105F001FB0698C4431AE027
:101B100004F060FD53490878001F087034A824A918
:101B200000F0AAF8044600280BD124A800784D4AFA
:101B300011184B7818931278C04310181690881C0F
:101B40001790042028700027384602F0C5FCEF7477
:101B5000002C414F82D11898C0B2F2283AD0F12817
:101B600000D07BE734A8009020AA24AB17981699E0
:101B700005F0CEF8002837D1349817990C1816992B
:101B8000081A1D9000282FD02BAF30AA20463946C6
:101B900005F00DFE03203490E41C388801280AD09B
:101BA0001E99090288421FD130A8077807222046D3
:101BB0003946199B05E030A80778062220463946A9
:101BC0001A9B01F06DFB00280ED1E4191D98C01B73
:101BD000C01ED6E734A8009020AA24AB1798169907
:101BE00005F096F8002801D01B4F37E74B20020183
:101BF000349817990C181699081A503215921D909E
:101C00000028F1D02BAF30AA2046394605F0CFFD91
:101C100003203490E41C388801280AD01E99090258
:101C20008842E1D130A807781998009007231598C9
:101C300005E030A807781A98009001200623214675
:101C40003A4602F0ADFA0028CED1E4191D98C01B27
:101C5000C01ED4E7FEE7C046F00E0020FFFF0000E4
:101C6000940900206807002032A400007F3A000099
:101C7000D710002024100020F0B5A5B0089103462D
:101C80001233C04F39780A910025182D04D01EA9AF
:101C900000224A556D1CF8E70C9009931EAD2846AA
:101CA0001430791C02220B91079205F03BFDF87865
:101CB000A8753C1D0D94687D0007860F14D0123561
:101CC0000DA90222284605F02DFDB91D0D91022E09
:101CD00010D124A80DA906F03BF83C4608340D9419
:101CE00024981EA908800BE01EA8A7494182002164
:101CF000018005E01EA805F0A3FE3C460E340D94BD
:101D00000C9E1EA8457D402D21D31EA8007D4006B7
:101D100007D41EA810300DA906F01AF8A41C0D94C3
:101D200002E01EA8418A0182C0200540802D08D112
:101D300024A80DA906F00CF8A41C24981EA908815B
:101D400005E01EA80830214605F07AFE08340B9DF8
:101D50000021C8430B90641B1EA8C475E0B22A5C26
:101D60003C2313400C2B00D0C6E02B1850B2B073AC
:101D70000028069301D45A1C01E059789A1C059258
:101D80000A9A0494151BF17303230A461A4032740D
:101D9000C6B2F6098F0804243C403619014389076E
:101DA00001D0012100E005217118ECB2A14200D957
:101DB000A2E0002A0AD0734C099D0C9E059F022ABE
:101DC00002D138787F1C0CE000200AE018406D4CEE
:101DD000099D0C9E4CD00020E870A8706870287097
:101DE000059F7074F07BC006800F01D0012806D1DA
:101DF000707B0022EA72AA726A72287205E030468D
:101E00001A30042205F08BFF3F1DB07B43220240B5
:101E1000012A03D1F07B40220243F27306983F1A55
:101E2000380669D0317C022905D11EA9082228462E
:101E300005F078FC317C55484068027C91425BD1CA
:101E400002291DD0002904D1C06805F09AFC8842FF
:101E500052D1F777F07BC006800FC04678440079F6
:101E60004000874441011B4C2078801E20703BE0DD
:101E700004222846059F05F052FF3F1D327C9EE755
:101E8000417C727C914237D1001D00210829E0D0AD
:101E9000425C6B5C9A422FD1491CF7E705F0EEFDDE
:101EA000069C6118C0B20C90091824A805F060FFC8
:101EB000F27FA118287A6B7A1B021818AB7A1B04E0
:101EC000ED7A2D06EB1818180DAB079D00950190C3
:101ED000029320460C9B2B4C03F03CFB2499227868
:101EE000121F2270884207D10698C019E1430818D2
:101EF0000899087000200B900B9825B0F0BD05F0F4
:101F0000BDFD069A5118C0B20C9009181DA805F025
:101F10002FFF307C05F035FCF37F0A93069AD41826
:101F20002A7A6B7A1B029E18AB7A1B042A46ED7A3A
:101F30002D06EB189B191D9D099524AD01950DAD3E
:101F4000009503F031FF1248466C09980090079401
:101F50000194304621460C9C22462B4602F058FA4A
:101F6000099000940195304606990A9A079B054C02
:101F700001F030FE2178091F217009998142B3D008
:101F8000BAE7C04668070020FFFF00009409002060
:101F9000000E0020F0B587B00446B34E05F092FE67
:101FA0000746B24847822078069004281DD3268D24
:101FB000B004850F28012838B8421EDDC01B0590EB
:101FC000B1068A0F0A2104914A43A94B2946984732
:101FD0000090B005820F0498424305982946A44B0F
:101FE000984704900322324023E00027049701978A
:101FF00003970597384602975FE0B50B29017D20CE
:10200000484087421BDD381A059031068A0F0A21A5
:1020100004914A432946964B984700903005820F19
:102020000498424305982946914B984704903007FD
:10203000820F059829468E4B9847019003E00020B7
:10204000049001900090E36A19070A17394619397C
:102050004A43854EB58CED070DD11D032D171E0289
:1020600036176943C911891905917F4E18171B014D
:102070001917029109E01D062D171B051B1769434F
:10208000C911C918059100200290D1110391069938
:10209000082911D322462B32222F10DD1278130784
:1020A0009B0F9209233F15467D436D0010356E0945
:1020B0005F4310377F0917E0009F228A42E0102F0C
:1020C00021DA1278032313409206920F0F25ED1B9D
:1020D00016466E43674F774367497E1876165D4311
:1020E000664F6F437D186F1605256B435B086A4387
:1020F000964200DB1646F2179F4200DB1F469643CE
:10210000FA17974301E000263746228A93049B0E74
:1021100015062D17282159408B19EE1B3F2B00D394
:102120003F230721CD43AE42009F00DC2E46544999
:102130000A403101C9B251181B020B430521CA02E2
:102140005A40494E4F4B196F11431967617B7F25E8
:102150002940402251407B187F2B00D32B467189A8
:102160001E020127BF037E400E433F494E813E4E73
:10217000B1895B187F2B00D32B4631891B027B4032
:102180000B433381E77B2F400499002908D0574047
:102190007F187F2F05463B4B00D37F27574001E038
:1021A0000546384BD96E3A020A43DA66E18A490697
:1021B0000A0F0B2A06D801988018318842180C2A79
:1021C00000D30C2230347088824200D80246186E48
:1021D000D10001431966002020560221C9438842DC
:1021E00001DB024600E0421D0699042900D00246A8
:1021F000F08B0399081880181860B08CC00722D1A2
:10220000308C2946029F394301D102461AE00F243F
:10221000024622400306002F05D0D219D1178A4367
:102220000F2A00D322461B0F002D05D05B19D917AA
:102230008B430F2B00D30F23FF21884310431A0138
:102240000243104B1A61708C059A002A09D0C1B262
:102250008918CA179143FF22FF2900D311469043E2
:102260000843586107B0F0BD2068094028110020DC
:10227000A56B00008EE33800FFFFFF00C7711C0054
:102280000FC0000088300840F0B591B00692089168
:10229000079004F0F3FFEFF3108572B6A04C20789E
:1022A000002814D100260D96F0430E900DAB1E723F
:1022B0009C489D4A192102F07BFF9C480127394622
:1022C00005F052F99A48314605F04EF92770002D75
:1022D00002D1EFF3108062B603F018FF9548002496
:1022E0004462292101234354EFF3108172B6427EE8
:1022F000002A07D0002902D1EFF3108062B68E4881
:102300000464FEE704934376002902D1EFF31081C1
:1023100062B60421017604608476C47604771120C5
:1023200003F046FC05941026304603F041FC824F32
:102330008248386409AD0220287007980A900B96ED
:102340007F4C2046089905F00FFD0D950E947D48B1
:102350000F9008961096059E3F6C2878082802D0AA
:10236000022800D07DE0F2433D68EFF3108172B6A1
:10237000E87E0028144602D1049BEB7634460029FF
:1023800002D1EFF3108162B6002817D0002C68D17B
:102390006C491022069805F0C5F96748006C0028C2
:1023A0000BD000684676112003F0D8FB102003F014
:1023B000D5FB04F0B7FD11B0F0BDFEE701922C464D
:1023C00028346078002809D02968584802F042F97A
:1023D000002801D0EE7644E00498A8760DA8286283
:1023E00004982070281D039009AA02920797039F62
:1023F0001BCA1BC76E6102980078079F022830D164
:102400003C68514DA1682846403002F079FC4F48A5
:10241000E861207E109D042818D0102D16D378680E
:102420000178EFF3108072B63E4A494B53609760D3
:10243000002802D1EFF3108062B6192005F06AF887
:102440000498400243490860109D207E0E9B0F991E
:10245000042801D00F2D05D82A09184602F02CFCBB
:1024600037E0FEE73848C2690498039101068A43C1
:102470003549CA61384A0A61029304F0E1FB0498C5
:1024800020773C46AF0835488168354A1140354AC7
:10249000891881602C4D2A46143202993B4603F07C
:1024A00081FE314908980860304881682C4A114003
:1024B0002F4A8918816029461831039A3B462746DE
:1024C00003F070FE2020284908602A480821016096
:1024D00029603F68387E042803D0396AC9680F290B
:1024E00015D87C692820385C032800D0FE76384651
:1024F00003F004FA387E012800D047E73846283038
:102500003A6A7D6A037807982146A84740E702287F
:1025100000D03DE70648019902F09CF87C6935E758
:102520007E110020801000204F790000EC0900206F
:102530003C0A0020C80F0020000E0020A0A40000CC
:10254000900500203006002010000C4028000001FB
:10255000C555000000E100E0210202004004002017
:10256000F73FFC00008000EA286002405004002091
:10257000008000AE04010C40F0B587B000220028B6
:1025800000D148E1A74B40C8340C5D1C2E42059198
:1025900007D00D8831462646AE43B4420E460AD0D7
:1025A00039E1002C03D18C78002C04D133E10D8863
:1025B0002C4200D12FE11E400322002E00D12AE13F
:1025C000B10A00D027E1984909680191FF2400254C
:1025D0002F460495002E00D11AE1002D11D102C81A
:1025E0000A46924B1A40551C0A04140F0A0C761E18
:1025F0000B2C6ED80121A1408D4B194269D08D4919
:1026000057180B2C00D909E1A10001A251588F469F
:10261000492600005F2600004126000041260000F8
:10262000AF2600005F260000412600004126000082
:10263000492600004126000041260000C92600006E
:10264000B90729460FD0E1E0B90700D0DEE03A46ED
:10265000002D00D1CDE0002102C26D1EF8E7F90780
:1026600000D0D3E069088E4200D2D3E00691002961
:1026700000D1AAE0611E0A2900D9BEE0069BC0462F
:102680007944097949008F443F05669F2C05529F84
:1026900061058100029699007A18002B03D002C8C8
:1026A00002C75B1EF9E7069BED1A17468BE0F90798
:1026B00000D0ABE023463946002D07D08A1C002409
:1026C0000C806D1E1146F7E7F907BAE7049D1C461A
:1026D00080E7082C00D28EE0092C00D18FE0A90001
:1026E0008EE00294344699007A181E46002E06D0D9
:1026F00002C80B0C39807B80761E3F1DF6E7069BD7
:1027000059006D1A17463EE00296D90079180391D8
:10271000002B07D002C80A0C89B239607A605B1EB0
:102720000837F5E7069B59006D1A039F4BE00294AA
:10273000344601210A041E46002E22D001681142AF
:1027400064D1001D0B0CD953761EF5E73860ED1AE5
:102750009900401838E0029434460121090403919D
:102760001E46002E0DD002C80A0C8B039B0F04D00E
:10277000039B19424AD1D15301E089B2D151761E4F
:10278000EFE7069BED1A2646029C1DE0029605998E
:102790008E789900791800911A460396002A10D075
:1027A00002C8002E01D089B208E00B0C26463C6816
:1027B0009C4389B221433446039E069B02C7521EA6
:1027C000ECE7ED1A009F029EF61A012D00D001E7FA
:1027D0000125042221461143052900D0FAE6002EE6
:1027E00019D00188052C01D1398000E03960001D25
:1027F000761E049DEEE6104902E7069BE4E70421FD
:102800008918019B99420BD80C49F9E6062202E08F
:10281000049A00E00422104607B0F0BD0522FAE752
:102820000722F8E7FF3F0000D4A40000FF0F0000DC
:102830000F0800000000084000000940B80C00200C
:10284000F0B58DB09A4A12680029069201D09168BD
:1028500001E006CA8918471A05F0DAF8064605F0BD
:1028600057FA864238460FD0380CB9B2320CB3B2A0
:1028700004465C430D46554364195943090C6118DD
:10288000890942439002081804908A4B8A4C8B4A6B
:102890008B483818401C000C01210291C9072160A7
:1028A00060601880506801058D0EC0023C46C70D5F
:1028B0002046294604F02EFD0646BD4203D02046A0
:1028C000394604F027FD7F4D7F4F000430437B499C
:1028D0004864086801900594204604F07BFA064697
:1028E000286840016968C904C90E0B186968AD6998
:1028F0007C1C1F222A406806800F0394254202D1C7
:102900002D06ED0F4019029C5A43704B9A4200D895
:102910000024CDB21746E7409A4201D8042100E0D6
:102920000321401800900924674330463F30800956
:102930006843000C03F08CFF0A28029405D30A3880
:1029400075430099091885400CE00A21091A201ADC
:10295000012282409619CE4075438E400098411A5C
:1029600000D5A1E08F405A4807604560059804995A
:10297000814203D0084604F02DFA0646019B9800D8
:10298000C0B270434D4AD0639809FC2101407143A5
:1029900011645048069D029F0168C907FCD1464852
:1029A00084686868214604F0FDF9424E7080A8688A
:1029B000214604F0F7F9B0802868C11702464A4062
:1029C000511A203189096143083109094F433D4EAD
:1029D000B169039A114201D0002101E00906C90F33
:1029E0001622521A15234B4001210591994079185E
:1029F000D140002800DD494237480840F060F065CA
:102A00002E69002E4ED02001E9680A0B42432E4B5E
:102A10000B404343180B8018376830493940C20BCC
:102A20004A435208264B03404B43180C8418103479
:102A3000200C03F00DFF7B0C1821C91A00229142D3
:102A400004D007AF0025BD54521CF8E70821081A2E
:102A50006109C2179043059A9204824004461334D8
:102A60005B42351D002B09D02E784E43B618E64048
:102A700007AFFF183E765B1C6D1CF3E700210F4C7F
:102A8000182905D007AA525863185A62091DF7E79A
:102A9000032800D3032012490A6830239A43000117
:102AA000104308600DB0F0BD4842C7405BE7C04628
:102AB000B80C00201A6809401835084080340840D6
:102AC000FF7F0000D4200840FF0F00001CC7711CCE
:102AD000A82408402C320840FF030000FFFF01003B
:102AE00040310840F0B58DB0824A834EFF21090283
:102AF0000C9101210191017A804B9977029111800B
:102B00000390817A2B229B5C002910D0002B0ED1E0
:102B1000336871680124794DAC54AB87E9870C9810
:102B200003407F2213430140114333600BE05A42BC
:102B30005A410029019900D11146002904D16F4A58
:102B4000918F3160D18F71606A4803464E335630A1
:102B50000B9000216A4C0D4600910298814200D1F1
:102B60009EE008940A931820099148430399081895
:102B7000028B07955F494919CA85428B0A8602690B
:102B8000436932240A5136228B50027F5606B30F16
:102B90001B02D400802525405B1994002025254088
:102BA0005C1907252A40042A12D8C0467A441279B3
:102BB000520097441102090B0400042207E0062288
:102BC0001443019A009203E0142200E054221443BB
:102BD000002E01D5019A00924C87426A8221002A78
:102BE00000D084E0076A002F44D03D68402D7ED895
:102BF00028460F30010906970C371020461B059513
:102C00000B9A0491002917D0102D02D30020C04345
:102C100002E00C98FF30F0403C46083C2488044019
:102C20001346083B1C803B8803401380491EBF1C91
:102C3000921C1036103DE5E7049A50002D4F3918CC
:102C400056310A9B089C079D059E042A09D2084616
:102C500008381746002202800A803A467A1C891CEE
:102C6000F3E7069A14322046002E0ED002CA02C0A4
:102C7000761EF9E7E8430A9B089C079D002804D0CC
:102C8000191800220A81801CF8E710350999491C9F
:102C90000B9810300B9001200002241810335CE7D1
:102CA0000398C17A154814308174002901D016495F
:102CB00000E014490F4A51800399497AC1741348BE
:102CC00004F08EFE0D494879002801D0124806E034
:102CD000888BC008C0430E4901430E480840009944
:102CE000C90701D00D49084304F08AFE03210846B4
:102CF0000DB0F0BD362009401C2108408C0A002090
:102D0000042209400B0B00000F0F0000B9930000D4
:102D10000181000031810000B19100001812000013
:102D2000F0B587B07A490C68002C21D0A088000447
:102D3000000F00D0E9E0012042020192049000025D
:102D40000590E06803908D6800268E6004F0C8FD51
:102D5000009003F053F8401E042818D878440079F6
:102D60004000874402120E100B00049880030DE00F
:102D700069486A49742200BF00BFC6E00498400554
:102D800004E0059802E0019800E040200543211D81
:102D9000032002900702384680300542069110D089
:102DA000487800020199884240D104F087FF3D42F3
:102DB000069E1DD00198564B28400FD01846103063
:102DC0000EE0680432D5534FBA7879680398806D65
:102DD000814216D07860511E8A4113E018461C309B
:102DE0000078182101401879E72202405018187124
:102DF000012002F019FA317800020818308002260A
:102E000014E00846618800F08BF8002804D004F034
:102E10002EFE0226002001E000260220B870F8787D
:102E2000002803D104F0F0FE0498F870069840786A
:102E3000FE210140881E0D2805D8A3682046009970
:102E40002A4698470646F00709D001F0D5FE00282B
:102E500005D001462E480068012200F0E9FC0F274A
:102E600080220599294030041BD5019205912948FB
:102E7000827840682649098D00F052F8002805D074
:102E800004F0F5FD02200643002000E00220214965
:102E900088701F4800680499890403F017FA05999F
:102EA000019A38031540002901D1069F06E0069FCC
:102EB0003988014202D1049989020E43002D05D0C0
:102EC0003988014202D10499C9020E436169029A0C
:102ED00092020A43324003994B6D13434B65398884
:102EE00001400B4311D000290DD004F0E3FA04F0A7
:102EF000E1FE04F065FD074CE078002803D004F003
:102F00007EFE0020E07004F093FE07B0F0BDC046E6
:102F1000240C0020D40C00200EA4000009A1000005
:102F2000F0B585B01746039105466A4E7168006892
:102F3000814208D0684903F05BF904462868706054
:102F4000002C02D0C3E0002FF4D0B1686868814241
:102F500008D0624903F04CF904466868B060002C60
:102F600002D0B4E0002FF4D0F168A868814208D004
:102F70005B4903F03DF90446A868F060002C02D0DC
:102F8000A5E0002FF4D0E86800280ED0308A039A1C
:102F9000831A591E8B41012F00D802230193022F5F
:102FA00006D3904204D1002421E00020019034E0B7
:102FB0000024022F01D3214600E00121328204A81F
:102FC00004F08FFE0420E7430295E9680A687F1C3D
:102FD0009742E8D23546061D085804A9414AFFF732
:102FE000CBFA0446002830462E46029DEDD03E48DE
:102FF0007F2101603D48682101803D480F21018209
:103000003C480078002806D03B490A688243337860
:10301000034013430B60002C59D138480168002944
:1030200032D085680198012830D002284BD1002485
:10303000002D4CD032484268AB8813434360026B8A
:10304000EB8813430363021F13682E891E43166027
:1030500002686B8913430360026A6B8A134303623D
:10306000426AAB8A134343626A8E274B1A60006838
:103070007F22520202401E480280284602F042FB94
:103080002846FEF787FF22E0082420E0002D1DD00F
:103090001B48C26907239A43C2610269194B134056
:1030A000036142697F235B029A4342610024846189
:1030B0000268F0239A430260284602F023FB284668
:1030C00003F0BCF803E0284603F0B8F800242046DB
:1030D00005B0F0BD28110020000009400040094063
:1030E00000600940FF3F00001C32084008200940F2
:1030F000366809408711002014110840B80C0020E0
:10310000B43008400383FFFFF0200840FEB50025DF
:103110001A262846314603F00DFD07465C48808A92
:103120007B21090188424AD9002F29461CD46C24EE
:1031300020467843683080B21B21019103F0FAFCED
:103140000028294610D480B201994F433F187C4390
:103150005B204001201803F0EDFC0028294603D431
:1031600080B20199794309180091F04301904848D1
:1031700040690004800C461E284604F06BF80746A0
:10318000304604F067F8411C1AD1424A974217D1E1
:10319000721B062A14D3A8194408204604F05AF8D2
:1031A000421C3C4F00D00746002A214600D0314641
:1031B000002A00D0254601981A300E46E3E7FEE7C4
:1031C00000290CD0002812D002F01CFC10E031487D
:1031D000874206D16D1C284604F03CF80746B542EC
:1031E000F5D3002F0BD0384602F00CFC08E020206D
:1031F000009D341801204002844203D104E02020C5
:103200002C18009D002C35D52148848A03F086FABD
:1032100000280CD0292161431F4CA06C1C4A928AC3
:1032200003689B689847A06C016809688847A9B241
:103230005B20400103F052FD1B21284603F04EFAAB
:1032400004460198604340191A2811D1A1B26820A0
:1032500003F044FD1B21204603F040FA1A2907D150
:103260000E49284603F03AFA81B2002003F036FDF9
:103270006D1C0024074802900548808A292141439B
:10328000A000081802A903F05CFD68020019FEBD49
:10329000780E0020FFFFFF7F000E0020D902000003
:1032A000F0B585B00293002B00D1B7E01546064675
:1032B000401801900198864200D3B4E0374603AC31
:1032C00002222046314604F02DFAB678F81C009010
:1032D00022880021029B8D4200D1A0E01C78587802
:1032E00000020019904202D0491C0A33F3E70A2079
:1032F0004843029908188179C27912025118027A5A
:103300001204407A000680184318324631460839C4
:10331000422900D935E0009E7944097949008F445B
:1033200022262B3E2121216622212121212121211A
:1033300022262B3E2121212122262B3E21562121EE
:1033400022262B3E21562121222621212121212105
:10335000213E212121212121215C5C4321212121A8
:1033600043214300A6E73E1DF8781870A2E7022229
:1033700004F0C0FC7E1D9DE7032204F0BBFCBE1DD3
:1033800098E7E22A009E0AD0F02A30D0F12A00D035
:1033900090E7102204F0AEFC13373E468AE7042281
:1033A00004F0A8FCFE1D85E704A800210180432A43
:1033B00001D0482A22D104AC0222204619461F46D9
:1033C00004F0B0F92088194988421FD172E706221B
:1033D00004F090FC09373E466CE7002B00D169E70A
:1033E0001878FF2800D165E7441C184611E01846FC
:1033F000314604F025FB0B373E465BE704A802226A
:1034000019461F4604F08EF904988000801C84B28F
:103410003846314604F0AAFC36194BE7FEE7162081
:10342000C04305B0F0BD0020FBE7C046FFFF000031
:10343000F0B585B000F04AFE03F066F84C4801682C
:10344000012421430160EFF3108072B649490A78E4
:10345000012A05D1002846D1EFF3108062B642E080
:103460000C70002802D1EFF3108062B61920C5431A
:103470000026304602F09CFB029602AB1C722846E6
:10348000193003903D483E4A152101F091FE334624
:103490003C483D490096002D20D00E68002E19D4DE
:1034A0002F461A37B2070BD42246BA401343019372
:1034B00032462240304B5F19D623FA54019B06E076
:1034C000720704D52246BA40009F174300972F4A3F
:1034D000164006606D1C001D091DDCE72C480360CA
:1034E0002548009901602B4D23200001019002F036
:1034F0000DFE2948411C0091284A06263046904777
:1035000000272F70204604F0E9FB2C70019804F08E
:10351000E5FB30460099214EB04712201E49B047C6
:103520000D201D49B0470C201D49B0472F703E4665
:103530002F73072E0BD807207040B921C1402140BE
:10354000E9712C73082004F0C9FB761CF0E72C709D
:1035500001988C3004F0C2FB124C0620A0471220C8
:10356000A0470D20A0470C20A04705B0F0BDC046E5
:103570001400004082110020443002406C0C0020F6
:10358000056900000031004084A10000F8FFFF7FC2
:10359000003502400631024000040020957B000007
:1035A000022004609D670000F0B589B01F46054603
:1035B0000620C643AC6858186368984201D9F61CC7
:1035C00087E00194029103920E9C4348C06BB11DA9
:1035D000009101F03FF8E007059406D123460198D9
:1035E0000068A1070ED4029C2EE03B4C217A0029F2
:1035F00000D03A490A463A40C8432379002B11D1FA
:10360000134612E0029C01193A46039B002A1AD085
:103610001C780D7825405B1C491C521EAC42029C54
:10362000F4D052E00123DB02D318384200D01A460E
:1036300002980140A86801F047FA0646002845D1E3
:1036400001980068029C059B02193C460399049767
:10365000002C24D0082C274600D30827EFF3108035
:10366000089072B61E4B1D68002018601D48066841
:103670001D48069107923B46B04719490D600899CD
:10368000002902D1EFF3108162B600281CD1E41B9F
:103690000699C919079AD219049F059BD8E70026F5
:1036A000580712D501980068029940180A4C002F5B
:1036B0000CD0039B197802785B1C0393401C7F1E7F
:1036C0009142F4D0009E01E0009E034CE06B02F0BA
:1036D00021FE304609B0F0BD000E002000F8FFFFCB
:1036E000244402406000000F8FA0E3B7F0B58FB014
:1036F0001E460A91074616980DA90880474D099263
:10370000EA70281D022404F031FB0CA9444808800B
:10371000A81D04F02BFB387C00280ED002280BD10A
:10372000681C404904F014FB391D28460830082263
:1037300003F0F8FF0F2005E0FEE7681C3A4904F0AB
:1037400007FB07200790281809990E918C214170DA
:10375000397C07230A9A9407344A527A032A01D8FB
:10376000002500E00125189A1940E30E0A9C002C60
:10377000089601D1254600E06D01441C561EB24159
:103780009201D218511829438170387C002806D044
:10379000022803D1787CA070032506E0FEE7A01C78
:1037A0000C37042204F0BBFA0625179806901598EA
:1037B0000590149F0A9E002E1CD060190EA90422A9
:1037C000049203F0AFFF2A1D07988018C5190096D0
:1037D000099801900294204608993B4601F0BAFEF0
:1037E0000B90681C0D4E80190BA9049A03F09AFFE8
:1037F000281D09E007984019441C084E3019089903
:1038000004F09AFAE019401E3070059840B202F0B8
:1038100011FE069804F06EF80FB0F0BDE807002026
:10382000FFFF0000D2A4000072A20000000E0020E2
:10383000F8B516460F46054604F058F901462C1D0A
:103840006879002800D183E00F2800D980E0002F9C
:103850007ED0012800911ED104F06CF90125284684
:1038600001F0E2FC21780002081820803B4E30462F
:10387000103004F0B0F903281DD1306800281AD0A8
:10388000317C490705D436490D60317C04220A4356
:103890003274690259E0032F3DD0022F24D0012F4A
:1038A0004CD12E480179B207D20EE7230B4099186C
:1038B0000171802148E030461C3004F08CF9022868
:1038C000009945D13068002842D0317F490709D49A
:1038D000317C490706D4224902220A60317F042242
:1038E0000A433277290230E0012001021B48027F9F
:1038F000B307DB0EE7261640F3180377520723D4ED
:10390000027C520720D4164A02231360027F04234C
:103910001343037718E0012251021048037CB607D5
:10392000F60EE7271F40BE1906745B070CD40C4B3C
:103930001A60027C04231343037405E009480A4912
:103940000A4A00BF00BF0021284602F0BFFC0099D0
:10395000084604F085F86078F8BDC046240C0020C5
:103960003010084099A3000009A10000A103000045
:10397000F8B514460E46074604F0B8F8009004F077
:10398000F7F80546002C04D0C835012C05D12E4689
:103990000BE04248C5602E4618E0A81B3E4988420D
:1039A00001D9354601E0022C61D13C48C56028466A
:1039B00003F028FC04F0DCF8401B3749884205D8A6
:1039C00037483849AD22520000BF00BF002F2DD02C
:1039D000324C20794007800F28D1B868F968002957
:1039E00005D08A196261227C012313432374421893
:1039F000012A00DC0122002800D40246002900D15F
:103A00000246012A05DB90192062207F0121014333
:103A100021772046103001F07FFC20461C3001F059
:103A20007BFC2079F9210140881C20711B48017C16
:103A30004A0718D4C906890F0BD0012902D00146C4
:103A4000183101E0014614310968691A124A91429D
:103A500009D9017F4A0718D4C906890F11D0012955
:103A600009D0243008E004F056F9032010E004F0F7
:103A700052F98620F8BD20300068281A064988428D
:103A800003D904F048F90320F8BD04F044F90220FA
:103A900001F0CAFBF8BDC046FFFFFF1F240C002049
:103AA000ECA1000008A00000FEB5002805D04549A3
:103AB0000024072903D8254603E0002480E00D46B2
:103AC000083D85427CD30294C71D07203E4A1378E7
:103AD000002B0BD10123092901D2002103E03B492E
:103AE00000248C600D603A4C21601370019587436F
:103AF000374E3568002D37D02E46083629460F310F
:103B000081438E4213D00A46083A2B4610339A421C
:103B100000D81A46521A0F32C3431340CC182968F2
:103B2000012291437118E2199142E2D305E029681C
:103B300001229143B942DCDB3446284603F030FDD4
:103B4000B44213D0A01B083829680122D34319407E
:103B5000091A286018402C1811430839A16008344C
:103B6000284603F0A7FA02E0029C29E02C462168CF
:103B700001260846B043C21B102A1ED3E319083A97
:103B80009A60083325180835104801994018854275
:103B90000FD22878C0070CD12846029303F000FD0D
:103BA000029B1868F14308402A680A4080180830D0
:103BB0001860184603F07EFA394631432160083414
:103BC0002046FEBD000400008811002000000020F7
:103BD000F00C0020F0B589B00293164605910890CC
:103BE0000E9C0F99404D542049222A542F46543799
:103BF000284655300D2203F095FD00200390B87340
:103C00000194FC732A464432089807973946069275
:103C1000FEF73AFB300A31210091685428463130D2
:103C2000049046700E27002E28D02F48C01B41302C
:103C3000BE4207D9059C214604F07EF8E41905949C
:103C4000F61B0DE0059904F08FF8F01B264C0028B8
:103C500005D02118412200238B54401CF7E7039E16
:103C6000069C20460499079F3A4603F0ABFD08984E
:103C700039462246FEF708FB1027D4E7029D019B38
:103C8000069F079E102B0ED33846294632461C4607
:103C900003F098FD089831463A46FEF7F5FA2346B8
:103CA0001035103BEEE7002B0F4F1AD029460020AD
:103CB000009C102804D03D1800222A55401CF8E72B
:103CC000049E30461A4603F02DFD069C20463146E0
:103CD000079E324603F076FD089831462246FEF7ED
:103CE000D3FA786C09B0F0BD780E0020F8B50F4615
:103CF00004463548002686800662344B588C344989
:103D000001400125280308185884002C05D13148AA
:103D1000C673314846660676DE622E49487C002826
:103D200000D0F8BD2B46C87B2B49002805D1486E32
:103D3000002802D18A754C660F76284D28463146F8
:103D40001A4600933B4602F011FF23498865B91CCF
:103D50000170401C214603F0EFFF1F4844660776C0
:103D600003F08CFA2020194C26540C35E562009D96
:103D70003420215C02220A432254164EF57303F0CC
:103D8000D1F8307C002809D021462031608C144ABB
:103D900002406284134801F015F9F8BD1248134B34
:103DA0006A0309490A614B61886120463430234621
:103DB0002033CB630864608C104360840648006D38
:103DC00002F06CFCF8BDC0465C0B0020640F0020C4
:103DD000FFEB0000F00E0020000E0020D0060020B7
:103DE000FFDF0000180B0020454F00001200080004
:103DF0007CB51546044608460838422800D933E009
:103E0000784400794000874421252A3A7070705D1B
:103E1000217070707070707021252A3A7070707007
:103E200021252A3A7051707021252A3A70517070FC
:103E30002125707070707070703A70707070707052
:103E40007056563F707070703F703F002878207039
:103E5000641C4AE0022203F04AFFA41C45E003224E
:103E600003F045FFE41C40E0E22908D0F02929D006
:103E7000F1293AD1102203F03AFF103435E0042240
:103E800003F035FF241D30E001A800220280432901
:103E900001D048291BD101AE02223046294603F049
:103EA00041FC30881249884218D11EE0062203F0F6
:103EB0001EFFA41D19E0002D17D02878FF2814D06C
:103EC000461C0DE0082203F012FF08340DE001A8A3
:103ED0000222294603F026FC01988000801C86B24D
:103EE0002046294603F040FFA41920467CBDC04669
:103EF000FFFF0000F8B503F023FE00280BD00546B5
:103F0000C168364C20462A4600F048FB03F018FEF4
:103F1000854204D0F8BD042000BF00BFF8BD206872
:103F2000002809D080880004000FF3D02C482D49C8
:103F30002D4A00BF00BFF8BD2879002824D003F027
:103F400017FE296A03F0BEFB064603F0F3FD201DB1
:103F5000282103F001FE2560286903F061FDE9686E
:103F60002268224F384602F01CFE214886421ADBA6
:103F7000FD20C100D720C600B878022819D2002839
:103F800023D0E868806D1AE003F0D4FD201D2821BD
:103F900003F0E2FD2560286903F042FDE96822682C
:103FA000124802F0FEFD20680121890302F08EF91B
:103FB000F8BDE868806D7A689042354600D00D46BD
:103FC00002F0BCFC002801D102E00D4675197835DD
:103FD0002068006A401B02F08DFFF8BD240C002011
:103FE00033A2000009A1000025020000D40C00202B
:103FF000214E0000FEB5314D2C68002C5DD0E768E5
:10400000002F05D12E482F49FF22403200BF00BFAC
:1040100003F0B4FD0290A0880004000F0DD02A68C0
:1040200000212960D0680368934202D102C002F0E7
:1040300071F903F002FE03F0CBFC03F057FD7D6D38
:104040006669A16901910021796503F009FD2805E0
:10405000800F24D003F074FD002820D00746C079DB
:1040600000281CD115480079C00718D003F062FD64
:10407000124A1079FE210140117103F0DEFD3879FA
:104080000B2149024018B880BB69002B07D0B88AC1
:104090000D49084203D000210B4A384698472E406C
:1040A0000299002901D0019B02E0002E019B04D05F
:1040B000002B02D0204632469847FEBD240C00203B
:1040C00080A3000009A1000002200000F8B52448E8
:1040D0004178002941D101264670867021498162CC
:1040E00021481C30214A13210024234601F060F8A6
:1040F0001F4803210160F50328460A301D4F386030
:104100001D48082101601D481D4A2021234601F059
:104110004FF81C48066086601B4806601B48C16853
:104120001B4A0A40C26001680F22120391434919D9
:104130000160184D18497D2082002846234602F070
:10414000C1F901F097F9284600F0F6FFF86CF10785
:104150000143F9641148102101600020F8BDC046F8
:10416000F00E002045430000801000207542000042
:10417000105402405810004000E100E0880C00207C
:10418000297B000058200040602002401C110040A4
:1041900000F0FFFFD40A0020095B00000058004037
:1041A000F0B59FB00C46249F1EA90880002F54D064
:1041B00005ADA520287000266E70A81C1EA90392CC
:1041C0000222029303F0AEFA281D009001962E7190
:1041D0006D1D0398201803900A3F0298401C02901E
:1041E000039884423AD204AE0222304603F095FD91
:1041F000A41C308802993A46491E09D016460A3650
:10420000937AD27A1202D21882423246F4D100E076
:10421000019E04A90222284603F084FA002E12D03F
:104220000020A870B178E970281DB279F3791B02DB
:104230009A18337A1B04757A2D06EB189A18FFF733
:10424000D7FD054604E08620A870FF20E8702D1DEC
:1042500005A8281A6428C3D3FEE7FEE70098C043E8
:10426000291805A80171291AC9B203F0C3FC00205E
:104270001FB0F0BDF8B52C4E01243568B56035612E
:10428000280410D56004B060284801F081F80020AF
:10429000014603F0CFF826487065082002F09CFC28
:1042A000204602F0BBFB234A0A272F4011D0E0032F
:1042B000B16BA143B163716D114071651E490A680C
:1042C0000F231B039A4302430A6001F0D3F8194AF3
:1042D000F760280710D5EFF3108072B6B16D11406A
:1042E000B165B16D521C0A43B265002802D1EFF3EB
:1042F000108062B60820F060104F3968002911D094
:104300002846884700280DD00020386074660C4885
:10431000016804220A430260102002F05DFC20467E
:1043200002F07CFBF8BDC0464C100040D40A0020CF
:1043300011000380FFFFFF7F1C110040741100205B
:104340002C000040FEB5EFF3108572B62A49C86A0A
:1043500004240440800726D402F06AFE002843D0DB
:104360000194264A264B274807681E68002F0295AD
:1043700024D048330025EA43052D1BD03946E940B7
:10438000C9070DD019682048445D3046A040091A7D
:104390001A48814200D90021E1408A4200D30A46EE
:1043A0006D1C1B1DE8E7002C1ED1C86A40071BD4FA
:1043B00030BF19E0FF20F63082420CD3134C256841
:1043C000901900F045FAE807029D0DD020680521FC
:1043D0000143216008E001980028029D064803D1AE
:1043E000C06A400700D430BF002D00D0FEBDEFF3FF
:1043F000108062B6FEBDC046F00E0020FFFFBFFF7A
:104400000421024044200240C8A4000010E000E063
:10441000F0B589B003931746089104900F98069061
:104420000E980190012007902A4864300290029E65
:10443000102F1DD301200597254C03F0BDFB079DD0
:10444000280AA073E57304982146069F089C32460B
:10445000FDF71AFF304621463A4603F0B3F910340F
:10446000089410370697059F103F6D1C0795DFE7EE
:10447000002F029D1DD00120154C03F09DFB0799D4
:10448000080AA073E17303F0F1FB00202C46104AE8
:10449000102803D000211154401CF9E70C4D284688
:1044A000089903F049FC20462946069A03F08AF948
:1044B00025460120064C03F07FFB0020E08103F03D
:1044C000D5FB0448406E0199484009B0F0BDC04694
:1044D000640F0020780E0020F8B5044602F0CEFEEE
:1044E000264D287C002C27D0002844D1244E0027BC
:1044F0003775244CA780244870651321090102F008
:10450000B9FB716D214803F0D1F8214821494122BE
:10451000D20122616161A0611C48A0631E484C3039
:104520002064E87B002800D1E763306D154902F074
:10453000B5F8707301201DE000281CD0E87B00282E
:1045400019D1104C0221204603F040FB0C4E707331
:10455000401E02280DD80120687402F0E3FC2046BA
:1045600001F050FB707302F089FE00206874707BCC
:10457000EEE70020287402F0D5FCF8BDF00E002014
:10458000000E0020180B002060040020E40B002027
:10459000454F000017000800640F0020F8B51646CC
:1045A00004460068114603F0D1FA0546371D3079FC
:1045B00000281BD003F0DCFA316A03F083F8F179AC
:1045C000002913D1C72811DC7269B36938784321F7
:1045D000490240183880002B05D01C48024002D008
:1045E00000213046984703F0A5FAF8BD206800285E
:1045F0002BD0002D29D003F0BBFA316A144A8E1853
:10460000314603F0EDFA217901220A43227139780B
:10461000002908D0002806D0022D08D0032D14D17F
:104620002046103005E02068022229460BE0204693
:104630001C30002809D0314603F0D7FA002804D0F6
:10464000014620680222FFF7F3F8F8BD02200000BF
:10465000A0F1FFFFF0B593B00D460446002206928C
:10466000049125480890099202A900920A752348EE
:10467000683002F076FD681E0221C943884202D8E4
:1046800002A800F059FD0120EFF3108672B61C4F0E
:104690000190F874E068002819D1681C03D002A8C2
:1046A000007D002813D06068002800D08047002ECD
:1046B00002D1EFF3108062B6387D002803D0019854
:1046C000B87000203875EFF3108672B6E2E7009DEF
:1046D000FD74E068002803D0E068401EE06000E060
:1046E000FF25002E02D1EFF3108062B602A803F07E
:1046F0007FF868B213B0F0BDEF770000000E002025
:10470000F00E0020F8B5254FB972F872032810D0CA
:10471000022841D11C4606987884224D103510237A
:10472000284611461A4602F0FDFF7D643C737C72F8
:10473000F8BD1B4CE16221462C310020042201F01F
:104740006BFFF87A00280AD0401EC0B28000001D1E
:1047500021180122CA622C31042201F05DFF20469B
:104760004030104D10351026294603F0FDFA0E4B4F
:104770001420294632461E469847387B206521463C
:104780005031242004252A46B047788C6065543483
:10479000282021462A46B047F8BDC046000E00201A
:1047A000C80F0020640F002019660000F8B501460C
:1047B00000040DD40122C8050FD40020890306D5BA
:1047C0001E498B6E0A2B30D1204848641046F8BD34
:1047D000184802F003FD0020F8BD174B17499868F0
:1047E00000281CD4174F184C256820607E1B01DC64
:1047F000134EAE19952E12DC3E1A01D8104E8619B2
:10480000952E0CDC401BC5176840401B952806D828
:10481000081F520402600A6000202060F8BD1402E4
:10482000002018601A600C60F8BD52040A238B66E1
:104830000A60F8BD0202000000120040581000405B
:10484000A01CE9FF60E316007011002080841E8028
:10485000F0B589B001901F4D1F4A2048016801271B
:10486000B943016010680390286C029004A81C49A9
:10487000142203F01BFA1B49042008603E041A4866
:1048800006602868194CA169019A101AB938C00845
:104890004018A06200F026FE0190E760676520687E
:1048A000114806601B200F490860E86B0128FCD105
:1048B0000B4804A9142203F0F9F902982864064869
:1048C0000399016001F064FB042002F085F901986E
:1048D00009B0F0BD042102404420024010E000E095
:1048E0004C2102404454024080E200E0002000409D
:1048F000F8B504460078C206970F022F03D0012FA7
:1049000005D1221D01E022460832166800E000268B
:104910000125002901D1E94301E00221C9430840F2
:104920002070204600F0F8FC2078C006800F012897
:1049300010D0002811D10025002F21D01348017973
:1049400006220A40042A1BD1103084421AD002F0F9
:10495000B1FD15E02F46241D01E02F4608342068E4
:104960000025B0420CD0094C2079062101400429D1
:1049700006D100F041F905462068390501F0A6FC92
:104980002846F8BD03F096F9FAE7C046240C00204B
:10499000F8B51D480078002830D11C491C480F6824
:1049A0000126066000248C60C660EFF3108172B6A9
:1049B000184A194B53609460002902D1EFF310811B
:1049C00062B616491B220A604660154D28466830BB
:1049D00002F02CFEEF65134838182866EC810A486F
:1049E0000670EFF3108072B6296E084C66643204CC
:1049F0000D4B1A60E1612966002800D0F8BDEFF385
:104A0000108062B6F8BDC046271100200421024084
:104A100054200240880C0020B54D00004454024050
:104A2000000E0020FFFFBFFF80E200E0FEB502465F
:104A30000E063F204006864204D102F07DFC030AA8
:104A4000040C38E01F4C00237F20002A33D0176865
:104A5000002F30D049B27D292DDC7D252D06AE42B8
:104A600007D00125ED07AE4209D110795379D488DA
:104A700021E0B8008118805C4B784C881BE004254D
:104A800002955557A94216DB3D46171D01956D1E2F
:104A9000002D05D0029EBE57B14209DB3F1DF6E74F
:104AA000019DAD00AE56B14205D1A918F0B2E3E7C1
:104AB00038787B787C882104DAB212028918C0B277
:104AC0000818FEBDFFFF0000F8B504460520204B86
:104AD0001B7A002B00D01F4BC0431D460D408D425A
:104AE0002BD165688D422AD9134093422CD153189B
:104AF000AB4229D820684118174C002A21D00092D7
:104B0000EFF3108772B62668002020601348026811
:104B100013480D4690472660002F02D1EFF3108115
:104B200062B60028009A0CD1294609480079431E34
:104B30009841C0024119121ADFE7401CF8BD801CE1
:104B4000F8BD002A01D11046F8BD0020C043F8BDD1
:104B5000000E002000F8FFFF244402405800000F20
:104B60008FA0E3B7FEB50C4605460F20C043102DBD
:104B700000D208304019102D01D31C4F00E01A4F0D
:104B800080080190A807C00EFF26029086400F2DD6
:104B900005D10097174800680227074009E028461A
:104BA00010381F2815D80097114909680127874038
:104BB0000F40284602F0EAFA01988000009B19583D
:104BC00002F071FF1C50002F0CD0284602F0F2FAC0
:104BD000FEBD284602F0DAFA01988000395802F04A
:104BE00062FF3C50FEBDC0461CED00E000E400E06A
:104BF00000E100E010E000E0F8B5224F387940070E
:104C0000800F0CD002F072FF0446387CC0060025ED
:104C1000800F15D0012804D03846183003E0002555
:104C20002EE0384614300668304602F063FC02F08D
:104C30009FFF801B1449884202D803F03BF80325EC
:104C4000387FC006800F13D0012802D038462430A8
:104C500001E0384620300668304602F057FD02F089
:104C600087FF801B0849884202D802F023FC0225F6
:104C70003879F9210140081D3871204602F0F0FE14
:104C80002846F8BD240C0020FFFFFF1F02F020FF84
:104C900070B478C8194A78C2491EFAD170BC7047FE
:104CA000F0B4F0C8144BF0C3124BF0CBF0C1521E5D
:104CB000F7D1F0BC7047C046F0B4F0C80F4BF0C35A
:104CC000521E07D0F0C80D4BF0C30A4BF0CBF0C119
:104CD000521EF7D1064B1C680F25AC431C60054BD8
:104CE000F0CBF0C1F0BC7047C046C046C046C046DD
:104CF0002C000C4070000C4080000C4090000C40D8
:104D0000820706D18A0704D130B43CC93CC030BC0C
:104D1000704710230A780270491C401C013BF9D1EE
:104D200070477047FEB507680024002F39D0019006
:104D30000291BE89FD89AE4204D91B481B498E22CF
:104D400000BF00BFAE4212D3387A02280FD1019DB6
:104D50002846029902F00AFD2F68FD89B8890026CD
:104D6000002804D012481149982200BF00BFAE426B
:104D700017D2BC19208A401D032188438619AE42F0
:104D800004D909480949A12200BF00BF1034BE81DF
:104D9000AE4206D3387A022803D10198029902F074
:104DA000E5FC2046FEBDC046D0A300008AA000005E
:104DB00049A30000F8B51D4A01241D480460EFF323
:104DC000108172B610681B4FFC813D6E002902D124
:104DD000EFF3108162B6461B0020864206D34519C8
:104DE000361A2046294600F05BFDF6E7EFF3108601
:104DF00072B6F97B012903D10020294600F050FD4D
:104E00000D49884200D308464019084B5C642104D0
:104E10000A4A1160D86138660020B873FD65002E1B
:104E200000D0F8BDEFF3108062B6F8BD0421024057
:104E300054200240000E0020FFFFBFFF80E200E090
:104E400070B504460078C3069E0F022E03D0012ED3
:104E500005D1231D01E0234608331D6800E000252D
:104E6000002A01D1042300E00823002A01D10122F5
:104E700000E00222E15010432070204600F04CFA7E
:104E8000002E0AD1207818210140082901D00820DD
:104E900000E004202058A8420ED0094D28790621B0
:104EA0000140042908D1FFF7A7FE04462868012124
:104EB000090501F00BFA00E00024204670BDC04651
:104EC000240C002070B5164604461B4A107CC00610
:104ED000800F0CD0022804D0012815D1081951697F
:104EE00001E00819916902F07BFE00280CD0012531
:104EF000002E11D001F0AEFD204602F0FBFA104862
:104F0000C4600221017415E00D48007C00250028D2
:104F100010D000F0CBFE0DE0084801880126B20356
:104F20000A430280204602F0E5FA02F0C5FC04487C
:104F3000C4600674284670BD240C0020302009404F
:104F40008C0A0020B0B514460188194A91422ED12E
:104F5000C06B002825D0C168002922D0210320D5AC
:104F60000078432801D010281BD11249887D0228DF
:104F70000CD3401E887512480025C563486E097E13
:104F80002A46FEF7B3FE0C48C5730AE00A48002221
:104F9000C273012008744A660A760848C26208484B
:104FA000C263600703D50348017D491C0175B0BD8C
:104FB00001200000000E0020F00E0020640F0020F1
:104FC000180B0020F8B506460878401E0F2801D2BD
:104FD0008B271EE00D4602F089FD04468027002E37
:104FE00014D0B0880004000F10D1F06B002803D05B
:104FF0000078401E0F2808D30F4802680F48202170
:10500000B24208D1435C002B05D08B27204602F02A
:1050100027FD3846F8BD00232B70F563B24205D159
:10502000012242549104304601F050F9204602F02A
:1050300017FD2F78EDE7C046240C00208C0A0020D5
:10504000F8B51C4DFF24204602F0E2FA286804213E
:1050500088432860E04302F0CDFA2868082188439D
:1050600028601548046801F011FD0546002C18D091
:10507000264624680E20375EBD4203DD0C20375ED5
:10508000BD42F3DB0C48314601F0BCFF0020307517
:105090000094B4683269284639463346A047009CDC
:1050A000E4E701F0A3F9034A50680C210140516084
:1050B000F8BDC04648600040C40C0020F8B5451C4F
:1050C00000780023082B32D02F78C2070CD16A78E1
:1050D0000F241440E41C122C0BD102242E57F4B2DE
:1050E000002E08D4EE1C0EE06D1C4A1C0F701146F9
:1050F0001AE0AE1C08E02E1DED7800957F252C40AF
:10510000009DED012C1912343D0112095219094D6F
:10511000AA420ED0D243002C05D08D5C4F1C0D70DE
:10512000641E3946F7E7354640085B1CCAE7284647
:10513000C5E7F8BDFF0F0000F0B51A4BEFF3108183
:1051400072B6194A957B1C68002D06D083681B191E
:10515000C36001230375D3731CE0D56D661B156E08
:10516000D76DEF1BBE4206D91A6883689A18C260D1
:10517000012202750EE087683E19C6600126067599
:105180002C1BA74206D2C0685E643404074D2C6015
:10519000D8611066002900D0F0BDEFF3108062B630
:1051A000F0BDC04604210240000E002080E200E075
:1051B0007FB504460020002C2DD01E460D46002B46
:1051C0000AD07168CBB2FF2B0DD0144B1B68AB42D9
:1051D0000BD0C0291FD008E000200190C0430290EE
:1051E00001AE0120307280207060A8000C490C5084
:1051F00062603068A06025600A49284601F0AAFE76
:1052000031792846FFF7AEFC307A002802D02846D4
:1052100001F0D0FF204604B070BDC046EC0E002067
:10522000F80C0020CD72000080B5032818D00228A9
:105230000BD0012820D115480079C006800F022824
:1052400022D0032818D131201CE01048007FC0066E
:10525000800F401E03280FD2C006010E0D4809E042
:105260000A48007CC006800F401E032804D2C006F6
:10527000010E0748C84005E007480849832200BFDF
:1052800000BF8020C0B280BD3220FBE7240C00208C
:10529000383A39003436350028A3000008A0000051
:1052A000F0B585B001920E46009002AF384602F08C
:1052B00046FB80200390114C20462830104A114DA7
:1052C00014213B46A84740200390204644300E4A14
:1052D00017213B46A8470020039060340B4A162153
:1052E00020463B46A8470A4806600099416001995C
:1052F000816008480E21016005B0F0BD840D0020DA
:10530000A5780000B1510000917800007D78000080
:105310005C11002014540240B0B50446007802210C
:105320000140C20704D1002908D1E42108402AE045
:10533000002907D1E5210840083024E0E621084093
:10534000103020E002F014FC6168421A520F0DD0B8
:105350000E4BA268851A9D420DD9121A091A20789F
:10536000182398438A420CD308210BE021780820A7
:105370000843102103E021781020084308218843C6
:1053800001E0102140182070B0BDC046FFFFFF1F94
:10539000F8B5EFF3108572B600210175154EB17B9B
:1053A000012902D10120F0731CE0C068316E8842EF
:1053B00018D1114F3C68F16D611AF26D801A81426B
:1053C00010D20020214600F06BFA0C49884200D32D
:1053D00008460019012179640904094A1160F8613D
:1053E0003066F465002D00D0F8BDEFF3108062B692
:1053F000F8BDC046000E002004210240FFFFBFFFA1
:1054000080E200E070B50546164EF06B002803D030
:10541000002D09D0002411E001F024FDF06B0024E0
:1054200000280BD0002D09D10024E143FFF712F929
:10543000707E002804D0F06B00F06CFF204670BD39
:1054400030790128F7D1094809490140F3D1307A70
:105450000128F0D10C20684303490C180120707614
:10546000E9E7C046000E002080A4000000A006006E
:10547000FF07000070B5164DE86BC0071FD1154C33
:105480002C66154E316842208847201D2866134837
:10549000A8653168062088474020E860A96D012092
:1054A0000143A965A96D8143A96529684906FCD511
:1054B000A96D0B4A0A40AA65E96B0143E96301241F
:1054C000204601F0BDFBE003E860286170BDC046E6
:1054D000481000400D0000809400000F0000038081
:1054E000FFFFFE7F70B50125284601F075FB0446DD
:1054F000002820D1124E00F0C5FE002804D001F093
:10550000B9FF3068A8433060F0690E490840F06187
:10551000706A0840706200207062EFF314810A4DD7
:10552000296080F31488094909688847286880F34E
:105530001488FFF79FFF06480021C170204670BD08
:1055400084100040FFFFFF7FE40C00204C00000FA0
:10555000F00E0020F0B585B0049314460391064682
:105560000C9D0A9F15482C300BA902F001FC032F5B
:1055700016D0022F1FD1B54203D02846314602F083
:10558000F5FB281903998842049E01D002F0ECFB38
:105590000B48406C3319002200920192294607E023
:1055A0000748406C0499009101953146039A2346BF
:1055B00000F054FA00E0002005B0F0BD780E0020A5
:1055C000000E0020F8B5044605681548876815499F
:1055D00000260E6006600F210161284602F0FDF8EA
:1055E00038071BD51048202101602820285C0421A1
:1055F0000143052900D1EE76284600F07FF9287E88
:10560000022803D1094800F085FEF8BD284628305D
:105610002A6A6E6A696903782046B047F8BDC046B9
:1056200004010C4020000C40046502403C0A0020AC
:10563000F0B5ABB0164F7D21CD0045433E68FFF776
:10564000A7F92C46633C1348844200D304467519DD
:1056500017A8019000263146324600F0A7F90396BC
:1056600001200290019804900B4906A8009002AB1B
:10567000224600F027FFF1430198FEF7EBFF009868
:1056800002F0B6F83868A842FCD32BB0F0BDC04693
:1056900004210240FFFFBFFFD57C0000FEB5EFF301
:1056A000108472B6114D2878002818D110480221B4
:1056B000016000270097F84301906B4601261E7297
:1056C0000C480D4A1221FFF773FD0C488764032133
:1056D00001600B48016804220A4302602E70002C0E
:1056E00000D0FEBDEFF3108062B6FEBD8311002036
:1056F0000C540240500C00209165000000600040F6
:1057000000580040F0B50478042C02D30B7D497D8D
:1057100001E000210B46144AD569DE008619378B5B
:105720002F43D7611569778B2F4317615569B78B65
:105730002F4357619569F68B2E439661042C11D344
:105740001468C5183626AD5D25431560994209D009
:1057500013691F24A402A343C9004018408B2040B2
:1057600018181061F0BDC046B4300840B0B500282C
:1057700028D0044614480068884201D1002003E084
:105780001249401860600120114D6070288AA07095
:1057900002F0BEF90146803105D102F0BFF90146A1
:1057A000803100D07F20E07028882081E8886081E7
:1057B0002889A0816888E0816889A082A8892082E0
:1057C000A8886082B0BDC0465020094047FDFFFF59
:1057D0003A200940FEB51749887B0290C87B441ED9
:1057E000601E84418D680E7C6879401EC7B201221C
:1057F00002F04CFA0190022202F048FA0E49029A95
:10580000CA700A7ABF231340A2019A180A72019A39
:10581000521D0F2313400001C0185030887212200F
:10582000044C205600F006FEA068807902F062F871
:10583000FEBDC04694090020E8070020FCB5002901
:1058400025D4FF2823D0124F124E022401250C40EC
:105850000CD10F462F40331801939C230094019CD8
:10586000E754009C0A4F85403D6000E08540800081
:105870004B0701D4103601E0356008363560064B21
:1058800019401143054A8150002C00D03D61FCBDF8
:105890001035024064300240F8FFFF7F00310040C5
:1058A000F8B50C460546144F683700200090C643F3
:1058B0003F68002F1ED0397D0029F9D0002D0FD070
:1058C000F968A1420CD13969F8693A69002A03D014
:1058D000FA685118F96001E000993975B96988478B
:1058E000397D0029E4D0F968091BB14200D3314663
:1058F0000E46DDE73046F8BD000E002010B5044628
:105900000F481049227E042A09D000220260CA6092
:10591000012252020C4B1A600C4A30231360012200
:105920000A600F210161A07E002804D00020A0762B
:10593000074800F0EFFC204601F04FFF10BDC046C5
:1059400004010C4014000C4080E100E02C60024097
:10595000EC09002010B51249124A12681206930D84
:1059600083420CD90128024600D801220C68A218F3
:10597000D41A00D322468C68944205D110BD0A4A3D
:105980001278012AFAD10A68834201D8002400E083
:1059900001240831104601F0E1FC0348047010BDF9
:1059A000AC110840C410084089110020F8B5164613
:1059B0000D460446114FB87C002803D1FEF7E8FFDE
:1059C0000120B874002C17D0002E04D0307820703D
:1059D0007168616004E0B86CF96C03C4C0B2083C43
:1059E000002806D00120A060002D00D10020E0603A
:1059F00002E0E5600248A0602046F8BDF00E0020FD
:105A0000FFFF0000010C4A424A41110110224A40A6
:105A1000D040FF221202024053425341DA000823D1
:105A20005340D8405118F0220240534253419A004B
:105A300004235340D84089180C220240534253415A
:105A40005A00022389185A40D0401A1A40080123EC
:105A5000DB430343581C104008187047F0B587B06B
:105A60001C4613460492059105460CA80088069032
:105A70000D9E0F4F243700900197A2B22846FEF7E3
:105A8000A9F8039431190090019128460499069AC7
:105A90003B46FEF7BDFC05990446002E05D08E421C
:105AA00003D03046039A01F03DFE204607B0F0BD1A
:105AB000780E0020F8B50A460F49104B1C68E40523
:105AC000650D0C680326B44365190D4EAD191646D5
:105AD000002E03D080CD80C0761EF9E790002018FC
