:10000000E0310020C11D0000D11D0000D51D000001
:10001000D91D0000D91D0000D91D000000000000FE
:10002000000000000000000000000000D91D0000DA
:10003000D91D000000000000D91D0000D91D0000DE
:10004000002243088B4274D303098B425FD3030A17
:100050008B4244D3030B8B4228D3030C8B420DD32A
:10006000FF22090212BA030C8B4202D312120902B8
:1000700065D0030B8B4219D300E0090AC30B8B42F6
:1000800001D3CB03C01A5241830B8B4201D38B03A4
:10009000C01A5241430B8B4201D34B03C01A524149
:1000A000030B8B4201D30B03C01A5241C30A8B428C
:1000B00001D3CB02C01A5241830A8B4201D38B0277
:1000C000C01A5241430A8B4201D34B02C01A52411B
:1000D000030A8B4201D30B02C01A5241CDD2C3098D
:1000E0008B4201D3CB01C01A524183098B4201D309
:1000F0008B01C01A524143098B4201D34B01C01AF4
:10010000524103098B4201D30B01C01A5241C3086B
:100110008B4201D3CB00C01A524183088B4201D3DA
:100120008B00C01A524143088B4201D34B00C01AC6
:100130005241411A00D20146524110467047FFE732
:1001400001B5002000F006F802BDC0460029F7D036
:1001500076E770477047C0468446101C62468C465E
:10016000191C634600E0C0461FB500F00FF90028D7
:1001700001D40021C8421FBD10B500F067F840420D
:10018000013010BD10B500F001F9002801DB00209E
:1001900010BD012010BDC04610B500F0F7F80028D2
:1001A00001DD002010BD012010BDC04610B500F0DB
:1001B00089F8002801DC002010BD012010BDC046D8
:1001C00010B500F07FF8002801DA002010BD0120F2
:1001D00010BDC0461C2101231B04984201D3000C12
:1001E00010391B0A984201D3000A08391B099842AA
:1001F00001D30009043902A2105C40187047C046C0
:1002000004030202010101010000000000000000DF
:1002100070B500220C4B04000D00FFF7D1FF002841
:1002200004D12000290000F0D3FE70BD064B00224F
:100230002000290000F084FB00F0CAFE80231B068A
:100240009C466044F1E7C0460000E041F0B54F46EF
:100250004646D6468446C0B58046194E18030F035D
:100260004D00000B5C0082463F0B6D0DC90F91469F
:10027000640DDB0F0120B5420AD0B44203D0A54281
:1002800001D157450CD01CBC90469946A246F0BD02
:1002900066463E43F7D1AC42F5D154461443F2D101
:1002A0000120C845EFD1994207D0002DEBD163461C
:1002B0001F433800471EB841E5E70020E3E7C0468A
:1002C000FF070000F0B54F464646D6464D00C0B584
:1002D0000E03C90F8A462C491F035C008046360B6B
:1002E0006D0D91463F0B640DDB0F8D421ED08C428D
:1002F00016D0002D1ED130438446002C01D13A4344
:1003000023D06246002A1AD09A4529D051460220AD
:100310000139084001381CBC90469946A246F0BD00
:1003200039001143E5D002204042F4E73043FAD1CE
:10033000AC420FD0002C0FD13A43E7D00CE00122A1
:10034000013B934318000130E5E763460020002B92
:10035000E1D0DBE73A43E6D19A45D7D1A542D5DCD7
:10036000A54205DBBE42D1D808D00020BE42D2D281
:1003700050460123013898430130CCE7C845C5D821
:100380000020C845F4D3C6E7FF070000F0B54F468C
:100390004646D6464D00C0B50E03C90F8A462E49C3
:1003A0001F035C008046360B6D0D91463F0B640DBC
:1003B000DB0F8D4218D08C4211D0002D18D1304364
:1003C0008446002C1ED13A431CD163460020002BEA
:1003D00030D0514602200139084001382AE0390066
:1003E0001143EAD0022025E03043FBD1AC4226D0B5
:1003F000002C26D13A4324D151460220013908402D
:10040000013817E06246002A0FD09A45E1D1A54293
:1004100005DBBE42DDD819D00020BE420AD25046CC
:10042000012301389843013004E00122013B93434A
:10043000180001301CBC90469946A246F0BD3A43D4
:10044000D0D19A45C5D1A542C3DCE0E7C845C0D8A4
:100450000020C845E3D3EDE7FF070000F0B557469D
:10046000DE464E464546E0B5834606000F0348008B
:1004700087B092461D003F0B400DCC0F002800D1E5
:100480006FE0DE4B984238D08023FF001B041F43EF
:10049000730F3B430193DA4B0027994600239B4699
:1004A000F60081442B0369001B0B52469846490D08
:1004B000ED0F002900D185E0D04B994200D173E0C7
:1004C0004346DA0080231B0413435246CC48520FA4
:1004D00084461343524600206144D20089442100DF
:1004E000694000918C46012149448A460F2F00D96A
:1004F00090E0C449BF00CF59BF465B463B430193E0
:1005000000D06AE102230827002681469B46C9E7FE
:1005100032005846019B61460091022800D175E0E7
:10052000032800D1FEE1012800D02CE100230027A0
:10053000002600253F032A0D3F0BB34812053A431E
:1005400002401B051343009A5B00D1075B080B4375
:100550003000190007B03CBC90469946A246AB4615
:10056000F0BD5B463B43019300D12FE1002F00D14A
:10057000A5E13800FFF72EFE03000B3B1C2B00DD2E
:1005800096E11D22D31A5A460100DA405E46083928
:100590008F4013008E403B4301939C4B00271B1A56
:1005A000994600239B467DE7414653460B439349BA
:1005B0008C46E144002B00D01AE1022202201743AE
:1005C00000228CE7134300D10DE14346002B00D1FC
:1005D00081E14046FFF7FEFD02000B3A1C2A00DDD8
:1005E00072E10100434608398B4098461D239A1A50
:1005F0005346D3401A004346134352468A40494665
:10060000081A824989468144002068E77B4B00270D
:1006100000268EE7140C1204120C1100370C36045D
:10062000350C794328008C462E0060436044834695
:1006300056432100300C804658467943404402918D
:10064000844506D98846802149028C46E0444146CB
:1006500002913604010C360C00048B4681191E0CE5
:100660001B041B0C0391190079438C462800754329
:100670006544A8465843050C45447743A94203D92D
:10068000802149028C466744290C8C4639000004BD
:10069000000C2D042D186144AB440591594604917A
:1006A00001990F043F0C080C390051434243904616
:1006B00002008C46090C8B4662437C4344445C44F4
:1006C000A04503D98021490288464244210C88462E
:1006D00061460904090C8C46390059434343704371
:1006E0007E430F0CF6182404BE19644442448C4621
:1006F000B34203D980235B0298464044029B614683
:100700009846049B370443449B46AB45AD416B423E
:100710000D0405992D0C8C467F196744FD18A846D9
:100720005D462D19A542A44193466442A446C344A4
:10073000DC448F42BF4198459B4193459241A4457B
:10074000A4415B427F421F43360C52426442BF19B0
:100750002243BF18624638184302D20D039913434F
:100760006A020A43501E82416146ED0D2A434E0241
:100770003243D90100D4B3E001265008324002438D
:10078000DE0732435B08224C5444002C62DD5107E3
:1007900009D00F201040042805D0101D904292412E
:1007A00052429B180200D90104D580241948E40064
:1007B000034054441848844200DD27E75E075B028B
:1007C000D2081F0B630516435B0DB2E60023994662
:1007D0000133042700269B4664E6032301978146E4
:1007E0000C279B465EE6012201201743002276E695
:1007F000032303201F43434671E6C046FF07000062
:1008000001FCFFFF08530000FFFF0F800DFCFFFFFE
:10081000FF030000FFFFFFFEFE070000002380270C
:1008200000933F030026434B83E6019B3200A4461E
:10083000584670E6AC466EE6802701993F03394280
:100840002DD03B422BD11F433F033F0B0095160099
:10085000384B6EE601252D1B382D00DD66E61F2D79
:1008600040DC35481C005044160082408440EE4075
:10087000501E824134431443EB40620709D00F22DB
:100880002240042A05D02200141D94428041404297
:100890001B181A023ED501230027002649E68027AF
:1008A000019B3F031F433F033F0B0094214B40E656
:1008B00003005A46283B9A40002601926DE65846AE
:1008C000FFF788FC203057E603005246283B9A4049
:1008D0001300002293E65046FFF77CFC20307BE6B5
:1008E000CA4650E71F201E004042041BE640202D50
:1008F00003D0124C5444A3401A43501E8241324349
:1009000007260027164009D00F20002310401400AE
:100910000428B9D122005E075B021F0BD2081643E0
:10092000002306E680273F031F433F033F0B1600CB
:10093000004BFEE5FF0700001E0400003E0400001F
:10094000F8B557464E464546DE460C000903E0B56D
:10095000490A460F5F0031431E03DB0F760A9B46B0
:10096000530F3343C84E6500C000E40FD2006D0D35
:10097000A24681467F0D9C469046B74200D1B9E021
:100980005B46012673409B46EE1BA34500D183E0E6
:10099000002E63DD002F00D0B1E06346134300D189
:1009A00023E1731E002B00D0BAE1861A6346B042E1
:1009B00080410125C91A4042091A0B0200D447E1BF
:1009C00049024B0A98464346002B00D189E1404634
:1009D000FFF700FC0300083B1F2B00DD7CE1202219
:1009E0003000D21A4146D040994002009E400A434E
:1009F0009D4200DD6AE15D1B6B1C1F2B00DD94E155
:100A0000202110003500C91A8E40DA408840DD40B0
:100A1000711E8E41110007222843002506433240F3
:100A2000002A09D00F233340042B05D0331DB342D5
:100A3000B641764289191E000B0200D43DE26A1CC1
:100A4000914B55056D0D9A4200D119E18F4AF60878
:100A50000A40570752023743120B9BE0002E00D08A
:100A6000C5E06E1C7605760D012E00DC48E1674678
:100A7000861ACB1BB042BF417F42B8461F00434697
:100A8000FF1A3B00B8461B0200D55FE137439AD1FD
:100A900000220024002579E0002E00DCFAE0002F7F
:100AA00000D18DE0784B9D4267D0802367461B04C0
:100AB0001F43BC46382E00DC52E1634613435A1EE6
:100AC00093411E1886428041404209180B0200D40F
:100AD000BEE06D4B01359D4200D1D2E06B4A7308F8
:100AE0000A4001210E401E435108D30707221E432E
:100AF000324095E71E00164300D045E740E7624BC1
:100B00009D423AD0802367461B041F43BC46382EC3
:100B100000DDEBE01F2E00DC3AE133006746203BAE
:100B2000DF403B00202E05D04027BF1B6646BE405D
:100B3000324390464646721E96413343DAE0002B1C
:100B400000D114E26346134300D168E180234E07CD
:100B5000C008C9081B030643194208D06046C008F4
:100B6000184204D163460100D2085E071643F30021
:100B70009946C900720F444D11434B46DE08424B63
:100B80004F073743CA089D4200D16EE012036D053E
:100B9000120B6D0D00211203130B0A0D12051A43DF
:100BA0003B4B2D0513402B435B00E4075B082343BD
:100BB000380019003CBC90469946A246AB46F8BDA9
:100BC0006346134311D0731E002B00D007E1861833
:100BD0008642804161444042091801250B0237D505
:100BE00002257BE73E00614691463500C5E75C463D
:100BF000002D00D0E1E00B000343F3D0731C00D1C3
:100C0000ACE1214B9F4200D13AE1F343382B00DDA8
:100C10006FE11F2B00DD8CE120250E00ED1AAE40A8
:100C2000B0460600AA46DE40454635432E005546EE
:100C3000D940A8406346451EA8415B1A9C463043F4
:100C4000161AB242924163465242991A3D00B4E6E6
:100C500007223240002A00D0E4E60B4BF6084F078B
:100C60003743CA089D4200D090E73B00134300D1B0
:100C7000A6E180231B031A431203120B024D89E7DE
:100C800015000022002785E7FF070000FFFF7FFF18
:100C9000FFFF0F80002E00D0C7E06B1C5E05760DB5
:100CA000012E00DCF0E0C84DAB4200D1B9E0851860
:100CB0000A00854289416244494251180722CE0701
:100CC0006D082E43490832401D00A9E6BF49ED1AC0
:100CD000114007223240A3E6320028388240002625
:100CE00086E63000FFF776FA203073E6634613435A
:100CF0005A1E9341C61AB04280414042091A5CE62E
:100D00000E00674606431743002D5ED1002E00D02B
:100D1000F3E0002F00D11EE15C46614691462CE7CE
:100D2000A94FBE427BD01E00F1E610001F3DE840F7
:100D3000202B03D04021CB1A9A401643731E9E41AC
:100D40000722064332400021002583E7161A634636
:100D5000B2428041591A40420B1A98465C4632E62C
:100D60001F2E00DDABE02027BB1B9A46634657468B
:100D7000BB40994613004F46F3401F433B00574684
:100D8000BA40571EBA4113436246F240891898E6AA
:100D90002027BB1B9A4663465746BB409946130023
:100DA0004F46F3401F433B005746BA40571EBA41D7
:100DB00013436246F240891A9CE7834B9F425FD0FF
:100DC00080252D047342294320E7002E0CD1002FEB
:100DD00000D1D0E05C46614691467B4DCDE67A4F2E
:100DE000BE421CD01E0065E6002F18D0C0084E077A
:100DF00006438020C9080003014208D06346DC088E
:100E0000044204D12100DA46D2085E071643F300FB
:100E1000994601245346C900720F11431C406A4D84
:100E2000ABE61D0000220027B4E6002D59D10B00CF
:100E3000034300D1D6E6731C00D1B2E0624B9F425F
:100E40001ED0F343382B6FDC1F2B00DD97E02025ED
:100E50000E00ED1AAE40B0460600AA46DE404546FA
:100E600035432E005546A840D940451EA8418C4424
:100E70000643B61896429241514261443D0025E630
:100E80003D006146914678E60B000343002D00D0FB
:100E900055E6002BF5D06346134300D16DE6861866
:100EA0008642804161444042091800220B0200D46E
:100EB000D0E6464B01351940B2E5B1465DE6330058
:100EC0006746203BDF403B00202E05D04027BF1B5C
:100ED0006646BE40324390464646721E96413343B4
:100EE000EFE5394B9F42CBD080252D047342294337
:100EF000A8E70843411E8841A2E6002F00D13CE646
:100F00006346861ACF1AB0429B415B42FB1A984651
:100F10001B024ED5161A6346B2429241591A5242EA
:100F2000891A5C4600227BE501430E00711E8E414A
:100F30009FE71D000E00203DEE40B046202B04D060
:100F40004025EB1A99400843814648464346411ED6
:100F50008841184374E60022002417E6161A6346F7
:100F6000B2429241591A5242891A3D0025E5614622
:100F70009146154D01E680220024120379E61D00FA
:100F80000E00203DEE40B046202B04D04025EB1A49
:100F90009940084381464E464346711E8E411E438A
:100FA00067E7861896429B4161445B42C9183D0041
:100FB0008CE547463743CED007224146324049E6CA
:100FC00000273A00E6E5C046FF070000FFFF7FFF6D
:100FD00030B5144D0A034B00120B5B0DC90F0024F2
:100FE000AB4211DD104CA34210DC80246403224389
:100FF0000E4CE41A1F2C0CDD0D48C31ADA40130006
:101000005C42002900D11C00200030BD094BCC18E7
:10101000FAE7094DE040AC4663449A4013000343AD
:10102000EEE7C046FE0300001D040000330400008C
:1010300013040000FFFFFF7FEDFBFFFF70B50028EA
:101040002DD0C317C5185D40C40F2800FFF7C2F8A4
:10105000154B1B1A5B055B0D0A2815DD0B38854007
:1010600000222D032D0B002110002D030A0D2D0B46
:1010700012052A430D4D1B052A4013435B00E4076C
:101080005B082343190070BD02002900153291400E
:101090000A000B21081AC5402D032D0BE3E700249D
:1010A000002300250022DEE71E040000FFFF0F8062
:1010B0000023C25C0133002AFBD1581E7047000098
:1010C00010B500F097F800F003F9002000F03CF8AC
:1010D000FEE7C04630B5040083B00E201D0001F0CD
:1010E00061F90023A1B24A1F0531009312B209B27F
:1010F000044B280002F0D4F8002800D0FEE703B02B
:1011000030BDC046D510000010B51C0013280DDD01
:1011100001210F2001F050F900230A4A1421200078
:1011200002F01EF8002800D0FEE710BD00210F20BD
:1011300001F042F90023034A1421200001F07AFF54
:10114000F0E7C0460911000070B582B001F05AF80E
:1011500001F02EFF00F016FF80200021C00500F0F6
:10116000CBFE041E3BD01E4B0022002100F0F8FEF7
:1011700080210E20890501F0CFF880210F208905FC
:1011800001F0CAF801210E2001F016F900210F200C
:1011900001F012F901F02CFF0600124D00902B0017
:1011A00000220021200000F0DBFE711D09B20E4B71
:1011B00000223000FFF78EFF0C4B0022142130007C
:1011C000FFF7A2FF012000F087F801F011FF2B00CC
:1011D000009000220021200000F0C2FEF2E7FEE7AE
:1011E000485300006C5300004C0B0020640B00209F
:1011F0007047C04670B501F067FB01F0D7FC0121D4
:101200002F4A07241368B9260B43136000F0FAFF36
:1012100000F080FF2B49062001F07EF80021062017
:1012200001F0CAF8012003F08BFD0121062001F036
:10123000C3F88C20800003F083FD2249062001F0D2
:101240006BF82149122001F067F81F490D2001F0C9
:1012500063F81E490C2001F05FF80021062001F020
:10126000ABF801250021122001F0A6F83100214140
:101270000D20294001F0A0F81220012101F09CF876
:10128000082003F05DFD013CECD20021122001F0AA
:1012900093F80121062001F08FF8AF20800003F0C1
:1012A0004FFD062000F066FF122000F063FF0D20C6
:1012B00000F060FF0C2000F05DFFFFF799FF70BDAC
:1012C00014000040010400200004002002200460FB
:1012D00010B500F0ADFC10BD10B500F097FB10BDCF
:1012E0007047C046F8B5164E040033780F0015005D
:1012F000002B1DD0002C0BD0002D0BD02B78237091
:101300006B6863602B78002B0CD10E4BE760A360F9
:101310002000F8BD220025000B4B03CB03C22B7825
:10132000002BF2D00123A360002F06D0E360EFE78B
:1013300000F09AF901233370DCE7E760E8E7C04684
:1013400040090020FFFF000088040020F8B50D4B85
:101350000D4E5F68337804000D00002B0AD0002C7E
:1013600006D0012367602370A360002D07D0E360DF
:101370002000F8BD00F078F901233370EFE7E56055
:10138000F6E7C0468804002040090020F8B50E4B5F
:10139000060010205F6803F0CFFE0C4D04002B7890
:1013A000002B0AD0002C06D0012367602370A360B5
:1013B000002E07D0E3602000F8BD00F055F90123AE
:1013C0002B70EFE7E660F6E7880400204009002074
:1013D0007047C04610B503F0B9FE10BDF0B5C64663
:1013E0000F0000B592B0002305003A003A4901A869
:1013F00000F0A8F97B1E033330D900F013FC012361
:10140000364E04003370EB68002B13D1013731D115
:101410009846334F6B68002B00D09847200000F0AF
:1014200029FC3B78002B3ED100F0FCFBEB6804006C
:10143000002BEFD000233370EB68002B49D0EB6812
:10144000013BEB600025200000F014FC01A800F037
:101450006FF9280012B080BCB846F0BD01A800F0BA
:1014600081F900F0DFFB01231C4E04003370EB68B0
:10147000002BDFD100239846194F01A800F0BAFADB
:101480000028D7D06B68002B00D09847200000F0D0
:10149000F1FB3B78002B11D100F0C4FBEB6804009A
:1014A000002BEAD0C6E701F09DFA43463B7000F0FE
:1014B000B9FBEB680400002BACD0BBE701F092FA5B
:1014C00043463B7000F0AEFBEB680400002BD4D029
:1014D000B0E701256D42B6E7E112000042090020A5
:1014E0004109002070B5040000F09CFBE268A3688D
:1014F00005009A4202D2E3680133E36000F0A6FBE4
:10150000002807D0074B1B78002B03D0064C23780C
:10151000002B03D0280000F0ADFB70BD01F05AFA9B
:101520002070F7E7420900204109002010B5FFF7BD
:10153000D9FF10BDF8B5DE4657464E464546012454
:101540003F4BE0B51C6000F06DFB3E4B00261F6872
:101550003D4B1C7099463D4B9A46002352461370F2
:101560003B4B1D689B4600F085FB3A4B7F1B984622
:1015700043461C68AD19BF1B002C5AD00126764289
:101580000AE0237D002B04D0E3685B1B9E4200D958
:101590001E002468002C0ED0237D002BF9D0E368B8
:1015A0009D42EED12269E0692369002B3DD123756C
:1015B000A3699847E5E7B742DAD200F033FB534618
:1015C0001B780400002B13D043461B68002B12D05D
:1015D000012676421A7D002A07D01A7D002A04D0FF
:1015E000DA68521B964200D916001B68002BF1D115
:1015F000194B9E4200D9184E0122184B20201A6028
:1016000000F0C2FA164B76191E605B464A461E6011
:1016100000231370134B20001D6000F02BFBF0BC67
:10162000BB46B246A946A046F8BDE368D218E260C0
:10163000BEE7012676427B1CBFD13E00013DBCE7E0
:10164000542002400421024051090020500900208A
:10165000540900205C090020FFFFBFFF4821024021
:101660002021024058090020F0B5C6461F4D00B5A4
:101670002C78002C02D080BCB846F0BD01261C4B53
:1016800000221F681B4B1C491E601C4B1C481C6021
:101690001C4B1E6000F0F4FA1B211B4803F05AFBA0
:1016A0001A4B1B481E6000F0E3FC1A4B2E701F60A3
:1016B000194B9846194B9C46434667441F60184B8C
:1016C0001C70184B1C7000F0ADFA43461D68164B99
:1016D00004001E60202000F057FA144B20001D600B
:1016E00043461D6000F0C6FAC5E7C0466409002005
:1016F0000421024054200240351500000C21024014
:10170000340A0020602002404404000058200240B7
:101710005C0900205809002054090020FFFFBFFF8A
:101720005109002050090020482102402021024098
:1017300010B5034B0100180000F0B6FC10BDC04608
:101740005C09002010B5002404618161C361044B71
:10175000010082600475180000F094FC10BDC046C2
:101760005C090020F8B5040000F05CFA1B4B050092
:101770001B78002B1DD11A4B1A4E1F689C461A4B22
:1017800030681A681B68A168BA1AC31A9A421DD831
:101790007B18E3600123C01B2375884212D9134ACA
:1017A000E4682020136000F0EFF9114B1C603460F6
:1017B00008E00B4BA2681B689B18E36001230D4AED
:1017C00023751370280000F055FAF8BD63461B68B6
:1017D000C9180123E1602375F4E7C04651090020D0
:1017E00004210240540900205809002048210240E9
:1017F0002021024050090020F8B54546DE465746F4
:101800004E460400E0B51D00002862D0002B5ED0DB
:101810006B68314F2361AB68A161E36100233E78BF
:10182000A2602375002E13D02C4B98462100404611
:1018300000F028FC2B78002B06D12000F0BCBB4622
:10184000B246A946A046F8BD2000FFF78BFFF4E79B
:10185000234B24491B6824489A46012399464A464B
:10186000224B1A60224B1E60224B1A60002200F0AD
:1018700007FA1B21204803F06DFA4A461F4B1A60F5
:10188000164B1800984600F0F3FB52461C4B1A60AA
:101890001C4B9B465A461C4B534413601B4B1E70FB
:1018A0001B4B1E704B463B7000F0BCF95B464A4632
:1018B0001F68184B06001A60202000F065F9164BCF
:1018C00030001F605B461F6000F0D4F9AEE7134D97
:1018D0009EE70020B2E7C046640900205C090020B2
:1018E0000421024035150000340A00205420024033
:1018F0000C210240602002404404000058200240B5
:101900005809002054090020FFFFBFFF51090020A3
:1019100050090020482102402021024044090020B3
:10192000F0B5C64600B5040000F07CF9002323752D
:10193000214B05001B78002B08D001221F4B1A7089
:10194000280000F097F980BCB846F0BDE3681C4C55
:1019500022689342F4D11B4A1B4F16683A683968D3
:10196000B21A5B1A9A42EBD2184B1B68002B20D09C
:10197000012149421A7D002A07D01A7D002A04D08D
:10198000DA68921B914200D911001B68002BF1D13B
:101990000F4B99420DD8012288460E4B20201A6029
:1019A000B04400F0F1F842460B4B1A6022603E60F2
:1019B000C6E70749EFE7C04651090020500900205B
:1019C0005409002004210240580900205C0900202D
:1019D000FFFFBFFF482102402021024070B50E00EA
:1019E0001500040000F01EF9A661E56100F042F95F
:1019F00070BDC046007DC0B27047C0460022014B9A
:101A00000CC07047006CDC0201207047F0B5DE4668
:101A10004E4645465746E0B5A7B0060000220021D5
:101A200012A8FFF75FFC3B4B01AC5B68050023612C
:101A3000394B9E4200D91E007101891B8B015B1A34
:101A4000DB009B199B01A360344BA3610023E5617C
:101A50002375334B1F789846002F1AD0314E210042
:101A6000300000F00FFB2000FFF77CFE0121280072
:101A70004942FFF7B3FC12A8FFF7AAFC210030008F
:101A800000F012FB27B0F0BCBB46B246A946A04608
:101A9000F0BD254B25491B6825489A4601239946E8
:101AA0004A46244B1A60244B1F60244B1A600022C4
:101AB00000F0E6F81B21224803F04CF94A46214B7E
:101AC000184E1A60300000F0D3FA52461E4B1A60CE
:101AD0001E4B9B465A461E4B534413601D4B4A46B1
:101AE0001F701D4B1F7043461A7000F09BF85B4639
:101AF0001B684A469846194B07001A60202000F0E0
:101B000043F84246164B38001A605B461A6000F0F4
:101B1000B1F8A4E744090020C21000002D15000010
:101B2000640900205C0900200421024035150000F2
:101B3000340A0020542002400C2102406020024060
:101B40004404000058200240580900205409002095
:101B5000FFFFBFFF5109002050090020482102402B
:101B600020210240064B074A5968FF230B409B0087
:101B70009B5810B5002B02D098685B68984710BD41
:101B800000ED00E06809002010B503F08FF910BDEA
:101B900070B504000E001D0084B0002824D0194B3D
:101BA0001B68002D22D029796868FF2928D09E4221
:101BB00001D0C02818D02868134BB100CC5013496D
:101BC0006260A0602660300003F0CEF83000297912
:101BD00003F0ECF82B7A002B02D1200004B070BD8A
:101BE000300003F039F9F8E70020F7E7012300207F
:101BF00001AD5B426B6002332B7280236B60DBE7CD
:101C00002868FAE79004002068090020651B00009E
:101C100010B50400006803F033F9206803F0BCF845
:101C200010BDC046EFF3108072B6431E9841704756
:101C3000EFF3108362B6704710B503F00DF910BDD5
:101C4000EFF3108043425841C0B27047034B5868CD
:101C5000C005431E9841C0B27047C04600ED00E089
:101C6000002805D000230360013B43600233037268
:101C70007047C046002802D1EFF3108362B6704768
:101C8000EFF3108372B641608260002B02D1EFF354
:101C9000108362B67047C046F8B5FFF7C3FF040073
:101CA00000F0A6FE022304251E0005400640034264
:101CB00007D0002D01D100F071FF2000FFF7DAFFFF
:101CC000F8BD01F055F80028F7D0344B344A1B68B2
:101CD0001268002B56D0D9071AD401204042990728
:101CE00006D53049304E0968891AB1424CD90020D6
:101CF00059071AD52D492C4F09689600891BB942FE
:101D00000FD9082108001840194243D000200FE0E5
:101D1000274908682449801A81427641764230403A
:101D2000DDE78908884200D90800960019070DD51B
:101D300020491D4F0968891BB94203D9DB06B8D574
:101D4000002006E08908884200D908009600DB06DA
:101D500008D5194B14491B689B1B8B42A9D89B08BB
:101D6000984215D8FA235B009842A2D9134E8018E6
:101D7000356800F06DFFED079FD5052233681343EA
:101D800033609AE70848F1E78842B1D90800AFE725
:101D90001800E7E7DB06DCD48BE7C04644200240AE
:101DA0000421024050210240FFFFBFFF54210240A6
:101DB0004C210240582102405C21024010E000E02A
:101DC00002480068854600F009F8000000000000A5
:101DD000FEE7C046FEE7C046FEE7C046F8B5EFF3B3
:101DE000108372B603F00CF93A4B3B48834235D26C
:101DF000441EE41AA1085A070131D20F172C16D934
:101E00001E00002A02D00024344E1C60002400254D
:101E1000891A92009B184A08D200D21830C39A42FD
:101E2000FCD101230B4219D0994389007318002279
:101E3000190004C1814211D2190008315A6081424F
:101E40000CD204319A60814208D20431DA608142B6
:101E500004D204311A61814200D25A61204B214AD6
:101E6000934213D020498A4210D201391600891AB0
:101E70001F2903D910001843400716D089080131E3
:101E80008900591801CB01C28B42FBD1174B184D69
:101E90005E1BB610AB4205D0002408CD0134984734
:101EA000A642FAD8FFF70CF9FEE7180089080131BD
:101EB0004F08FF00DF1930C830C6B842FBD10124FB
:101EC0000800A04380001B1812182142DED01B68B6
:101ED0001360DBE700050020DC0D00200405002076
:101EE0001C550000200400200005002008530000BD
:101EF000085300007047C046F0B54F46D6464646E8
:101F00000500C0B50F1E23D0124B1B789A46002B3C
:101F10000ED00026104C2368A1469846B5420AD040
:101F2000DB699847054206D101360C345645F2D399
:101F30000023994606E04346390020005B68984735
:101F40000028F1D04846E0BCBA46B146A846F0BDEC
:101F5000024FD9E7A85300009C53000050540000E2
:101F600008B410B585B0002806D008AB046800930B
:101F700003932469079BA04705B010BC08BC01B0BF
:101F80001847C046074B70B51E78002E09D00025B3
:101F9000054C236820001B68013598470C34B54276
:101FA000F7DB70BDA85300009C5300007047C0468B
:101FB0007047C046022040427047C0468020C0059E
:101FC0007047C046F0B58BB0876801AD4668040025
:101FD000280001F0FBF97B680120AB6100236B70E6
:101FE000FFF7D4F97060002809D02900387801F093
:101FF00057FD3060002802D020000BB0F0BD002457
:10200000FAE7C04670B584684568A16868681E0034
:10201000FFF7E4F9002800D070BD218A3200049B4C
:102020000239E06802F088FEE068FFF741F80D2110
:102030000200E36802321954E36803391B1859702F
:10204000E1680023286801F087FB6868FFF74AFA17
:10205000E2E7C04610B54468206801F0D3FC0023D5
:1020600060682360FFF7B6F910BDC0467047C046F0
:1020700010B50400FFF7D6FD002363602360FFF76F
:10208000F9FD10BD70B50C000500FFF7CBFD002376
:1020900023606B686360002B04D01C606C60FFF7EA
:1020A000E9FD70BD2C60F9E770B50C000500FFF785
:1020B000B9FD0CCC002A06D05360002B06D01A6064
:1020C000FFF7D8FD70BD6B60002BF8D12A60F7E7F1
:1020D00010B5042801D0002010BD0D3000F0EEFC3A
:1020E000FF22074B11201A600123064A1360064A9B
:1020F0001168064A1160064A136000F017FDEAE70E
:102100002C6002404C6002403854000008600240DD
:10211000046002400F4B10B51A78002A00D010BDA1
:10212000012404210C4A1C700C48002300F076FCAA
:10213000112000F0C3FCFF22094B11201A60094B4B
:102140001C60094B1A68094B1A60094B1C6000F0AF
:10215000EDFCE4E7080A0020D1200000F40900208B
:102160002C6002404C60024038540000086002407D
:102170000460024070B50400FF2800D170BD00F07B
:1021800037F8094EA50033682000595900F0C4F80B
:1021900073685B191A68002A01D000221A600022B5
:1021A000B3685A51EAE7C046AC530000F8B50D4B8E
:1021B0001C680D4B1C60002C12D01F2601250B4FF4
:1021C0002000FEF707F82B00301A83409C437B6801
:1021D0008200D358002B01D0C0B29847002CEFD119
:1021E000F8BDC0465430024064300240AC53000099
:1021F000FF2803D001238340014A13607047C04683
:1022000074300240F0B5DE4657464E464546E0B5CE
:1022100087B0FFF707FD354B1A78002A5ED10122FF
:102220001A70FFF727FD002000F048FC03A8FFF715
:1022300017FD2F4C1521E3682E4A04932E4803AB5B
:10224000FFF7A6FC2D4B19782D4B187800239846E4
:102250000193814247D807339C46033B02279946A6
:1022600012E04D461D4206D001258D40AA46454646
:1022700056463543A846234DAA4665465244AB43CD
:102280001360013181422CD823688A009B58002BAF
:10229000F7DB1F42E5D101258D40019E2E4301252C
:1022A00001961D40FF2908D0EDB2AA46164D5646AC
:1022B000AB468B445D462E70DDE707229343134AFD
:1022C00013603200124B1A604246124B1A6007B07C
:1022D000F0BCBB46B246A946A046F0BDFFF7CAFC1B
:1022E000F5E7019AEEE71A00ECE7C046280A00205D
:1022F000AC530000AD2100000C0A0020BC530000CC
:10230000BD5300000031004000310240FC34004069
:102310000035024044300240F0B500291CDBFF28A4
:102320002ED0012407230E00250004229E43164BC5
:102330008540C3180A409B008F070FD40C401349F7
:102340008C461349604404700D60002A0ED0114A77
:102350001560114A15601E600020F0BD002A09D1E9
:102360000E4A15601E600E4B1D60F5E70B4A1560A6
:102370001E60F1E7074A1560074A15601E60F2E724
:1023800001204042E9E7C046400C00100031024005
:1023900010350240643002406C300240743002401C
:1023A00020350240FF2804D0024B9C4601236044A4
:1023B0000370704700330240FF2805D0034B9C4652
:1023C000012360440B4003707047C0460031024057
:1023D00070B5002918DBFF282BD0174BC418012338
:1023E0001D00A40085408E0710D4144E0B40B44647
:1023F00060440370124B1D604B0712D4114B1D60DB
:102400000723994311432160002070BD4B070CD472
:102410000C4B1D60072399430B4B114321601D603A
:10242000F2E70A4B1D600A4BE9E7084B1D60084BB9
:10243000EFE701204042E8E7400C00100031024085
:1024400010350240743002402035024064300240B2
:102450006C300240802302001B0270B51A40184203
:1024600017D0284B284A80211A600123274A890067
:102470001360274A27481360274A11600022274922
:102480000A600132FF3202600B60254B1A600020A7
:1024900070BDC3051BD5234B1B68002B24DB952087
:1024A0002149224E0C684000A5190B6085421BD8BB
:1024B0009D19854218D81B1B9533834214D880235D
:1024C00014489B020360164803600A60DFE780231C
:1024D0009B021842DBD0164A11680A290DD00A2146
:1024E00011600F4A1360D2E700220C4B1A600132D0
:1024F0001A600B4BFF321A60C9E70E4B0E4A0120DF
:102500001A60C5E710120040020200001C120040D1
:10251000C410004054100040181200400012004047
:1025200058100040081200402C0A0020351DE9FF19
:10253000C01000409C10004080841E80024B1A682E
:10254000024B1A607047C0464C20004054200040A7
:1025500070B5F024FFF766FBA0230F4964050A68F5
:102560001B0522409A4202D0FFF784FB70BD0B4E40
:102570000B4B35681D4080231B022B433360094DF4
:10258000094B1D600B6823409342FBD0064A136839
:102590005B005B081360E7E7F01000401C1100408F
:1025A000FF0FFFFF12000180A010004070B5012551
:1025B0001F4B1B681D4225D11E4C1F4B1F4E236015
:1025C0004220B36C98471E4B062023601D4C1E4BC7
:1025D0002360B36C984740221C4B1D491A60236846
:1025E0002B4323602368AB4323600B681A42FCD063
:1025F000144A184913680B40012113600C4A1368F0
:102600000B431360FFF70EFB0221134A13680B43C1
:102610001360124A53780133DBB25370FFF72AFB81
:1026200080230A4A1B0213600D4A136070BDC04626
:1026300084100040A81000400D0000804C00000FE6
:1026400011000080A01000400000038054100040E2
:1026500048100040FFFFFE7FF00A0020F40A00202F
:1026600058100040274B10B51A687F2319001140FD
:10267000120C13405B00994223D3234B1A68120BB0
:1026800012073DD5214A13685B005B081360204A9E
:1026900013685B005B08136000231360EFF3148280
:1026A0001C4C226083F314881B4B00201B68984746
:1026B000236883F31488FFF779FF0122174B1A7000
:1026C00010BD114A5B1A1268120B092BD8D9102BB6
:1026D000D8D90C231342D5D0012464420A4A1048A9
:1026E000136811681B041B0F1B191B0701401B0CEF
:1026F0000B43012113600B4A13688B431360C1E73E
:102700000124EBE7E81000401C110040A01000403D
:10271000A8100040300A00204C00000F9404002054
:10272000FF0FFFFF84100040554B70B5554A1C68E1
:10273000554B1C601460220466D40A231D002540FA
:1027400023424AD10825254236D1504D2B68002B13
:1027500003D020009847002800D170BD002301223B
:1027600004212B604A4B1A604A4A13680B431360DA
:10277000494B1C68002C0DD01025A3682B4206D0B5
:10278000002110202269E3689847002802D12468BC
:10279000002CF2D1FFF746FA404A5378013BDBB2F6
:1027A00053705378002B04D102213D4A13688B43A8
:1027B0001360FFF75FFAD0E7FFF734FA394A13687E
:1027C0005B005B081360802311681B060B431360DA
:1027D000FFF750FA344B1D60B7E70121334A136805
:1027E0008B431360324A334913685B005B08136004
:1027F0000A68314B1A4080231B0213430B60FFF71A
:10280000D5FE294B1D609DE780222C4D92021A6057
:102810002800FFF785F8002228000021FFF7DEF8E6
:10282000234B274A274D1A602B68002B03D098476B
:1028300000232B6081E7184B1D68002D0DD0082662
:10284000AB68334206D0002108202A69EB6898471C
:10285000002802D12D68002DF2D1FFF7E3F90F4ACD
:102860005378013BDBB253705378002B04D1022123
:102870000B4A13688B431360FFF7FCF95DE7C04612
:102880004C1000405C10004054100040FC0A002036
:10289000B01000402C000040B40A0020F40A0020D0
:1028A000F00A0020A410004058100040841000409E
:1028B000A01000401C110040FF0FFFFF500A002035
:1028C00011000380940A00202D4B70B51A78002A5D
:1028D00053D12C4A012451681C700800451EA841A0
:1028E000294B92681870294B29481960294B1321EC
:1028F0001A600023284AFFF74BF982200321C00009
:1029000002F028FA254B264A13201A60FFF794F9A3
:1029100000232021234A2448FFF73AF9234B244A75
:102920001C60244B24491C60244B1C6013681B0B47
:102930001B0313600A68224B1A4080231B021343B7
:102940000B60FFF761F80100FA204000FDF778FB0B
:102950001C4C020000231C492000FEF74DFFFFF72E
:1029600025FE2000FEF7FEFE8023184A1B06116894
:102970000B4313601022164B1A60002070BDC04636
:10298000BC0A0020C0530000BD0A0020C00A00207D
:10299000980A0020940A00202927000058100040BF
:1029A0000A8000003D250000340A00205820004025
:1029B00028110040602000401C11004060200240AF
:1029C000FF0FFFFF500A002051250000A410004017
:1029D000005800400022024B18781A707047C04619
:1029E000BD0A00200122014B1A707047BD0A002069
:1029F000014B18687047C046F00A0020054B10B51F
:102A00001B68002B04D0044A1278002A00D0984793
:102A100010BDC046C00A0020BD0A002010B5002825
:102A20000BD0002A09D00361054B8160C260010010
:102A30001800FFF727FB002010BD03204042FBE7F2
:102A4000B40A002010B5034B01001800FFF72CFB5F
:102A500010BDC046B40A002010B50400FFF7E2F82C
:102A60000123A340064A11680B431360054A135D16
:102A70000133DBB21355FFF7FDF8002010BDC0464F
:102A8000F00A0020F40A002010B50400FFF7CAF88D
:102A9000084A135D013BDBB21355135D002B05D1D2
:102AA0000122A24004490B6893430B60FFF7E2F850
:102AB000002010BDF40A0020F00A002070B50400C8
:102AC000FFF7B0F8FF2322001B0205001A401C424A
:102AD00012D1FF2312482340C15C4A1CD2B2C25417
:102AE000002904D101229A4013000E4A13602800E5
:102AF000FFF7C0F8002070BD80235B009A42F6D13A
:102B00000948013B2340C15C4A1CD2B2C25400298F
:102B1000EDD101209840002180B202F0E7F9E6E70C
:102B2000D00A002014000240C40A002070B504003E
:102B3000FFF778F8FF2322001B0205001A401C4211
:102B400011D1FF22124922408B5C013BDBB28B5436
:102B5000002B03D1012393400E4A13602800FFF796
:102B600089F8002070BD80235B009A42F6D1FF22D5
:102B7000094922408B5C013BDBB28B54002BEDD129
:102B800001209040002180B202F0E0F9E6E7C04663
:102B9000D00A002020000240C40A0020024B1B681B
:102BA0005B0700D430BF7047F00A002010B5012445
:102BB000194B1A4A1C601A4B1A60FFF733F80221AE
:102BC000184A13680B431360174A53780133DBB27A
:102BD0005370FFF74FF8FFF725F8144B1A6880235E
:102BE00011001B0219401A4212D1114B114A1A60EE
:102BF000114B023A1C60114B1C60114B1A60802370
:102C0000104A5B00116010490B6014600F4A13609A
:102C1000FFF730F810BDC04690100040552400006A
:102C2000FC0A0020F00A0020F40A002044100040B2
:102C300010120040020200001C120040C4100040AC
:102C4000181200400012004054100040581000407C
:102C5000F0B5C64601210400374A00B5136886B0B6
:102C60008B431360354B14221D68354B354901A841
:102C70001E6802F075FA0421334802F06BF8202038
:102C8000FEF782FF314B324A1B681268E31AB93BE8
:102C9000DB089B182F4A13602F4B1C689846002CAA
:102CA0000DD00127A3683B4206D0002101202269F4
:102CB000E3689847002806D12468002CF2D1FFF77A
:102CC000D1FC002703E0254B1F7001277F42012321
:102CD000234A20201360234A1360234B1B68FEF70E
:102CE00053FF1B21184802F035F8204A1368012BC6
:102CF000FCD1142201A9134802F032FA104B1E60D5
:102D00000E4B1D6002F052F943461C68002C0DD09A
:102D10000425A3682B4206D0002104202269E36821
:102D20009847002802D12468002CF2D1380006B060
:102D300080BCB846F0BDC04610E000E04420024030
:102D4000442102404C21024044040000042102407E
:102D50001820004028200040B40A002094040020DD
:102D60000C20004054200040002000404021024040
:102D7000084B01201A6803231340012B00D0704731
:102D8000054A06491268002009689201F7D5480CE7
:102D90001840F4E7C0100040E01000404810004028
:102DA0002C4A10B513881BB283421BDD2A4B841CAE
:102DB00063432A4CA34242DA294C1C19E3179B02B5
:102DC0009B0A1B19274C9B15A3423FDA2300264C74
:102DD0001B022340254C236010800420244A1368E2
:102DE00003431360234A13881BB28B421BDA1A4B2E
:102DF000881E43431948834216DA19481818C31726
:102E00009B029B0A1B1817489B15834213DA030089
:102E100015481B0203401848036011800821144A1A
:102E200013680B43136010BD144884460D48634477
:102E30009B158342EBDBFF2BEADDFF23E8E70F4C1A
:102E4000A446084C63449B15A342BFDBFF2BBEDDA9
:102E5000FF23BCE7980400203C553D000F0099FF7C
:102E6000F2FF460000FFFFFF00FF01005860004036
:102E700048600040960400205C600040F2FF86003D
:102E8000F822F0B54646D6464F463C4B1202C0B536
:102E90001A60FF2204213A4B1A803A4B1A688A437F
:102EA00085211A60384A49021160384A3849118030
:102EB0001A680931FF318A431A60364B1D689846FB
:102EC000354B1A68354BD20352155343344A93425B
:102ED0004ADD344A944663449F153FB2002D1AD010
:102EE00000239A462C000E23E65E2D68B74203DDD0
:102EF0000C23E65EBE420CDC21004046FFF7D4F80E
:102F000053462375A368310099463800230022698F
:102F1000C847002DE6D1FEF785FE43461B68040036
:102F20001B49FF20002B10D09A89151C12B2824237
:102F300000DD051CDA8928B2151C12B28A4200DABB
:102F40000D1C1B6829B2002BEED1FFF729FF2000D2
:102F5000FEF790FE0C23144A11680B401360E0BC8E
:102F6000BA46B146A846F0BD104A94466344DF17FE
:102F7000BF02BF0AFF18BF15AFE7C0465860004048
:102F800098040020486000405C60004096040020E7
:102F900000FFFFFF040B0020306000401CB2100057
:102FA000897A6B007785B4FF4C600040778574FFA9
:102FB00070B5FEF737FE0B4D04002B78002B03D0C5
:102FC0002000FEF757FE70BD01F058FA06490C20AC
:102FD00001F09AFA012205490B681A42FCD02A70C6
:102FE000EEE7C046000B0020812E00003460004058
:102FF0000B4B1A680B4BD203521553430A4A9342A8
:1030000005DD0A4A94466344981500B27047084AA1
:1030100094466344D8178002800AC0188015F4E7EC
:10302000306000401CB21000897A6B007785B4FFD5
:10303000778574FFF0B5C646904600B504001F00C2
:103040000E00FEF7EFFD4346394AA360237D0500DD
:10305000A681E2812761002B5ED036490B881BB226
:10306000B34218DD344BB01C43433448834245DB44
:10307000334884462E4863449B15834248DA030054
:1030800030481B0203403048036004200E802F4963
:103090000B6803430B602E490B881BB293421BDA6B
:1030A000254B901E4343254883421CDA29481818B3
:1030B000C3179B029B0A1B181D489B15834219DAF4
:1030C000030020481B020340234803600A800821B4
:1030D0001E4A13680B4313602800FEF7CBFD002047
:1030E00080BCB846F0BD16488446114863449B1521
:1030F0008342E5DBFF2BE4DDFF23E2E715481818E8
:10310000C3179B029B0A1B1809489B158342B6DB19
:10311000FF2BB5DDFF23B3E721001048FEF7B2FF18
:10312000012323750C23E65E0E23E25E95E7C0467D
:1031300000FFFFFF980400203C553D000F0099FF61
:10314000F2FF860000FF0100586000404860004028
:1031500096040020F2FF46005C600040040B002053
:10316000F0B5C64600B504001F000D009046FEF7FE
:1031700059FDFF23A3814346A360237D0600E5811B
:103180002761002B43D03A4A13881BB2FF2B32DC55
:10319000384A13881BB2AB421BDA374BA91E4B438C
:1031A00036498B421CDA36495918CB179B029B0AC9
:1031B0005B1834499B158B4219DA0B0032491B020C
:1031C0000B4032490B6008211580314A13680B43CC
:1031D00013603000FEF74EFD002080BCB846F0BD05
:1031E0002C498C46274963449B158B42E5DBFF2B1A
:1031F000E4DDFF23E2E7F823FF211B0226480360FA
:1032000011800421224A13680B431360C0E7210098
:103210002248FEF737FF0123154A23750C23E15E90
:103220000E23E55E13881BB29942B1DA124B881C5B
:1032300043431248834212DA11481818C3179B02FD
:103240009B0A1B180F489B15834203DB0E481B0289
:103250000340D3E703000C481B020340CEE70D48B0
:10326000844663449B15FF2B00DDFF231B02C5E74B
:1032700098040020960400203C553D000F0099FF63
:10328000F2FF460000FFFFFF00FF01005C6000400E
:1032900048600040F2FF860058600040040B0020A8
:1032A000F0B5C646984600B504000F001500FEF7BD
:1032B000B9FC4346A360069B06002361237DA781DA
:1032C000E581002B5ED0354A13881BB2BB4218DD66
:1032D000334BB91C4B4333498B4245DB32498C4657
:1032E000324963449B158B4248DA0B0030491B027C
:1032F0000B4030490B60042117802F4A13680B43A1
:1033000013602E4A13881BB2AB421BDA244BA91E52
:103310004B4324498B421CDA29495918CB179B028D
:103320009B0A5B1821499B158B4219DA0B00204937
:103330001B020B4023490B60082115801E4A1368AD
:103340000B4313603000FEF795FC002080BCB846AC
:10335000F0BD15498C46154963449B158B42E5DB4E
:10336000FF2BE4DDFF23E2E715495918CB179B0239
:103370009B0A5B180D499B158B42B6DBFF2BB5DD15
:10338000FF23B3E721001048FEF77CFE01232375DD
:103390000C23E75E0E23E55E95E7C0469804002007
:1033A0003C553D000F0099FFF2FF860000FFFFFF34
:1033B00000FF010058600040486000409604002073
:1033C000F2FF46005C600040040B0020020030B5B4
:1033D000034B32CB32C213CB13C213CB13C230BD5B
:1033E0007454000070B5056804002B7982B0012B7D
:1033F00001D902B070BDFEF715FC6423EA5C06003B
:10340000002A05D00022EA54AB7A2A67002B03D0A9
:103410003000FEF72FFCECE728000133AB727C3064
:10342000FEF760F82B79012BF2D10E204042AB6CF5
:10343000AA6FA96E0090DA302D582000A847E7E760
:10344000F8B5066804004768FEF7ECFB737A0500E0
:10345000002B03D12800FEF70DFCF8BD200000F082
:1034600095FC380000F002FC0021200000F016FF5F
:1034700000237372EEE7C046F0B54546DE46574678
:103480004E46E0B51F0043680600884615009B467F
:10349000046883B0002F01D000233B60002D00D1D1
:1034A00094E0FEF7CDFB0190FEF7BCFBE37981468B
:1034B000002B00D197E0E821625CD3B2002A00D053
:1034C00087E0012262544146EB32A1500432A550FC
:1034D0000432A5500832A350E3636373E372631CA4
:1034E000FF33180000219A46FDF778FF584600F098
:1034F000CDFE019B002B02D16379002B2AD0300036
:1035000000F0D0FB4846FEF7B5FB6379002B12D0E4
:10351000002F02D0FC23E3583B60E37A002B5DD1FF
:10352000637B002B4FD1002003B0F0BCBB46B246FA
:10353000A946A046F0BD50460C99FDF74FFF002864
:1035400001D001236373300000F0D6FCE823002291
:10355000E254DDE74846FEF78DFB73683468994610
:10356000636CDB0606D5226C1021924630000022E7
:10357000A36CD047FC239A46E258290042444846AF
:1035800000F092FE5346E2582D1A8218E250002DA8
:10359000F3D1484600F09CFE0028FAD0484600F0DF
:1035A00079FB636C9B0605D5002220213000A36CBB
:1035B000256CA847E8230022E254002FB3D014332F
:1035C000E3583B60AFE70D204042ADE70A204042A0
:1035D000AAE7FEF74FFB09204042A5E700230E2093
:1035E000E3724042A0E7FEF745FB0F2040429BE715
:1035F000F0B54546DE464E4657469846E0B5436828
:1036000087B00193434606008B4615000468002BE3
:1036100002D0002342461360002D00D17DE0FEF76A
:1036200001FBE3790700002B00D17EE0E821625C1A
:10363000D3B2002A00D073E0012262545946EB3223
:10364000A1500432A5500432A5500832A35001986D
:10365000E3636373E37200F019FE3800FEF70AFBC0
:10366000D0239A462C3399464346F427A244029627
:10367000039302E0E359002B25D0FEF7D3FA05A906
:103680008046504600F0B6FEE3590500060083422E
:1036900001D21D001E004B46E158320059440598E6
:1036A00001F05EFD3100504600F082FEE3594A46CB
:1036B0009B1BE3514B46E35840469B19A350FEF732
:1036C000D9FA002DD6DC039BFC279846029EFEF714
:1036D000A9FAE3590500002B14D1102600237642E5
:1036E0004246002A00D01360E82300222800E2545A
:1036F000FEF7C0FA300007B0F0BCBB46B246A946A0
:10370000A046F0BD019800F0C1FD300000F0CAFAFB
:10371000E3590026002BE3D1DFE70A267642E9E7EA
:103720000926FEF7A7FA7642E4E70F26FEF7A2FA8B
:103730007642DFE710B5046882B06479022C05D0C8
:10374000049C0094FFF798FE02B010BD049C009406
:10375000FFF74EFFF8E7C04610B5012482B064427F
:103760000094FFF7E7FF02B010BDC046F0B583B08C
:1037700006680400FEF756FAF37A0500002B16D00F
:10378000337A002B04D12800FEF774FA03B0F0BDA1
:10379000606800F09DFD0028FAD0606800F07AFAB9
:1037A000002301212000337200F078FDEBE70133A4
:1037B000F372200000F0A0FB7379022B1BD0E823EA
:1037C000F35C002BDCD07379002B1DD0012BD7D1FB
:1037D0000023E8220E20EC21B3540C32B3504042B7
:1037E0000832B36CB258715800905F30FF303758D0
:1037F0002000B847C4E7FC22B3581B1A3000B3506E
:10380000D03000F0A3FDDAE7701CFF30FDF76AFE50
:103810007379DBE77047C04610B55468012801D0C2
:10382000002010BD5223E15C606A4B425941084BB5
:1038300000229C46C0B26144FEF7CAFDE369012B39
:10384000EED1E06A00220349C0B2FEF7C1FDE7E70E
:10385000000400200104002030B583B00500684654
:103860000C00FEF7CBF834223521A85C695C484A8D
:10387000484B525C36211B5C695C1343464A206806
:10388000525C019913432A6B01F0DEFB2368434A23
:103890005A64192223685A63E369012B36D02268DF
:1038A0003F49136B0B401363E3692268012B3AD045
:1038B000136B3C490B4013635223E25C2368012ADB
:1038C0003ED0022A08D106211A6B0A431A635322FA
:1038D0002368A25C1A6223681021DA6A0A43DA625A
:1038E00022680F39136B0B4313635623E35C002BE1
:1038F00004D022683F31136B0B431363E36B002B3F
:1039000002D0A36B002B21D103B030BDA36AFF2BE3
:10391000C5D0802322681B02116B0B431363E3693C
:103920002268012BC4D1E36AFF2BC1D08023116B25
:10393000DB010B4313635223E25C2368012AC0D1ED
:1039400002211A6B0A431A632368C5E72568FEF74C
:1039500069F90122AB6C9343AB64FEF78BF9E36B1F
:10396000114A02211360114A1360E06B01F0BEFBA3
:10397000A06B022101F0BAFB5523E06DE15C01F080
:10398000E3F95423A06DE15C01F0DEF9BCE7C04629
:10399000A0540000A454000098540000F237000026
:1039A000FF7FFFFFFFBFFFFF2C6002400465024066
:1039B00010B51400042801D0002010BD5168106813
:1039C000FFF74AFF64680221606A226CC0B2FEF70A
:1039D000FFFC206A626C0A49C0B2FEF7F9FCE36999
:1039E000012BE9D1A06AA26C0549C0B2FEF7F0FC38
:1039F000E06A0221E26CC0B2FEF7EAFCDCE7C046F6
:103A00000200046070B50400466824493268056805
:103A1000936B0B409363FFF7A9FE2000FFF7E2FCD6
:103A20002000FFF70DFD306801F034FB00236468CF
:103A30002B72606AC0B2FEF79DFB206AC0B2FEF72F
:103A400099FBE369012B1FD028001430FEF7E0F842
:103A5000681CFF30FDF7BCFC28007C30FDF7B8FC8B
:103A600028005930FF30FEF7EDFF28006D30FF30A1
:103A7000FEF7E8FF5023F05AFFF758F81120FFF740
:103A800055F80023EB7170BDA06AC0B2FEF772FB5F
:103A9000E06AC0B2FEF76EFBD6E7C0460DC8FFFF76
:103AA000F0B5C64600B5694B0D001B7884B0834263
:103AB00000D8AFE0664BC000C21890465768C458A3
:103AC000002900D1A9E02B78012B00D19EE06B7872
:103AD000012B03D1AB68002B00D19BE0FEF7A2F8CD
:103AE000E679002E00D09EE00123E371FEF7C2F8D4
:103AF0000023A660E681637426602A88A2802A7D5E
:103B0000A271CC226968A150A9688432A1502969A8
:103B1000EA686164A96922642163A98BA1863621C0
:103B2000A87F6054296AA164EC2166500831A6661A
:103B300066500439266766500831E666A663E66378
:103B4000666766509439635484316354002A66D0A2
:103B50005023F85AFEF7B2FF1120FEF7AFFF200006
:103B60003A69F9684C3000F0B9FB2000BA6979690C
:103B7000D03000F0B3FB386801F08CFA43462000E7
:103B80005968FFF769FE43465D680221686A2A6C3E
:103B9000C0B2FEF71DFC286A6A6C2E49C0B2FEF75F
:103BA00017FCEB69012B43D020005930434601211B
:103BB000294AFF30FEF732FF20006D3043460421D2
:103BC000264AFF30FEF72AFF01A8FEF749F84346D0
:103BD000200001933B7A224A79680293143001ABAA
:103BE000FDF7D6FF200000217C30FDF7AFFB601C05
:103BF0000021FF30FDF7AAFB7A6B3B6813603A6B3C
:103C00005360404604B080BCB846F0BD6B68002BE2
:103C100000D05CE700239846F3E7124D53E7124BC0
:103C20006264236494E7FEF725F800239846E8E7EA
:103C3000A86AAA6C0749C0B2FEF7CAFBE86A02216B
:103C4000EA6CC0B2FEF7C4FBAEE7C04634540000D5
:103C50002C5400000200046019380000B139000043
:103C60007D3F0000745400001538000002680649CA
:103C7000936B0B4093630368044A05495A640268D6
:103C8000136B0B40136370472FD8FFFFD027000042
:103C9000FFFDFFFF02680249136B0B40136370477F
:103CA000FFFEFFFFF0B5F82604680500A35983B0B6
:103CB000002B52D163794768022B55D0F423FC22A4
:103CC000E058083BE358A258A0519B1801930028E4
:103CD00043D03A682849936B0B409363636CDB06CF
:103CE0000CD5266C002E09D0237A002B06D1280093
:103CF000A36C00221021B047F823E0588023DB009A
:103D000098422CD81D4B013801011940019A3B6B98
:103D100012181A601A4AB86B9A609A680A439A6035
:103D2000012101F0C9F9BA6B164B1A603D68FDF725
:103D300079FF0222AB6C1343AB64FDF79BFF80233A
:103D40003A685B01916B0B439363237A002B04D198
:103D50000120FEF781FE0123237203B0F0BDF8229B
:103D600006490948A350D1E7200001A9D03000F04E
:103D7000D9FAA051ABE7C046FFF7FFFFF03F0000C4
:103D8000014000C028600240FF03000070B50468D5
:103D9000636F002B00D170BD4568174BEA6B1A604A
:103DA0002E68FDF73FFF0122B36C9343B364FDF728
:103DB00061FFEA6B114B12491A602A68686B936BBA
:103DC0000B40936380222B6892015A6401F0A8F99A
:103DD000626FE37C111A002B09D1236F9B1A1B1809
:103DE0002367A36F5B18A36700236367D3E72000F3
:103DF0004C3000F0DDFAF7E72C6002400465024029
:103E0000FFDFFFFFF0B5CE46474680B50468456842
:103E1000637A6E6B83B0002B04D103B0C0BCB9468B
:103E2000B046F0BD2700FFF7B1FF636F4C37002BA2
:103E300035D1A36E002B02D0236F002B2FD1380079
:103E400001A900F0D7FA01236067E3740028E4D0E9
:103E50000023A3738023DB00984241D8013802017C
:103E6000019B01211B1873601F4BE86BB360B368A3
:103E70001343B36001F020F9EA6B1C4B1A602C6805
:103E8000FDF7D0FE0122A36C1343A364FDF7F2FEFD
:103E900080232A689B01916B0B439363BDE7380035
:103EA00000F03EFA236F98469842C8D22379022B3D
:103EB000C5D0A36E002BB0D0380000F031FA4346D5
:103EC000181AA36E60679846A36F3800994600F0F1
:103ED00027FA0023484440440190E374606FB5E73B
:103EE000034A04486367BBE70180000C2860024076
:103EF000F03F0000FF030000F8B5F8260568AC5954
:103F0000002C01D12000F8BD4468194BA26B1A6047
:103F10002768FDF787FE0222BB6C9343BB64FDF765
:103F2000A9FEA26B134B14491A602268206B936B95
:103F30000B4093638022236852015A6401F0F0F829
:103F4000AA596B790400111A022B0CD0FC202B58B3
:103F50005B18F4212B506B589B1A1B196B50F823DC
:103F60000022EA50CEE72800D03000F0C1F9F6E791
:103F70002C60024004650240FFEFFFFFF0B54546AC
:103F80005746DE464E464368E0B598461B680768CC
:103F90001C6C05005C64F023DB0087B01C4228D059
:103FA0003B6C9A46002B24D043461B68620500D523
:103FB000D1E00F265B681E407B6C334018009946A9
:103FC000FCF708F980231B06C34049464A461940BE
:103FD0001A4205D03B6899464A462800BB6CD04738
:103FE0003000FCF7F7F880231B06C34033405B42E8
:103FF000BB6381239B011C4238D1E30404D5F82321
:10400000FB58002B00D08CE0240528D543461C68C3
:1040100008222100183110000B6818401A42FAD10A
:10402000236B984A134023633B7A002B0ED07B6CA2
:1040300038729B0607D53C6C002C04D0002220214E
:104040002800BB6CA0470120FEF71EFD43461A68FE
:104050008D49936B0B4093637B79002B5CD007B049
:10406000F0BCBB46B246A946A046F0BD6B6828002E
:1040700099462E68FFF78AFE40231A0022400392D9
:10408000234227D0F37C002B00D1B4E06B689A4622
:104090001B689A69D2061DD4316D726D881A8146EB
:1040A000914217D02A684C3202921022934602E0C5
:1040B0004A46002A0ED019680298C9B200F054F995
:1040C00001235B429C46534659461B68E1449A696A
:1040D0001142EDD06423F35C002B19D03379022B0D
:1040E00016D0B279012A00D1C6E0326F002A0FD172
:1040F00000206422B16EB0543067B066012B00D04E
:10410000B5E0B36CB26F0090CC3036582800B047A1
:104110002800FFF777FE70E7781CFF30FDF7E2F923
:104120009DE76B682E6828009946FFF7E5FE28009A
:10413000FFF7B8FD7379012B00D180E0F823F35825
:10414000002B00D060E74B461A688023916B1B015F
:104150000B43936358E718007A6D3E6D1830B61A1A
:104160009A69D20617D4002E15D04C2292463C3ABA
:104170009146BA4401E0002E0DD019685046C9B2EC
:1041800000F0F2F843461B68494618009A69013E60
:1041900018301142EFD002AEB4460F21026810264B
:1041A0006144D20606D41A68D2B20A700A7802684C
:1041B0001642F8D03A68013291463A60BA7B002A3A
:1041C00001D10122BA730F265B681E407B6C33401D
:1041D00018009A46FBF7FEFF80231B06C34051469A
:1041E000524619401A4200D1FAE63B6C9A46002B1F
:1041F00000D1F5E6F0E64B461A689369DB0600D578
:1042000068E71021336F0EE01068B36FB26ED054C0
:104210004A46B36F12680133B367336F9069013B4D
:104220003367014201D1002BEED1F37C002B00D08B
:104230002CE76423F35C002B00D04FE768E7F333EF
:10424000F058002800D079E70C3BF25C002A00D13E
:1042500074E7FC22EC21F054B258B36C7158009012
:104260005130FF30305882462800D04766E7300092
:104270007C30FDF737F94BE7039A002A00D037E787
:1042800033E7C046FFFEFFFFFFF7FFFF8023026812
:104290005B00116B0B4313637047C04610B50120E0
:1042A000FEF7F2FB10BDC04670B500230600080003
:1042B0002021002805D109E0D55C01332560984212
:1042C00004D03468A5692942F6D0180070BDC046F4
:1042D000036801209B69DB08984370470023426014
:1042E000013A01608360C260036143617047C04668
:1042F000F8B504000E00FDF795FCA36807001D004B
:10430000B34200D9350020695B1B6168A36028189F
:10431000FBF71CFF38002161FDF7ACFC2800F8BD5D
:104320008068704770B504000E00FDF77BFC2269C1
:104330006568A368AD1A9D4200D91D0023689B18CB
:104340003360FDF797FC280070BDC04610B504002F
:10435000FDF768FC00226368A260013BE360226114
:10436000FDF788FC10BDC04670B504000E00FDF7D7
:1043700059FC6168A36805008B4214D0E0680130E5
:10438000FBF7E4FE23685E54A36862690133E160D1
:10439000A3609A4205D328006261FDF76BFCA06818
:1043A00070BD1A00F7E7FDF765FC01204042F7E712
:1043B000F0B5C646040000B50F00FDF733FC616898
:1043C000A56880464E1BBE4200D93E00E0687519C4
:1043D000A5603018FBF7BAFE6369E160AB4200D21A
:1043E0002B0040466361FDF745FC300080BCB846B9
:1043F000F0BDC046F8B505000F00FDF713FC6C6872
:104400000600E86821000130FBF7A0FEAA68631AE5
:10441000A41A9C4200D91C002B6830005B183B603A
:10442000FDF728FC2000F8BD0E4B10B51C680E4BA4
:104430001B6818002040234204D00C4B1B68002B43
:1044400000D098470A4B1B6818002040234204D034
:10445000084B1B68002B00D09847074B1868FDF7E6
:1044600093FB10BD4C600040100B0020180B002087
:10447000140B00201C0B002090530000F0B5CE461A
:10448000474680B585B0FDF7CDFB184E0400357862
:10449000002D07D02000FDF7EDFB05B0C0BCB946EC
:1044A000B046F0BD124B02219946986801AF00F06A
:1044B00051FC3800FDF7D4FB4B465B680D4A029374
:1044C000012398463B724B460B4819683B00FDF7A9
:1044D0005FFB03220421094B1D60094B1A60094A46
:1044E00013680B43136043463370D3E70C0B002073
:1044F0009053000029440000200B00204860004039
:10450000006000400058004070B505000C00FDF749
:1045100089FB034B1D60034B1C60FDF7ABFB70BDBB
:10452000140B00201C0B0020F0B5DE4657464E460B
:104530004546E0B581460F00934691B0002A00D170
:10454000C2E3511C1278002A00D1CCE3049300236B
:104550000193524B05005E4605930CE0012F02D9F2
:104560002A70013F01350E00019B0133019332781F
:10457000711C002A62D0252AF0D173782D2B58D0D7
:104580000021B21C039100210291302B03D1013193
:10459000137802910132561C2A2B26D1049908C99E
:1045A000984613784246002A03DA52429046012286
:1045B00003922E2B30D0012252429246029A002AB8
:1045C00001D0424602921A00202082434C2A01D197
:1045D00033780136642B63D01A00633AD2B2152ABD
:1045E0003BD80598920082589746002188461900CA
:1045F0003039160009290CD841468A005218520059
:10460000D118337830391A00303A0136092AF4D9F2
:10461000884604992E2BCED133782A2B27D108C96E
:104620009A46DB435246DB171A40924673780236AD
:10463000C4E70121B378F21C0391A4E7A9464B46D5
:10464000002B02D000234A461370019811B0F0BC31
:10465000BB46B246A946A046F0BD012F02D92B7039
:10466000013F0135019B0491013301937FE7002253
:1046700092461A000136303A30005446092A9DD835
:10468000A20012195200D4180378303C1A00303AB4
:104690000130092AF4D9A24606008FE7C45400006D
:1046A0000A0008CA0492029A524500DA5246002BC8
:1046B00000DA0CE39946002306938C4B10AC9A4623
:1046C0004346A84625004C46B9465746B246029393
:1046D000089220000A21FBF739FD7B5CAB46013DC7
:1046E00020000A212B70FBF7ABFC26000400092EEA
:1046F000EFD82C00029B4546089A984610AB1B1B2E
:104700004F46564699460293934263DA10ABE11A3C
:1047100005235B425B449C460323604689180340A3
:10472000481E0891052800D8F7E2A246002B17D0B2
:104730003021601E894601706146880700D4B9E2C5
:104740004946A01E0170032B00D0D1E2042149424A
:1047500059448A464946E01E017002990331894650
:1047600008996348C91A8C46E31A8908043B8900F2
:10477000591A1860043B8B42FBD103236146504613
:104780009943401A894461460B4220D03021431E90
:1047900019704B4601339A4219DD831E19704B463E
:1047A00002339A4213DDC31E19704B4603339A42FB
:1047B0000DDD031F19704B4604339A4207DD431F7A
:1047C00019704B4605339A4201DD06380170029B91
:1047D0009A1AA418069B002B02D02D23013C2370AB
:1047E00010AB181B43461B1A9C46039B421E002B12
:1047F00000D01CE16346013B00D581E220219146B7
:104800008846012F09D94246013F691C2A70013BA5
:1048100000D228E20D00012FF5D84A46019B6344DF
:10482000019301235B42002800D1A0E69C46A11819
:10483000012F0AD92378013F681C2B708C4200D1CC
:104840000FE205000134012FF4D8019B0133D31886
:104850000193039B002B00D189E66346013B00D501
:1048600085E62020012F05D96A1C2870013F15001C
:10487000013BF7D2019B6344019378E60A0008CA22
:104880000F210492194A10AC10000A001A40825CF1
:10489000013C22701A001B090F2AF6D810AB1B1B13
:1048A000072B1CDC3022611E0A70072B15D0A11EBD
:1048B0000A70062B11D0E11E0A70052B0DD0211FA6
:1048C0000A70042B09D0611F0A70032B05D0A11FA9
:1048D0000A70012B01D1E11F0A70083BE418402344
:1048E000013C237010AB181B421E99E0B05400002D
:1048F0003030303008239B460B0004CB0493029BDE
:1049000091469C46534500DAD446D84B29009A4636
:1049100043463200029353464D465E46BA46E04651
:104920001F009346894610AC28003100FBF70EFCAF
:104930007B5C2200013C23702B000500B342F3D2C4
:10494000C446029B5E46984610AB181B4D46574620
:1049500083460692844562DDE31A63449946130058
:10496000053B9A46032351460B4049460139052928
:1049700000D8BBE10294002B15D03022611E934673
:104980000A705246910700D4A7E15A46A11E0A7048
:10499000069A032B00D088E15946043A0292E21E9F
:1049A0001170C21C93464A46D21A9146E31A9208E5
:1049B000043B9200AE499A1A1960043B9A42FBD11B
:1049C00003234A4602999A43891A93444A4613425A
:1049D00020D030224B1E1A705B4601339C4519DDF6
:1049E0008B1E1A705B4602339C4513DDCB1E1A707A
:1049F0005B4603339C450DDD0B1F1A705B46043389
:104A00009C4507DD4B1F1A705B4605339C4501DD55
:104A100006390A706346C01A241810AB181B421ED0
:104A200043461B1A9C46039B002B00D1E2E600285C
:104A300000D0FCE611E70B0010CB0493002C00D152
:104A400040E12000FCF734FB53460133E7D05045EA
:104A5000E5DD5046E3E70723073199430B000022C9
:104A600003CB0493002306900791FBF78BFB0028F0
:104A700000D007E10023089306980799FCF7A8FAED
:104A80008146FCF7DBFA02000B0006980799FBF75A
:104A900057FF784B0022FBF7E1FCFBF7B9FB10ABAB
:104AA0009B46724B04009A46434606935346A846DB
:104AB000BA465D461F00B34620000A21FBF746FBBD
:104AC0007B5C013D20000A212B70FBF7B9FA260020
:104AD0000400092EF0D85E46AB46069B4546984634
:104AE0003B005A4657469A4610AB9A1A032A0DDCE9
:104AF0005B463020591E0870032A05D0991E0870A5
:104B0000012A01D1D91E0870043A93445B462E2233
:104B10005C1E10AB22701A1B029B9B1A0693434625
:104B2000A84625004C46B9465746B2460993200090
:104B30000A210295FBF70AFB7B5C013D20000A215C
:104B40002B70FBF77DFA26000400092EEFD8099B95
:104B50002C00454698465B4606991B1B5A1E4F463D
:104B600056469B4691460992914260DD891A029A07
:104B7000053A9446032260460240481E052800D8A4
:104B8000D6E0A246002A19D03023601E9946037051
:104B90006346980700D4B8E04B46A01E0370029B02
:104BA000032A00D0BBE004204042844663449A4676
:104BB0004B46E01E03705B4602339946891A8B0808
:104BC000A21A043A9B002A48D31A1060043A93426E
:104BD000FBD103230A0050469A43801A91440B42AA
:104BE00021D03022431E1A704B4606990133994258
:104BF00019DD831E1A704B460233994213DDC31E22
:104C00001A704B46033399420DDD031F1A704B4651
:104C10000433994207DD431F1A704B46053399420E
:104C200001DD06380270099B069A9B1AE418089B5E
:104C3000002B00D1D4E5D0E50A0008CA0CAC0492E0
:104C40000CAA137001235B4243449C46039B002241
:104C5000002B00D0EBE54346023B00D5E6E5012002
:104C6000CCE50500F1E54A460D00D7E5B05400005B
:104C7000303030300088C34010239B463CE60A2386
:104C80009B4639E680220698079912060B00944647
:104C900063440A900B930A9B0B9C06930794029B18
:104CA000013B029301230893E6E6033A0292821C39
:104CB000934678E60221494259448A4602990131D5
:104CC00089464DE51B4CBCE600230193BDE45B42E5
:104CD00099462D23013A0693EFE4069A023A02928E
:104CE000421C93465FE600230193A8E4210070E68E
:104CF0000321494259448A460299023189462FE5E7
:104D00009C46002800D092E531E4022040428446CF
:104D1000029BD94663449A4650E7200036E50320BB
:104D20004042844663449A465B460133994645E7D0
:104D3000200056E7A854000010B5FFF7F5FB10BDA2
:104D40000138FDD17047C046014BC3181960704748
:104D500000500240024B9C46604401607047C046D0
:104D600000500240FEE7C046094B70B59A68094EF4
:104D7000964209D09A68002320CA9C00013335511D
:104D8000232BF9D1024B9E608000315070BDC0468C
:104D900000ED00E000000020024B034A8000C250FA
:104DA0007047C04600000020654D00003F23F0B56D
:104DB00099430F281BD80400FF25083C3C3B2340A7
:104DC000DB009D40A2080F283BD11F4802268446E5
:104DD00099401E489200076804686244B443046026
:104DE0001468AC43214311603E421DD1F0BD032342
:104DF000FF2510380340DB009D4082081F2817D88C
:104E0000134C9940A4460124844020008024114E74
:104E100092003768624430511468AC4321431160FA
:104E20003842E3D03060E1E7036833430360DDE7F5
:104E300007489940920082181068A8430143116006
:104E4000D4E70148F5E7C0461CED00E010E000E0C3
:104E500000E400E000E100E00F2807D010381F2830
:104E600003D801238340044A136070470221034A98
:104E700013680B431360F8E700E100E010E000E086
:104E80000F2808D010381F2804D80123802283401F
:104E900004498B5070470221034A13688B43136007
:104EA000F8E7C04600E100E010E000E00E2812D074
:104EB0000F2809D010381F2805D80123C0228340AD
:104EC000084952008B5070478023074A9B04516861
:104ED0000B435360F7E78023034A1B0551680B43DC
:104EE0005360F0E700E100E000ED00E0124A012924
:104EF00003D84900535A18435052138852880F4917
:104F0000134302220868024209D001211800884395
:104F10000B490860002B01D10A4B1A607047002B27
:104F2000FCD00948026002200A681042FCD001222D
:104F30009343034A1360F1E73C0B00200C0002404E
:104F4000040008402000024014000240124A0129D7
:104F500003D84900535A83435352138852880F4948
:104F6000134302220868024209D001211800884335
:104F70000B490860002B01D10A4B1A607047002BC7
:104F8000FCD00948026002200A681042FCD00122CD
:104F90009343034A1360F1E73C0B00200C000240EE
:104FA0000400084020000240140002400F4A10494B
:104FB00013885288086813430222024209D0012153
:104FC000180088430B490860002B01D10A4B1A6076
:104FD0007047002BFCD00948026002200A6810428A
:104FE000FCD001229343034A1360F1E73C0B0020FD
:104FF0000C0002400400084020000240140002405F
:105000009C22CC23D2059B00D35C032B0BD9084BED
:105010001B78DBB2FC2B05D9064B074A1A60074BFD
:10502000074A1A607047074B1B78DBB2F2E7C046AD
:105030002F03004E18110040E3887F091C11004027
:10504000E3387F49AF03004EF0B50500C6462F0098
:10505000080098461100082600B518373C6826421B
:10506000FCD11022EB6AC0009343EB622B6B084A21
:1050700013402B63FAF7E4FF0130C3096B62434628
:105080004006800EA862EB6280BCB846F0BDC04608
:10509000FEFCFFFF0100082218310B681A42FCD108
:1050A0001022C36A9343C362036B024A1340036333
:1050B0007047C046FEFCFFFFCB0701D5074B1860C9
:1050C0000B0701D5064B18608B0701D5054B1860FF
:1050D000490701D5044B18607047C046186002406C
:1050E000206002403060024038600240CB0701D5AA
:1050F000074B18600B0701D5064B18608B0701D5CD
:10510000054B1860490701D5044B18607047C0462D
:105110001C60024024600240346002403C60024057
:105120008268044B100018401A4201D00009013077
:105130007047C046F73F000010B5034B01001868E8
:1051400000F062F810BDC0469C04002010B5034B6F
:105150000100186800F00EF810BDC0469C04002045
:10516000002310B59A4200D110BDCC5CC454013369
:10517000F8E7000070B50500002910D00C1F236867
:10518000002B00DAE418280000F0AEF81D4A13687E
:10519000002B05D163601460280000F0A6F870BDF4
:1051A000A34209D9216860188342F3D118685B686B
:1051B00041182160EEE713005A68002A01D0A2428C
:1051C000F9D919685818A0420BD120680918581845
:1051D00019608242E0D110685268411819605A6023
:1051E000DAE7A04202D90C232B60D5E721686018CA
:1051F000824203D1106852684118216062605C608D
:10520000CAE7C046400B0020032370B5CD1C9D4368
:10521000083506000C2D1ED20C25A9421DD83000E1
:1052200000F062F8254A14682100002919D1244CA5
:105230002368002B03D1300000F044F820602900DF
:10524000300000F03FF8431C2BD10C2330003360BA
:1052500000F04BF803E0002DDFDA0C233360002070
:1052600070BD0B685B1B19D40B2B03D90B60CC18DA
:10527000256003E04B688C420DD11360300000F0D4
:1052800034F8200007220B30231D9043C31AE7D0C7
:105290005A42E250E4E763600C00EFE70C00496813
:1052A000C3E70323C41C9C43A042E1D0211A300071
:1052B00000F008F8431CDBD1C7E7C046400B0020D4
:1052C000440B0020002370B5064C05000800236045
:1052D00000F00CF8431C03D12368002B00D02B6096
:1052E00070BDC046D80D002070477047044A13684F
:1052F000002B00D1034B1818106018007047C046EF
:08530000480B0020DC0D002029
:105308001406000016050000160500003408000009
:1053180010050000100500001C08000034080000FB
:10532800100500001C0800001005000034080000EB
:105338002A0800002A0800002A080000380800008F
:1053480054656D7065726174757265206E6F7469ED
:1053580066792064656D6F207374617274696E6715
:105368002E00000043757272656E742074656D704E
:10537800657261747572653A202564206465677288
:10538800656573204300000012000000FFFFFFFF67
:105398000C040000545400007C0B00203C54000016
:1053A8000100000020040020080D0020700D0020DE
:1053B800FFFFFFFF0019000000000000991C00001B
:1053C80000000000004003401B000000FF00000038
:1053D8000009002020000000200900202000000013
:1053E800000000001600000014000000FF0000008C
:1053F800FF0000001004002000040020020000004C
:10540800010000000200000002000000000000008F
:10541800000000000200000806070000040C00005D
:10542800000C0000880B0020CC5300000100000095
:10543800000400200000000000C20100FFFFFFFF81
:10544800000500200004000003000000AD1F00005C
:10545800C51F00006D200000B11F000005200000DE
:1054680055200000B51F0000BD1F0000000000000F
:105478000000000000000000000000000000000024
:105488000100000000C2010003000000000000004D
:10549800000602868200000000080000002040602C
:1054A800286E756C6C29000030313233343536374C
:1054B800383961626364656600000000384C00009A
:1054C8005A4600005A460000564A00005A46000054
:1054D8005A460000A04600005A4600005A460000FE
:1054E8005A4600005A4600005A460000F448000098
:1054F8007C4800005A4600005A460000364A000020
:105508005A4600007E4C00005A4600005A460000E9
:04551800784C0000CB
:10551C000200000002000000020000000200000077
:10552C000200000002000000020000000200000067
:10553C000200000002000000020000000200000057
:10554C000200000002000000000400200004002003
:10555C00000000800000008002000000020000003B
:10556C000104002002000000022004600200000080
:10557C00020000000200000000000000FD290000F5
:10558C000E000000010000FFFF000000A00400203E
:10559C0000000000000000000000000000000000FF
:1055AC0000000000000000000000000000000000EF
:1055BC0000000000000000000000000000000000DF
:1055CC0000000000000000000000000000000000CF
:1055DC0000000000000000000000000000000000BF
:1055EC0000000000000000000000000000000000AF
:020000044E02AA
:10000000FFFFFFFF0000000000000000FFFFFFFFF8
:10001000FFFFFFFFFFFFFFFFAAAAAAAA0000000040
:10002000FFFFFFFFFFFFFFFF00000000FFFFFFFFDC
:1000300000000000000000F00000000000000000D0
:1000400000000000000000000000000000000000B0
:1000500000000000000000000000000000000000A0
:100060000000000000000000000000000000000090
:100070000000000000000000000000000000000080
:10074000000000000000000000000000B7DF14B748
:100750000000000000000000000000000000000099
:100760000000000000000000000000000000000089
:100770000000000000000000000000000000000079
:100780000000000000000000000000000000000069
:100790000000000000000000000000000000000059
:1007A0000000000000000000000000000000000049
:1007B0000000000000000000000000000000000039
:1007C0000000000000000000000000000000000029
:1007D0005AA500000101020305080D156DD7E43686
:1007E000EBF431DF95AE15EE03BA8EE4C4C63FD804
:1007F000453F675E74D7C2012C9058E5A2947252AF
:0400000300001DC11B
:00000001FF
